{
  "_format": "hh-sol-artifact-1",
  "contractName": "LiquidUnstakePool",
  "sourceName": "contracts/LiquidUnstakePool.sol",
  "abi": [
    {
      "inputs": [],
      "name": "AssetsTooLow",
      "type": "error"
    },
    {
      "inputs": [
        {
          "internalType": "uint256",
          "name": "_minAmount",
          "type": "uint256"
        },
        {
          "internalType": "uint256",
          "name": "_amountSent",
          "type": "uint256"
        }
      ],
      "name": "DepositTooLow",
      "type": "error"
    },
    {
      "inputs": [],
      "name": "InvalidSwapFees",
      "type": "error"
    },
    {
      "inputs": [
        {
          "internalType": "address",
          "name": "_caller",
          "type": "address"
        },
        {
          "internalType": "address",
          "name": "_authorized",
          "type": "address"
        }
      ],
      "name": "NotAuthorized",
      "type": "error"
    },
    {
      "inputs": [
        {
          "internalType": "uint256",
          "name": "_ethRequested",
          "type": "uint256"
        },
        {
          "internalType": "uint256",
          "name": "_availableETH",
          "type": "uint256"
        }
      ],
      "name": "RequestedETHReachMinProportion",
      "type": "error"
    },
    {
      "inputs": [],
      "name": "SharesTooLow",
      "type": "error"
    },
    {
      "inputs": [
        {
          "internalType": "uint256",
          "name": "_minOut",
          "type": "uint256"
        },
        {
          "internalType": "uint256",
          "name": "_amountOut",
          "type": "uint256"
        }
      ],
      "name": "SwapMinOut",
      "type": "error"
    },
    {
      "anonymous": false,
      "inputs": [
        {
          "indexed": true,
          "internalType": "address",
          "name": "user",
          "type": "address"
        },
        {
          "indexed": true,
          "internalType": "address",
          "name": "receiver",
          "type": "address"
        },
        {
          "indexed": false,
          "internalType": "uint256",
          "name": "amount",
          "type": "uint256"
        },
        {
          "indexed": false,
          "internalType": "uint256",
          "name": "shares",
          "type": "uint256"
        }
      ],
      "name": "AddLiquidity",
      "type": "event"
    },
    {
      "anonymous": false,
      "inputs": [
        {
          "indexed": true,
          "internalType": "address",
          "name": "owner",
          "type": "address"
        },
        {
          "indexed": true,
          "internalType": "address",
          "name": "spender",
          "type": "address"
        },
        {
          "indexed": false,
          "internalType": "uint256",
          "name": "value",
          "type": "uint256"
        }
      ],
      "name": "Approval",
      "type": "event"
    },
    {
      "anonymous": false,
      "inputs": [
        {
          "indexed": true,
          "internalType": "address",
          "name": "sender",
          "type": "address"
        },
        {
          "indexed": true,
          "internalType": "address",
          "name": "owner",
          "type": "address"
        },
        {
          "indexed": false,
          "internalType": "uint256",
          "name": "assets",
          "type": "uint256"
        },
        {
          "indexed": false,
          "internalType": "uint256",
          "name": "shares",
          "type": "uint256"
        }
      ],
      "name": "Deposit",
      "type": "event"
    },
    {
      "anonymous": false,
      "inputs": [
        {
          "indexed": false,
          "internalType": "uint8",
          "name": "version",
          "type": "uint8"
        }
      ],
      "name": "Initialized",
      "type": "event"
    },
    {
      "anonymous": false,
      "inputs": [
        {
          "indexed": true,
          "internalType": "address",
          "name": "previousOwner",
          "type": "address"
        },
        {
          "indexed": true,
          "internalType": "address",
          "name": "newOwner",
          "type": "address"
        }
      ],
      "name": "OwnershipTransferred",
      "type": "event"
    },
    {
      "anonymous": false,
      "inputs": [
        {
          "indexed": true,
          "internalType": "address",
          "name": "caller",
          "type": "address"
        },
        {
          "indexed": true,
          "internalType": "address",
          "name": "owner",
          "type": "address"
        },
        {
          "indexed": false,
          "internalType": "uint256",
          "name": "shares",
          "type": "uint256"
        },
        {
          "indexed": false,
          "internalType": "uint256",
          "name": "eth",
          "type": "uint256"
        },
        {
          "indexed": false,
          "internalType": "uint256",
          "name": "mpETH",
          "type": "uint256"
        }
      ],
      "name": "RemoveLiquidity",
      "type": "event"
    },
    {
      "anonymous": false,
      "inputs": [
        {
          "indexed": false,
          "internalType": "uint256",
          "name": "timestamp",
          "type": "uint256"
        },
        {
          "indexed": false,
          "internalType": "uint256",
          "name": "amount",
          "type": "uint256"
        }
      ],
      "name": "SendETHForValidator",
      "type": "event"
    },
    {
      "anonymous": false,
      "inputs": [
        {
          "indexed": true,
          "internalType": "address",
          "name": "user",
          "type": "address"
        },
        {
          "indexed": false,
          "internalType": "uint256",
          "name": "amountIn",
          "type": "uint256"
        },
        {
          "indexed": false,
          "internalType": "uint256",
          "name": "amountOut",
          "type": "uint256"
        },
        {
          "indexed": false,
          "internalType": "uint256",
          "name": "fees",
          "type": "uint256"
        },
        {
          "indexed": false,
          "internalType": "uint256",
          "name": "treasuryFees",
          "type": "uint256"
        }
      ],
      "name": "Swap",
      "type": "event"
    },
    {
      "anonymous": false,
      "inputs": [
        {
          "indexed": true,
          "internalType": "address",
          "name": "from",
          "type": "address"
        },
        {
          "indexed": true,
          "internalType": "address",
          "name": "to",
          "type": "address"
        },
        {
          "indexed": false,
          "internalType": "uint256",
          "name": "value",
          "type": "uint256"
        }
      ],
      "name": "Transfer",
      "type": "event"
    },
    {
      "anonymous": false,
      "inputs": [
        {
          "indexed": true,
          "internalType": "address",
          "name": "sender",
          "type": "address"
        },
        {
          "indexed": true,
          "internalType": "address",
          "name": "receiver",
          "type": "address"
        },
        {
          "indexed": true,
          "internalType": "address",
          "name": "owner",
          "type": "address"
        },
        {
          "indexed": false,
          "internalType": "uint256",
          "name": "assets",
          "type": "uint256"
        },
        {
          "indexed": false,
          "internalType": "uint256",
          "name": "shares",
          "type": "uint256"
        }
      ],
      "name": "Withdraw",
      "type": "event"
    },
    {
      "inputs": [],
      "name": "MAX_FEE",
      "outputs": [
        {
          "internalType": "uint16",
          "name": "",
          "type": "uint16"
        }
      ],
      "stateMutability": "view",
      "type": "function"
    },
    {
      "inputs": [],
      "name": "MIN_DEPOSIT",
      "outputs": [
        {
          "internalType": "uint64",
          "name": "",
          "type": "uint64"
        }
      ],
      "stateMutability": "view",
      "type": "function"
    },
    {
      "inputs": [],
      "name": "MIN_FEE",
      "outputs": [
        {
          "internalType": "uint16",
          "name": "",
          "type": "uint16"
        }
      ],
      "stateMutability": "view",
      "type": "function"
    },
    {
      "inputs": [],
      "name": "STAKING",
      "outputs": [
        {
          "internalType": "address payable",
          "name": "",
          "type": "address"
        }
      ],
      "stateMutability": "view",
      "type": "function"
    },
    {
      "inputs": [
        {
          "internalType": "address",
          "name": "owner",
          "type": "address"
        },
        {
          "internalType": "address",
          "name": "spender",
          "type": "address"
        }
      ],
      "name": "allowance",
      "outputs": [
        {
          "internalType": "uint256",
          "name": "",
          "type": "uint256"
        }
      ],
      "stateMutability": "view",
      "type": "function"
    },
    {
      "inputs": [
        {
          "internalType": "address",
          "name": "spender",
          "type": "address"
        },
        {
          "internalType": "uint256",
          "name": "amount",
          "type": "uint256"
        }
      ],
      "name": "approve",
      "outputs": [
        {
          "internalType": "bool",
          "name": "",
          "type": "bool"
        }
      ],
      "stateMutability": "nonpayable",
      "type": "function"
    },
    {
      "inputs": [],
      "name": "asset",
      "outputs": [
        {
          "internalType": "address",
          "name": "",
          "type": "address"
        }
      ],
      "stateMutability": "view",
      "type": "function"
    },
    {
      "inputs": [
        {
          "internalType": "address",
          "name": "account",
          "type": "address"
        }
      ],
      "name": "balanceOf",
      "outputs": [
        {
          "internalType": "uint256",
          "name": "",
          "type": "uint256"
        }
      ],
      "stateMutability": "view",
      "type": "function"
    },
    {
      "inputs": [
        {
          "internalType": "uint256",
          "name": "shares",
          "type": "uint256"
        }
      ],
      "name": "convertToAssets",
      "outputs": [
        {
          "internalType": "uint256",
          "name": "assets",
          "type": "uint256"
        }
      ],
      "stateMutability": "view",
      "type": "function"
    },
    {
      "inputs": [
        {
          "internalType": "uint256",
          "name": "assets",
          "type": "uint256"
        }
      ],
      "name": "convertToShares",
      "outputs": [
        {
          "internalType": "uint256",
          "name": "shares",
          "type": "uint256"
        }
      ],
      "stateMutability": "view",
      "type": "function"
    },
    {
      "inputs": [],
      "name": "decimals",
      "outputs": [
        {
          "internalType": "uint8",
          "name": "",
          "type": "uint8"
        }
      ],
      "stateMutability": "view",
      "type": "function"
    },
    {
      "inputs": [
        {
          "internalType": "address",
          "name": "spender",
          "type": "address"
        },
        {
          "internalType": "uint256",
          "name": "subtractedValue",
          "type": "uint256"
        }
      ],
      "name": "decreaseAllowance",
      "outputs": [
        {
          "internalType": "bool",
          "name": "",
          "type": "bool"
        }
      ],
      "stateMutability": "nonpayable",
      "type": "function"
    },
    {
      "inputs": [
        {
          "internalType": "uint256",
          "name": "_assets",
          "type": "uint256"
        },
        {
          "internalType": "address",
          "name": "_receiver",
          "type": "address"
        }
      ],
      "name": "deposit",
      "outputs": [
        {
          "internalType": "uint256",
          "name": "",
          "type": "uint256"
        }
      ],
      "stateMutability": "nonpayable",
      "type": "function"
    },
    {
      "inputs": [
        {
          "internalType": "address",
          "name": "_receiver",
          "type": "address"
        }
      ],
      "name": "depositETH",
      "outputs": [
        {
          "internalType": "uint256",
          "name": "",
          "type": "uint256"
        }
      ],
      "stateMutability": "payable",
      "type": "function"
    },
    {
      "inputs": [],
      "name": "ethBalance",
      "outputs": [
        {
          "internalType": "uint256",
          "name": "",
          "type": "uint256"
        }
      ],
      "stateMutability": "view",
      "type": "function"
    },
    {
      "inputs": [
        {
          "internalType": "uint256",
          "name": "_amountIn",
          "type": "uint256"
        }
      ],
      "name": "getAmountOut",
      "outputs": [
        {
          "internalType": "uint256",
          "name": "amountOut",
          "type": "uint256"
        },
        {
          "internalType": "uint256",
          "name": "feeAmount",
          "type": "uint256"
        }
      ],
      "stateMutability": "view",
      "type": "function"
    },
    {
      "inputs": [],
      "name": "getAvailableEthForValidator",
      "outputs": [
        {
          "internalType": "uint256",
          "name": "availableETH",
          "type": "uint256"
        }
      ],
      "stateMutability": "view",
      "type": "function"
    },
    {
      "inputs": [
        {
          "internalType": "uint256",
          "name": "_requestedETH",
          "type": "uint256"
        }
      ],
      "name": "getEthForValidator",
      "outputs": [],
      "stateMutability": "nonpayable",
      "type": "function"
    },
    {
      "inputs": [
        {
          "internalType": "address",
          "name": "spender",
          "type": "address"
        },
        {
          "internalType": "uint256",
          "name": "addedValue",
          "type": "uint256"
        }
      ],
      "name": "increaseAllowance",
      "outputs": [
        {
          "internalType": "bool",
          "name": "",
          "type": "bool"
        }
      ],
      "stateMutability": "nonpayable",
      "type": "function"
    },
    {
      "inputs": [
        {
          "internalType": "address payable",
          "name": "_staking",
          "type": "address"
        },
        {
          "internalType": "contract IERC20MetadataUpgradeable",
          "name": "_weth",
          "type": "address"
        },
        {
          "internalType": "address",
          "name": "_treasury",
          "type": "address"
        }
      ],
      "name": "initialize",
      "outputs": [],
      "stateMutability": "nonpayable",
      "type": "function"
    },
    {
      "inputs": [
        {
          "internalType": "address",
          "name": "",
          "type": "address"
        }
      ],
      "name": "maxDeposit",
      "outputs": [
        {
          "internalType": "uint256",
          "name": "",
          "type": "uint256"
        }
      ],
      "stateMutability": "view",
      "type": "function"
    },
    {
      "inputs": [],
      "name": "maxFee",
      "outputs": [
        {
          "internalType": "uint16",
          "name": "",
          "type": "uint16"
        }
      ],
      "stateMutability": "view",
      "type": "function"
    },
    {
      "inputs": [
        {
          "internalType": "address",
          "name": "",
          "type": "address"
        }
      ],
      "name": "maxMint",
      "outputs": [
        {
          "internalType": "uint256",
          "name": "",
          "type": "uint256"
        }
      ],
      "stateMutability": "view",
      "type": "function"
    },
    {
      "inputs": [
        {
          "internalType": "address",
          "name": "owner",
          "type": "address"
        }
      ],
      "name": "maxRedeem",
      "outputs": [
        {
          "internalType": "uint256",
          "name": "",
          "type": "uint256"
        }
      ],
      "stateMutability": "view",
      "type": "function"
    },
    {
      "inputs": [
        {
          "internalType": "address",
          "name": "owner",
          "type": "address"
        }
      ],
      "name": "maxWithdraw",
      "outputs": [
        {
          "internalType": "uint256",
          "name": "",
          "type": "uint256"
        }
      ],
      "stateMutability": "view",
      "type": "function"
    },
    {
      "inputs": [],
      "name": "minETHPercentage",
      "outputs": [
        {
          "internalType": "uint256",
          "name": "",
          "type": "uint256"
        }
      ],
      "stateMutability": "view",
      "type": "function"
    },
    {
      "inputs": [],
      "name": "minFee",
      "outputs": [
        {
          "internalType": "uint16",
          "name": "",
          "type": "uint16"
        }
      ],
      "stateMutability": "view",
      "type": "function"
    },
    {
      "inputs": [
        {
          "internalType": "uint256",
          "name": "shares",
          "type": "uint256"
        },
        {
          "internalType": "address",
          "name": "receiver",
          "type": "address"
        }
      ],
      "name": "mint",
      "outputs": [
        {
          "internalType": "uint256",
          "name": "",
          "type": "uint256"
        }
      ],
      "stateMutability": "nonpayable",
      "type": "function"
    },
    {
      "inputs": [],
      "name": "name",
      "outputs": [
        {
          "internalType": "string",
          "name": "",
          "type": "string"
        }
      ],
      "stateMutability": "view",
      "type": "function"
    },
    {
      "inputs": [],
      "name": "owner",
      "outputs": [
        {
          "internalType": "address",
          "name": "",
          "type": "address"
        }
      ],
      "stateMutability": "view",
      "type": "function"
    },
    {
      "inputs": [
        {
          "internalType": "uint256",
          "name": "assets",
          "type": "uint256"
        }
      ],
      "name": "previewDeposit",
      "outputs": [
        {
          "internalType": "uint256",
          "name": "",
          "type": "uint256"
        }
      ],
      "stateMutability": "view",
      "type": "function"
    },
    {
      "inputs": [
        {
          "internalType": "uint256",
          "name": "shares",
          "type": "uint256"
        }
      ],
      "name": "previewMint",
      "outputs": [
        {
          "internalType": "uint256",
          "name": "",
          "type": "uint256"
        }
      ],
      "stateMutability": "view",
      "type": "function"
    },
    {
      "inputs": [
        {
          "internalType": "uint256",
          "name": "shares",
          "type": "uint256"
        }
      ],
      "name": "previewRedeem",
      "outputs": [
        {
          "internalType": "uint256",
          "name": "",
          "type": "uint256"
        }
      ],
      "stateMutability": "view",
      "type": "function"
    },
    {
      "inputs": [
        {
          "internalType": "uint256",
          "name": "assets",
          "type": "uint256"
        }
      ],
      "name": "previewWithdraw",
      "outputs": [
        {
          "internalType": "uint256",
          "name": "",
          "type": "uint256"
        }
      ],
      "stateMutability": "view",
      "type": "function"
    },
    {
      "inputs": [
        {
          "internalType": "uint256",
          "name": "_shares",
          "type": "uint256"
        },
        {
          "internalType": "address",
          "name": "_receiver",
          "type": "address"
        },
        {
          "internalType": "address",
          "name": "_owner",
          "type": "address"
        }
      ],
      "name": "redeem",
      "outputs": [
        {
          "internalType": "uint256",
          "name": "ETHToSend",
          "type": "uint256"
        }
      ],
      "stateMutability": "nonpayable",
      "type": "function"
    },
    {
      "inputs": [],
      "name": "renounceOwnership",
      "outputs": [],
      "stateMutability": "nonpayable",
      "type": "function"
    },
    {
      "inputs": [
        {
          "internalType": "address",
          "name": "_to",
          "type": "address"
        }
      ],
      "name": "swapETHFormpETH",
      "outputs": [
        {
          "internalType": "uint256",
          "name": "",
          "type": "uint256"
        }
      ],
      "stateMutability": "payable",
      "type": "function"
    },
    {
      "inputs": [
        {
          "internalType": "uint256",
          "name": "_amount",
          "type": "uint256"
        },
        {
          "internalType": "uint256",
          "name": "_minOut",
          "type": "uint256"
        }
      ],
      "name": "swapmpETHforETH",
      "outputs": [
        {
          "internalType": "uint256",
          "name": "",
          "type": "uint256"
        }
      ],
      "stateMutability": "nonpayable",
      "type": "function"
    },
    {
      "inputs": [],
      "name": "symbol",
      "outputs": [
        {
          "internalType": "string",
          "name": "",
          "type": "string"
        }
      ],
      "stateMutability": "view",
      "type": "function"
    },
    {
      "inputs": [],
      "name": "targetLiquidity",
      "outputs": [
        {
          "internalType": "uint256",
          "name": "",
          "type": "uint256"
        }
      ],
      "stateMutability": "view",
      "type": "function"
    },
    {
      "inputs": [],
      "name": "totalAssets",
      "outputs": [
        {
          "internalType": "uint256",
          "name": "",
          "type": "uint256"
        }
      ],
      "stateMutability": "view",
      "type": "function"
    },
    {
      "inputs": [],
      "name": "totalSupply",
      "outputs": [
        {
          "internalType": "uint256",
          "name": "",
          "type": "uint256"
        }
      ],
      "stateMutability": "view",
      "type": "function"
    },
    {
      "inputs": [
        {
          "internalType": "address",
          "name": "to",
          "type": "address"
        },
        {
          "internalType": "uint256",
          "name": "amount",
          "type": "uint256"
        }
      ],
      "name": "transfer",
      "outputs": [
        {
          "internalType": "bool",
          "name": "",
          "type": "bool"
        }
      ],
      "stateMutability": "nonpayable",
      "type": "function"
    },
    {
      "inputs": [
        {
          "internalType": "address",
          "name": "from",
          "type": "address"
        },
        {
          "internalType": "address",
          "name": "to",
          "type": "address"
        },
        {
          "internalType": "uint256",
          "name": "amount",
          "type": "uint256"
        }
      ],
      "name": "transferFrom",
      "outputs": [
        {
          "internalType": "bool",
          "name": "",
          "type": "bool"
        }
      ],
      "stateMutability": "nonpayable",
      "type": "function"
    },
    {
      "inputs": [
        {
          "internalType": "address",
          "name": "newOwner",
          "type": "address"
        }
      ],
      "name": "transferOwnership",
      "outputs": [],
      "stateMutability": "nonpayable",
      "type": "function"
    },
    {
      "inputs": [],
      "name": "treasury",
      "outputs": [
        {
          "internalType": "address",
          "name": "",
          "type": "address"
        }
      ],
      "stateMutability": "view",
      "type": "function"
    },
    {
      "inputs": [],
      "name": "treasuryFee",
      "outputs": [
        {
          "internalType": "uint16",
          "name": "",
          "type": "uint16"
        }
      ],
      "stateMutability": "view",
      "type": "function"
    },
    {
      "inputs": [
        {
          "internalType": "uint256",
          "name": "_minETHPercentage",
          "type": "uint256"
        }
      ],
      "name": "updateMinETHPercentage",
      "outputs": [],
      "stateMutability": "nonpayable",
      "type": "function"
    },
    {
      "inputs": [
        {
          "internalType": "uint16",
          "name": "_minFee",
          "type": "uint16"
        },
        {
          "internalType": "uint16",
          "name": "_maxFee",
          "type": "uint16"
        },
        {
          "internalType": "uint16",
          "name": "_treasuryFee",
          "type": "uint16"
        }
      ],
      "name": "updateSwapFees",
      "outputs": [],
      "stateMutability": "nonpayable",
      "type": "function"
    },
    {
      "inputs": [
        {
          "internalType": "uint256",
          "name": "_targetLiquidity",
          "type": "uint256"
        }
      ],
      "name": "updateTargetLiquidity",
      "outputs": [],
      "stateMutability": "nonpayable",
      "type": "function"
    },
    {
      "inputs": [
        {
          "internalType": "uint256",
          "name": "_assets",
          "type": "uint256"
        },
        {
          "internalType": "address",
          "name": "_receiver",
          "type": "address"
        },
        {
          "internalType": "address",
          "name": "_owner",
          "type": "address"
        }
      ],
      "name": "withdraw",
      "outputs": [
        {
          "internalType": "uint256",
          "name": "shares",
          "type": "uint256"
        }
      ],
      "stateMutability": "nonpayable",
      "type": "function"
    },
    {
      "stateMutability": "payable",
      "type": "receive"
    }
  ],
  "bytecode": "0x608060405234801561001057600080fd5b5061307b806100206000396000f3fe6080604052600436106102e85760003560e01c806370a0823111610190578063ba087652116100dc578063cc32d17611610095578063dd62ed3e1161006f578063dd62ed3e146108b5578063e1e158a5146108d5578063ef8b30f714610831578063f2fde38b1461090957600080fd5b8063cc32d17614610851578063ce96cb7714610875578063d905777e1461089557600080fd5b8063ba087652146107a6578063bc063e1a146107c6578063c0c53b8b146107dc578063c3e8c4fa146107fc578063c63d75b61461080f578063c6e6f5921461083157600080fd5b806394bf804d11610149578063a457c2d711610123578063a457c2d714610726578063a9059cbb14610746578063b3d7f6b914610766578063b460af941461078657600080fd5b806394bf804d146106d157806395d89b41146106f157806397610f301461070657600080fd5b806370a082311461061d578063715018a61461065357806376c7a3c7146106685780637d287f4f1461067d5780638da5cb5b1461069d57806392258ec8146106bb57600080fd5b80633100f4f21161024f578063489569d7116102085780635c195217116101e25780635c1952171461058857806361d027b3146105bd578063690ec930146105dd5780636e553f65146105fd57600080fd5b8063489569d7146105525780634cdad506146103735780634e6630b01461057257600080fd5b80633100f4f21461047c578063313ce567146104925780633701206b146104be57806338d52e0f146104e05780633950935114610512578063402d267d1461053257600080fd5b806318160ddd116102a157806318160ddd146103e35780631efc1173146103f8578063201687301461040d57806323b872dd1461042d57806324ec75901461044d5780632d2da8061461046957600080fd5b806301e1d114146102f457806301f59d161461031c57806306fdde031461035157806307a2d13a14610373578063095ea7b3146103935780630a28a477146103c357600080fd5b366102ef57005b600080fd5b34801561030057600080fd5b50610309610929565b6040519081526020015b60405180910390f35b34801561032857600080fd5b506101005461033e9062010000900461ffff1681565b60405161ffff9091168152602001610313565b34801561035d57600080fd5b50610366610a2d565b6040516103139190612ea4565b34801561037f57600080fd5b5061030961038e366004612dcc565b610abf565b34801561039f57600080fd5b506103b36103ae366004612d3f565b610ad2565b6040519015158152602001610313565b3480156103cf57600080fd5b506103096103de366004612dcc565b610aea565b3480156103ef57600080fd5b50603554610309565b34801561040457600080fd5b50610309610af7565b34801561041957600080fd5b50610309610428366004612e46565b610b73565b34801561043957600080fd5b506103b3610448366004612cff565b610ca7565b34801561045957600080fd5b506101005461033e9061ffff1681565b610309610477366004612c61565b610ccd565b34801561048857600080fd5b5061030960ff5481565b34801561049e57600080fd5b50606554600160a01b900460ff1660405160ff9091168152602001610313565b3480156104ca57600080fd5b506104de6104d9366004612dcc565b610ce8565b005b3480156104ec57600080fd5b506065546001600160a01b03165b6040516001600160a01b039091168152602001610313565b34801561051e57600080fd5b506103b361052d366004612d3f565b610e45565b34801561053e57600080fd5b5061030961054d366004612c61565b610e67565b34801561055e57600080fd5b506104de61056d366004612dcc565b610e85565b34801561057e57600080fd5b5061030960fd5481565b34801561059457600080fd5b506105a86105a3366004612dcc565b610e92565b60408051928352602083019190915201610313565b3480156105c957600080fd5b5060fb546104fa906001600160a01b031681565b3480156105e957600080fd5b506104de6105f8366004612d8a565b61107e565b34801561060957600080fd5b50610309610618366004612dfc565b61111d565b34801561062957600080fd5b50610309610638366004612c61565b6001600160a01b031660009081526033602052604090205490565b34801561065f57600080fd5b506104de611137565b34801561067457600080fd5b5061033e601e81565b34801561068957600080fd5b506104de610698366004612dcc565b61114b565b3480156106a957600080fd5b506097546001600160a01b03166104fa565b3480156106c757600080fd5b5061030960fe5481565b3480156106dd57600080fd5b506103096106ec366004612dfc565b611158565b3480156106fd57600080fd5b50610366611172565b34801561071257600080fd5b5060fc546104fa906001600160a01b031681565b34801561073257600080fd5b506103b3610741366004612d3f565b611181565b34801561075257600080fd5b506103b3610761366004612d3f565b611207565b34801561077257600080fd5b50610309610781366004612dcc565b611215565b34801561079257600080fd5b506103096107a1366004612e20565b611222565b3480156107b257600080fd5b506103096107c1366004612e20565b611440565b3480156107d257600080fd5b5061033e6101f481565b3480156107e857600080fd5b506104de6107f7366004612c7d565b61165c565b61030961080a366004612c61565b611955565b34801561081b57600080fd5b5061030961082a366004612c61565b5060001990565b34801561083d57600080fd5b5061030961084c366004612dcc565b611a5f565b34801561085d57600080fd5b506101005461033e90640100000000900461ffff1681565b34801561088157600080fd5b50610309610890366004612c61565b611a6c565b3480156108a157600080fd5b506103096108b0366004612c61565b611a90565b3480156108c157600080fd5b506103096108d0366004612cc7565b611aae565b3480156108e157600080fd5b506108f0662386f26fc1000081565b60405167ffffffffffffffff9091168152602001610313565b34801561091557600080fd5b506104de610924366004612c61565b611ad9565b60fc546040516370a0823160e01b81523060048201526000916001600160a01b0316906307a2d13a9082906370a082319060240160206040518083038186803b15801561097557600080fd5b505afa158015610989573d6000803e3d6000fd5b505050506040513d601f19601f820116820180604052508101906109ad9190612de4565b6040518263ffffffff1660e01b81526004016109cb91815260200190565b60206040518083038186803b1580156109e357600080fd5b505afa1580156109f7573d6000803e3d6000fd5b505050506040513d601f19601f82011682018060405250810190610a1b9190612de4565b60fd54610a289190612f22565b905090565b606060368054610a3c90612fdf565b80601f0160208091040260200160405190810160405280929190818152602001828054610a6890612fdf565b8015610ab55780601f10610a8a57610100808354040283529160200191610ab5565b820191906000526020600020905b815481529060010190602001808311610a9857829003601f168201915b5050505050905090565b6000610acc826000611b4f565b92915050565b600033610ae0818585611b86565b5060019392505050565b6000610acc826001611caa565b6000610b01610929565b610b0b5750600090565b6000610b15610929565b60fd54610b2490612710612f5a565b610b2e9190612f3a565b905060ff548111610b4157600091505090565b612710610b4c610929565b60ff54610b599084612f9c565b610b639190612f5a565b610b6d9190612f3a565b91505090565b6000610b7d611cdc565b60fc546001600160a01b0316600080610b9586610e92565b9150915084821015610bc95760405163ab32395f60e01b815260048101869052602481018390526044015b60405180910390fd5b6101005460009061271090610bea90640100000000900461ffff1684612f5a565b610bf49190612f3a565b90508260fd6000828254610c089190612f9c565b90915550610c2390506001600160a01b03851633308a611d36565b8015610c435760fb54610c43906001600160a01b03868116911683611da1565b610c4d3384611dd6565b60408051888152602081018590529081018390526060810182905233907f49926bbebe8474393f434dfa4f78694c0923efa07d19f2284518bfabd06eb7379060800160405180910390a2509092505050610acc600160c955565b600033610cb5858285611ef6565b610cc0858585611f6a565b60019150505b9392505050565b600080610cd934611a5f565b9050610acc3384600084612115565b610cf0611cdc565b60fc546001600160a01b03163314610d305760fc5460405163c55ddc9760e01b81523360048201526001600160a01b039091166024820152604401610bc0565b6000610d3a610af7565b905080821115610d67576040516336047df560e21b81526004810183905260248101829052604401610bc0565b8160fd6000828254610d799190612f9c565b909155505060fc54604051631696d40360e11b81523060048201526001600160a01b0390911690632d2da8069084906024016020604051808303818588803b158015610dc457600080fd5b505af1158015610dd8573d6000803e3d6000fd5b50505050506040513d601f19601f82011682018060405250810190610dfd9190612de4565b5060408051428152602081018490527f7ac2a41af785a0be7c54324b10c6f29b473018b57e4b58f9b86a050124173b1b910160405180910390a150610e42600160c955565b50565b600033610ae0818585610e588383611aae565b610e629190612f22565b611b86565b6000610e716121a5565b610e7c576000610acc565b60001992915050565b610e8d6121bf565b60ff55565b60fc546101005460009182916001600160a01b03909116908290610ec39061ffff8082169162010000900416612f79565b6040516303d1689d60e11b8152600481018790529091506001600160a01b038316906307a2d13a9060240160206040518083038186803b158015610f0657600080fd5b505afa158015610f1a573d6000803e3d6000fd5b505050506040513d601f19601f82011682018060405250810190610f3e9190612de4565b93506000610f7f856040518060400160405280600e81526020016d09cdee840cadcdeeaced0408aa8960931b81525060fd546122199092919063ffffffff16565b6101005460fe5491925061ffff1690821015610fd35760fe54600090610fa98461ffff8716612f5a565b610fb39190612f3a565b61010054909150610fcf90829062010000900461ffff16612f9c565b9150505b612710610fe08289612f5a565b610fea9190612f3a565b94506001600160a01b0384166307a2d13a611005878a612f9c565b6040518263ffffffff1660e01b815260040161102391815260200190565b60206040518083038186803b15801561103b57600080fd5b505afa15801561104f573d6000803e3d6000fd5b505050506040513d601f19601f820116820180604052508101906110739190612de4565b955050505050915091565b6110866121bf565b61ffff8316158061109f57508161ffff168361ffff1610155b806110af57506103e88261ffff16115b806110bf5750611b588161ffff16115b156110dd57604051632551e22760e01b815260040160405180910390fd5b610100805461ffff94851663ffffffff199091161762010000938516939093029290921765ffff0000000019166401000000009190931602919091179055565b60008061112984611a5f565b9050610cc633848684612115565b61113f6121bf565b6111496000612245565b565b6111536121bf565b60fe55565b60008061116484611215565b9050610cc633848387612115565b606060378054610a3c90612fdf565b6000338161118f8286611aae565b9050838110156111ef5760405162461bcd60e51b815260206004820152602560248201527f45524332303a2064656372656173656420616c6c6f77616e63652062656c6f77604482015264207a65726f60d81b6064820152608401610bc0565b6111fc8286868403611b86565b506001949350505050565b600033610ae0818585611f6a565b6000610acc826001611b4f565b600061122d84610aea565b9050336001600160a01b0383161461124a5761124a823383611ef6565b6000611254610929565b61126686670de0b6b3a7640000612f5a565b6112709190612f3a565b905080611290576040516304fe3aa360e21b815260040160405180910390fd5b6000670de0b6b3a764000060fd54836112a99190612f5a565b6112b39190612f3a565b60fc546040516370a0823160e01b8152306004820152919250600091670de0b6b3a7640000916001600160a01b0316906370a082319060240160206040518083038186803b15801561130457600080fd5b505afa158015611318573d6000803e3d6000fd5b505050506040513d601f19601f8201168201806040525081019061133c9190612de4565b6113469085612f5a565b6113509190612f3a565b905061135c8585612297565b8160fd600082825461136e9190612f9c565b909155505060fc5461138a906001600160a01b03168783611da1565b61139d6001600160a01b03871683611dd6565b60408051858152602081018490529081018290526001600160a01b0386169033907feb755d537a0caac69ccb1ac1dc2b7397a32bb19f93bd06013c57ac0b2e5dd69c9060600160405180910390a360408051838152602081018690526001600160a01b03808816929089169133917ffbde797d201c681b91056529119e0b02407c7bb96a4a2c75c01fc9667232c8db910160405180910390a45050509392505050565b600061144a611cdc565b336001600160a01b0383161461146557611465823386611ef6565b600061147060355490565b61148286670de0b6b3a7640000612f5a565b61148c9190612f3a565b9050806114ac576040516376af5f4b60e01b815260040160405180910390fd5b670de0b6b3a764000060fd54826114c39190612f5a565b6114cd9190612f3a565b60fc546040516370a0823160e01b8152306004820152919350600091670de0b6b3a7640000916001600160a01b0316906370a082319060240160206040518083038186803b15801561151e57600080fd5b505afa158015611532573d6000803e3d6000fd5b505050506040513d601f19601f820116820180604052508101906115569190612de4565b6115609084612f5a565b61156a9190612f3a565b90506115768487612297565b8260fd60008282546115889190612f9c565b909155505060fc546115a4906001600160a01b03168683611da1565b6115b76001600160a01b03861684611dd6565b60408051878152602081018590529081018290526001600160a01b0385169033907feb755d537a0caac69ccb1ac1dc2b7397a32bb19f93bd06013c57ac0b2e5dd69c9060600160405180910390a360408051848152602081018890526001600160a01b03808716929088169133917ffbde797d201c681b91056529119e0b02407c7bb96a4a2c75c01fc9667232c8db910160405180910390a45050610cc6600160c955565b600054610100900460ff161580801561167c5750600054600160ff909116105b806116965750303b158015611696575060005460ff166001145b6116f95760405162461bcd60e51b815260206004820152602e60248201527f496e697469616c697a61626c653a20636f6e747261637420697320616c72656160448201526d191e481a5b9a5d1a585b1a5e995960921b6064820152608401610bc0565b6000805460ff19166001179055801561171c576000805461ff0019166101001790555b47156117785760405162461bcd60e51b815260206004820152602560248201527f4572726f7220696e697469616c697a652077697468206e6f207a65726f2062616044820152646c616e636560d81b6064820152608401610bc0565b826001600160a01b031663313ce5676040518163ffffffff1660e01b815260040160206040518083038186803b1580156117b157600080fd5b505afa1580156117c5573d6000803e3d6000fd5b505050506040513d601f19601f820116820180604052508101906117e99190612e67565b60ff166012146118575760405162461bcd60e51b815260206004820152603360248201527f774e617469766520746f6b656e206572726f722c20696d706c656d656e746174604482015272696f6e20666f7220313820646563696d616c7360681b6064820152608401610bc0565b611860836123cb565b6118ac6040518060400160405280600981526020016804d6574614554484c560bc1b815250604051806040016040528060098152602001680dae08aa8905e8aa8960bb1b8152506123fb565b6118b4612430565b6118bc61245f565b60fc80546001600160a01b038087166001600160a01b03199283161790925560fb8054928516929091169190911790556118fe6801a055690d9db8000061114b565b611909611388610e85565b801561194f576000805461ff0019169055604051600181527f7f26b83ff96e1f2b6a682f133852f6798a09c465da95921460cefb38474024989060200160405180910390a15b50505050565b600061195f611cdc565b60fc546001600160a01b0316331461199f5760fc5460405163c55ddc9760e01b81523360048201526001600160a01b039091166024820152604401610bc0565b60fc5460405163ef8b30f760e01b81523460048201526001600160a01b0390911690600090829063ef8b30f79060240160206040518083038186803b1580156119e757600080fd5b505afa1580156119fb573d6000803e3d6000fd5b505050506040513d601f19601f82011682018060405250810190611a1f9190612de4565b9050611a356001600160a01b0383168583611da1565b3460fd6000828254611a479190612f22565b909155509092505050611a5a600160c955565b919050565b6000610acc826000611caa565b6001600160a01b038116600090815260336020526040812054610acc906000611b4f565b6001600160a01b038116600090815260336020526040812054610acc565b6001600160a01b03918216600090815260346020908152604080832093909416825291909152205490565b611ae16121bf565b6001600160a01b038116611b465760405162461bcd60e51b815260206004820152602660248201527f4f776e61626c653a206e6577206f776e657220697320746865207a65726f206160448201526564647265737360d01b6064820152608401610bc0565b610e4281612245565b600080611b5b60355490565b90508015611b7c57611b77611b6e610929565b8590838661248e565b611b7e565b835b949350505050565b6001600160a01b038316611be85760405162461bcd60e51b8152602060048201526024808201527f45524332303a20617070726f76652066726f6d20746865207a65726f206164646044820152637265737360e01b6064820152608401610bc0565b6001600160a01b038216611c495760405162461bcd60e51b815260206004820152602260248201527f45524332303a20617070726f766520746f20746865207a65726f206164647265604482015261737360f01b6064820152608401610bc0565b6001600160a01b0383811660008181526034602090815260408083209487168084529482529182902085905590518481527f8c5be1e5ebec7d5bd14f71427d1e84f3dd0314c0f7b2291e5b200ac8c7c3b925910160405180910390a3505050565b600080611cb660355490565b9050831580611cc3575080155b611b7c57611b7781611cd3610929565b8691908661248e565b600260c9541415611d2f5760405162461bcd60e51b815260206004820152601f60248201527f5265656e7472616e637947756172643a207265656e7472616e742063616c6c006044820152606401610bc0565b600260c955565b6040516001600160a01b038085166024830152831660448201526064810182905261194f9085906323b872dd60e01b906084015b60408051601f198184030181529190526020810180516001600160e01b03166001600160e01b031990931692909217909152612507565b6040516001600160a01b038316602482015260448101829052611dd190849063a9059cbb60e01b90606401611d6a565b505050565b80471015611e265760405162461bcd60e51b815260206004820152601d60248201527f416464726573733a20696e73756666696369656e742062616c616e63650000006044820152606401610bc0565b6000826001600160a01b03168260405160006040518083038185875af1925050503d8060008114611e73576040519150601f19603f3d011682016040523d82523d6000602084013e611e78565b606091505b5050905080611dd15760405162461bcd60e51b815260206004820152603a60248201527f416464726573733a20756e61626c6520746f2073656e642076616c75652c207260448201527f6563697069656e74206d617920686176652072657665727465640000000000006064820152608401610bc0565b600160c955565b6000611f028484611aae565b9050600019811461194f5781811015611f5d5760405162461bcd60e51b815260206004820152601d60248201527f45524332303a20696e73756666696369656e7420616c6c6f77616e63650000006044820152606401610bc0565b61194f8484848403611b86565b6001600160a01b038316611fce5760405162461bcd60e51b815260206004820152602560248201527f45524332303a207472616e736665722066726f6d20746865207a65726f206164604482015264647265737360d81b6064820152608401610bc0565b6001600160a01b0382166120305760405162461bcd60e51b815260206004820152602360248201527f45524332303a207472616e7366657220746f20746865207a65726f206164647260448201526265737360e81b6064820152608401610bc0565b6001600160a01b038316600090815260336020526040902054818110156120a85760405162461bcd60e51b815260206004820152602660248201527f45524332303a207472616e7366657220616d6f756e7420657863656564732062604482015265616c616e636560d01b6064820152608401610bc0565b6001600160a01b0380851660008181526033602052604080822086860390559286168082529083902080548601905591517fddf252ad1be2c89b69c2b068fc378daa952ba7f163c4a11628f55a4df523b3ef906121089086815260200190565b60405180910390a361194f565b61211d611cdc565b612126826125d9565b915061213182612672565b61213b83826126aa565b8160fd600082825461214d9190612f22565b909155505060408051838152602081018390526001600160a01b0380861692908716917fd2491a9b4fe81a7cd4511e8b7b7743951b061dad5bed7da8a7795b080ee08c7e910160405180910390a361194f600160c955565b6000806121b0610929565b1180610a285750506035541590565b6097546001600160a01b031633146111495760405162461bcd60e51b815260206004820181905260248201527f4f776e61626c653a2063616c6c6572206973206e6f7420746865206f776e65726044820152606401610bc0565b6000818484111561223d5760405162461bcd60e51b8152600401610bc09190612ea4565b505050900390565b609780546001600160a01b038381166001600160a01b0319831681179093556040519116919082907f8be0079c531659141344cd1fd0a4f28419497f9722a3daafe3b4186f6b6457e090600090a35050565b6001600160a01b0382166122f75760405162461bcd60e51b815260206004820152602160248201527f45524332303a206275726e2066726f6d20746865207a65726f206164647265736044820152607360f81b6064820152608401610bc0565b6001600160a01b0382166000908152603360205260409020548181101561236b5760405162461bcd60e51b815260206004820152602260248201527f45524332303a206275726e20616d6f756e7420657863656564732062616c616e604482015261636560f01b6064820152608401610bc0565b6001600160a01b03831660008181526033602090815260408083208686039055603580548790039055518581529192917fddf252ad1be2c89b69c2b068fc378daa952ba7f163c4a11628f55a4df523b3ef910160405180910390a3505050565b600054610100900460ff166123f25760405162461bcd60e51b8152600401610bc090612ed7565b610e428161276b565b600054610100900460ff166124225760405162461bcd60e51b8152600401610bc090612ed7565b61242c82826127f0565b5050565b600054610100900460ff166124575760405162461bcd60e51b8152600401610bc090612ed7565b61114961283e565b600054610100900460ff166124865760405162461bcd60e51b8152600401610bc090612ed7565b61114961286e565b60008061249c868686612895565b905060018360028111156124c057634e487b7160e01b600052602160045260246000fd5b1480156124eb5750600084806124e657634e487b7160e01b600052601260045260246000fd5b868809115b156124fe576124fb600182612f22565b90505b95945050505050565b600061255c826040518060400160405280602081526020017f5361666545524332303a206c6f772d6c6576656c2063616c6c206661696c6564815250856001600160a01b03166129539092919063ffffffff16565b805190915015611dd1578080602001905181019061257a9190612d6a565b611dd15760405162461bcd60e51b815260206004820152602a60248201527f5361666545524332303a204552433230206f7065726174696f6e20646964206e6044820152691bdd081cdd58d8d9595960b21b6064820152608401610bc0565b6000816125e7573491505090565b6126103330846125ff6065546001600160a01b031690565b6001600160a01b0316929190611d36565b606554604051632e1a7d4d60e01b8152600481018490526001600160a01b0390911690632e1a7d4d90602401600060405180830381600087803b15801561265657600080fd5b505af115801561266a573d6000803e3d6000fd5b505050505090565b662386f26fc10000811015610e425760405163ea691a4b60e01b8152662386f26fc10000600482015260248101829052604401610bc0565b6001600160a01b0382166127005760405162461bcd60e51b815260206004820152601f60248201527f45524332303a206d696e7420746f20746865207a65726f2061646472657373006044820152606401610bc0565b80603560008282546127129190612f22565b90915550506001600160a01b0382166000818152603360209081526040808320805486019055518481527fddf252ad1be2c89b69c2b068fc378daa952ba7f163c4a11628f55a4df523b3ef910160405180910390a35050565b600054610100900460ff166127925760405162461bcd60e51b8152600401610bc090612ed7565b60008061279e83612962565b91509150816127ae5760126127b0565b805b606580546001600160a01b039095166001600160a01b031960ff93909316600160a01b02929092166001600160a81b031990951694909417179092555050565b600054610100900460ff166128175760405162461bcd60e51b8152600401610bc090612ed7565b815161282a906036906020850190612bb6565b508051611dd1906037906020840190612bb6565b600054610100900460ff166128655760405162461bcd60e51b8152600401610bc090612ed7565b61114933612245565b600054610100900460ff16611eef5760405162461bcd60e51b8152600401610bc090612ed7565b6000808060001985870985870292508281108382030391505080600014156128de578382816128d457634e487b7160e01b600052601260045260246000fd5b0492505050610cc6565b8084116128ea57600080fd5b60008486880960026001871981018816978890046003810283188082028403028082028403028082028403028082028403028082028403029081029092039091026000889003889004909101858311909403939093029303949094049190911702949350505050565b6060611b7e8484600085612a40565b60408051600481526024810182526020810180516001600160e01b031663313ce56760e01b17905290516000918291829182916001600160a01b038716916129a991612e88565b6000604051808303816000865af19150503d80600081146129e6576040519150601f19603f3d011682016040523d82523d6000602084013e6129eb565b606091505b50915091508180156129ff57506020815110155b15612a3357600081806020019051810190612a1a9190612de4565b905060ff8111612a31576001969095509350505050565b505b5060009485945092505050565b606082471015612aa15760405162461bcd60e51b815260206004820152602660248201527f416464726573733a20696e73756666696369656e742062616c616e636520666f6044820152651c8818d85b1b60d21b6064820152608401610bc0565b600080866001600160a01b03168587604051612abd9190612e88565b60006040518083038185875af1925050503d8060008114612afa576040519150601f19603f3d011682016040523d82523d6000602084013e612aff565b606091505b5091509150612b1087838387612b1b565b979650505050505050565b60608315612b87578251612b80576001600160a01b0385163b612b805760405162461bcd60e51b815260206004820152601d60248201527f416464726573733a2063616c6c20746f206e6f6e2d636f6e74726163740000006044820152606401610bc0565b5081611b7e565b611b7e8383815115612b9c5781518083602001fd5b8060405162461bcd60e51b8152600401610bc09190612ea4565b828054612bc290612fdf565b90600052602060002090601f016020900481019282612be45760008555612c2a565b82601f10612bfd57805160ff1916838001178555612c2a565b82800160010185558215612c2a579182015b82811115612c2a578251825591602001919060010190612c0f565b50612c36929150612c3a565b5090565b5b80821115612c365760008155600101612c3b565b803561ffff81168114611a5a57600080fd5b600060208284031215612c72578081fd5b8135610cc681613030565b600080600060608486031215612c91578182fd5b8335612c9c81613030565b92506020840135612cac81613030565b91506040840135612cbc81613030565b809150509250925092565b60008060408385031215612cd9578182fd5b8235612ce481613030565b91506020830135612cf481613030565b809150509250929050565b600080600060608486031215612d13578283fd5b8335612d1e81613030565b92506020840135612d2e81613030565b929592945050506040919091013590565b60008060408385031215612d51578182fd5b8235612d5c81613030565b946020939093013593505050565b600060208284031215612d7b578081fd5b81518015158114610cc6578182fd5b600080600060608486031215612d9e578283fd5b612da784612c4f565b9250612db560208501612c4f565b9150612dc360408501612c4f565b90509250925092565b600060208284031215612ddd578081fd5b5035919050565b600060208284031215612df5578081fd5b5051919050565b60008060408385031215612e0e578182fd5b823591506020830135612cf481613030565b600080600060608486031215612e34578283fd5b833592506020840135612cac81613030565b60008060408385031215612e58578182fd5b50508035926020909101359150565b600060208284031215612e78578081fd5b815160ff81168114610cc6578182fd5b60008251612e9a818460208701612fb3565b9190910192915050565b6020815260008251806020840152612ec3816040850160208701612fb3565b601f01601f19169190910160400192915050565b6020808252602b908201527f496e697469616c697a61626c653a20636f6e7472616374206973206e6f74206960408201526a6e697469616c697a696e6760a81b606082015260800190565b60008219821115612f3557612f3561301a565b500190565b600082612f5557634e487b7160e01b81526012600452602481fd5b500490565b6000816000190483118215151615612f7457612f7461301a565b500290565b600061ffff83811690831681811015612f9457612f9461301a565b039392505050565b600082821015612fae57612fae61301a565b500390565b60005b83811015612fce578181015183820152602001612fb6565b8381111561194f5750506000910152565b600181811c90821680612ff357607f821691505b6020821081141561301457634e487b7160e01b600052602260045260246000fd5b50919050565b634e487b7160e01b600052601160045260246000fd5b6001600160a01b0381168114610e4257600080fdfea2646970667358221220a498f1fa93a9847733907c0e8458e7d2525c61f58661adc76c7fc8774973852964736f6c63430008040033",
  "linkReferences": {},
  "deployedLinkReferences": {}
}