{
  "_format": "hh-sol-artifact-1",
  "contractName": "StakingManager",
  "sourceName": "contracts/StakingManager.sol",
  "abi": [
    {
      "inputs": [
        {
          "internalType": "uint16",
          "name": "_feePerYearBasisPoints",
          "type": "uint16"
        },
        {
          "internalType": "uint256",
          "name": "_maxWithdrawOrders",
          "type": "uint256"
        },
        {
          "internalType": "contract IStakedAuroraVault",
          "name": "_stAurVault",
          "type": "address"
        },
        {
          "internalType": "address",
          "name": "_auroraStaking",
          "type": "address"
        },
        {
          "internalType": "address",
          "name": "_contractOperatorRole",
          "type": "address"
        },
        {
          "internalType": "address",
          "name": "_treasuryAccount",
          "type": "address"
        }
      ],
      "stateMutability": "nonpayable",
      "type": "constructor"
    },
    {
      "inputs": [],
      "name": "AboveMaxOrders",
      "type": "error"
    },
    {
      "inputs": [],
      "name": "BellowMaxOrders",
      "type": "error"
    },
    {
      "inputs": [],
      "name": "BelowCurrentLength",
      "type": "error"
    },
    {
      "inputs": [],
      "name": "DepositorExists",
      "type": "error"
    },
    {
      "inputs": [],
      "name": "DepositorsLimitReached",
      "type": "error"
    },
    {
      "inputs": [
        {
          "internalType": "uint64",
          "name": "_availableAt",
          "type": "uint64"
        }
      ],
      "name": "FeeMintNotAvailable",
      "type": "error"
    },
    {
      "inputs": [],
      "name": "InvalidChange",
      "type": "error"
    },
    {
      "inputs": [
        {
          "internalType": "uint16",
          "name": "_feeBasisPoint",
          "type": "uint16"
        }
      ],
      "name": "InvalidFeeAmount",
      "type": "error"
    },
    {
      "inputs": [],
      "name": "InvalidIndex",
      "type": "error"
    },
    {
      "inputs": [],
      "name": "InvalidZeroAddress",
      "type": "error"
    },
    {
      "inputs": [],
      "name": "InvalidZeroAmount",
      "type": "error"
    },
    {
      "inputs": [
        {
          "internalType": "uint256",
          "name": "maxOrders",
          "type": "uint256"
        }
      ],
      "name": "MaxOrdersExceeded",
      "type": "error"
    },
    {
      "inputs": [],
      "name": "NoDepositors",
      "type": "error"
    },
    {
      "inputs": [],
      "name": "NotEnoughBalance",
      "type": "error"
    },
    {
      "inputs": [],
      "name": "Unauthorized",
      "type": "error"
    },
    {
      "inputs": [],
      "name": "VaultAndManagerStillAttached",
      "type": "error"
    },
    {
      "inputs": [],
      "name": "WaitForNextCleanOrders",
      "type": "error"
    },
    {
      "anonymous": false,
      "inputs": [
        {
          "indexed": true,
          "internalType": "address",
          "name": "_caller",
          "type": "address"
        },
        {
          "indexed": true,
          "internalType": "address",
          "name": "_receiver",
          "type": "address"
        },
        {
          "indexed": true,
          "internalType": "address",
          "name": "_owner",
          "type": "address"
        },
        {
          "indexed": false,
          "internalType": "uint256",
          "name": "_assets",
          "type": "uint256"
        }
      ],
      "name": "AltWithdraw",
      "type": "event"
    },
    {
      "anonymous": false,
      "inputs": [
        {
          "indexed": false,
          "internalType": "uint256",
          "name": "_nextCleanTimestamp",
          "type": "uint256"
        }
      ],
      "name": "CleanOrdersQueue",
      "type": "event"
    },
    {
      "anonymous": false,
      "inputs": [
        {
          "indexed": false,
          "internalType": "uint256",
          "name": "_maxDepositors",
          "type": "uint256"
        },
        {
          "indexed": false,
          "internalType": "address",
          "name": "_sender",
          "type": "address"
        }
      ],
      "name": "MaxDepositorsUpdate",
      "type": "event"
    },
    {
      "anonymous": false,
      "inputs": [
        {
          "indexed": false,
          "internalType": "uint256",
          "name": "_maxWithdrawOrders",
          "type": "uint256"
        },
        {
          "indexed": false,
          "internalType": "address",
          "name": "_sender",
          "type": "address"
        }
      ],
      "name": "MaxWithdrawOrdersUpdate",
      "type": "event"
    },
    {
      "anonymous": false,
      "inputs": [
        {
          "indexed": false,
          "internalType": "address",
          "name": "_depositor",
          "type": "address"
        },
        {
          "indexed": false,
          "internalType": "address",
          "name": "_sender",
          "type": "address"
        }
      ],
      "name": "NewDepositorAdded",
      "type": "event"
    },
    {
      "anonymous": false,
      "inputs": [
        {
          "indexed": true,
          "internalType": "bytes32",
          "name": "role",
          "type": "bytes32"
        },
        {
          "indexed": true,
          "internalType": "bytes32",
          "name": "previousAdminRole",
          "type": "bytes32"
        },
        {
          "indexed": true,
          "internalType": "bytes32",
          "name": "newAdminRole",
          "type": "bytes32"
        }
      ],
      "name": "RoleAdminChanged",
      "type": "event"
    },
    {
      "anonymous": false,
      "inputs": [
        {
          "indexed": true,
          "internalType": "bytes32",
          "name": "role",
          "type": "bytes32"
        },
        {
          "indexed": true,
          "internalType": "address",
          "name": "account",
          "type": "address"
        },
        {
          "indexed": true,
          "internalType": "address",
          "name": "sender",
          "type": "address"
        }
      ],
      "name": "RoleGranted",
      "type": "event"
    },
    {
      "anonymous": false,
      "inputs": [
        {
          "indexed": true,
          "internalType": "bytes32",
          "name": "role",
          "type": "bytes32"
        },
        {
          "indexed": true,
          "internalType": "address",
          "name": "account",
          "type": "address"
        },
        {
          "indexed": true,
          "internalType": "address",
          "name": "sender",
          "type": "address"
        }
      ],
      "name": "RoleRevoked",
      "type": "event"
    },
    {
      "anonymous": false,
      "inputs": [
        {
          "indexed": true,
          "internalType": "address",
          "name": "_treasury",
          "type": "address"
        },
        {
          "indexed": false,
          "internalType": "uint256",
          "name": "_fee",
          "type": "uint256"
        }
      ],
      "name": "TreasuryMintedFee",
      "type": "event"
    },
    {
      "anonymous": false,
      "inputs": [
        {
          "indexed": false,
          "internalType": "bool",
          "name": "_isProcessStopped",
          "type": "bool"
        },
        {
          "indexed": false,
          "internalType": "address",
          "name": "_sender",
          "type": "address"
        }
      ],
      "name": "UpdateProcessWithdrawOrders",
      "type": "event"
    },
    {
      "inputs": [],
      "name": "ADMIN_ROLE",
      "outputs": [
        {
          "internalType": "bytes32",
          "name": "",
          "type": "bytes32"
        }
      ],
      "stateMutability": "view",
      "type": "function"
    },
    {
      "inputs": [],
      "name": "DEFAULT_ADMIN_ROLE",
      "outputs": [
        {
          "internalType": "bytes32",
          "name": "",
          "type": "bytes32"
        }
      ],
      "stateMutability": "view",
      "type": "function"
    },
    {
      "inputs": [],
      "name": "MAX_DEPOSITORS",
      "outputs": [
        {
          "internalType": "uint256",
          "name": "",
          "type": "uint256"
        }
      ],
      "stateMutability": "view",
      "type": "function"
    },
    {
      "inputs": [],
      "name": "MAX_FEE_PER_YEAR_BASIS_POINT",
      "outputs": [
        {
          "internalType": "uint16",
          "name": "",
          "type": "uint16"
        }
      ],
      "stateMutability": "view",
      "type": "function"
    },
    {
      "inputs": [],
      "name": "MAX_MAX_WITHDRAW_ORDERS",
      "outputs": [
        {
          "internalType": "uint256",
          "name": "",
          "type": "uint256"
        }
      ],
      "stateMutability": "view",
      "type": "function"
    },
    {
      "inputs": [],
      "name": "MIN_MAX_WITHDRAW_ORDERS",
      "outputs": [
        {
          "internalType": "uint256",
          "name": "",
          "type": "uint256"
        }
      ],
      "stateMutability": "view",
      "type": "function"
    },
    {
      "inputs": [],
      "name": "OPERATOR_ROLE",
      "outputs": [
        {
          "internalType": "bytes32",
          "name": "",
          "type": "bytes32"
        }
      ],
      "stateMutability": "view",
      "type": "function"
    },
    {
      "inputs": [],
      "name": "SAFETY_BUFFER",
      "outputs": [
        {
          "internalType": "uint256",
          "name": "",
          "type": "uint256"
        }
      ],
      "stateMutability": "view",
      "type": "function"
    },
    {
      "inputs": [],
      "name": "SECONDS_PER_YEAR",
      "outputs": [
        {
          "internalType": "uint32",
          "name": "",
          "type": "uint32"
        }
      ],
      "stateMutability": "view",
      "type": "function"
    },
    {
      "inputs": [
        {
          "internalType": "uint256",
          "name": "_assets",
          "type": "uint256"
        },
        {
          "internalType": "address",
          "name": "_receiver",
          "type": "address"
        }
      ],
      "name": "alternativeWithdraw",
      "outputs": [],
      "stateMutability": "nonpayable",
      "type": "function"
    },
    {
      "inputs": [],
      "name": "auroraStaking",
      "outputs": [
        {
          "internalType": "address",
          "name": "",
          "type": "address"
        }
      ],
      "stateMutability": "view",
      "type": "function"
    },
    {
      "inputs": [],
      "name": "auroraToken",
      "outputs": [
        {
          "internalType": "contract IERC20",
          "name": "",
          "type": "address"
        }
      ],
      "stateMutability": "view",
      "type": "function"
    },
    {
      "inputs": [
        {
          "internalType": "uint256",
          "name": "_maxWithdrawOrders",
          "type": "uint256"
        }
      ],
      "name": "changeMaxWithdrawOrders",
      "outputs": [],
      "stateMutability": "nonpayable",
      "type": "function"
    },
    {
      "inputs": [],
      "name": "cleanOrdersQueue",
      "outputs": [],
      "stateMutability": "nonpayable",
      "type": "function"
    },
    {
      "inputs": [],
      "name": "coolingTimeSeconds",
      "outputs": [
        {
          "internalType": "uint64",
          "name": "",
          "type": "uint64"
        }
      ],
      "stateMutability": "view",
      "type": "function"
    },
    {
      "inputs": [
        {
          "internalType": "uint256",
          "name": "_assets",
          "type": "uint256"
        },
        {
          "internalType": "address",
          "name": "_receiver",
          "type": "address"
        }
      ],
      "name": "createWithdrawOrder",
      "outputs": [],
      "stateMutability": "nonpayable",
      "type": "function"
    },
    {
      "inputs": [
        {
          "internalType": "address",
          "name": "_depositor",
          "type": "address"
        }
      ],
      "name": "depositorExists",
      "outputs": [
        {
          "internalType": "bool",
          "name": "",
          "type": "bool"
        }
      ],
      "stateMutability": "view",
      "type": "function"
    },
    {
      "inputs": [
        {
          "internalType": "uint256",
          "name": "",
          "type": "uint256"
        }
      ],
      "name": "depositors",
      "outputs": [
        {
          "internalType": "address",
          "name": "",
          "type": "address"
        }
      ],
      "stateMutability": "view",
      "type": "function"
    },
    {
      "inputs": [],
      "name": "feePerYearBasisPoints",
      "outputs": [
        {
          "internalType": "uint16",
          "name": "",
          "type": "uint16"
        }
      ],
      "stateMutability": "view",
      "type": "function"
    },
    {
      "inputs": [
        {
          "internalType": "address",
          "name": "_account",
          "type": "address"
        }
      ],
      "name": "getAvailableAssets",
      "outputs": [
        {
          "internalType": "uint256",
          "name": "",
          "type": "uint256"
        }
      ],
      "stateMutability": "view",
      "type": "function"
    },
    {
      "inputs": [],
      "name": "getAvailableMintFee",
      "outputs": [
        {
          "internalType": "uint256",
          "name": "",
          "type": "uint256"
        }
      ],
      "stateMutability": "view",
      "type": "function"
    },
    {
      "inputs": [
        {
          "internalType": "bool",
          "name": "_isWithdrawOrder",
          "type": "bool"
        }
      ],
      "name": "getAvailableTimestamp",
      "outputs": [
        {
          "internalType": "uint256",
          "name": "",
          "type": "uint256"
        }
      ],
      "stateMutability": "view",
      "type": "function"
    },
    {
      "inputs": [
        {
          "internalType": "address",
          "name": "_depositor",
          "type": "address"
        }
      ],
      "name": "getDepositorShares",
      "outputs": [
        {
          "internalType": "uint256",
          "name": "",
          "type": "uint256"
        }
      ],
      "stateMutability": "view",
      "type": "function"
    },
    {
      "inputs": [],
      "name": "getDepositorsLength",
      "outputs": [
        {
          "internalType": "uint256",
          "name": "",
          "type": "uint256"
        }
      ],
      "stateMutability": "view",
      "type": "function"
    },
    {
      "inputs": [
        {
          "internalType": "address",
          "name": "_account",
          "type": "address"
        }
      ],
      "name": "getPendingOrderAssets",
      "outputs": [
        {
          "internalType": "uint256",
          "name": "",
          "type": "uint256"
        }
      ],
      "stateMutability": "view",
      "type": "function"
    },
    {
      "inputs": [
        {
          "internalType": "bytes32",
          "name": "role",
          "type": "bytes32"
        }
      ],
      "name": "getRoleAdmin",
      "outputs": [
        {
          "internalType": "bytes32",
          "name": "",
          "type": "bytes32"
        }
      ],
      "stateMutability": "view",
      "type": "function"
    },
    {
      "inputs": [
        {
          "internalType": "address",
          "name": "_depositor",
          "type": "address"
        }
      ],
      "name": "getTotalAssetsFromDepositor",
      "outputs": [
        {
          "internalType": "uint256",
          "name": "",
          "type": "uint256"
        }
      ],
      "stateMutability": "view",
      "type": "function"
    },
    {
      "inputs": [],
      "name": "getTotalAssetsFromDepositors",
      "outputs": [
        {
          "internalType": "uint256",
          "name": "",
          "type": "uint256"
        }
      ],
      "stateMutability": "view",
      "type": "function"
    },
    {
      "inputs": [],
      "name": "getTotalPendingOrders",
      "outputs": [
        {
          "internalType": "uint256",
          "name": "",
          "type": "uint256"
        }
      ],
      "stateMutability": "view",
      "type": "function"
    },
    {
      "inputs": [],
      "name": "getTotalWithdrawOrders",
      "outputs": [
        {
          "internalType": "uint256",
          "name": "",
          "type": "uint256"
        }
      ],
      "stateMutability": "view",
      "type": "function"
    },
    {
      "inputs": [
        {
          "internalType": "address",
          "name": "_account",
          "type": "address"
        }
      ],
      "name": "getWithdrawOrderAssets",
      "outputs": [
        {
          "internalType": "uint256",
          "name": "",
          "type": "uint256"
        }
      ],
      "stateMutability": "view",
      "type": "function"
    },
    {
      "inputs": [
        {
          "internalType": "bytes32",
          "name": "role",
          "type": "bytes32"
        },
        {
          "internalType": "address",
          "name": "account",
          "type": "address"
        }
      ],
      "name": "grantRole",
      "outputs": [],
      "stateMutability": "nonpayable",
      "type": "function"
    },
    {
      "inputs": [
        {
          "internalType": "bytes32",
          "name": "role",
          "type": "bytes32"
        },
        {
          "internalType": "address",
          "name": "account",
          "type": "address"
        }
      ],
      "name": "hasRole",
      "outputs": [
        {
          "internalType": "bool",
          "name": "",
          "type": "bool"
        }
      ],
      "stateMutability": "view",
      "type": "function"
    },
    {
      "inputs": [
        {
          "internalType": "address",
          "name": "_depositor",
          "type": "address"
        }
      ],
      "name": "insertDepositor",
      "outputs": [],
      "stateMutability": "nonpayable",
      "type": "function"
    },
    {
      "inputs": [],
      "name": "lastFeeMint",
      "outputs": [
        {
          "internalType": "uint64",
          "name": "",
          "type": "uint64"
        }
      ],
      "stateMutability": "view",
      "type": "function"
    },
    {
      "inputs": [],
      "name": "mintFee",
      "outputs": [
        {
          "internalType": "uint256",
          "name": "",
          "type": "uint256"
        }
      ],
      "stateMutability": "nonpayable",
      "type": "function"
    },
    {
      "inputs": [],
      "name": "nextCleanOrderQueue",
      "outputs": [
        {
          "internalType": "uint256",
          "name": "",
          "type": "uint256"
        }
      ],
      "stateMutability": "view",
      "type": "function"
    },
    {
      "inputs": [],
      "name": "nextDepositor",
      "outputs": [
        {
          "internalType": "address",
          "name": "",
          "type": "address"
        }
      ],
      "stateMutability": "view",
      "type": "function"
    },
    {
      "inputs": [
        {
          "internalType": "bytes32",
          "name": "role",
          "type": "bytes32"
        },
        {
          "internalType": "address",
          "name": "account",
          "type": "address"
        }
      ],
      "name": "renounceRole",
      "outputs": [],
      "stateMutability": "nonpayable",
      "type": "function"
    },
    {
      "inputs": [
        {
          "internalType": "bytes32",
          "name": "role",
          "type": "bytes32"
        },
        {
          "internalType": "address",
          "name": "account",
          "type": "address"
        }
      ],
      "name": "revokeRole",
      "outputs": [],
      "stateMutability": "nonpayable",
      "type": "function"
    },
    {
      "inputs": [],
      "name": "setNextDepositor",
      "outputs": [],
      "stateMutability": "nonpayable",
      "type": "function"
    },
    {
      "inputs": [],
      "name": "stAurVault",
      "outputs": [
        {
          "internalType": "contract IStakedAuroraVault",
          "name": "",
          "type": "address"
        }
      ],
      "stateMutability": "view",
      "type": "function"
    },
    {
      "inputs": [
        {
          "internalType": "bool",
          "name": "_isProcessStopped",
          "type": "bool"
        }
      ],
      "name": "stopProcessingWithdrawOrders",
      "outputs": [],
      "stateMutability": "nonpayable",
      "type": "function"
    },
    {
      "inputs": [],
      "name": "stopWithdrawOrders",
      "outputs": [
        {
          "internalType": "bool",
          "name": "",
          "type": "bool"
        }
      ],
      "stateMutability": "view",
      "type": "function"
    },
    {
      "inputs": [
        {
          "internalType": "bytes4",
          "name": "interfaceId",
          "type": "bytes4"
        }
      ],
      "name": "supportsInterface",
      "outputs": [
        {
          "internalType": "bool",
          "name": "",
          "type": "bool"
        }
      ],
      "stateMutability": "view",
      "type": "function"
    },
    {
      "inputs": [],
      "name": "totalAssets",
      "outputs": [
        {
          "internalType": "uint256",
          "name": "",
          "type": "uint256"
        }
      ],
      "stateMutability": "view",
      "type": "function"
    },
    {
      "inputs": [],
      "name": "totalWithdrawInQueue",
      "outputs": [
        {
          "internalType": "uint256",
          "name": "",
          "type": "uint256"
        }
      ],
      "stateMutability": "view",
      "type": "function"
    },
    {
      "inputs": [
        {
          "internalType": "address",
          "name": "_receiver",
          "type": "address"
        },
        {
          "internalType": "address",
          "name": "_owner",
          "type": "address"
        },
        {
          "internalType": "uint256",
          "name": "_assets",
          "type": "uint256"
        }
      ],
      "name": "transferAurora",
      "outputs": [],
      "stateMutability": "nonpayable",
      "type": "function"
    },
    {
      "inputs": [],
      "name": "treasuryAccount",
      "outputs": [
        {
          "internalType": "address",
          "name": "",
          "type": "address"
        }
      ],
      "stateMutability": "view",
      "type": "function"
    },
    {
      "inputs": [
        {
          "internalType": "uint16",
          "name": "_basisPoints",
          "type": "uint16"
        }
      ],
      "name": "updateFeePerYear",
      "outputs": [],
      "stateMutability": "nonpayable",
      "type": "function"
    },
    {
      "stateMutability": "payable",
      "type": "receive"
    }
  ],
  "bytecode": "0x60e06040523480156200001157600080fd5b5060405162004d0638038062004d0683398181016040528101906200003791906200061a565b8581816105dc61ffff168161ffff1611156200008c57806040517f22554545000000000000000000000000000000000000000000000000000000008152600401620000839190620006c7565b60405180910390fd5b82600160146101000a81548161ffff021916908361ffff16021790555042600160166101000a81548167ffffffffffffffff021916908367ffffffffffffffff16021790555081600160006101000a81548173ffffffffffffffffffffffffffffffffffffffff021916908373ffffffffffffffffffffffffffffffffffffffff160217905550505050600073ffffffffffffffffffffffffffffffffffffffff168473ffffffffffffffffffffffffffffffffffffffff1614806200017e5750600073ffffffffffffffffffffffffffffffffffffffff168373ffffffffffffffffffffffffffffffffffffffff16145b80620001b65750600073ffffffffffffffffffffffffffffffffffffffff168273ffffffffffffffffffffffffffffffffffffffff16145b15620001ee576040517ff6b2911f00000000000000000000000000000000000000000000000000000000815260040160405180910390fd5b8373ffffffffffffffffffffffffffffffffffffffff1660808173ffffffffffffffffffffffffffffffffffffffff16815250508273ffffffffffffffffffffffffffffffffffffffff1660c08173ffffffffffffffffffffffffffffffffffffffff16815250508373ffffffffffffffffffffffffffffffffffffffff166338d52e0f6040518163ffffffff1660e01b8152600401602060405180830381865afa158015620002a2573d6000803e3d6000fd5b505050506040513d601f19601f82011682018060405250810190620002c89190620006e4565b73ffffffffffffffffffffffffffffffffffffffff1660a08173ffffffffffffffffffffffffffffffffffffffff168152505084600c81905550426002819055506200033b7fa49807205ce4d355092ef5a8a18f56e8913cf4a201fbe287825b095693c21775336200038e60201b60201c565b620003506000801b336200038e60201b60201c565b620003827f97667070c54ef182b0f5858b034beac1b6f3089aa2d3188bb1e8929f4fa9b929836200038e60201b60201c565b50505050505062000716565b620003a082826200047f60201b60201c565b6200047b57600160008084815260200190815260200160002060000160008373ffffffffffffffffffffffffffffffffffffffff1673ffffffffffffffffffffffffffffffffffffffff16815260200190815260200160002060006101000a81548160ff02191690831515021790555062000420620004e960201b60201c565b73ffffffffffffffffffffffffffffffffffffffff168173ffffffffffffffffffffffffffffffffffffffff16837f2f8788117e7eff1d82e926ec794901d17c78024a50270940304540a733656f0d60405160405180910390a45b5050565b600080600084815260200190815260200160002060000160008373ffffffffffffffffffffffffffffffffffffffff1673ffffffffffffffffffffffffffffffffffffffff16815260200190815260200160002060009054906101000a900460ff16905092915050565b600033905090565b600080fd5b600061ffff82169050919050565b6200050f81620004f6565b81146200051b57600080fd5b50565b6000815190506200052f8162000504565b92915050565b6000819050919050565b6200054a8162000535565b81146200055657600080fd5b50565b6000815190506200056a816200053f565b92915050565b600073ffffffffffffffffffffffffffffffffffffffff82169050919050565b60006200059d8262000570565b9050919050565b6000620005b18262000590565b9050919050565b620005c381620005a4565b8114620005cf57600080fd5b50565b600081519050620005e381620005b8565b92915050565b620005f48162000590565b81146200060057600080fd5b50565b6000815190506200061481620005e9565b92915050565b60008060008060008060c087890312156200063a5762000639620004f1565b5b60006200064a89828a016200051e565b96505060206200065d89828a0162000559565b95505060406200067089828a01620005d2565b94505060606200068389828a0162000603565b93505060806200069689828a0162000603565b92505060a0620006a989828a0162000603565b9150509295509295509295565b620006c181620004f6565b82525050565b6000602082019050620006de6000830184620006b6565b92915050565b600060208284031215620006fd57620006fc620004f1565b5b60006200070d8482850162000603565b91505092915050565b60805160a05160c05161457a6200078c600039600081816111d201528181612117015281816124320152612bfd0152600081816112940152612e38015260008181610ef7015281816110f80152818161130b0152818161195a01528181611b9f01528181611d620152611f72015261457a6000f3fe6080604052600436106102cd5760003560e01c806374b573f211610175578063b7f30a51116100dc578063e2f32def11610095578063e979157b1161006f578063e979157b14610b0b578063f5b541a614610b48578063f7ae5c7614610b73578063fee5e35514610b9e576102d4565b8063e2f32def14610a7a578063e4b2fb7914610aa3578063e6a69ab814610ae0576102d4565b8063b7f30a511461095c578063c02d3f2214610985578063c536e16a146109ae578063cac25897146109eb578063d2239e0414610a28578063d547741f14610a51576102d4565b80639ee92e681161012e5780639ee92e681461084a578063a217fddf14610875578063a512e06a146108a0578063a6c52882146108dd578063b4774ff614610906578063b7f2501214610931576102d4565b806374b573f21461074c57806375b238fc146107635780637f8523b11461078e578063825dc073146107a55780638b2741b2146107d057806391d148541461080d576102d4565b8063339b2cff1161023457806346e90fa6116101ed5780634b9b1e24116101c75780634b9b1e241461068e5780635578fdb2146106b957806360cd0902146106e457806369d9446a14610721576102d4565b806346e90fa61461060f578063481e730e1461063a5780634aa853fc14610665576102d4565b8063339b2cff1461051157806336568abe1461053c578063367c98b8146105655780633e207f761461059057806340c19663146105bb57806341568767146105e6576102d4565b8063217af67a11610286578063217af67a146103ff578063248a9ca31461042a57806329f5986e146104675780632c17ff19146104925780632f2ff15d146104bd5780632fea20f6146104e6576102d4565b806301e1d114146102d957806301ffc9a714610304578063048b7c151461034157806308ee04f01461037e5780630ef7fb67146103a957806313966db5146103d4576102d4565b366102d457005b600080fd5b3480156102e557600080fd5b506102ee610bc9565b6040516102fb919061361a565b60405180910390f35b34801561031057600080fd5b5061032b60048036038101906103269190613692565b610be5565b60405161033891906136da565b60405180910390f35b34801561034d57600080fd5b5061036860048036038101906103639190613753565b610c5f565b60405161037591906136da565b60405180910390f35b34801561038a57600080fd5b50610393610d10565b6040516103a0919061361a565b60405180910390f35b3480156103b557600080fd5b506103be610def565b6040516103cb919061361a565b60405180910390f35b3480156103e057600080fd5b506103e9610df5565b6040516103f6919061361a565b60405180910390f35b34801561040b57600080fd5b50610414610fda565b604051610421919061361a565b60405180910390f35b34801561043657600080fd5b50610451600480360381019061044c91906137b6565b610fdf565b60405161045e91906137f2565b60405180910390f35b34801561047357600080fd5b5061047c610ffe565b6040516104899190613830565b60405180910390f35b34801561049e57600080fd5b506104a7611005565b6040516104b49190613830565b60405180910390f35b3480156104c957600080fd5b506104e460048036038101906104df919061384b565b61101f565b005b3480156104f257600080fd5b506104fb611040565b604051610508919061361a565b60405180910390f35b34801561051d57600080fd5b5061052661104d565b604051610533919061389a565b60405180910390f35b34801561054857600080fd5b50610563600480360381019061055e919061384b565b611073565b005b34801561057157600080fd5b5061057a6110f6565b6040516105879190613914565b60405180910390f35b34801561059c57600080fd5b506105a561111a565b6040516105b2919061394c565b60405180910390f35b3480156105c757600080fd5b506105d061112e565b6040516105dd919061361a565b60405180910390f35b3480156105f257600080fd5b5061060d60048036038101906106089190613993565b611134565b005b34801561061b57600080fd5b506106246111d0565b604051610631919061389a565b60405180910390f35b34801561064657600080fd5b5061064f6111f4565b60405161065c919061361a565b60405180910390f35b34801561067157600080fd5b5061068c600480360381019061068791906139ec565b6111fe565b005b34801561069a57600080fd5b506106a361127f565b6040516106b091906136da565b60405180910390f35b3480156106c557600080fd5b506106ce611292565b6040516106db9190613a3a565b60405180910390f35b3480156106f057600080fd5b5061070b60048036038101906107069190613753565b6112b6565b604051610718919061361a565b60405180910390f35b34801561072d57600080fd5b506107366112ff565b604051610743919061361a565b60405180910390f35b34801561075857600080fd5b50610761611309565b005b34801561076f57600080fd5b50610778611571565b60405161078591906137f2565b60405180910390f35b34801561079a57600080fd5b506107a3611595565b005b3480156107b157600080fd5b506107ba61169f565b6040516107c7919061389a565b60405180910390f35b3480156107dc57600080fd5b506107f760048036038101906107f29190613753565b6116c5565b604051610804919061361a565b60405180910390f35b34801561081957600080fd5b50610834600480360381019061082f919061384b565b61172e565b60405161084191906136da565b60405180910390f35b34801561085657600080fd5b5061085f611798565b60405161086c919061394c565b60405180910390f35b34801561088157600080fd5b5061088a61179e565b60405161089791906137f2565b60405180910390f35b3480156108ac57600080fd5b506108c760048036038101906108c29190613753565b6117a5565b6040516108d4919061361a565b60405180910390f35b3480156108e957600080fd5b5061090460048036038101906108ff9190613a81565b6117ee565b005b34801561091257600080fd5b5061091b61194e565b604051610928919061361a565b60405180910390f35b34801561093d57600080fd5b50610946611953565b604051610953919061361a565b60405180910390f35b34801561096857600080fd5b50610983600480360381019061097e9190613753565b6119f1565b005b34801561099157600080fd5b506109ac60048036038101906109a79190613aae565b611b86565b005b3480156109ba57600080fd5b506109d560048036038101906109d091906139ec565b611d04565b6040516109e2919061361a565b60405180910390f35b3480156109f757600080fd5b50610a126004803603810190610a0d9190613753565b611d33565b604051610a1f919061361a565b60405180910390f35b348015610a3457600080fd5b50610a4f6004803603810190610a4a9190613aae565b611d60565b005b348015610a5d57600080fd5b50610a786004803603810190610a73919061384b565b611f4f565b005b348015610a8657600080fd5b50610aa16004803603810190610a9c9190613aee565b611f70565b005b348015610aaf57600080fd5b50610aca6004803603810190610ac59190613a81565b612005565b604051610ad7919061389a565b60405180910390f35b348015610aec57600080fd5b50610af5612044565b604051610b029190613b60565b60405180910390f35b348015610b1757600080fd5b50610b326004803603810190610b2d9190613753565b61204c565b604051610b3f919061361a565b60405180910390f35b348015610b5457600080fd5b50610b5d612079565b604051610b6a91906137f2565b60405180910390f35b348015610b7f57600080fd5b50610b8861209d565b604051610b95919061361a565b60405180910390f35b348015610baa57600080fd5b50610bb36120a3565b604051610bc0919061361a565b60405180910390f35b6000600854610bd6610d10565b610be09190613baa565b905090565b60007f7965db0b000000000000000000000000000000000000000000000000000000007bffffffffffffffffffffffffffffffffffffffffffffffffffffffff1916827bffffffffffffffffffffffffffffffffffffffffffffffffffffffff19161480610c585750610c57826120a8565b5b9050919050565b600080610c6a611040565b905060005b81811015610d04578373ffffffffffffffffffffffffffffffffffffffff1660038281548110610ca257610ca1613bde565b5b9060005260206000200160009054906101000a900473ffffffffffffffffffffffffffffffffffffffff1673ffffffffffffffffffffffffffffffffffffffff1603610cf357600192505050610d0b565b80610cfd90613c0d565b9050610c6f565b5060009150505b919050565b600080600090506000610d21611040565b905060005b81811015610dca576005600060038381548110610d4657610d45613bde565b5b9060005260206000200160009054906101000a900473ffffffffffffffffffffffffffffffffffffffff1673ffffffffffffffffffffffffffffffffffffffff1673ffffffffffffffffffffffffffffffffffffffff1681526020019081526020016000205483610db79190613c55565b925080610dc390613c0d565b9050610d26565b5060008203610dde57600092505050610dec565b610de782612112565b925050505b90565b610e1081565b60007f97667070c54ef182b0f5858b034beac1b6f3089aa2d3188bb1e8929f4fa9b929610e2181612253565b600062015180600160169054906101000a900467ffffffffffffffff16610e489190613c89565b90508067ffffffffffffffff16421015610e9957806040517fc3821d00000000000000000000000000000000000000000000000000000000008152600401610e909190613830565b60405180910390fd5b6000610ea3611953565b905042600160166101000a81548167ffffffffffffffff021916908367ffffffffffffffff1602179055506000600160009054906101000a900473ffffffffffffffffffffffffffffffffffffffff1690507f000000000000000000000000000000000000000000000000000000000000000073ffffffffffffffffffffffffffffffffffffffff16638cc9d10782846040518363ffffffff1660e01b8152600401610f50929190613cc5565b600060405180830381600087803b158015610f6a57600080fd5b505af1158015610f7e573d6000803e3d6000fd5b505050508073ffffffffffffffffffffffffffffffffffffffff167f9fa0fbff3ec105b470cdb7b3f6583327b487989c89d3d45ad0488c5610d857ad83604051610fc8919061361a565b60405180910390a28194505050505090565b603281565b6000806000838152602001908152602001600020600101549050919050565b6201518081565b600160169054906101000a900467ffffffffffffffff1681565b61102882610fdf565b61103181612253565b61103b8383612267565b505050565b6000600380549050905090565b600160009054906101000a900473ffffffffffffffffffffffffffffffffffffffff1681565b61107b612347565b73ffffffffffffffffffffffffffffffffffffffff168173ffffffffffffffffffffffffffffffffffffffff16146110e8576040517f08c379a00000000000000000000000000000000000000000000000000000000081526004016110df90613d71565b60405180910390fd5b6110f2828261234f565b5050565b7f000000000000000000000000000000000000000000000000000000000000000081565b600160149054906101000a900461ffff1681565b60085481565b7fa49807205ce4d355092ef5a8a18f56e8913cf4a201fbe287825b095693c2177561115e81612253565b816105dc61ffff168161ffff1611156111ae57806040517f225545450000000000000000000000000000000000000000000000000000000081526004016111a5919061394c565b60405180910390fd5b82600160146101000a81548161ffff021916908361ffff160217905550505050565b7f000000000000000000000000000000000000000000000000000000000000000081565b6000600754905090565b7fa49807205ce4d355092ef5a8a18f56e8913cf4a201fbe287825b095693c2177561122881612253565b816001601e6101000a81548160ff0219169083151502179055507f984d14093d32e1a05b1830f8ab780226363c9dd53cf80eee84135ce66eb845f58233604051611273929190613d91565b60405180910390a15050565b6001601e9054906101000a900460ff1681565b7f000000000000000000000000000000000000000000000000000000000000000081565b6000600b60008373ffffffffffffffffffffffffffffffffffffffff1673ffffffffffffffffffffffffffffffffffffffff168152602001908152602001600020549050919050565b6000600a54905090565b7f000000000000000000000000000000000000000000000000000000000000000073ffffffffffffffffffffffffffffffffffffffff163373ffffffffffffffffffffffffffffffffffffffff161461138e576040517f82b4290000000000000000000000000000000000000000000000000000000000815260040160405180910390fd5b6113b9600460009054906101000a900473ffffffffffffffffffffffffffffffffffffffff16612430565b600060036000815481106113d0576113cf613bde565b5b9060005260206000200160009054906101000a900473ffffffffffffffffffffffffffffffffffffffff1690506000611407611040565b905060005b8181101561152b57600560008473ffffffffffffffffffffffffffffffffffffffff1673ffffffffffffffffffffffffffffffffffffffff16815260200190815260200160002054600560006003848154811061146c5761146b613bde565b5b9060005260206000200160009054906101000a900473ffffffffffffffffffffffffffffffffffffffff1673ffffffffffffffffffffffffffffffffffffffff1673ffffffffffffffffffffffffffffffffffffffff16815260200190815260200160002054101561151a57600381815481106114ec576114eb613bde565b5b9060005260206000200160009054906101000a900473ffffffffffffffffffffffffffffffffffffffff1692505b8061152490613c0d565b905061140c565b5081600460006101000a81548173ffffffffffffffffffffffffffffffffffffffff021916908373ffffffffffffffffffffffffffffffffffffffff1602179055505050565b7fa49807205ce4d355092ef5a8a18f56e8913cf4a201fbe287825b095693c2177581565b600061159f611040565b036115d6576040517fe15ef22800000000000000000000000000000000000000000000000000000000815260040160405180910390fd5b426002541115611612576040517ffbd7758b00000000000000000000000000000000000000000000000000000000815260040160405180910390fd5b61161a612510565b611622612669565b6001601e9054906101000a900460ff166116475761163e612815565b6116466129eb565b5b6000611651612bf8565b4261165c9190613c55565b9050806002819055507fbcd58ee065940437e252f0433bf600c5b27a876c27decbe32d9e559238cf0a9281604051611694919061361a565b60405180910390a150565b600460009054906101000a900473ffffffffffffffffffffffffffffffffffffffff1681565b600080600560008473ffffffffffffffffffffffffffffffffffffffff1673ffffffffffffffffffffffffffffffffffffffff1681526020019081526020016000205490506000810361171c576000915050611729565b61172581612112565b9150505b919050565b600080600084815260200190815260200160002060000160008373ffffffffffffffffffffffffffffffffffffffff1673ffffffffffffffffffffffffffffffffffffffff16815260200190815260200160002060009054906101000a900460ff16905092915050565b6105dc81565b6000801b81565b6000600560008373ffffffffffffffffffffffffffffffffffffffff1673ffffffffffffffffffffffffffffffffffffffff168152602001908152602001600020549050919050565b7f97667070c54ef182b0f5858b034beac1b6f3089aa2d3188bb1e8929f4fa9b92961181881612253565b600c548203611853576040517f1787968900000000000000000000000000000000000000000000000000000000815260040160405180910390fd5b61185b6111f4565b821015611894576040517f58b9f76700000000000000000000000000000000000000000000000000000000815260040160405180910390fd5b60c88211156118cf576040517ff3c90f7e00000000000000000000000000000000000000000000000000000000815260040160405180910390fd5b603282101561190a576040517f4ac860d300000000000000000000000000000000000000000000000000000000815260040160405180910390fd5b81600c819055507f97e43b23016a0fa22fe411135d94e6667f69308bc545a0935087ce7cf645783b8233604051611942929190613dba565b60405180910390a15050565b60c881565b60006119ec7f000000000000000000000000000000000000000000000000000000000000000073ffffffffffffffffffffffffffffffffffffffff166318160ddd6040518163ffffffff1660e01b8152600401602060405180830381865afa1580156119c3573d6000803e3d6000fd5b505050506040513d601f19601f820116820180604052508101906119e79190613df8565b612cb7565b905090565b7fa49807205ce4d355092ef5a8a18f56e8913cf4a201fbe287825b095693c21775611a1b81612253565b6014611a25611040565b10611a5c576040517f8a61554d00000000000000000000000000000000000000000000000000000000815260040160405180910390fd5b611a6582610c5f565b15611a9c576040517f6290028f00000000000000000000000000000000000000000000000000000000815260040160405180910390fd5b6003829080600181540180825580915050600190039060005260206000200160009091909190916101000a81548173ffffffffffffffffffffffffffffffffffffffff021916908373ffffffffffffffffffffffffffffffffffffffff16021790555081600460006101000a81548173ffffffffffffffffffffffffffffffffffffffff021916908373ffffffffffffffffffffffffffffffffffffffff160217905550611b4982612430565b7fb0c8d3ffe0e68b1135aeb0f0f57e57f41616354b7afa966b5718dc4ca429ffd08233604051611b7a929190613e25565b60405180910390a15050565b3073ffffffffffffffffffffffffffffffffffffffff167f000000000000000000000000000000000000000000000000000000000000000073ffffffffffffffffffffffffffffffffffffffff166322828cc26040518163ffffffff1660e01b8152600401602060405180830381865afa158015611c08573d6000803e3d6000fd5b505050506040513d601f19601f82011682018060405250810190611c2c9190613e63565b73ffffffffffffffffffffffffffffffffffffffff1603611c79576040517f8e4d9dd000000000000000000000000000000000000000000000000000000000815260040160405180910390fd5b611c84813384612d28565b3373ffffffffffffffffffffffffffffffffffffffff168173ffffffffffffffffffffffffffffffffffffffff163373ffffffffffffffffffffffffffffffffffffffff167f2c5df8c7ab98e30b283cdf51aba7043b460d144a940c6557458a00870b58fe2e85604051611cf8919061361a565b60405180910390a45050565b60008115611d2857611d14612bf8565b600254611d219190613c55565b9050611d2e565b60025490505b919050565b600080611d3f83612e81565b90506006600082815260200190815260200160002060000154915050919050565b7f000000000000000000000000000000000000000000000000000000000000000073ffffffffffffffffffffffffffffffffffffffff163373ffffffffffffffffffffffffffffffffffffffff1614611de5576040517f82b4290000000000000000000000000000000000000000000000000000000000815260040160405180910390fd5b8160086000828254611df79190613c55565b925050819055506000611e0982612e81565b90506000611e156111f4565b905060008203611f1b576000600c549050808210611e6a57806040517f6487573b000000000000000000000000000000000000000000000000000000008152600401611e61919061361a565b60405180910390fd5b6000600183611e799190613c55565b90508060078190555060405180604001604052808781526020018673ffffffffffffffffffffffffffffffffffffffff16815250600660008381526020019081526020016000206000820151816000015560208201518160010160006101000a81548173ffffffffffffffffffffffffffffffffffffffff021916908373ffffffffffffffffffffffffffffffffffffffff1602179055509050505050611f49565b83600660008481526020019081526020016000206000016000828254611f419190613c55565b925050819055505b50505050565b611f5882610fdf565b611f6181612253565b611f6b838361234f565b505050565b7f000000000000000000000000000000000000000000000000000000000000000073ffffffffffffffffffffffffffffffffffffffff163373ffffffffffffffffffffffffffffffffffffffff1614611ff5576040517f82b4290000000000000000000000000000000000000000000000000000000000815260040160405180910390fd5b612000838383612d28565b505050565b6003818154811061201557600080fd5b906000526020600020016000915054906101000a900473ffffffffffffffffffffffffffffffffffffffff1681565b6301e1338081565b60008061205883612f2c565b90506009600082815260200190815260200160002060000154915050919050565b7f97667070c54ef182b0f5858b034beac1b6f3089aa2d3188bb1e8929f4fa9b92981565b60025481565b601481565b60007f01ffc9a7000000000000000000000000000000000000000000000000000000007bffffffffffffffffffffffffffffffffffffffffffffffffffffffff1916827bffffffffffffffffffffffffffffffffffffffffffffffffffffffff1916149050919050565b6000807f0000000000000000000000000000000000000000000000000000000000000000905060008173ffffffffffffffffffffffffffffffffffffffff1663bb07ec1b6040518163ffffffff1660e01b8152600401602060405180830381865afa158015612185573d6000803e3d6000fd5b505050506040513d601f19601f820116820180604052508101906121a99190613df8565b9050600081036121be5760009250505061224e565b60008273ffffffffffffffffffffffffffffffffffffffff1663cd5ba5906040518163ffffffff1660e01b8152600401602060405180830381865afa15801561220b573d6000803e3d6000fd5b505050506040513d601f19601f8201168201806040525081019061222f9190613df8565b8561223a9190613e90565b905081816122489190613f01565b93505050505b919050565b6122648161225f612347565b612fd7565b50565b612271828261172e565b61234357600160008084815260200190815260200160002060000160008373ffffffffffffffffffffffffffffffffffffffff1673ffffffffffffffffffffffffffffffffffffffff16815260200190815260200160002060006101000a81548160ff0219169083151502179055506122e8612347565b73ffffffffffffffffffffffffffffffffffffffff168173ffffffffffffffffffffffffffffffffffffffff16837f2f8788117e7eff1d82e926ec794901d17c78024a50270940304540a733656f0d60405160405180910390a45b5050565b600033905090565b612359828261172e565b1561242c57600080600084815260200190815260200160002060000160008373ffffffffffffffffffffffffffffffffffffffff1673ffffffffffffffffffffffffffffffffffffffff16815260200190815260200160002060006101000a81548160ff0219169083151502179055506123d1612347565b73ffffffffffffffffffffffffffffffffffffffff168173ffffffffffffffffffffffffffffffffffffffff16837ff6391f5c32d9c69d2a47ea670b442974b53935d1edc7fd64eb21e047a839171b60405160405180910390a45b5050565b7f000000000000000000000000000000000000000000000000000000000000000073ffffffffffffffffffffffffffffffffffffffff1663ba0cb22b826040518263ffffffff1660e01b8152600401612489919061389a565b602060405180830381865afa1580156124a6573d6000803e3d6000fd5b505050506040513d601f19601f820116820180604052508101906124ca9190613df8565b600560008373ffffffffffffffffffffffffffffffffffffffff1673ffffffffffffffffffffffffffffffffffffffff1681526020019081526020016000208190555050565b600061251a611040565b905060005b818110156126655760006003828154811061253d5761253c613bde565b5b9060005260206000200160009054906101000a900473ffffffffffffffffffffffffffffffffffffffff16905060008173ffffffffffffffffffffffffffffffffffffffff166381739a6e6040518163ffffffff1660e01b8152600401602060405180830381865afa1580156125b7573d6000803e3d6000fd5b505050506040513d601f19601f820116820180604052508101906125db9190613df8565b90506000811115612652578173ffffffffffffffffffffffffffffffffffffffff16632e1a7d4d826040518263ffffffff1660e01b815260040161261f919061361a565b600060405180830381600087803b15801561263957600080fd5b505af115801561264d573d6000803e3d6000fd5b505050505b50508061265e90613c0d565b905061251f565b5050565b60006126736112ff565b90506000600190505b81811161280957600060096000838152602001908152602001600020604051806040016040529081600082015481526020016001820160009054906101000a900473ffffffffffffffffffffffffffffffffffffffff1673ffffffffffffffffffffffffffffffffffffffff1673ffffffffffffffffffffffffffffffffffffffff16815250509050604051806040016040528060008152602001600073ffffffffffffffffffffffffffffffffffffffff16815250600960008481526020019081526020016000206000820151816000015560208201518160010160006101000a81548173ffffffffffffffffffffffffffffffffffffffff021916908373ffffffffffffffffffffffffffffffffffffffff1602179055509050508060000151600b6000836020015173ffffffffffffffffffffffffffffffffffffffff1673ffffffffffffffffffffffffffffffffffffffff16815260200190815260200160002060008282546127f09190613c55565b92505081905550508061280290613c0d565b905061267c565b506000600a8190555050565b600080612820611040565b905060006008549050600060085411156129e55760008290505b60008111156129e357600060036001836128549190613baa565b8154811061286557612864613bde565b5b9060005260206000200160009054906101000a900473ffffffffffffffffffffffffffffffffffffffff169050600061289d826116c5565b9050600081036128ae5750506129d2565b600086856128bc9190613baa565b9050808210612943578273ffffffffffffffffffffffffffffffffffffffff16632e17de78826040518263ffffffff1660e01b81526004016128fe919061361a565b600060405180830381600087803b15801561291857600080fd5b505af115801561292c573d6000803e3d6000fd5b50505050808761293c9190613c55565b96506129b2565b8273ffffffffffffffffffffffffffffffffffffffff166335322f376040518163ffffffff1660e01b8152600401600060405180830381600087803b15801561298b57600080fd5b505af115801561299f573d6000803e3d6000fd5b5050505081876129af9190613c55565b96505b6129bb83612430565b8487036129ce57505050505050506129e9565b5050505b806129dc90613f32565b905061283a565b505b5050505b565b60006129f56111f4565b90506000600190505b818111612bdd57600060066000838152602001908152602001600020604051806040016040529081600082015481526020016001820160009054906101000a900473ffffffffffffffffffffffffffffffffffffffff1673ffffffffffffffffffffffffffffffffffffffff1673ffffffffffffffffffffffffffffffffffffffff168152505090506000816000015190506000811115612bca57600082602001519050604051806040016040528060008152602001600073ffffffffffffffffffffffffffffffffffffffff16815250600660008681526020019081526020016000206000820151816000015560208201518160010160006101000a81548173ffffffffffffffffffffffffffffffffffffffff021916908373ffffffffffffffffffffffffffffffffffffffff16021790555090505060405180604001604052808381526020018273ffffffffffffffffffffffffffffffffffffffff16815250600960008681526020019081526020016000206000820151816000015560208201518160010160006101000a81548173ffffffffffffffffffffffffffffffffffffffff021916908373ffffffffffffffffffffffffffffffffffffffff160217905550905050505b505080612bd690613c0d565b90506129fe565b5080600a819055506000600781905550600060088190555050565b6000807f000000000000000000000000000000000000000000000000000000000000000073ffffffffffffffffffffffffffffffffffffffff1663894e9a0d60006040518263ffffffff1660e01b8152600401612c559190613f96565b61016060405180830381865afa158015612c73573d6000803e3d6000fd5b505050506040513d601f19601f82011682018060405250810190612c979190613fd6565b509950505050505050505050610e1081612cb19190613c55565b91505090565b600080600160169054906101000a900467ffffffffffffffff1667ffffffffffffffff1642612ce69190613baa565b9050612cfd83826301e1338063ffffffff1661305c565b9150612d2082600160149054906101000a900461ffff1661ffff1661271061305c565b915050919050565b60008103612d62576040517fdd484e7000000000000000000000000000000000000000000000000000000000815260040160405180910390fd5b80600b60008473ffffffffffffffffffffffffffffffffffffffff1673ffffffffffffffffffffffffffffffffffffffff168152602001908152602001600020541015612ddb576040517fad3a8b9e00000000000000000000000000000000000000000000000000000000815260040160405180910390fd5b80600b60008473ffffffffffffffffffffffffffffffffffffffff1673ffffffffffffffffffffffffffffffffffffffff1681526020019081526020016000206000828254612e2a9190613baa565b92505081905550612e7c83827f000000000000000000000000000000000000000000000000000000000000000073ffffffffffffffffffffffffffffffffffffffff1661307e9092919063ffffffff16565b505050565b600080612e8c6111f4565b90506000600190505b818111612f20578373ffffffffffffffffffffffffffffffffffffffff166006600083815260200190815260200160002060010160009054906101000a900473ffffffffffffffffffffffffffffffffffffffff1673ffffffffffffffffffffffffffffffffffffffff1603612f0f578092505050612f27565b80612f1990613c0d565b9050612e95565b5060009150505b919050565b600080612f376112ff565b90506000600190505b818111612fcb578373ffffffffffffffffffffffffffffffffffffffff166009600083815260200190815260200160002060010160009054906101000a900473ffffffffffffffffffffffffffffffffffffffff1673ffffffffffffffffffffffffffffffffffffffff1603612fba578092505050612fd2565b80612fc490613c0d565b9050612f40565b5060009150505b919050565b612fe1828261172e565b61305857612fee81613104565b612ffc8360001c6020613131565b60405160200161300d9291906141d3565b6040516020818303038152906040526040517f08c379a000000000000000000000000000000000000000000000000000000000815260040161304f9190614257565b60405180910390fd5b5050565b600081838561306b9190613e90565b6130759190613f01565b90509392505050565b6130ff8363a9059cbb60e01b848460405160240161309d929190613cc5565b604051602081830303815290604052907bffffffffffffffffffffffffffffffffffffffffffffffffffffffff19166020820180517bffffffffffffffffffffffffffffffffffffffffffffffffffffffff838183161783525050505061336d565b505050565b606061312a8273ffffffffffffffffffffffffffffffffffffffff16601460ff16613131565b9050919050565b6060600060028360026131449190613e90565b61314e9190613c55565b67ffffffffffffffff81111561316757613166614279565b5b6040519080825280601f01601f1916602001820160405280156131995781602001600182028036833780820191505090505b5090507f3000000000000000000000000000000000000000000000000000000000000000816000815181106131d1576131d0613bde565b5b60200101907effffffffffffffffffffffffffffffffffffffffffffffffffffffffffffff1916908160001a9053507f78000000000000000000000000000000000000000000000000000000000000008160018151811061323557613234613bde565b5b60200101907effffffffffffffffffffffffffffffffffffffffffffffffffffffffffffff1916908160001a905350600060018460026132759190613e90565b61327f9190613c55565b90505b600181111561331f577f3031323334353637383961626364656600000000000000000000000000000000600f8616601081106132c1576132c0613bde565b5b1a60f81b8282815181106132d8576132d7613bde565b5b60200101907effffffffffffffffffffffffffffffffffffffffffffffffffffffffffffff1916908160001a905350600485901c94508061331890613f32565b9050613282565b5060008414613363576040517f08c379a000000000000000000000000000000000000000000000000000000000815260040161335a906142f4565b60405180910390fd5b8091505092915050565b60006133cf826040518060400160405280602081526020017f5361666545524332303a206c6f772d6c6576656c2063616c6c206661696c65648152508573ffffffffffffffffffffffffffffffffffffffff166134349092919063ffffffff16565b905060008151111561342f57808060200190518101906133ef9190614329565b61342e576040517f08c379a0000000000000000000000000000000000000000000000000000000008152600401613425906143c8565b60405180910390fd5b5b505050565b6060613443848460008561344c565b90509392505050565b606082471015613491576040517f08c379a00000000000000000000000000000000000000000000000000000000081526004016134889061445a565b60405180910390fd5b6000808673ffffffffffffffffffffffffffffffffffffffff1685876040516134ba91906144c1565b60006040518083038185875af1925050503d80600081146134f7576040519150601f19603f3d011682016040523d82523d6000602084013e6134fc565b606091505b509150915061350d87838387613519565b92505050949350505050565b6060831561357b576000835103613573576135338561358e565b613572576040517f08c379a000000000000000000000000000000000000000000000000000000000815260040161356990614524565b60405180910390fd5b5b829050613586565b61358583836135b1565b5b949350505050565b6000808273ffffffffffffffffffffffffffffffffffffffff163b119050919050565b6000825111156135c45781518083602001fd5b806040517f08c379a00000000000000000000000000000000000000000000000000000000081526004016135f89190614257565b60405180910390fd5b6000819050919050565b61361481613601565b82525050565b600060208201905061362f600083018461360b565b92915050565b600080fd5b60007fffffffff0000000000000000000000000000000000000000000000000000000082169050919050565b61366f8161363a565b811461367a57600080fd5b50565b60008135905061368c81613666565b92915050565b6000602082840312156136a8576136a7613635565b5b60006136b68482850161367d565b91505092915050565b60008115159050919050565b6136d4816136bf565b82525050565b60006020820190506136ef60008301846136cb565b92915050565b600073ffffffffffffffffffffffffffffffffffffffff82169050919050565b6000613720826136f5565b9050919050565b61373081613715565b811461373b57600080fd5b50565b60008135905061374d81613727565b92915050565b60006020828403121561376957613768613635565b5b60006137778482850161373e565b91505092915050565b6000819050919050565b61379381613780565b811461379e57600080fd5b50565b6000813590506137b08161378a565b92915050565b6000602082840312156137cc576137cb613635565b5b60006137da848285016137a1565b91505092915050565b6137ec81613780565b82525050565b600060208201905061380760008301846137e3565b92915050565b600067ffffffffffffffff82169050919050565b61382a8161380d565b82525050565b60006020820190506138456000830184613821565b92915050565b6000806040838503121561386257613861613635565b5b6000613870858286016137a1565b92505060206138818582860161373e565b9150509250929050565b61389481613715565b82525050565b60006020820190506138af600083018461388b565b92915050565b6000819050919050565b60006138da6138d56138d0846136f5565b6138b5565b6136f5565b9050919050565b60006138ec826138bf565b9050919050565b60006138fe826138e1565b9050919050565b61390e816138f3565b82525050565b60006020820190506139296000830184613905565b92915050565b600061ffff82169050919050565b6139468161392f565b82525050565b6000602082019050613961600083018461393d565b92915050565b6139708161392f565b811461397b57600080fd5b50565b60008135905061398d81613967565b92915050565b6000602082840312156139a9576139a8613635565b5b60006139b78482850161397e565b91505092915050565b6139c9816136bf565b81146139d457600080fd5b50565b6000813590506139e6816139c0565b92915050565b600060208284031215613a0257613a01613635565b5b6000613a10848285016139d7565b91505092915050565b6000613a24826138e1565b9050919050565b613a3481613a19565b82525050565b6000602082019050613a4f6000830184613a2b565b92915050565b613a5e81613601565b8114613a6957600080fd5b50565b600081359050613a7b81613a55565b92915050565b600060208284031215613a9757613a96613635565b5b6000613aa584828501613a6c565b91505092915050565b60008060408385031215613ac557613ac4613635565b5b6000613ad385828601613a6c565b9250506020613ae48582860161373e565b9150509250929050565b600080600060608486031215613b0757613b06613635565b5b6000613b158682870161373e565b9350506020613b268682870161373e565b9250506040613b3786828701613a6c565b9150509250925092565b600063ffffffff82169050919050565b613b5a81613b41565b82525050565b6000602082019050613b756000830184613b51565b92915050565b7f4e487b7100000000000000000000000000000000000000000000000000000000600052601160045260246000fd5b6000613bb582613601565b9150613bc083613601565b9250828203905081811115613bd857613bd7613b7b565b5b92915050565b7f4e487b7100000000000000000000000000000000000000000000000000000000600052603260045260246000fd5b6000613c1882613601565b91507fffffffffffffffffffffffffffffffffffffffffffffffffffffffffffffffff8203613c4a57613c49613b7b565b5b600182019050919050565b6000613c6082613601565b9150613c6b83613601565b9250828201905080821115613c8357613c82613b7b565b5b92915050565b6000613c948261380d565b9150613c9f8361380d565b9250828201905067ffffffffffffffff811115613cbf57613cbe613b7b565b5b92915050565b6000604082019050613cda600083018561388b565b613ce7602083018461360b565b9392505050565b600082825260208201905092915050565b7f416363657373436f6e74726f6c3a2063616e206f6e6c792072656e6f756e636560008201527f20726f6c657320666f722073656c660000000000000000000000000000000000602082015250565b6000613d5b602f83613cee565b9150613d6682613cff565b604082019050919050565b60006020820190508181036000830152613d8a81613d4e565b9050919050565b6000604082019050613da660008301856136cb565b613db3602083018461388b565b9392505050565b6000604082019050613dcf600083018561360b565b613ddc602083018461388b565b9392505050565b600081519050613df281613a55565b92915050565b600060208284031215613e0e57613e0d613635565b5b6000613e1c84828501613de3565b91505092915050565b6000604082019050613e3a600083018561388b565b613e47602083018461388b565b9392505050565b600081519050613e5d81613727565b92915050565b600060208284031215613e7957613e78613635565b5b6000613e8784828501613e4e565b91505092915050565b6000613e9b82613601565b9150613ea683613601565b9250828202613eb481613601565b91508282048414831517613ecb57613eca613b7b565b5b5092915050565b7f4e487b7100000000000000000000000000000000000000000000000000000000600052601260045260246000fd5b6000613f0c82613601565b9150613f1783613601565b925082613f2757613f26613ed2565b5b828204905092915050565b6000613f3d82613601565b915060008203613f5057613f4f613b7b565b5b600182039050919050565b6000819050919050565b6000613f80613f7b613f7684613f5b565b6138b5565b613601565b9050919050565b613f9081613f65565b82525050565b6000602082019050613fab6000830184613f87565b92915050565b60038110613fbe57600080fd5b50565b600081519050613fd081613fb1565b92915050565b60008060008060008060008060008060006101608c8e031215613ffc57613ffb613635565b5b600061400a8e828f01613e4e565b9b5050602061401b8e828f01613e4e565b9a5050604061402c8e828f01613de3565b995050606061403d8e828f01613de3565b985050608061404e8e828f01613de3565b97505060a061405f8e828f01613de3565b96505060c06140708e828f01613de3565b95505060e06140818e828f01613de3565b9450506101006140938e828f01613de3565b9350506101206140a58e828f01613de3565b9250506101406140b78e828f01613fc1565b9150509295989b509295989b9093969950565b600081905092915050565b7f416363657373436f6e74726f6c3a206163636f756e7420000000000000000000600082015250565b600061410b6017836140ca565b9150614116826140d5565b601782019050919050565b600081519050919050565b60005b8381101561414a57808201518184015260208101905061412f565b60008484015250505050565b600061416182614121565b61416b81856140ca565b935061417b81856020860161412c565b80840191505092915050565b7f206973206d697373696e6720726f6c6520000000000000000000000000000000600082015250565b60006141bd6011836140ca565b91506141c882614187565b601182019050919050565b60006141de826140fe565b91506141ea8285614156565b91506141f5826141b0565b91506142018284614156565b91508190509392505050565b6000601f19601f8301169050919050565b600061422982614121565b6142338185613cee565b935061424381856020860161412c565b61424c8161420d565b840191505092915050565b60006020820190508181036000830152614271818461421e565b905092915050565b7f4e487b7100000000000000000000000000000000000000000000000000000000600052604160045260246000fd5b7f537472696e67733a20686578206c656e67746820696e73756666696369656e74600082015250565b60006142de602083613cee565b91506142e9826142a8565b602082019050919050565b6000602082019050818103600083015261430d816142d1565b9050919050565b600081519050614323816139c0565b92915050565b60006020828403121561433f5761433e613635565b5b600061434d84828501614314565b91505092915050565b7f5361666545524332303a204552433230206f7065726174696f6e20646964206e60008201527f6f74207375636365656400000000000000000000000000000000000000000000602082015250565b60006143b2602a83613cee565b91506143bd82614356565b604082019050919050565b600060208201905081810360008301526143e1816143a5565b9050919050565b7f416464726573733a20696e73756666696369656e742062616c616e636520666f60008201527f722063616c6c0000000000000000000000000000000000000000000000000000602082015250565b6000614444602683613cee565b915061444f826143e8565b604082019050919050565b6000602082019050818103600083015261447381614437565b9050919050565b600081519050919050565b600081905092915050565b600061449b8261447a565b6144a58185614485565b93506144b581856020860161412c565b80840191505092915050565b60006144cd8284614490565b915081905092915050565b7f416464726573733a2063616c6c20746f206e6f6e2d636f6e7472616374000000600082015250565b600061450e601d83613cee565b9150614519826144d8565b602082019050919050565b6000602082019050818103600083015261453d81614501565b905091905056fea264697066735822122062df1c831ac1dc6cac02d838763814fc16e9fc351ba2a13a03ee0bcee7b7d3b964736f6c63430008120033",
  "linkReferences": {},
  "deployedLinkReferences": {}
}