{
  "_format": "hh-sol-artifact-1",
  "contractName": "StakedAuroraVault",
  "sourceName": "contracts/StakedAuroraVault.sol",
  "abi": [
    {
      "inputs": [
        {
          "internalType": "uint256",
          "name": "_minDepositAmount",
          "type": "uint256"
        },
        {
          "internalType": "address",
          "name": "_contractOperatorRole",
          "type": "address"
        },
        {
          "internalType": "contract IERC20",
          "name": "_asset",
          "type": "address"
        },
        {
          "internalType": "string",
          "name": "_stAurName",
          "type": "string"
        },
        {
          "internalType": "string",
          "name": "_stAurSymbol",
          "type": "string"
        }
      ],
      "stateMutability": "nonpayable",
      "type": "constructor"
    },
    {
      "inputs": [],
      "name": "ContractAlreadyInitialized",
      "type": "error"
    },
    {
      "inputs": [],
      "name": "ContractNotInitialized",
      "type": "error"
    },
    {
      "inputs": [],
      "name": "InvalidZeroAddress",
      "type": "error"
    },
    {
      "inputs": [],
      "name": "InvalidZeroAmount",
      "type": "error"
    },
    {
      "inputs": [],
      "name": "LessThanMinDeposit",
      "type": "error"
    },
    {
      "inputs": [],
      "name": "NotFullyOperational",
      "type": "error"
    },
    {
      "inputs": [],
      "name": "Unauthorized",
      "type": "error"
    },
    {
      "anonymous": false,
      "inputs": [
        {
          "indexed": true,
          "internalType": "address",
          "name": "_account",
          "type": "address"
        },
        {
          "indexed": false,
          "internalType": "address",
          "name": "_sender",
          "type": "address"
        }
      ],
      "name": "AccountBlacklisted",
      "type": "event"
    },
    {
      "anonymous": false,
      "inputs": [
        {
          "indexed": true,
          "internalType": "address",
          "name": "_account",
          "type": "address"
        },
        {
          "indexed": false,
          "internalType": "address",
          "name": "_sender",
          "type": "address"
        }
      ],
      "name": "AccountWhitelisted",
      "type": "event"
    },
    {
      "anonymous": false,
      "inputs": [
        {
          "indexed": true,
          "internalType": "address",
          "name": "owner",
          "type": "address"
        },
        {
          "indexed": true,
          "internalType": "address",
          "name": "spender",
          "type": "address"
        },
        {
          "indexed": false,
          "internalType": "uint256",
          "name": "value",
          "type": "uint256"
        }
      ],
      "name": "Approval",
      "type": "event"
    },
    {
      "anonymous": false,
      "inputs": [
        {
          "indexed": false,
          "internalType": "address",
          "name": "_stakingManager",
          "type": "address"
        },
        {
          "indexed": false,
          "internalType": "address",
          "name": "_liquidityPool",
          "type": "address"
        },
        {
          "indexed": false,
          "internalType": "address",
          "name": "_sender",
          "type": "address"
        }
      ],
      "name": "ContractInitialized",
      "type": "event"
    },
    {
      "anonymous": false,
      "inputs": [
        {
          "indexed": false,
          "internalType": "bool",
          "name": "_isFullyOperational",
          "type": "bool"
        },
        {
          "indexed": false,
          "internalType": "address",
          "name": "_sender",
          "type": "address"
        }
      ],
      "name": "ContractUpdateOperation",
      "type": "event"
    },
    {
      "anonymous": false,
      "inputs": [
        {
          "indexed": false,
          "internalType": "bool",
          "name": "_isWhitelistRequired",
          "type": "bool"
        },
        {
          "indexed": false,
          "internalType": "address",
          "name": "_sender",
          "type": "address"
        }
      ],
      "name": "ContractUpdateWhitelist",
      "type": "event"
    },
    {
      "anonymous": false,
      "inputs": [
        {
          "indexed": true,
          "internalType": "address",
          "name": "sender",
          "type": "address"
        },
        {
          "indexed": true,
          "internalType": "address",
          "name": "owner",
          "type": "address"
        },
        {
          "indexed": false,
          "internalType": "uint256",
          "name": "assets",
          "type": "uint256"
        },
        {
          "indexed": false,
          "internalType": "uint256",
          "name": "shares",
          "type": "uint256"
        }
      ],
      "name": "Deposit",
      "type": "event"
    },
    {
      "anonymous": false,
      "inputs": [
        {
          "indexed": false,
          "internalType": "address",
          "name": "_new",
          "type": "address"
        },
        {
          "indexed": false,
          "internalType": "address",
          "name": "_sender",
          "type": "address"
        }
      ],
      "name": "NewLiquidityPoolUpdate",
      "type": "event"
    },
    {
      "anonymous": false,
      "inputs": [
        {
          "indexed": false,
          "internalType": "address",
          "name": "_new",
          "type": "address"
        },
        {
          "indexed": false,
          "internalType": "address",
          "name": "_sender",
          "type": "address"
        }
      ],
      "name": "NewManagerUpdate",
      "type": "event"
    },
    {
      "anonymous": false,
      "inputs": [
        {
          "indexed": true,
          "internalType": "bytes32",
          "name": "role",
          "type": "bytes32"
        },
        {
          "indexed": true,
          "internalType": "bytes32",
          "name": "previousAdminRole",
          "type": "bytes32"
        },
        {
          "indexed": true,
          "internalType": "bytes32",
          "name": "newAdminRole",
          "type": "bytes32"
        }
      ],
      "name": "RoleAdminChanged",
      "type": "event"
    },
    {
      "anonymous": false,
      "inputs": [
        {
          "indexed": true,
          "internalType": "bytes32",
          "name": "role",
          "type": "bytes32"
        },
        {
          "indexed": true,
          "internalType": "address",
          "name": "account",
          "type": "address"
        },
        {
          "indexed": true,
          "internalType": "address",
          "name": "sender",
          "type": "address"
        }
      ],
      "name": "RoleGranted",
      "type": "event"
    },
    {
      "anonymous": false,
      "inputs": [
        {
          "indexed": true,
          "internalType": "bytes32",
          "name": "role",
          "type": "bytes32"
        },
        {
          "indexed": true,
          "internalType": "address",
          "name": "account",
          "type": "address"
        },
        {
          "indexed": true,
          "internalType": "address",
          "name": "sender",
          "type": "address"
        }
      ],
      "name": "RoleRevoked",
      "type": "event"
    },
    {
      "anonymous": false,
      "inputs": [
        {
          "indexed": true,
          "internalType": "address",
          "name": "from",
          "type": "address"
        },
        {
          "indexed": true,
          "internalType": "address",
          "name": "to",
          "type": "address"
        },
        {
          "indexed": false,
          "internalType": "uint256",
          "name": "value",
          "type": "uint256"
        }
      ],
      "name": "Transfer",
      "type": "event"
    },
    {
      "anonymous": false,
      "inputs": [
        {
          "indexed": false,
          "internalType": "uint256",
          "name": "_new",
          "type": "uint256"
        },
        {
          "indexed": false,
          "internalType": "address",
          "name": "_sender",
          "type": "address"
        }
      ],
      "name": "UpdateMinDepositAmount",
      "type": "event"
    },
    {
      "anonymous": false,
      "inputs": [
        {
          "indexed": true,
          "internalType": "address",
          "name": "sender",
          "type": "address"
        },
        {
          "indexed": true,
          "internalType": "address",
          "name": "receiver",
          "type": "address"
        },
        {
          "indexed": true,
          "internalType": "address",
          "name": "owner",
          "type": "address"
        },
        {
          "indexed": false,
          "internalType": "uint256",
          "name": "assets",
          "type": "uint256"
        },
        {
          "indexed": false,
          "internalType": "uint256",
          "name": "shares",
          "type": "uint256"
        }
      ],
      "name": "Withdraw",
      "type": "event"
    },
    {
      "inputs": [],
      "name": "ADMIN_ROLE",
      "outputs": [
        {
          "internalType": "bytes32",
          "name": "",
          "type": "bytes32"
        }
      ],
      "stateMutability": "view",
      "type": "function"
    },
    {
      "inputs": [],
      "name": "DEFAULT_ADMIN_ROLE",
      "outputs": [
        {
          "internalType": "bytes32",
          "name": "",
          "type": "bytes32"
        }
      ],
      "stateMutability": "view",
      "type": "function"
    },
    {
      "inputs": [],
      "name": "OPERATOR_ROLE",
      "outputs": [
        {
          "internalType": "bytes32",
          "name": "",
          "type": "bytes32"
        }
      ],
      "stateMutability": "view",
      "type": "function"
    },
    {
      "inputs": [
        {
          "internalType": "address",
          "name": "owner",
          "type": "address"
        },
        {
          "internalType": "address",
          "name": "spender",
          "type": "address"
        }
      ],
      "name": "allowance",
      "outputs": [
        {
          "internalType": "uint256",
          "name": "",
          "type": "uint256"
        }
      ],
      "stateMutability": "view",
      "type": "function"
    },
    {
      "inputs": [
        {
          "internalType": "address",
          "name": "spender",
          "type": "address"
        },
        {
          "internalType": "uint256",
          "name": "amount",
          "type": "uint256"
        }
      ],
      "name": "approve",
      "outputs": [
        {
          "internalType": "bool",
          "name": "",
          "type": "bool"
        }
      ],
      "stateMutability": "nonpayable",
      "type": "function"
    },
    {
      "inputs": [],
      "name": "asset",
      "outputs": [
        {
          "internalType": "address",
          "name": "",
          "type": "address"
        }
      ],
      "stateMutability": "view",
      "type": "function"
    },
    {
      "inputs": [
        {
          "internalType": "address",
          "name": "account",
          "type": "address"
        }
      ],
      "name": "balanceOf",
      "outputs": [
        {
          "internalType": "uint256",
          "name": "",
          "type": "uint256"
        }
      ],
      "stateMutability": "view",
      "type": "function"
    },
    {
      "inputs": [
        {
          "internalType": "uint256",
          "name": "_assets",
          "type": "uint256"
        },
        {
          "internalType": "address",
          "name": "_receiver",
          "type": "address"
        }
      ],
      "name": "completeDelayUnstake",
      "outputs": [],
      "stateMutability": "nonpayable",
      "type": "function"
    },
    {
      "inputs": [
        {
          "internalType": "uint256",
          "name": "shares",
          "type": "uint256"
        }
      ],
      "name": "convertToAssets",
      "outputs": [
        {
          "internalType": "uint256",
          "name": "assets",
          "type": "uint256"
        }
      ],
      "stateMutability": "view",
      "type": "function"
    },
    {
      "inputs": [
        {
          "internalType": "uint256",
          "name": "assets",
          "type": "uint256"
        }
      ],
      "name": "convertToShares",
      "outputs": [
        {
          "internalType": "uint256",
          "name": "shares",
          "type": "uint256"
        }
      ],
      "stateMutability": "view",
      "type": "function"
    },
    {
      "inputs": [],
      "name": "decimals",
      "outputs": [
        {
          "internalType": "uint8",
          "name": "",
          "type": "uint8"
        }
      ],
      "stateMutability": "view",
      "type": "function"
    },
    {
      "inputs": [
        {
          "internalType": "address",
          "name": "spender",
          "type": "address"
        },
        {
          "internalType": "uint256",
          "name": "subtractedValue",
          "type": "uint256"
        }
      ],
      "name": "decreaseAllowance",
      "outputs": [
        {
          "internalType": "bool",
          "name": "",
          "type": "bool"
        }
      ],
      "stateMutability": "nonpayable",
      "type": "function"
    },
    {
      "inputs": [
        {
          "internalType": "uint256",
          "name": "_assets",
          "type": "uint256"
        },
        {
          "internalType": "address",
          "name": "_receiver",
          "type": "address"
        }
      ],
      "name": "deposit",
      "outputs": [
        {
          "internalType": "uint256",
          "name": "",
          "type": "uint256"
        }
      ],
      "stateMutability": "nonpayable",
      "type": "function"
    },
    {
      "inputs": [],
      "name": "fullyOperational",
      "outputs": [
        {
          "internalType": "bool",
          "name": "",
          "type": "bool"
        }
      ],
      "stateMutability": "view",
      "type": "function"
    },
    {
      "inputs": [
        {
          "internalType": "bytes32",
          "name": "role",
          "type": "bytes32"
        }
      ],
      "name": "getRoleAdmin",
      "outputs": [
        {
          "internalType": "bytes32",
          "name": "",
          "type": "bytes32"
        }
      ],
      "stateMutability": "view",
      "type": "function"
    },
    {
      "inputs": [],
      "name": "getStAurPrice",
      "outputs": [
        {
          "internalType": "uint256",
          "name": "",
          "type": "uint256"
        }
      ],
      "stateMutability": "view",
      "type": "function"
    },
    {
      "inputs": [
        {
          "internalType": "bytes32",
          "name": "role",
          "type": "bytes32"
        },
        {
          "internalType": "address",
          "name": "account",
          "type": "address"
        }
      ],
      "name": "grantRole",
      "outputs": [],
      "stateMutability": "nonpayable",
      "type": "function"
    },
    {
      "inputs": [
        {
          "internalType": "bytes32",
          "name": "role",
          "type": "bytes32"
        },
        {
          "internalType": "address",
          "name": "account",
          "type": "address"
        }
      ],
      "name": "hasRole",
      "outputs": [
        {
          "internalType": "bool",
          "name": "",
          "type": "bool"
        }
      ],
      "stateMutability": "view",
      "type": "function"
    },
    {
      "inputs": [
        {
          "internalType": "address",
          "name": "spender",
          "type": "address"
        },
        {
          "internalType": "uint256",
          "name": "addedValue",
          "type": "uint256"
        }
      ],
      "name": "increaseAllowance",
      "outputs": [
        {
          "internalType": "bool",
          "name": "",
          "type": "bool"
        }
      ],
      "stateMutability": "nonpayable",
      "type": "function"
    },
    {
      "inputs": [
        {
          "internalType": "contract IStakingManager",
          "name": "_stakingManager",
          "type": "address"
        },
        {
          "internalType": "contract ILiquidityPool",
          "name": "_liquidityPool",
          "type": "address"
        }
      ],
      "name": "initializeLiquidStaking",
      "outputs": [],
      "stateMutability": "nonpayable",
      "type": "function"
    },
    {
      "inputs": [],
      "name": "isFullyOperational",
      "outputs": [
        {
          "internalType": "bool",
          "name": "",
          "type": "bool"
        }
      ],
      "stateMutability": "view",
      "type": "function"
    },
    {
      "inputs": [],
      "name": "liquidityPool",
      "outputs": [
        {
          "internalType": "contract ILiquidityPool",
          "name": "",
          "type": "address"
        }
      ],
      "stateMutability": "view",
      "type": "function"
    },
    {
      "inputs": [
        {
          "internalType": "address",
          "name": "",
          "type": "address"
        }
      ],
      "name": "maxDeposit",
      "outputs": [
        {
          "internalType": "uint256",
          "name": "",
          "type": "uint256"
        }
      ],
      "stateMutability": "view",
      "type": "function"
    },
    {
      "inputs": [
        {
          "internalType": "address",
          "name": "",
          "type": "address"
        }
      ],
      "name": "maxMint",
      "outputs": [
        {
          "internalType": "uint256",
          "name": "",
          "type": "uint256"
        }
      ],
      "stateMutability": "view",
      "type": "function"
    },
    {
      "inputs": [
        {
          "internalType": "address",
          "name": "owner",
          "type": "address"
        }
      ],
      "name": "maxRedeem",
      "outputs": [
        {
          "internalType": "uint256",
          "name": "",
          "type": "uint256"
        }
      ],
      "stateMutability": "view",
      "type": "function"
    },
    {
      "inputs": [
        {
          "internalType": "address",
          "name": "owner",
          "type": "address"
        }
      ],
      "name": "maxWithdraw",
      "outputs": [
        {
          "internalType": "uint256",
          "name": "",
          "type": "uint256"
        }
      ],
      "stateMutability": "view",
      "type": "function"
    },
    {
      "inputs": [],
      "name": "minDepositAmount",
      "outputs": [
        {
          "internalType": "uint256",
          "name": "",
          "type": "uint256"
        }
      ],
      "stateMutability": "view",
      "type": "function"
    },
    {
      "inputs": [
        {
          "internalType": "uint256",
          "name": "_shares",
          "type": "uint256"
        },
        {
          "internalType": "address",
          "name": "_receiver",
          "type": "address"
        }
      ],
      "name": "mint",
      "outputs": [
        {
          "internalType": "uint256",
          "name": "",
          "type": "uint256"
        }
      ],
      "stateMutability": "nonpayable",
      "type": "function"
    },
    {
      "inputs": [
        {
          "internalType": "address",
          "name": "_treasury",
          "type": "address"
        },
        {
          "internalType": "uint256",
          "name": "_fee",
          "type": "uint256"
        }
      ],
      "name": "mintFee",
      "outputs": [],
      "stateMutability": "nonpayable",
      "type": "function"
    },
    {
      "inputs": [],
      "name": "name",
      "outputs": [
        {
          "internalType": "string",
          "name": "",
          "type": "string"
        }
      ],
      "stateMutability": "view",
      "type": "function"
    },
    {
      "inputs": [
        {
          "internalType": "uint256",
          "name": "assets",
          "type": "uint256"
        }
      ],
      "name": "previewDeposit",
      "outputs": [
        {
          "internalType": "uint256",
          "name": "",
          "type": "uint256"
        }
      ],
      "stateMutability": "view",
      "type": "function"
    },
    {
      "inputs": [
        {
          "internalType": "uint256",
          "name": "shares",
          "type": "uint256"
        }
      ],
      "name": "previewMint",
      "outputs": [
        {
          "internalType": "uint256",
          "name": "",
          "type": "uint256"
        }
      ],
      "stateMutability": "view",
      "type": "function"
    },
    {
      "inputs": [
        {
          "internalType": "uint256",
          "name": "shares",
          "type": "uint256"
        }
      ],
      "name": "previewRedeem",
      "outputs": [
        {
          "internalType": "uint256",
          "name": "",
          "type": "uint256"
        }
      ],
      "stateMutability": "view",
      "type": "function"
    },
    {
      "inputs": [
        {
          "internalType": "uint256",
          "name": "assets",
          "type": "uint256"
        }
      ],
      "name": "previewWithdraw",
      "outputs": [
        {
          "internalType": "uint256",
          "name": "",
          "type": "uint256"
        }
      ],
      "stateMutability": "view",
      "type": "function"
    },
    {
      "inputs": [
        {
          "internalType": "uint256",
          "name": "_shares",
          "type": "uint256"
        },
        {
          "internalType": "address",
          "name": "_receiver",
          "type": "address"
        },
        {
          "internalType": "address",
          "name": "_owner",
          "type": "address"
        }
      ],
      "name": "redeem",
      "outputs": [
        {
          "internalType": "uint256",
          "name": "",
          "type": "uint256"
        }
      ],
      "stateMutability": "nonpayable",
      "type": "function"
    },
    {
      "inputs": [
        {
          "internalType": "bytes32",
          "name": "role",
          "type": "bytes32"
        },
        {
          "internalType": "address",
          "name": "account",
          "type": "address"
        }
      ],
      "name": "renounceRole",
      "outputs": [],
      "stateMutability": "nonpayable",
      "type": "function"
    },
    {
      "inputs": [
        {
          "internalType": "bytes32",
          "name": "role",
          "type": "bytes32"
        },
        {
          "internalType": "address",
          "name": "account",
          "type": "address"
        }
      ],
      "name": "revokeRole",
      "outputs": [],
      "stateMutability": "nonpayable",
      "type": "function"
    },
    {
      "inputs": [],
      "name": "stakingManager",
      "outputs": [
        {
          "internalType": "contract IStakingManager",
          "name": "",
          "type": "address"
        }
      ],
      "stateMutability": "view",
      "type": "function"
    },
    {
      "inputs": [
        {
          "internalType": "bytes4",
          "name": "interfaceId",
          "type": "bytes4"
        }
      ],
      "name": "supportsInterface",
      "outputs": [
        {
          "internalType": "bool",
          "name": "",
          "type": "bool"
        }
      ],
      "stateMutability": "view",
      "type": "function"
    },
    {
      "inputs": [],
      "name": "symbol",
      "outputs": [
        {
          "internalType": "string",
          "name": "",
          "type": "string"
        }
      ],
      "stateMutability": "view",
      "type": "function"
    },
    {
      "inputs": [],
      "name": "totalAssets",
      "outputs": [
        {
          "internalType": "uint256",
          "name": "",
          "type": "uint256"
        }
      ],
      "stateMutability": "view",
      "type": "function"
    },
    {
      "inputs": [],
      "name": "totalSupply",
      "outputs": [
        {
          "internalType": "uint256",
          "name": "",
          "type": "uint256"
        }
      ],
      "stateMutability": "view",
      "type": "function"
    },
    {
      "inputs": [
        {
          "internalType": "address",
          "name": "to",
          "type": "address"
        },
        {
          "internalType": "uint256",
          "name": "amount",
          "type": "uint256"
        }
      ],
      "name": "transfer",
      "outputs": [
        {
          "internalType": "bool",
          "name": "",
          "type": "bool"
        }
      ],
      "stateMutability": "nonpayable",
      "type": "function"
    },
    {
      "inputs": [
        {
          "internalType": "address",
          "name": "from",
          "type": "address"
        },
        {
          "internalType": "address",
          "name": "to",
          "type": "address"
        },
        {
          "internalType": "uint256",
          "name": "amount",
          "type": "uint256"
        }
      ],
      "name": "transferFrom",
      "outputs": [
        {
          "internalType": "bool",
          "name": "",
          "type": "bool"
        }
      ],
      "stateMutability": "nonpayable",
      "type": "function"
    },
    {
      "inputs": [
        {
          "internalType": "bool",
          "name": "_isFullyOperational",
          "type": "bool"
        }
      ],
      "name": "updateContractOperation",
      "outputs": [],
      "stateMutability": "nonpayable",
      "type": "function"
    },
    {
      "inputs": [
        {
          "internalType": "contract ILiquidityPool",
          "name": "_liquidityPool",
          "type": "address"
        }
      ],
      "name": "updateLiquidityPool",
      "outputs": [],
      "stateMutability": "nonpayable",
      "type": "function"
    },
    {
      "inputs": [
        {
          "internalType": "uint256",
          "name": "_amount",
          "type": "uint256"
        }
      ],
      "name": "updateMinDepositAmount",
      "outputs": [],
      "stateMutability": "nonpayable",
      "type": "function"
    },
    {
      "inputs": [
        {
          "internalType": "contract IStakingManager",
          "name": "_stakingManager",
          "type": "address"
        }
      ],
      "name": "updateStakingManager",
      "outputs": [],
      "stateMutability": "nonpayable",
      "type": "function"
    },
    {
      "inputs": [
        {
          "internalType": "uint256",
          "name": "_assets",
          "type": "uint256"
        },
        {
          "internalType": "address",
          "name": "_receiver",
          "type": "address"
        },
        {
          "internalType": "address",
          "name": "_owner",
          "type": "address"
        }
      ],
      "name": "withdraw",
      "outputs": [
        {
          "internalType": "uint256",
          "name": "",
          "type": "uint256"
        }
      ],
      "stateMutability": "nonpayable",
      "type": "function"
    },
    {
      "stateMutability": "payable",
      "type": "receive"
    }
  ],
  "bytecode": "0x60c06040523480156200001157600080fd5b5060405162005c9138038062005c9183398181016040528101906200003791906200072a565b82828281600490816200004b919062000a31565b5080600590816200005d919062000a31565b50505060008062000074836200020a60201b60201c565b91509150816200009957620000936200034460201b620021291760201c565b6200009b565b805b60ff1660a08160ff16815250508273ffffffffffffffffffffffffffffffffffffffff1660808173ffffffffffffffffffffffffffffffffffffffff1681525050505050600073ffffffffffffffffffffffffffffffffffffffff168373ffffffffffffffffffffffffffffffffffffffff161480620001475750600073ffffffffffffffffffffffffffffffffffffffff168473ffffffffffffffffffffffffffffffffffffffff16145b156200017f576040517ff6b2911f00000000000000000000000000000000000000000000000000000000815260040160405180910390fd5b84600981905550620001b87fa49807205ce4d355092ef5a8a18f56e8913cf4a201fbe287825b095693c21775336200034d60201b60201c565b620001cd6000801b336200034d60201b60201c565b620001ff7f97667070c54ef182b0f5858b034beac1b6f3089aa2d3188bb1e8929f4fa9b929856200034d60201b60201c565b505050505062000bb0565b6000806000808473ffffffffffffffffffffffffffffffffffffffff1663313ce56760e01b604051602401604051602081830303815290604052907bffffffffffffffffffffffffffffffffffffffffffffffffffffffff19166020820180517bffffffffffffffffffffffffffffffffffffffffffffffffffffffff8381831617835250505050604051620002a1919062000b65565b600060405180830381855afa9150503d8060008114620002de576040519150601f19603f3d011682016040523d82523d6000602084013e620002e3565b606091505b5091509150818015620002f857506020815110155b15620003355760008180602001905181019062000316919062000b7e565b905060ff801681116200033357600181945094505050506200033f565b505b6000809350935050505b915091565b60006012905090565b6200035f82826200043f60201b60201c565b6200043b5760016006600084815260200190815260200160002060000160008373ffffffffffffffffffffffffffffffffffffffff1673ffffffffffffffffffffffffffffffffffffffff16815260200190815260200160002060006101000a81548160ff021916908315150217905550620003e0620004aa60201b60201c565b73ffffffffffffffffffffffffffffffffffffffff168173ffffffffffffffffffffffffffffffffffffffff16837f2f8788117e7eff1d82e926ec794901d17c78024a50270940304540a733656f0d60405160405180910390a45b5050565b60006006600084815260200190815260200160002060000160008373ffffffffffffffffffffffffffffffffffffffff1673ffffffffffffffffffffffffffffffffffffffff16815260200190815260200160002060009054906101000a900460ff16905092915050565b600033905090565b6000604051905090565b600080fd5b600080fd5b6000819050919050565b620004db81620004c6565b8114620004e757600080fd5b50565b600081519050620004fb81620004d0565b92915050565b600073ffffffffffffffffffffffffffffffffffffffff82169050919050565b60006200052e8262000501565b9050919050565b620005408162000521565b81146200054c57600080fd5b50565b600081519050620005608162000535565b92915050565b6000620005738262000521565b9050919050565b620005858162000566565b81146200059157600080fd5b50565b600081519050620005a5816200057a565b92915050565b600080fd5b600080fd5b6000601f19601f8301169050919050565b7f4e487b7100000000000000000000000000000000000000000000000000000000600052604160045260246000fd5b6200060082620005b5565b810181811067ffffffffffffffff82111715620006225762000621620005c6565b5b80604052505050565b600062000637620004b2565b9050620006458282620005f5565b919050565b600067ffffffffffffffff821115620006685762000667620005c6565b5b6200067382620005b5565b9050602081019050919050565b60005b83811015620006a057808201518184015260208101905062000683565b60008484015250505050565b6000620006c3620006bd846200064a565b6200062b565b905082815260208101848484011115620006e257620006e1620005b0565b5b620006ef84828562000680565b509392505050565b600082601f8301126200070f576200070e620005ab565b5b815162000721848260208601620006ac565b91505092915050565b600080600080600060a08688031215620007495762000748620004bc565b5b60006200075988828901620004ea565b95505060206200076c888289016200054f565b94505060406200077f8882890162000594565b935050606086015167ffffffffffffffff811115620007a357620007a2620004c1565b5b620007b188828901620006f7565b925050608086015167ffffffffffffffff811115620007d557620007d4620004c1565b5b620007e388828901620006f7565b9150509295509295909350565b600081519050919050565b7f4e487b7100000000000000000000000000000000000000000000000000000000600052602260045260246000fd5b600060028204905060018216806200084357607f821691505b602082108103620008595762000858620007fb565b5b50919050565b60008190508160005260206000209050919050565b60006020601f8301049050919050565b600082821b905092915050565b600060088302620008c37fffffffffffffffffffffffffffffffffffffffffffffffffffffffffffffffff8262000884565b620008cf868362000884565b95508019841693508086168417925050509392505050565b6000819050919050565b6000620009126200090c6200090684620004c6565b620008e7565b620004c6565b9050919050565b6000819050919050565b6200092e83620008f1565b620009466200093d8262000919565b84845462000891565b825550505050565b600090565b6200095d6200094e565b6200096a81848462000923565b505050565b5b8181101562000992576200098660008262000953565b60018101905062000970565b5050565b601f821115620009e157620009ab816200085f565b620009b68462000874565b81016020851015620009c6578190505b620009de620009d58562000874565b8301826200096f565b50505b505050565b600082821c905092915050565b600062000a0660001984600802620009e6565b1980831691505092915050565b600062000a218383620009f3565b9150826002028217905092915050565b62000a3c82620007f0565b67ffffffffffffffff81111562000a585762000a57620005c6565b5b62000a6482546200082a565b62000a7182828562000996565b600060209050601f83116001811462000aa9576000841562000a94578287015190505b62000aa0858262000a13565b86555062000b10565b601f19841662000ab9866200085f565b60005b8281101562000ae35784890151825560018201915060208501945060208101905062000abc565b8683101562000b03578489015162000aff601f891682620009f3565b8355505b6001600288020188555050505b505050505050565b600081519050919050565b600081905092915050565b600062000b3b8262000b18565b62000b47818562000b23565b935062000b5981856020860162000680565b80840191505092915050565b600062000b73828462000b2e565b915081905092915050565b60006020828403121562000b975762000b96620004bc565b5b600062000ba784828501620004ea565b91505092915050565b60805160a0516150bb62000bd66000396000610f2801526000610fd301526150bb6000f3fe6080604052600436106102b25760003560e01c806375b238fc11610175578063a915277c116100dc578063ce96cb7711610095578063dd3cdf6c1161006f578063dd3cdf6c14610bc7578063dd62ed3e14610bf0578063ef8b30f714610c2d578063f5b541a614610c6a576102b9565b8063ce96cb7714610b24578063d547741f14610b61578063d905777e14610b8a576102b9565b8063a915277c146109ca578063b3d7f6b9146109f3578063b460af9414610a30578063ba08765214610a6d578063c63d75b614610aaa578063c6e6f59214610ae7576102b9565b806394bf804d1161012e57806394bf804d1461089457806395d89b41146108d157806396a1b6b5146108fc578063a217fddf14610925578063a457c2d714610950578063a9059cbb1461098d576102b9565b806375b238fc146107865780638010a0cc146107b157806384780205146107da5780638cc9d1071461080357806391d148541461082c578063941b986214610869576102b9565b806336568abe116102195780634cdad506116101d25780634cdad5061461064e5780635ade19041461068b578063645006ca146106b6578063665a11ca146106e15780636e553f651461070c57806370a0823114610749576102b9565b806336568abe1461052c57806338d52e0f1461055557806339509351146105805780633c96dc2c146105bd5780633d4fc6a6146105e6578063402d267d14610611576102b9565b806318160ddd1161026b57806318160ddd1461040857806322828cc21461043357806323b872dd1461045e578063248a9ca31461049b5780632f2ff15d146104d8578063313ce56714610501576102b9565b806301e1d114146102be57806301ffc9a7146102e957806306fdde031461032657806307a2d13a14610351578063095ea7b31461038e5780630a28a477146103cb576102b9565b366102b957005b600080fd5b3480156102ca57600080fd5b506102d3610c95565b6040516102e091906139c3565b60405180910390f35b3480156102f557600080fd5b50610310600480360381019061030b9190613a3b565b610d2d565b60405161031d9190613a83565b60405180910390f35b34801561033257600080fd5b5061033b610da7565b6040516103489190613b2e565b60405180910390f35b34801561035d57600080fd5b5061037860048036038101906103739190613b7c565b610e39565b60405161038591906139c3565b60405180910390f35b34801561039a57600080fd5b506103b560048036038101906103b09190613c07565b610e4d565b6040516103c29190613a83565b60405180910390f35b3480156103d757600080fd5b506103f260048036038101906103ed9190613b7c565b610e70565b6040516103ff91906139c3565b60405180910390f35b34801561041457600080fd5b5061041d610e84565b60405161042a91906139c3565b60405180910390f35b34801561043f57600080fd5b50610448610e8e565b6040516104559190613ca6565b60405180910390f35b34801561046a57600080fd5b5061048560048036038101906104809190613cc1565b610eb4565b6040516104929190613a83565b60405180910390f35b3480156104a757600080fd5b506104c260048036038101906104bd9190613d4a565b610ee3565b6040516104cf9190613d86565b60405180910390f35b3480156104e457600080fd5b506104ff60048036038101906104fa9190613da1565b610f03565b005b34801561050d57600080fd5b50610516610f24565b6040516105239190613dfd565b60405180910390f35b34801561053857600080fd5b50610553600480360381019061054e9190613da1565b610f4c565b005b34801561056157600080fd5b5061056a610fcf565b6040516105779190613e27565b60405180910390f35b34801561058c57600080fd5b506105a760048036038101906105a29190613c07565b610ff7565b6040516105b49190613a83565b60405180910390f35b3480156105c957600080fd5b506105e460048036038101906105df9190613ebe565b61102e565b005b3480156105f257600080fd5b506105fb6112a6565b60405161060891906139c3565b60405180910390f35b34801561061d57600080fd5b5061063860048036038101906106339190613efe565b6112c3565b60405161064591906139c3565b60405180910390f35b34801561065a57600080fd5b5061067560048036038101906106709190613b7c565b611301565b60405161068291906139c3565b60405180910390f35b34801561069757600080fd5b506106a0611315565b6040516106ad9190613a83565b60405180910390f35b3480156106c257600080fd5b506106cb611326565b6040516106d891906139c3565b60405180910390f35b3480156106ed57600080fd5b506106f661132c565b6040516107039190613f4c565b60405180910390f35b34801561071857600080fd5b50610733600480360381019061072e9190613f67565b611352565b60405161074091906139c3565b60405180910390f35b34801561075557600080fd5b50610770600480360381019061076b9190613efe565b61143c565b60405161077d91906139c3565b60405180910390f35b34801561079257600080fd5b5061079b611485565b6040516107a89190613d86565b60405180910390f35b3480156107bd57600080fd5b506107d860048036038101906107d39190613f67565b6114a9565b005b3480156107e657600080fd5b5061080160048036038101906107fc9190613b7c565b6115bd565b005b34801561080f57600080fd5b5061082a60048036038101906108259190613c07565b61162b565b005b34801561083857600080fd5b50610853600480360381019061084e9190613da1565b6116c0565b6040516108609190613a83565b60405180910390f35b34801561087557600080fd5b5061087e61172b565b60405161088b9190613a83565b60405180910390f35b3480156108a057600080fd5b506108bb60048036038101906108b69190613f67565b611741565b6040516108c891906139c3565b60405180910390f35b3480156108dd57600080fd5b506108e661182b565b6040516108f39190613b2e565b60405180910390f35b34801561090857600080fd5b50610923600480360381019061091e9190613fa7565b6118bd565b005b34801561093157600080fd5b5061093a611a53565b6040516109479190613d86565b60405180910390f35b34801561095c57600080fd5b5061097760048036038101906109729190613c07565b611a5a565b6040516109849190613a83565b60405180910390f35b34801561099957600080fd5b506109b460048036038101906109af9190613c07565b611ad1565b6040516109c19190613a83565b60405180910390f35b3480156109d657600080fd5b506109f160048036038101906109ec9190614000565b611af4565b005b3480156109ff57600080fd5b50610a1a6004803603810190610a159190613b7c565b611c5f565b604051610a2791906139c3565b60405180910390f35b348015610a3c57600080fd5b50610a576004803603810190610a52919061402d565b611c73565b604051610a6491906139c3565b60405180910390f35b348015610a7957600080fd5b50610a946004803603810190610a8f919061402d565b611d5d565b604051610aa191906139c3565b60405180910390f35b348015610ab657600080fd5b50610ad16004803603810190610acc9190613efe565b611e47565b604051610ade91906139c3565b60405180910390f35b348015610af357600080fd5b50610b0e6004803603810190610b099190613b7c565b611e71565b604051610b1b91906139c3565b60405180910390f35b348015610b3057600080fd5b50610b4b6004803603810190610b469190613efe565b611e85565b604051610b5891906139c3565b60405180910390f35b348015610b6d57600080fd5b50610b886004803603810190610b839190613da1565b611ea1565b005b348015610b9657600080fd5b50610bb16004803603810190610bac9190613efe565b611ec2565b604051610bbe91906139c3565b60405180910390f35b348015610bd357600080fd5b50610bee6004803603810190610be99190614080565b611ed4565b005b348015610bfc57600080fd5b50610c176004803603810190610c1291906140ad565b61206a565b604051610c2491906139c3565b60405180910390f35b348015610c3957600080fd5b50610c546004803603810190610c4f9190613b7c565b6120f1565b604051610c6191906139c3565b60405180910390f35b348015610c7657600080fd5b50610c7f612105565b604051610c8c9190613d86565b60405180910390f35b6000600760009054906101000a900473ffffffffffffffffffffffffffffffffffffffff1673ffffffffffffffffffffffffffffffffffffffff166301e1d1146040518163ffffffff1660e01b8152600401602060405180830381865afa158015610d04573d6000803e3d6000fd5b505050506040513d601f19601f82011682018060405250810190610d289190614102565b905090565b60007f7965db0b000000000000000000000000000000000000000000000000000000007bffffffffffffffffffffffffffffffffffffffffffffffffffffffff1916827bffffffffffffffffffffffffffffffffffffffffffffffffffffffff19161480610da05750610d9f82612132565b5b9050919050565b606060048054610db69061415e565b80601f0160208091040260200160405190810160405280929190818152602001828054610de29061415e565b8015610e2f5780601f10610e0457610100808354040283529160200191610e2f565b820191906000526020600020905b815481529060010190602001808311610e1257829003601f168201915b5050505050905090565b6000610e4682600061219c565b9050919050565b600080610e586121e8565b9050610e658185856121f0565b600191505092915050565b6000610e7d8260016123b9565b9050919050565b6000600354905090565b600760009054906101000a900473ffffffffffffffffffffffffffffffffffffffff1681565b600080610ebf6121e8565b9050610ecc858285612410565b610ed785858561249c565b60019150509392505050565b600060066000838152602001908152602001600020600101549050919050565b610f0c82610ee3565b610f1581612715565b610f1f8383612729565b505050565b60007f0000000000000000000000000000000000000000000000000000000000000000905090565b610f546121e8565b73ffffffffffffffffffffffffffffffffffffffff168173ffffffffffffffffffffffffffffffffffffffff1614610fc1576040517f08c379a0000000000000000000000000000000000000000000000000000000008152600401610fb890614201565b60405180910390fd5b610fcb828261280a565b5050565b60007f0000000000000000000000000000000000000000000000000000000000000000905090565b6000806110026121e8565b9050611023818585611014858961206a565b61101e9190614250565b6121f0565b600191505092915050565b7fa49807205ce4d355092ef5a8a18f56e8913cf4a201fbe287825b095693c2177561105881612715565b600073ffffffffffffffffffffffffffffffffffffffff16600860009054906101000a900473ffffffffffffffffffffffffffffffffffffffff1673ffffffffffffffffffffffffffffffffffffffff161415806111055750600073ffffffffffffffffffffffffffffffffffffffff16600760009054906101000a900473ffffffffffffffffffffffffffffffffffffffff1673ffffffffffffffffffffffffffffffffffffffff1614155b1561113c576040517f7b878c0c00000000000000000000000000000000000000000000000000000000815260040160405180910390fd5b600073ffffffffffffffffffffffffffffffffffffffff168373ffffffffffffffffffffffffffffffffffffffff1614806111a35750600073ffffffffffffffffffffffffffffffffffffffff168273ffffffffffffffffffffffffffffffffffffffff16145b156111da576040517ff6b2911f00000000000000000000000000000000000000000000000000000000815260040160405180910390fd5b82600760006101000a81548173ffffffffffffffffffffffffffffffffffffffff021916908373ffffffffffffffffffffffffffffffffffffffff16021790555081600860006101000a81548173ffffffffffffffffffffffffffffffffffffffff021916908373ffffffffffffffffffffffffffffffffffffffff1602179055506112666001611af4565b7f4ca662a5f1f012e4d740b256559dce10a6b72cdec96be0142f5e2eb49dd37a6e83833360405161129993929190614284565b60405180910390a1505050565b600080670de0b6b3a764000090506112bd81610e39565b91505090565b60006112cd6128ec565b6112d85760006112fa565b7fffffffffffffffffffffffffffffffffffffffffffffffffffffffffffffffff5b9050919050565b600061130e82600061219c565b9050919050565b60008054906101000a900460ff1681565b60095481565b600860009054906101000a900473ffffffffffffffffffffffffffffffffffffffff1681565b600061135c61172b565b611392576040517f3da6ef2c00000000000000000000000000000000000000000000000000000000815260040160405180910390fd5b6009548310156113ce576040517fccaf637b00000000000000000000000000000000000000000000000000000000815260040160405180910390fd5b6113d7826112c3565b831115611419576040517f08c379a000000000000000000000000000000000000000000000000000000000815260040161141090614307565b60405180910390fd5b6000611424846120f1565b90506114323384868461290f565b8091505092915050565b6000600160008373ffffffffffffffffffffffffffffffffffffffff1673ffffffffffffffffffffffffffffffffffffffff168152602001908152602001600020549050919050565b7fa49807205ce4d355092ef5a8a18f56e8913cf4a201fbe287825b095693c2177581565b600760009054906101000a900473ffffffffffffffffffffffffffffffffffffffff1673ffffffffffffffffffffffffffffffffffffffff1663e2f32def8233856040518463ffffffff1660e01b815260040161150893929190614327565b600060405180830381600087803b15801561152257600080fd5b505af1158015611536573d6000803e3d6000fd5b505050503373ffffffffffffffffffffffffffffffffffffffff168173ffffffffffffffffffffffffffffffffffffffff163373ffffffffffffffffffffffffffffffffffffffff167ffbde797d201c681b91056529119e0b02407c7bb96a4a2c75c01fc9667232c8db8560006040516115b1929190614399565b60405180910390a45050565b7f97667070c54ef182b0f5858b034beac1b6f3089aa2d3188bb1e8929f4fa9b9296115e781612715565b816009819055507f0b6230e568a34b6f5ab9ddf98203464e0af7f22ce172aef16b6e1acdd738a280823360405161161f9291906143c2565b60405180910390a15050565b600760009054906101000a900473ffffffffffffffffffffffffffffffffffffffff1673ffffffffffffffffffffffffffffffffffffffff163373ffffffffffffffffffffffffffffffffffffffff16146116b2576040517f82b4290000000000000000000000000000000000000000000000000000000000815260040160405180910390fd5b6116bc8282612c99565b5050565b60006006600084815260200190815260200160002060000160008373ffffffffffffffffffffffffffffffffffffffff1673ffffffffffffffffffffffffffffffffffffffff16815260200190815260200160002060009054906101000a900460ff16905092915050565b60008060009054906101000a900460ff16905090565b600061174b61172b565b611781576040517f3da6ef2c00000000000000000000000000000000000000000000000000000000815260040160405180910390fd5b600061178c84611c5f565b90506009548110156117ca576040517fccaf637b00000000000000000000000000000000000000000000000000000000815260040160405180910390fd5b6117d383611e47565b841115611815576040517f08c379a000000000000000000000000000000000000000000000000000000000815260040161180c90614437565b60405180910390fd5b6118213384838761290f565b8091505092915050565b60606005805461183a9061415e565b80601f01602080910402602001604051908101604052809291908181526020018280546118669061415e565b80156118b35780601f10611888576101008083540402835291602001916118b3565b820191906000526020600020905b81548152906001019060200180831161189657829003601f168201915b5050505050905090565b7fa49807205ce4d355092ef5a8a18f56e8913cf4a201fbe287825b095693c217756118e781612715565b600073ffffffffffffffffffffffffffffffffffffffff168273ffffffffffffffffffffffffffffffffffffffff160361194d576040517ff6b2911f00000000000000000000000000000000000000000000000000000000815260040160405180910390fd5b600073ffffffffffffffffffffffffffffffffffffffff16600760009054906101000a900473ffffffffffffffffffffffffffffffffffffffff1673ffffffffffffffffffffffffffffffffffffffff16036119d5576040517f5079799300000000000000000000000000000000000000000000000000000000815260040160405180910390fd5b81600760006101000a81548173ffffffffffffffffffffffffffffffffffffffff021916908373ffffffffffffffffffffffffffffffffffffffff1602179055507fddc0a9f2354d60930ab764b633fb61eb5faaaede03a5d4505c9825519bdf0b2e8233604051611a47929190614457565b60405180910390a15050565b6000801b81565b600080611a656121e8565b90506000611a73828661206a565b905083811015611ab8576040517f08c379a0000000000000000000000000000000000000000000000000000000008152600401611aaf906144f2565b60405180910390fd5b611ac582868684036121f0565b60019250505092915050565b600080611adc6121e8565b9050611ae981858561249c565b600191505092915050565b7fa49807205ce4d355092ef5a8a18f56e8913cf4a201fbe287825b095693c21775611b1e81612715565b818015611bd25750600073ffffffffffffffffffffffffffffffffffffffff16600860009054906101000a900473ffffffffffffffffffffffffffffffffffffffff1673ffffffffffffffffffffffffffffffffffffffff161480611bd15750600073ffffffffffffffffffffffffffffffffffffffff16600760009054906101000a900473ffffffffffffffffffffffffffffffffffffffff1673ffffffffffffffffffffffffffffffffffffffff16145b5b15611c09576040517f5079799300000000000000000000000000000000000000000000000000000000815260040160405180910390fd5b816000806101000a81548160ff0219169083151502179055507f956501fb29fec297bb8258701ee6a99883446290e4dba4f0f75e3d47d917cc728233604051611c53929190614512565b60405180910390a15050565b6000611c6c82600161219c565b9050919050565b6000611c7d61172b565b611cb3576040517f3da6ef2c00000000000000000000000000000000000000000000000000000000815260040160405180910390fd5b60008403611ced576040517fdd484e7000000000000000000000000000000000000000000000000000000000815260040160405180910390fd5b611cf682611e85565b841115611d38576040517f08c379a0000000000000000000000000000000000000000000000000000000008152600401611d2f90614587565b60405180910390fd5b6000611d4385610e70565b9050611d523385858885612df0565b809150509392505050565b6000611d6761172b565b611d9d576040517f3da6ef2c00000000000000000000000000000000000000000000000000000000815260040160405180910390fd5b60008403611dd7576040517fdd484e7000000000000000000000000000000000000000000000000000000000815260040160405180910390fd5b611de082611ec2565b841115611e22576040517f08c379a0000000000000000000000000000000000000000000000000000000008152600401611e19906145f3565b60405180910390fd5b6000611e2d85611301565b9050611e3c3385858489612df0565b809150509392505050565b60007fffffffffffffffffffffffffffffffffffffffffffffffffffffffffffffffff9050919050565b6000611e7e8260006123b9565b9050919050565b6000611e9a611e938361143c565b600061219c565b9050919050565b611eaa82610ee3565b611eb381612715565b611ebd838361280a565b505050565b6000611ecd8261143c565b9050919050565b7fa49807205ce4d355092ef5a8a18f56e8913cf4a201fbe287825b095693c21775611efe81612715565b600073ffffffffffffffffffffffffffffffffffffffff168273ffffffffffffffffffffffffffffffffffffffff1603611f64576040517ff6b2911f00000000000000000000000000000000000000000000000000000000815260040160405180910390fd5b600073ffffffffffffffffffffffffffffffffffffffff16600860009054906101000a900473ffffffffffffffffffffffffffffffffffffffff1673ffffffffffffffffffffffffffffffffffffffff1603611fec576040517f5079799300000000000000000000000000000000000000000000000000000000815260040160405180910390fd5b81600860006101000a81548173ffffffffffffffffffffffffffffffffffffffff021916908373ffffffffffffffffffffffffffffffffffffffff1602179055507faa31546e5b66a0568fc93227ac42cb48c58266613c3c23e1002ddf299645811f823360405161205e929190614457565b60405180910390a15050565b6000600260008473ffffffffffffffffffffffffffffffffffffffff1673ffffffffffffffffffffffffffffffffffffffff16815260200190815260200160002060008373ffffffffffffffffffffffffffffffffffffffff1673ffffffffffffffffffffffffffffffffffffffff16815260200190815260200160002054905092915050565b60006120fe8260006123b9565b9050919050565b7f97667070c54ef182b0f5858b034beac1b6f3089aa2d3188bb1e8929f4fa9b92981565b60006012905090565b60007f01ffc9a7000000000000000000000000000000000000000000000000000000007bffffffffffffffffffffffffffffffffffffffffffffffffffffffff1916827bffffffffffffffffffffffffffffffffffffffffffffffffffffffff1916149050919050565b6000806121a7610e84565b9050600081146121d4576121cf6121bc610c95565b828587612f4d909392919063ffffffff16565b6121df565b6121de8484612fc3565b5b91505092915050565b600033905090565b600073ffffffffffffffffffffffffffffffffffffffff168373ffffffffffffffffffffffffffffffffffffffff160361225f576040517f08c379a000000000000000000000000000000000000000000000000000000000815260040161225690614685565b60405180910390fd5b600073ffffffffffffffffffffffffffffffffffffffff168273ffffffffffffffffffffffffffffffffffffffff16036122ce576040517f08c379a00000000000000000000000000000000000000000000000000000000081526004016122c590614717565b60405180910390fd5b80600260008573ffffffffffffffffffffffffffffffffffffffff1673ffffffffffffffffffffffffffffffffffffffff16815260200190815260200160002060008473ffffffffffffffffffffffffffffffffffffffff1673ffffffffffffffffffffffffffffffffffffffff168152602001908152602001600020819055508173ffffffffffffffffffffffffffffffffffffffff168373ffffffffffffffffffffffffffffffffffffffff167f8c5be1e5ebec7d5bd14f71427d1e84f3dd0314c0f7b2291e5b200ac8c7c3b925836040516123ac91906139c3565b60405180910390a3505050565b6000806123c4610e84565b905060008414806123d55750600081145b6123fc576123f7816123e5610c95565b8587612f4d909392919063ffffffff16565b612407565b6124068484612fce565b5b91505092915050565b600061241c848461206a565b90507fffffffffffffffffffffffffffffffffffffffffffffffffffffffffffffffff81146124965781811015612488576040517f08c379a000000000000000000000000000000000000000000000000000000000815260040161247f90614783565b60405180910390fd5b61249584848484036121f0565b5b50505050565b600073ffffffffffffffffffffffffffffffffffffffff168373ffffffffffffffffffffffffffffffffffffffff160361250b576040517f08c379a000000000000000000000000000000000000000000000000000000000815260040161250290614815565b60405180910390fd5b600073ffffffffffffffffffffffffffffffffffffffff168273ffffffffffffffffffffffffffffffffffffffff160361257a576040517f08c379a0000000000000000000000000000000000000000000000000000000008152600401612571906148a7565b60405180910390fd5b612585838383612fd9565b6000600160008573ffffffffffffffffffffffffffffffffffffffff1673ffffffffffffffffffffffffffffffffffffffff1681526020019081526020016000205490508181101561260c576040517f08c379a000000000000000000000000000000000000000000000000000000000815260040161260390614939565b60405180910390fd5b818103600160008673ffffffffffffffffffffffffffffffffffffffff1673ffffffffffffffffffffffffffffffffffffffff1681526020019081526020016000208190555081600160008573ffffffffffffffffffffffffffffffffffffffff1673ffffffffffffffffffffffffffffffffffffffff168152602001908152602001600020600082825401925050819055508273ffffffffffffffffffffffffffffffffffffffff168473ffffffffffffffffffffffffffffffffffffffff167fddf252ad1be2c89b69c2b068fc378daa952ba7f163c4a11628f55a4df523b3ef846040516126fc91906139c3565b60405180910390a361270f848484612fde565b50505050565b612726816127216121e8565b612fe3565b50565b61273382826116c0565b6128065760016006600084815260200190815260200160002060000160008373ffffffffffffffffffffffffffffffffffffffff1673ffffffffffffffffffffffffffffffffffffffff16815260200190815260200160002060006101000a81548160ff0219169083151502179055506127ab6121e8565b73ffffffffffffffffffffffffffffffffffffffff168173ffffffffffffffffffffffffffffffffffffffff16837f2f8788117e7eff1d82e926ec794901d17c78024a50270940304540a733656f0d60405160405180910390a45b5050565b61281482826116c0565b156128e85760006006600084815260200190815260200160002060000160008373ffffffffffffffffffffffffffffffffffffffff1673ffffffffffffffffffffffffffffffffffffffff16815260200190815260200160002060006101000a81548160ff02191690831515021790555061288d6121e8565b73ffffffffffffffffffffffffffffffffffffffff168173ffffffffffffffffffffffffffffffffffffffff16837ff6391f5c32d9c69d2a47ea670b442974b53935d1edc7fd64eb21e047a839171b60405160405180910390a45b5050565b6000806128f7610c95565b118061290a57506000612908610e84565b145b905090565b6000612919610fcf565b90506000600760009054906101000a900473ffffffffffffffffffffffffffffffffffffffff16905061296f8630868573ffffffffffffffffffffffffffffffffffffffff16613068909392919063ffffffff16565b6000600860009054906101000a900473ffffffffffffffffffffffffffffffffffffffff1690508073ffffffffffffffffffffffffffffffffffffffff166390c69fe3856040518263ffffffff1660e01b81526004016129cf91906139c3565b602060405180830381865afa1580156129ec573d6000803e3d6000fd5b505050506040513d601f19601f82011682018060405250810190612a10919061496e565b15612ab457612a4081868573ffffffffffffffffffffffffffffffffffffffff166130f19092919063ffffffff16565b8073ffffffffffffffffffffffffffffffffffffffff16634579c7178786886040518463ffffffff1660e01b8152600401612a7d9392919061499b565b600060405180830381600087803b158015612a9757600080fd5b505af1158015612aab573d6000803e3d6000fd5b50505050612c29565b60008273ffffffffffffffffffffffffffffffffffffffff1663825dc0736040518163ffffffff1660e01b8152600401602060405180830381865afa158015612b01573d6000803e3d6000fd5b505050506040513d601f19601f82011682018060405250810190612b2591906149e7565b9050612b5281878673ffffffffffffffffffffffffffffffffffffffff166130f19092919063ffffffff16565b8073ffffffffffffffffffffffffffffffffffffffff1663a694fc3a876040518263ffffffff1660e01b8152600401612b8b91906139c3565b600060405180830381600087803b158015612ba557600080fd5b505af1158015612bb9573d6000803e3d6000fd5b505050508273ffffffffffffffffffffffffffffffffffffffff166374b573f26040518163ffffffff1660e01b8152600401600060405180830381600087803b158015612c0557600080fd5b505af1158015612c19573d6000803e3d6000fd5b50505050612c278786612c99565b505b8573ffffffffffffffffffffffffffffffffffffffff168773ffffffffffffffffffffffffffffffffffffffff167fdcbc1c05240f31ff3ad067ef1ee35ce4997762752e3a095284754544f4c709d78787604051612c88929190614a14565b60405180910390a350505050505050565b600073ffffffffffffffffffffffffffffffffffffffff168273ffffffffffffffffffffffffffffffffffffffff1603612d08576040517f08c379a0000000000000000000000000000000000000000000000000000000008152600401612cff90614a89565b60405180910390fd5b612d1460008383612fd9565b8060036000828254612d269190614250565b9250508190555080600160008473ffffffffffffffffffffffffffffffffffffffff1673ffffffffffffffffffffffffffffffffffffffff168152602001908152602001600020600082825401925050819055508173ffffffffffffffffffffffffffffffffffffffff16600073ffffffffffffffffffffffffffffffffffffffff167fddf252ad1be2c89b69c2b068fc378daa952ba7f163c4a11628f55a4df523b3ef83604051612dd891906139c3565b60405180910390a3612dec60008383612fde565b5050565b8273ffffffffffffffffffffffffffffffffffffffff168573ffffffffffffffffffffffffffffffffffffffff1614612e2f57612e2e838683612410565b5b612e398382613203565b600760009054906101000a900473ffffffffffffffffffffffffffffffffffffffff1673ffffffffffffffffffffffffffffffffffffffff1663d2239e0483866040518363ffffffff1660e01b8152600401612e969291906143c2565b600060405180830381600087803b158015612eb057600080fd5b505af1158015612ec4573d6000803e3d6000fd5b505050508273ffffffffffffffffffffffffffffffffffffffff168473ffffffffffffffffffffffffffffffffffffffff163373ffffffffffffffffffffffffffffffffffffffff167ffbde797d201c681b91056529119e0b02407c7bb96a4a2c75c01fc9667232c8db8486604051612f3e929190614a14565b60405180910390a45050505050565b600080612f5b8686866133d2565b905060016002811115612f7157612f70614aa9565b5b836002811115612f8457612f83614aa9565b5b148015612fa2575060008480612f9d57612f9c614ad8565b5b868809115b15612fb757600181612fb49190614250565b90505b80915050949350505050565b600082905092915050565b600082905092915050565b505050565b505050565b612fed82826116c0565b61306457612ffa816134ad565b6130088360001c60206134da565b604051602001613019929190614bdb565b6040516020818303038152906040526040517f08c379a000000000000000000000000000000000000000000000000000000000815260040161305b9190613b2e565b60405180910390fd5b5050565b6130eb846323b872dd60e01b85858560405160240161308993929190614327565b604051602081830303815290604052907bffffffffffffffffffffffffffffffffffffffffffffffffffffffff19166020820180517bffffffffffffffffffffffffffffffffffffffffffffffffffffffff8381831617835250505050613716565b50505050565b6000818473ffffffffffffffffffffffffffffffffffffffff1663dd62ed3e30866040518363ffffffff1660e01b815260040161312f929190614457565b602060405180830381865afa15801561314c573d6000803e3d6000fd5b505050506040513d601f19601f820116820180604052508101906131709190614102565b61317a9190614250565b90506131fd8463095ea7b360e01b858460405160240161319b929190614c15565b604051602081830303815290604052907bffffffffffffffffffffffffffffffffffffffffffffffffffffffff19166020820180517bffffffffffffffffffffffffffffffffffffffffffffffffffffffff8381831617835250505050613716565b50505050565b600073ffffffffffffffffffffffffffffffffffffffff168273ffffffffffffffffffffffffffffffffffffffff1603613272576040517f08c379a000000000000000000000000000000000000000000000000000000000815260040161326990614cb0565b60405180910390fd5b61327e82600083612fd9565b6000600160008473ffffffffffffffffffffffffffffffffffffffff1673ffffffffffffffffffffffffffffffffffffffff16815260200190815260200160002054905081811015613305576040517f08c379a00000000000000000000000000000000000000000000000000000000081526004016132fc90614d42565b60405180910390fd5b818103600160008573ffffffffffffffffffffffffffffffffffffffff1673ffffffffffffffffffffffffffffffffffffffff1681526020019081526020016000208190555081600360008282540392505081905550600073ffffffffffffffffffffffffffffffffffffffff168373ffffffffffffffffffffffffffffffffffffffff167fddf252ad1be2c89b69c2b068fc378daa952ba7f163c4a11628f55a4df523b3ef846040516133b991906139c3565b60405180910390a36133cd83600084612fde565b505050565b600080600080198587098587029250828110838203039150506000810361340d5783828161340357613402614ad8565b5b04925050506134a6565b80841161341957600080fd5b60008486880990508281118203915080830392506000600186190186169050808604955080840493506001818260000304019050808302841793506000600287600302189050808702600203810290508087026002038102905080870260020381029050808702600203810290508087026002038102905080870260020381029050808502955050505050505b9392505050565b60606134d38273ffffffffffffffffffffffffffffffffffffffff16601460ff166134da565b9050919050565b6060600060028360026134ed9190614d62565b6134f79190614250565b67ffffffffffffffff8111156135105761350f614da4565b5b6040519080825280601f01601f1916602001820160405280156135425781602001600182028036833780820191505090505b5090507f30000000000000000000000000000000000000000000000000000000000000008160008151811061357a57613579614dd3565b5b60200101907effffffffffffffffffffffffffffffffffffffffffffffffffffffffffffff1916908160001a9053507f7800000000000000000000000000000000000000000000000000000000000000816001815181106135de576135dd614dd3565b5b60200101907effffffffffffffffffffffffffffffffffffffffffffffffffffffffffffff1916908160001a9053506000600184600261361e9190614d62565b6136289190614250565b90505b60018111156136c8577f3031323334353637383961626364656600000000000000000000000000000000600f86166010811061366a57613669614dd3565b5b1a60f81b82828151811061368157613680614dd3565b5b60200101907effffffffffffffffffffffffffffffffffffffffffffffffffffffffffffff1916908160001a905350600485901c9450806136c190614e02565b905061362b565b506000841461370c576040517f08c379a000000000000000000000000000000000000000000000000000000000815260040161370390614e77565b60405180910390fd5b8091505092915050565b6000613778826040518060400160405280602081526020017f5361666545524332303a206c6f772d6c6576656c2063616c6c206661696c65648152508573ffffffffffffffffffffffffffffffffffffffff166137dd9092919063ffffffff16565b90506000815111156137d85780806020019051810190613798919061496e565b6137d7576040517f08c379a00000000000000000000000000000000000000000000000000000000081526004016137ce90614f09565b60405180910390fd5b5b505050565b60606137ec84846000856137f5565b90509392505050565b60608247101561383a576040517f08c379a000000000000000000000000000000000000000000000000000000000815260040161383190614f9b565b60405180910390fd5b6000808673ffffffffffffffffffffffffffffffffffffffff1685876040516138639190615002565b60006040518083038185875af1925050503d80600081146138a0576040519150601f19603f3d011682016040523d82523d6000602084013e6138a5565b606091505b50915091506138b6878383876138c2565b92505050949350505050565b6060831561392457600083510361391c576138dc85613937565b61391b576040517f08c379a000000000000000000000000000000000000000000000000000000000815260040161391290615065565b60405180910390fd5b5b82905061392f565b61392e838361395a565b5b949350505050565b6000808273ffffffffffffffffffffffffffffffffffffffff163b119050919050565b60008251111561396d5781518083602001fd5b806040517f08c379a00000000000000000000000000000000000000000000000000000000081526004016139a19190613b2e565b60405180910390fd5b6000819050919050565b6139bd816139aa565b82525050565b60006020820190506139d860008301846139b4565b92915050565b600080fd5b60007fffffffff0000000000000000000000000000000000000000000000000000000082169050919050565b613a18816139e3565b8114613a2357600080fd5b50565b600081359050613a3581613a0f565b92915050565b600060208284031215613a5157613a506139de565b5b6000613a5f84828501613a26565b91505092915050565b60008115159050919050565b613a7d81613a68565b82525050565b6000602082019050613a986000830184613a74565b92915050565b600081519050919050565b600082825260208201905092915050565b60005b83811015613ad8578082015181840152602081019050613abd565b60008484015250505050565b6000601f19601f8301169050919050565b6000613b0082613a9e565b613b0a8185613aa9565b9350613b1a818560208601613aba565b613b2381613ae4565b840191505092915050565b60006020820190508181036000830152613b488184613af5565b905092915050565b613b59816139aa565b8114613b6457600080fd5b50565b600081359050613b7681613b50565b92915050565b600060208284031215613b9257613b916139de565b5b6000613ba084828501613b67565b91505092915050565b600073ffffffffffffffffffffffffffffffffffffffff82169050919050565b6000613bd482613ba9565b9050919050565b613be481613bc9565b8114613bef57600080fd5b50565b600081359050613c0181613bdb565b92915050565b60008060408385031215613c1e57613c1d6139de565b5b6000613c2c85828601613bf2565b9250506020613c3d85828601613b67565b9150509250929050565b6000819050919050565b6000613c6c613c67613c6284613ba9565b613c47565b613ba9565b9050919050565b6000613c7e82613c51565b9050919050565b6000613c9082613c73565b9050919050565b613ca081613c85565b82525050565b6000602082019050613cbb6000830184613c97565b92915050565b600080600060608486031215613cda57613cd96139de565b5b6000613ce886828701613bf2565b9350506020613cf986828701613bf2565b9250506040613d0a86828701613b67565b9150509250925092565b6000819050919050565b613d2781613d14565b8114613d3257600080fd5b50565b600081359050613d4481613d1e565b92915050565b600060208284031215613d6057613d5f6139de565b5b6000613d6e84828501613d35565b91505092915050565b613d8081613d14565b82525050565b6000602082019050613d9b6000830184613d77565b92915050565b60008060408385031215613db857613db76139de565b5b6000613dc685828601613d35565b9250506020613dd785828601613bf2565b9150509250929050565b600060ff82169050919050565b613df781613de1565b82525050565b6000602082019050613e126000830184613dee565b92915050565b613e2181613bc9565b82525050565b6000602082019050613e3c6000830184613e18565b92915050565b6000613e4d82613bc9565b9050919050565b613e5d81613e42565b8114613e6857600080fd5b50565b600081359050613e7a81613e54565b92915050565b6000613e8b82613bc9565b9050919050565b613e9b81613e80565b8114613ea657600080fd5b50565b600081359050613eb881613e92565b92915050565b60008060408385031215613ed557613ed46139de565b5b6000613ee385828601613e6b565b9250506020613ef485828601613ea9565b9150509250929050565b600060208284031215613f1457613f136139de565b5b6000613f2284828501613bf2565b91505092915050565b6000613f3682613c73565b9050919050565b613f4681613f2b565b82525050565b6000602082019050613f616000830184613f3d565b92915050565b60008060408385031215613f7e57613f7d6139de565b5b6000613f8c85828601613b67565b9250506020613f9d85828601613bf2565b9150509250929050565b600060208284031215613fbd57613fbc6139de565b5b6000613fcb84828501613e6b565b91505092915050565b613fdd81613a68565b8114613fe857600080fd5b50565b600081359050613ffa81613fd4565b92915050565b600060208284031215614016576140156139de565b5b600061402484828501613feb565b91505092915050565b600080600060608486031215614046576140456139de565b5b600061405486828701613b67565b935050602061406586828701613bf2565b925050604061407686828701613bf2565b9150509250925092565b600060208284031215614096576140956139de565b5b60006140a484828501613ea9565b91505092915050565b600080604083850312156140c4576140c36139de565b5b60006140d285828601613bf2565b92505060206140e385828601613bf2565b9150509250929050565b6000815190506140fc81613b50565b92915050565b600060208284031215614118576141176139de565b5b6000614126848285016140ed565b91505092915050565b7f4e487b7100000000000000000000000000000000000000000000000000000000600052602260045260246000fd5b6000600282049050600182168061417657607f821691505b6020821081036141895761418861412f565b5b50919050565b7f416363657373436f6e74726f6c3a2063616e206f6e6c792072656e6f756e636560008201527f20726f6c657320666f722073656c660000000000000000000000000000000000602082015250565b60006141eb602f83613aa9565b91506141f68261418f565b604082019050919050565b6000602082019050818103600083015261421a816141de565b9050919050565b7f4e487b7100000000000000000000000000000000000000000000000000000000600052601160045260246000fd5b600061425b826139aa565b9150614266836139aa565b925082820190508082111561427e5761427d614221565b5b92915050565b60006060820190506142996000830186613e18565b6142a66020830185613e18565b6142b36040830184613e18565b949350505050565b7f455243343632363a206465706f736974206d6f7265207468616e206d61780000600082015250565b60006142f1601e83613aa9565b91506142fc826142bb565b602082019050919050565b60006020820190508181036000830152614320816142e4565b9050919050565b600060608201905061433c6000830186613e18565b6143496020830185613e18565b61435660408301846139b4565b949350505050565b6000819050919050565b600061438361437e6143798461435e565b613c47565b6139aa565b9050919050565b61439381614368565b82525050565b60006040820190506143ae60008301856139b4565b6143bb602083018461438a565b9392505050565b60006040820190506143d760008301856139b4565b6143e46020830184613e18565b9392505050565b7f455243343632363a206d696e74206d6f7265207468616e206d61780000000000600082015250565b6000614421601b83613aa9565b915061442c826143eb565b602082019050919050565b6000602082019050818103600083015261445081614414565b9050919050565b600060408201905061446c6000830185613e18565b6144796020830184613e18565b9392505050565b7f45524332303a2064656372656173656420616c6c6f77616e63652062656c6f7760008201527f207a65726f000000000000000000000000000000000000000000000000000000602082015250565b60006144dc602583613aa9565b91506144e782614480565b604082019050919050565b6000602082019050818103600083015261450b816144cf565b9050919050565b60006040820190506145276000830185613a74565b6145346020830184613e18565b9392505050565b7f455243343632363a207769746864726177206d6f7265207468616e206d617800600082015250565b6000614571601f83613aa9565b915061457c8261453b565b602082019050919050565b600060208201905081810360008301526145a081614564565b9050919050565b7f455243343632363a2072656465656d206d6f7265207468616e206d6178000000600082015250565b60006145dd601d83613aa9565b91506145e8826145a7565b602082019050919050565b6000602082019050818103600083015261460c816145d0565b9050919050565b7f45524332303a20617070726f76652066726f6d20746865207a65726f2061646460008201527f7265737300000000000000000000000000000000000000000000000000000000602082015250565b600061466f602483613aa9565b915061467a82614613565b604082019050919050565b6000602082019050818103600083015261469e81614662565b9050919050565b7f45524332303a20617070726f766520746f20746865207a65726f20616464726560008201527f7373000000000000000000000000000000000000000000000000000000000000602082015250565b6000614701602283613aa9565b915061470c826146a5565b604082019050919050565b60006020820190508181036000830152614730816146f4565b9050919050565b7f45524332303a20696e73756666696369656e7420616c6c6f77616e6365000000600082015250565b600061476d601d83613aa9565b915061477882614737565b602082019050919050565b6000602082019050818103600083015261479c81614760565b9050919050565b7f45524332303a207472616e736665722066726f6d20746865207a65726f20616460008201527f6472657373000000000000000000000000000000000000000000000000000000602082015250565b60006147ff602583613aa9565b915061480a826147a3565b604082019050919050565b6000602082019050818103600083015261482e816147f2565b9050919050565b7f45524332303a207472616e7366657220746f20746865207a65726f206164647260008201527f6573730000000000000000000000000000000000000000000000000000000000602082015250565b6000614891602383613aa9565b915061489c82614835565b604082019050919050565b600060208201905081810360008301526148c081614884565b9050919050565b7f45524332303a207472616e7366657220616d6f756e742065786365656473206260008201527f616c616e63650000000000000000000000000000000000000000000000000000602082015250565b6000614923602683613aa9565b915061492e826148c7565b604082019050919050565b6000602082019050818103600083015261495281614916565b9050919050565b60008151905061496881613fd4565b92915050565b600060208284031215614984576149836139de565b5b600061499284828501614959565b91505092915050565b60006060820190506149b06000830186613e18565b6149bd60208301856139b4565b6149ca60408301846139b4565b949350505050565b6000815190506149e181613bdb565b92915050565b6000602082840312156149fd576149fc6139de565b5b6000614a0b848285016149d2565b91505092915050565b6000604082019050614a2960008301856139b4565b614a3660208301846139b4565b9392505050565b7f45524332303a206d696e7420746f20746865207a65726f206164647265737300600082015250565b6000614a73601f83613aa9565b9150614a7e82614a3d565b602082019050919050565b60006020820190508181036000830152614aa281614a66565b9050919050565b7f4e487b7100000000000000000000000000000000000000000000000000000000600052602160045260246000fd5b7f4e487b7100000000000000000000000000000000000000000000000000000000600052601260045260246000fd5b600081905092915050565b7f416363657373436f6e74726f6c3a206163636f756e7420000000000000000000600082015250565b6000614b48601783614b07565b9150614b5382614b12565b601782019050919050565b6000614b6982613a9e565b614b738185614b07565b9350614b83818560208601613aba565b80840191505092915050565b7f206973206d697373696e6720726f6c6520000000000000000000000000000000600082015250565b6000614bc5601183614b07565b9150614bd082614b8f565b601182019050919050565b6000614be682614b3b565b9150614bf28285614b5e565b9150614bfd82614bb8565b9150614c098284614b5e565b91508190509392505050565b6000604082019050614c2a6000830185613e18565b614c3760208301846139b4565b9392505050565b7f45524332303a206275726e2066726f6d20746865207a65726f2061646472657360008201527f7300000000000000000000000000000000000000000000000000000000000000602082015250565b6000614c9a602183613aa9565b9150614ca582614c3e565b604082019050919050565b60006020820190508181036000830152614cc981614c8d565b9050919050565b7f45524332303a206275726e20616d6f756e7420657863656564732062616c616e60008201527f6365000000000000000000000000000000000000000000000000000000000000602082015250565b6000614d2c602283613aa9565b9150614d3782614cd0565b604082019050919050565b60006020820190508181036000830152614d5b81614d1f565b9050919050565b6000614d6d826139aa565b9150614d78836139aa565b9250828202614d86816139aa565b91508282048414831517614d9d57614d9c614221565b5b5092915050565b7f4e487b7100000000000000000000000000000000000000000000000000000000600052604160045260246000fd5b7f4e487b7100000000000000000000000000000000000000000000000000000000600052603260045260246000fd5b6000614e0d826139aa565b915060008203614e2057614e1f614221565b5b600182039050919050565b7f537472696e67733a20686578206c656e67746820696e73756666696369656e74600082015250565b6000614e61602083613aa9565b9150614e6c82614e2b565b602082019050919050565b60006020820190508181036000830152614e9081614e54565b9050919050565b7f5361666545524332303a204552433230206f7065726174696f6e20646964206e60008201527f6f74207375636365656400000000000000000000000000000000000000000000602082015250565b6000614ef3602a83613aa9565b9150614efe82614e97565b604082019050919050565b60006020820190508181036000830152614f2281614ee6565b9050919050565b7f416464726573733a20696e73756666696369656e742062616c616e636520666f60008201527f722063616c6c0000000000000000000000000000000000000000000000000000602082015250565b6000614f85602683613aa9565b9150614f9082614f29565b604082019050919050565b60006020820190508181036000830152614fb481614f78565b9050919050565b600081519050919050565b600081905092915050565b6000614fdc82614fbb565b614fe68185614fc6565b9350614ff6818560208601613aba565b80840191505092915050565b600061500e8284614fd1565b915081905092915050565b7f416464726573733a2063616c6c20746f206e6f6e2d636f6e7472616374000000600082015250565b600061504f601d83613aa9565b915061505a82615019565b602082019050919050565b6000602082019050818103600083015261507e81615042565b905091905056fea26469706673582212202618f0b91e1be197596832af25ecba542c8016727bd2dfa71252cf58caf1444d64736f6c63430008120033",
  "linkReferences": {},
  "deployedLinkReferences": {}
}