{
  "_format": "hh-sol-artifact-1",
  "contractName": "LiquidUnstakePool",
  "sourceName": "contracts/LiquidUnstakePool.sol",
  "abi": [
    {
      "inputs": [
        {
          "internalType": "uint256",
          "name": "_minAmount",
          "type": "uint256"
        },
        {
          "internalType": "uint256",
          "name": "_amountSent",
          "type": "uint256"
        }
      ],
      "name": "DepositTooLow",
      "type": "error"
    },
    {
      "inputs": [
        {
          "internalType": "address",
          "name": "_caller",
          "type": "address"
        },
        {
          "internalType": "address",
          "name": "_authorized",
          "type": "address"
        }
      ],
      "name": "NotAuthorized",
      "type": "error"
    },
    {
      "inputs": [
        {
          "internalType": "uint256",
          "name": "_ethRequested",
          "type": "uint256"
        },
        {
          "internalType": "uint256",
          "name": "_availableETH",
          "type": "uint256"
        }
      ],
      "name": "RequestedETHReachMinProportion",
      "type": "error"
    },
    {
      "inputs": [],
      "name": "SharesTooLow",
      "type": "error"
    },
    {
      "inputs": [
        {
          "internalType": "uint256",
          "name": "_minOut",
          "type": "uint256"
        },
        {
          "internalType": "uint256",
          "name": "_amountOut",
          "type": "uint256"
        }
      ],
      "name": "SwapMinOut",
      "type": "error"
    },
    {
      "anonymous": false,
      "inputs": [
        {
          "indexed": true,
          "internalType": "address",
          "name": "user",
          "type": "address"
        },
        {
          "indexed": true,
          "internalType": "address",
          "name": "receiver",
          "type": "address"
        },
        {
          "indexed": false,
          "internalType": "uint256",
          "name": "amount",
          "type": "uint256"
        },
        {
          "indexed": false,
          "internalType": "uint256",
          "name": "shares",
          "type": "uint256"
        }
      ],
      "name": "AddLiquidity",
      "type": "event"
    },
    {
      "anonymous": false,
      "inputs": [
        {
          "indexed": true,
          "internalType": "address",
          "name": "owner",
          "type": "address"
        },
        {
          "indexed": true,
          "internalType": "address",
          "name": "spender",
          "type": "address"
        },
        {
          "indexed": false,
          "internalType": "uint256",
          "name": "value",
          "type": "uint256"
        }
      ],
      "name": "Approval",
      "type": "event"
    },
    {
      "anonymous": false,
      "inputs": [
        {
          "indexed": true,
          "internalType": "address",
          "name": "sender",
          "type": "address"
        },
        {
          "indexed": true,
          "internalType": "address",
          "name": "owner",
          "type": "address"
        },
        {
          "indexed": false,
          "internalType": "uint256",
          "name": "assets",
          "type": "uint256"
        },
        {
          "indexed": false,
          "internalType": "uint256",
          "name": "shares",
          "type": "uint256"
        }
      ],
      "name": "Deposit",
      "type": "event"
    },
    {
      "anonymous": false,
      "inputs": [
        {
          "indexed": false,
          "internalType": "uint8",
          "name": "version",
          "type": "uint8"
        }
      ],
      "name": "Initialized",
      "type": "event"
    },
    {
      "anonymous": false,
      "inputs": [
        {
          "indexed": true,
          "internalType": "address",
          "name": "previousOwner",
          "type": "address"
        },
        {
          "indexed": true,
          "internalType": "address",
          "name": "newOwner",
          "type": "address"
        }
      ],
      "name": "OwnershipTransferred",
      "type": "event"
    },
    {
      "anonymous": false,
      "inputs": [
        {
          "indexed": true,
          "internalType": "address",
          "name": "user",
          "type": "address"
        },
        {
          "indexed": false,
          "internalType": "uint256",
          "name": "shares",
          "type": "uint256"
        },
        {
          "indexed": false,
          "internalType": "uint256",
          "name": "eth",
          "type": "uint256"
        },
        {
          "indexed": false,
          "internalType": "uint256",
          "name": "mpETH",
          "type": "uint256"
        }
      ],
      "name": "RemoveLiquidity",
      "type": "event"
    },
    {
      "anonymous": false,
      "inputs": [
        {
          "indexed": false,
          "internalType": "uint256",
          "name": "timestamp",
          "type": "uint256"
        },
        {
          "indexed": false,
          "internalType": "uint256",
          "name": "amount",
          "type": "uint256"
        }
      ],
      "name": "SendETHForValidator",
      "type": "event"
    },
    {
      "anonymous": false,
      "inputs": [
        {
          "indexed": true,
          "internalType": "address",
          "name": "user",
          "type": "address"
        },
        {
          "indexed": false,
          "internalType": "uint256",
          "name": "amountIn",
          "type": "uint256"
        },
        {
          "indexed": false,
          "internalType": "uint256",
          "name": "amountOut",
          "type": "uint256"
        },
        {
          "indexed": false,
          "internalType": "uint256",
          "name": "fees",
          "type": "uint256"
        },
        {
          "indexed": false,
          "internalType": "uint256",
          "name": "treasuryFees",
          "type": "uint256"
        }
      ],
      "name": "Swap",
      "type": "event"
    },
    {
      "anonymous": false,
      "inputs": [
        {
          "indexed": true,
          "internalType": "address",
          "name": "from",
          "type": "address"
        },
        {
          "indexed": true,
          "internalType": "address",
          "name": "to",
          "type": "address"
        },
        {
          "indexed": false,
          "internalType": "uint256",
          "name": "value",
          "type": "uint256"
        }
      ],
      "name": "Transfer",
      "type": "event"
    },
    {
      "anonymous": false,
      "inputs": [
        {
          "indexed": true,
          "internalType": "address",
          "name": "sender",
          "type": "address"
        },
        {
          "indexed": true,
          "internalType": "address",
          "name": "receiver",
          "type": "address"
        },
        {
          "indexed": true,
          "internalType": "address",
          "name": "owner",
          "type": "address"
        },
        {
          "indexed": false,
          "internalType": "uint256",
          "name": "assets",
          "type": "uint256"
        },
        {
          "indexed": false,
          "internalType": "uint256",
          "name": "shares",
          "type": "uint256"
        }
      ],
      "name": "Withdraw",
      "type": "event"
    },
    {
      "inputs": [],
      "name": "MAX_FEE",
      "outputs": [
        {
          "internalType": "uint16",
          "name": "",
          "type": "uint16"
        }
      ],
      "stateMutability": "view",
      "type": "function"
    },
    {
      "inputs": [],
      "name": "MIN_DEPOSIT",
      "outputs": [
        {
          "internalType": "uint64",
          "name": "",
          "type": "uint64"
        }
      ],
      "stateMutability": "view",
      "type": "function"
    },
    {
      "inputs": [],
      "name": "MIN_FEE",
      "outputs": [
        {
          "internalType": "uint16",
          "name": "",
          "type": "uint16"
        }
      ],
      "stateMutability": "view",
      "type": "function"
    },
    {
      "inputs": [],
      "name": "STAKING",
      "outputs": [
        {
          "internalType": "address payable",
          "name": "",
          "type": "address"
        }
      ],
      "stateMutability": "view",
      "type": "function"
    },
    {
      "inputs": [
        {
          "internalType": "address",
          "name": "owner",
          "type": "address"
        },
        {
          "internalType": "address",
          "name": "spender",
          "type": "address"
        }
      ],
      "name": "allowance",
      "outputs": [
        {
          "internalType": "uint256",
          "name": "",
          "type": "uint256"
        }
      ],
      "stateMutability": "view",
      "type": "function"
    },
    {
      "inputs": [
        {
          "internalType": "address",
          "name": "spender",
          "type": "address"
        },
        {
          "internalType": "uint256",
          "name": "amount",
          "type": "uint256"
        }
      ],
      "name": "approve",
      "outputs": [
        {
          "internalType": "bool",
          "name": "",
          "type": "bool"
        }
      ],
      "stateMutability": "nonpayable",
      "type": "function"
    },
    {
      "inputs": [],
      "name": "asset",
      "outputs": [
        {
          "internalType": "address",
          "name": "",
          "type": "address"
        }
      ],
      "stateMutability": "view",
      "type": "function"
    },
    {
      "inputs": [
        {
          "internalType": "address",
          "name": "account",
          "type": "address"
        }
      ],
      "name": "balanceOf",
      "outputs": [
        {
          "internalType": "uint256",
          "name": "",
          "type": "uint256"
        }
      ],
      "stateMutability": "view",
      "type": "function"
    },
    {
      "inputs": [
        {
          "internalType": "uint256",
          "name": "shares",
          "type": "uint256"
        }
      ],
      "name": "convertToAssets",
      "outputs": [
        {
          "internalType": "uint256",
          "name": "assets",
          "type": "uint256"
        }
      ],
      "stateMutability": "view",
      "type": "function"
    },
    {
      "inputs": [
        {
          "internalType": "uint256",
          "name": "assets",
          "type": "uint256"
        }
      ],
      "name": "convertToShares",
      "outputs": [
        {
          "internalType": "uint256",
          "name": "shares",
          "type": "uint256"
        }
      ],
      "stateMutability": "view",
      "type": "function"
    },
    {
      "inputs": [],
      "name": "decimals",
      "outputs": [
        {
          "internalType": "uint8",
          "name": "",
          "type": "uint8"
        }
      ],
      "stateMutability": "view",
      "type": "function"
    },
    {
      "inputs": [
        {
          "internalType": "address",
          "name": "spender",
          "type": "address"
        },
        {
          "internalType": "uint256",
          "name": "subtractedValue",
          "type": "uint256"
        }
      ],
      "name": "decreaseAllowance",
      "outputs": [
        {
          "internalType": "bool",
          "name": "",
          "type": "bool"
        }
      ],
      "stateMutability": "nonpayable",
      "type": "function"
    },
    {
      "inputs": [
        {
          "internalType": "uint256",
          "name": "_assets",
          "type": "uint256"
        },
        {
          "internalType": "address",
          "name": "_receiver",
          "type": "address"
        }
      ],
      "name": "deposit",
      "outputs": [
        {
          "internalType": "uint256",
          "name": "",
          "type": "uint256"
        }
      ],
      "stateMutability": "nonpayable",
      "type": "function"
    },
    {
      "inputs": [
        {
          "internalType": "address",
          "name": "_receiver",
          "type": "address"
        }
      ],
      "name": "depositETH",
      "outputs": [
        {
          "internalType": "uint256",
          "name": "",
          "type": "uint256"
        }
      ],
      "stateMutability": "payable",
      "type": "function"
    },
    {
      "inputs": [],
      "name": "ethBalance",
      "outputs": [
        {
          "internalType": "uint256",
          "name": "",
          "type": "uint256"
        }
      ],
      "stateMutability": "view",
      "type": "function"
    },
    {
      "inputs": [
        {
          "internalType": "uint256",
          "name": "_amountIn",
          "type": "uint256"
        }
      ],
      "name": "getAmountOut",
      "outputs": [
        {
          "internalType": "uint256",
          "name": "amountOut",
          "type": "uint256"
        },
        {
          "internalType": "uint256",
          "name": "feeAmount",
          "type": "uint256"
        }
      ],
      "stateMutability": "view",
      "type": "function"
    },
    {
      "inputs": [],
      "name": "getAvailableEthForValidator",
      "outputs": [
        {
          "internalType": "uint256",
          "name": "availableETH",
          "type": "uint256"
        }
      ],
      "stateMutability": "view",
      "type": "function"
    },
    {
      "inputs": [
        {
          "internalType": "uint256",
          "name": "_amount",
          "type": "uint256"
        }
      ],
      "name": "getEthForValidator",
      "outputs": [],
      "stateMutability": "nonpayable",
      "type": "function"
    },
    {
      "inputs": [
        {
          "internalType": "address",
          "name": "spender",
          "type": "address"
        },
        {
          "internalType": "uint256",
          "name": "addedValue",
          "type": "uint256"
        }
      ],
      "name": "increaseAllowance",
      "outputs": [
        {
          "internalType": "bool",
          "name": "",
          "type": "bool"
        }
      ],
      "stateMutability": "nonpayable",
      "type": "function"
    },
    {
      "inputs": [
        {
          "internalType": "address payable",
          "name": "_staking",
          "type": "address"
        },
        {
          "internalType": "contract IERC20MetadataUpgradeable",
          "name": "_weth",
          "type": "address"
        },
        {
          "internalType": "address",
          "name": "_treasury",
          "type": "address"
        }
      ],
      "name": "initialize",
      "outputs": [],
      "stateMutability": "nonpayable",
      "type": "function"
    },
    {
      "inputs": [
        {
          "internalType": "address",
          "name": "",
          "type": "address"
        }
      ],
      "name": "maxDeposit",
      "outputs": [
        {
          "internalType": "uint256",
          "name": "",
          "type": "uint256"
        }
      ],
      "stateMutability": "view",
      "type": "function"
    },
    {
      "inputs": [
        {
          "internalType": "address",
          "name": "",
          "type": "address"
        }
      ],
      "name": "maxMint",
      "outputs": [
        {
          "internalType": "uint256",
          "name": "",
          "type": "uint256"
        }
      ],
      "stateMutability": "view",
      "type": "function"
    },
    {
      "inputs": [
        {
          "internalType": "address",
          "name": "owner",
          "type": "address"
        }
      ],
      "name": "maxRedeem",
      "outputs": [
        {
          "internalType": "uint256",
          "name": "",
          "type": "uint256"
        }
      ],
      "stateMutability": "view",
      "type": "function"
    },
    {
      "inputs": [
        {
          "internalType": "address",
          "name": "owner",
          "type": "address"
        }
      ],
      "name": "maxWithdraw",
      "outputs": [
        {
          "internalType": "uint256",
          "name": "",
          "type": "uint256"
        }
      ],
      "stateMutability": "view",
      "type": "function"
    },
    {
      "inputs": [],
      "name": "minETHPercentage",
      "outputs": [
        {
          "internalType": "uint256",
          "name": "",
          "type": "uint256"
        }
      ],
      "stateMutability": "view",
      "type": "function"
    },
    {
      "inputs": [
        {
          "internalType": "uint256",
          "name": "shares",
          "type": "uint256"
        },
        {
          "internalType": "address",
          "name": "receiver",
          "type": "address"
        }
      ],
      "name": "mint",
      "outputs": [
        {
          "internalType": "uint256",
          "name": "",
          "type": "uint256"
        }
      ],
      "stateMutability": "nonpayable",
      "type": "function"
    },
    {
      "inputs": [],
      "name": "name",
      "outputs": [
        {
          "internalType": "string",
          "name": "",
          "type": "string"
        }
      ],
      "stateMutability": "view",
      "type": "function"
    },
    {
      "inputs": [],
      "name": "owner",
      "outputs": [
        {
          "internalType": "address",
          "name": "",
          "type": "address"
        }
      ],
      "stateMutability": "view",
      "type": "function"
    },
    {
      "inputs": [
        {
          "internalType": "uint256",
          "name": "assets",
          "type": "uint256"
        }
      ],
      "name": "previewDeposit",
      "outputs": [
        {
          "internalType": "uint256",
          "name": "",
          "type": "uint256"
        }
      ],
      "stateMutability": "view",
      "type": "function"
    },
    {
      "inputs": [
        {
          "internalType": "uint256",
          "name": "shares",
          "type": "uint256"
        }
      ],
      "name": "previewMint",
      "outputs": [
        {
          "internalType": "uint256",
          "name": "",
          "type": "uint256"
        }
      ],
      "stateMutability": "view",
      "type": "function"
    },
    {
      "inputs": [
        {
          "internalType": "uint256",
          "name": "shares",
          "type": "uint256"
        }
      ],
      "name": "previewRedeem",
      "outputs": [
        {
          "internalType": "uint256",
          "name": "",
          "type": "uint256"
        }
      ],
      "stateMutability": "view",
      "type": "function"
    },
    {
      "inputs": [
        {
          "internalType": "uint256",
          "name": "assets",
          "type": "uint256"
        }
      ],
      "name": "previewWithdraw",
      "outputs": [
        {
          "internalType": "uint256",
          "name": "",
          "type": "uint256"
        }
      ],
      "stateMutability": "view",
      "type": "function"
    },
    {
      "inputs": [
        {
          "internalType": "uint256",
          "name": "_shares",
          "type": "uint256"
        },
        {
          "internalType": "address",
          "name": "_receiver",
          "type": "address"
        },
        {
          "internalType": "address",
          "name": "_owner",
          "type": "address"
        }
      ],
      "name": "redeem",
      "outputs": [
        {
          "internalType": "uint256",
          "name": "ETHToSend",
          "type": "uint256"
        }
      ],
      "stateMutability": "nonpayable",
      "type": "function"
    },
    {
      "inputs": [],
      "name": "renounceOwnership",
      "outputs": [],
      "stateMutability": "nonpayable",
      "type": "function"
    },
    {
      "inputs": [
        {
          "internalType": "address",
          "name": "_to",
          "type": "address"
        }
      ],
      "name": "swapETHFormpETH",
      "outputs": [
        {
          "internalType": "uint256",
          "name": "",
          "type": "uint256"
        }
      ],
      "stateMutability": "payable",
      "type": "function"
    },
    {
      "inputs": [
        {
          "internalType": "uint256",
          "name": "_amount",
          "type": "uint256"
        },
        {
          "internalType": "uint256",
          "name": "_minOut",
          "type": "uint256"
        }
      ],
      "name": "swapmpETHforETH",
      "outputs": [
        {
          "internalType": "uint256",
          "name": "",
          "type": "uint256"
        }
      ],
      "stateMutability": "nonpayable",
      "type": "function"
    },
    {
      "inputs": [],
      "name": "symbol",
      "outputs": [
        {
          "internalType": "string",
          "name": "",
          "type": "string"
        }
      ],
      "stateMutability": "view",
      "type": "function"
    },
    {
      "inputs": [],
      "name": "targetLiquidity",
      "outputs": [
        {
          "internalType": "uint256",
          "name": "",
          "type": "uint256"
        }
      ],
      "stateMutability": "view",
      "type": "function"
    },
    {
      "inputs": [],
      "name": "totalAssets",
      "outputs": [
        {
          "internalType": "uint256",
          "name": "",
          "type": "uint256"
        }
      ],
      "stateMutability": "view",
      "type": "function"
    },
    {
      "inputs": [],
      "name": "totalSupply",
      "outputs": [
        {
          "internalType": "uint256",
          "name": "",
          "type": "uint256"
        }
      ],
      "stateMutability": "view",
      "type": "function"
    },
    {
      "inputs": [
        {
          "internalType": "address",
          "name": "to",
          "type": "address"
        },
        {
          "internalType": "uint256",
          "name": "amount",
          "type": "uint256"
        }
      ],
      "name": "transfer",
      "outputs": [
        {
          "internalType": "bool",
          "name": "",
          "type": "bool"
        }
      ],
      "stateMutability": "nonpayable",
      "type": "function"
    },
    {
      "inputs": [
        {
          "internalType": "address",
          "name": "from",
          "type": "address"
        },
        {
          "internalType": "address",
          "name": "to",
          "type": "address"
        },
        {
          "internalType": "uint256",
          "name": "amount",
          "type": "uint256"
        }
      ],
      "name": "transferFrom",
      "outputs": [
        {
          "internalType": "bool",
          "name": "",
          "type": "bool"
        }
      ],
      "stateMutability": "nonpayable",
      "type": "function"
    },
    {
      "inputs": [
        {
          "internalType": "address",
          "name": "newOwner",
          "type": "address"
        }
      ],
      "name": "transferOwnership",
      "outputs": [],
      "stateMutability": "nonpayable",
      "type": "function"
    },
    {
      "inputs": [],
      "name": "treasury",
      "outputs": [
        {
          "internalType": "address",
          "name": "",
          "type": "address"
        }
      ],
      "stateMutability": "view",
      "type": "function"
    },
    {
      "inputs": [
        {
          "internalType": "uint256",
          "name": "_minETHPercentage",
          "type": "uint256"
        }
      ],
      "name": "updateMinETHPercentage",
      "outputs": [],
      "stateMutability": "nonpayable",
      "type": "function"
    },
    {
      "inputs": [
        {
          "internalType": "uint256",
          "name": "_targetLiquidity",
          "type": "uint256"
        }
      ],
      "name": "updateTargetLiquidity",
      "outputs": [],
      "stateMutability": "nonpayable",
      "type": "function"
    },
    {
      "inputs": [
        {
          "internalType": "uint256",
          "name": "",
          "type": "uint256"
        },
        {
          "internalType": "address",
          "name": "",
          "type": "address"
        },
        {
          "internalType": "address",
          "name": "",
          "type": "address"
        }
      ],
      "name": "withdraw",
      "outputs": [
        {
          "internalType": "uint256",
          "name": "",
          "type": "uint256"
        }
      ],
      "stateMutability": "pure",
      "type": "function"
    },
    {
      "stateMutability": "payable",
      "type": "receive"
    }
  ],
  "bytecode": "0x608060405234801561001057600080fd5b50612bb0806100206000396000f3fe60806040526004361061028c5760003560e01c8063715018a61161015a578063ba087652116100c1578063ce96cb771161007a578063ce96cb7714610797578063d905777e146107b7578063dd62ed3e146107d7578063e1e158a5146107f7578063ef8b30f714610777578063f2fde38b1461082b57600080fd5b8063ba087652146106ec578063bc063e1a1461070c578063c0c53b8b14610722578063c3e8c4fa14610742578063c63d75b614610755578063c6e6f5921461077757600080fd5b806395d89b411161011357806395d89b411461063757806397610f301461064c578063a457c2d71461066c578063a9059cbb1461068c578063b3d7f6b9146106ac578063b460af94146106cc57600080fd5b8063715018a61461058657806376c7a3c71461059b5780637d287f4f146105c35780638da5cb5b146105e357806392258ec81461060157806394bf804d1461061757600080fd5b8063313ce567116101fe5780634cdad506116101b75780634cdad506146102e25780634e6630b0146104c55780635c195217146104db57806361d027b3146105105780636e553f651461053057806370a082311461055057600080fd5b8063313ce567146103e55780633701206b1461041157806338d52e0f146104335780633950935114610465578063402d267d14610485578063489569d7146104a557600080fd5b806318160ddd1161025057806318160ddd146103525780631efc117314610367578063201687301461037c57806323b872dd1461039c5780632d2da806146103bc5780633100f4f2146103cf57600080fd5b806301e1d1141461029857806306fdde03146102c057806307a2d13a146102e2578063095ea7b3146103025780630a28a4771461033257600080fd5b3661029357005b600080fd5b3480156102a457600080fd5b506102ad61084b565b6040519081526020015b60405180910390f35b3480156102cc57600080fd5b506102d561094f565b6040516102b791906129d9565b3480156102ee57600080fd5b506102ad6102fd366004612901565b6109e1565b34801561030e57600080fd5b5061032261031d3660046128b6565b6109f4565b60405190151581526020016102b7565b34801561033e57600080fd5b506102ad61034d366004612901565b610a0c565b34801561035e57600080fd5b506035546102ad565b34801561037357600080fd5b506102ad610a19565b34801561038857600080fd5b506102ad61039736600461297b565b610a71565b3480156103a857600080fd5b506103226103b7366004612876565b610b8f565b6102ad6103ca3660046127d8565b610bb5565b3480156103db57600080fd5b506102ad60ff5481565b3480156103f157600080fd5b50606554600160a01b900460ff1660405160ff90911681526020016102b7565b34801561041d57600080fd5b5061043161042c366004612901565b610bd0565b005b34801561043f57600080fd5b506065546001600160a01b03165b6040516001600160a01b0390911681526020016102b7565b34801561047157600080fd5b506103226104803660046128b6565b610d2d565b34801561049157600080fd5b506102ad6104a03660046127d8565b610d4f565b3480156104b157600080fd5b506104316104c0366004612901565b610d6d565b3480156104d157600080fd5b506102ad60fd5481565b3480156104e757600080fd5b506104fb6104f6366004612901565b610d7a565b604080519283526020830191909152016102b7565b34801561051c57600080fd5b5060fb5461044d906001600160a01b031681565b34801561053c57600080fd5b506102ad61054b366004612931565b610f40565b34801561055c57600080fd5b506102ad61056b3660046127d8565b6001600160a01b031660009081526033602052604090205490565b34801561059257600080fd5b50610431610f5a565b3480156105a757600080fd5b506105b0601e81565b60405161ffff90911681526020016102b7565b3480156105cf57600080fd5b506104316105de366004612901565b610f6e565b3480156105ef57600080fd5b506097546001600160a01b031661044d565b34801561060d57600080fd5b506102ad60fe5481565b34801561062357600080fd5b506102ad610632366004612931565b610f7b565b34801561064357600080fd5b506102d5610f95565b34801561065857600080fd5b5060fc5461044d906001600160a01b031681565b34801561067857600080fd5b506103226106873660046128b6565b610fa4565b34801561069857600080fd5b506103226106a73660046128b6565b61102a565b3480156106b857600080fd5b506102ad6106c7366004612901565b611038565b3480156106d857600080fd5b506102ad6106e7366004612955565b611045565b3480156106f857600080fd5b506102ad610707366004612955565b61107d565b34801561071857600080fd5b506105b06101f481565b34801561072e57600080fd5b5061043161073d3660046127f4565b611243565b6102ad6107503660046127d8565b6114e0565b34801561076157600080fd5b506102ad6107703660046127d8565b5060001990565b34801561078357600080fd5b506102ad610792366004612901565b6115ea565b3480156107a357600080fd5b506102ad6107b23660046127d8565b6115f7565b3480156107c357600080fd5b506102ad6107d23660046127d8565b61161b565b3480156107e357600080fd5b506102ad6107f236600461283e565b611639565b34801561080357600080fd5b50610812662386f26fc1000081565b60405167ffffffffffffffff90911681526020016102b7565b34801561083757600080fd5b506104316108463660046127d8565b611664565b60fc546040516370a0823160e01b81523060048201526000916001600160a01b0316906307a2d13a9082906370a082319060240160206040518083038186803b15801561089757600080fd5b505afa1580156108ab573d6000803e3d6000fd5b505050506040513d601f19601f820116820180604052508101906108cf9190612919565b6040518263ffffffff1660e01b81526004016108ed91815260200190565b60206040518083038186803b15801561090557600080fd5b505afa158015610919573d6000803e3d6000fd5b505050506040513d601f19601f8201168201806040525081019061093d9190612919565b60fd5461094a9190612a57565b905090565b60606036805461095e90612b14565b80601f016020809104026020016040519081016040528092919081815260200182805461098a90612b14565b80156109d75780601f106109ac576101008083540402835291602001916109d7565b820191906000526020600020905b8154815290600101906020018083116109ba57829003601f168201915b5050505050905090565b60006109ee8260006116da565b92915050565b600033610a02818585611711565b5060019392505050565b60006109ee826001611835565b600080610a2461084b565b60fd54610a3390612710612a8f565b610a3d9190612a6f565b9050612710610a4a61084b565b60ff54610a579084612ad1565b610a619190612a8f565b610a6b9190612a6f565b91505090565b6000610a7b611867565b60fc546001600160a01b0316600080610a9386610d7a565b9150915084821015610ac75760405163ab32395f60e01b815260048101869052602481018390526044015b60405180910390fd5b6000612710610ad8836109c4612a8f565b610ae29190612a6f565b90508260fd6000828254610af69190612ad1565b90915550610b1190506001600160a01b03851633308a6118c1565b60fb54610b2b906001600160a01b0386811691168361192c565b610b353384611961565b60408051888152602081018590529081018390526060810182905233907f49926bbebe8474393f434dfa4f78694c0923efa07d19f2284518bfabd06eb7379060800160405180910390a25090925050506109ee600160c955565b600033610b9d858285611a81565b610ba8858585611af5565b60019150505b9392505050565b600080610bc1346115ea565b90506109ee3384600084611ca0565b610bd8611867565b60fc546001600160a01b03163314610c185760fc5460405163c55ddc9760e01b81523360048201526001600160a01b039091166024820152604401610abe565b6000610c22610a19565b905080821115610c4f576040516336047df560e21b81526004810183905260248101829052604401610abe565b8160fd6000828254610c619190612ad1565b909155505060fc54604051631696d40360e11b81523060048201526001600160a01b0390911690632d2da8069084906024016020604051808303818588803b158015610cac57600080fd5b505af1158015610cc0573d6000803e3d6000fd5b50505050506040513d601f19601f82011682018060405250810190610ce59190612919565b5060408051428152602081018490527f7ac2a41af785a0be7c54324b10c6f29b473018b57e4b58f9b86a050124173b1b910160405180910390a150610d2a600160c955565b50565b600033610a02818585610d408383611639565b610d4a9190612a57565b611711565b6000610d59611d30565b610d645760006109ee565b60001992915050565b610d75611d4a565b60ff55565b60fc5460009081906001600160a01b031681610d99601e6101f4612aae565b6040516303d1689d60e11b8152600481018790529091506001600160a01b038316906307a2d13a9060240160206040518083038186803b158015610ddc57600080fd5b505afa158015610df0573d6000803e3d6000fd5b505050506040513d601f19601f82011682018060405250810190610e149190612919565b93506000610e55856040518060400160405280600e81526020016d09cdee840cadcdeeaced0408aa8960931b81525060fd54611da49092919063ffffffff16565b60fe54909150601e90821015610e955760fe54600090610e798461ffff8716612a8f565b610e839190612a6f565b9050610e91816101f4612ad1565b9150505b612710610ea28289612a8f565b610eac9190612a6f565b94506001600160a01b0384166307a2d13a610ec7878a612ad1565b6040518263ffffffff1660e01b8152600401610ee591815260200190565b60206040518083038186803b158015610efd57600080fd5b505afa158015610f11573d6000803e3d6000fd5b505050506040513d601f19601f82011682018060405250810190610f359190612919565b955050505050915091565b600080610f4c846115ea565b9050610bae33848684611ca0565b610f62611d4a565b610f6c6000611dd0565b565b610f76611d4a565b60fe55565b600080610f8784611038565b9050610bae33848387611ca0565b60606037805461095e90612b14565b60003381610fb28286611639565b9050838110156110125760405162461bcd60e51b815260206004820152602560248201527f45524332303a2064656372656173656420616c6c6f77616e63652062656c6f77604482015264207a65726f60d81b6064820152608401610abe565b61101f8286868403611711565b506001949350505050565b600033610a02818585611af5565b60006109ee8260016116da565b60405162461bcd60e51b815260206004820152600a6024820152695573652072656465656d60b01b6044820152600090606401610abe565b6000611087611867565b336001600160a01b038316146110a2576110a2823386611a81565b60006110ad60355490565b6110bf86670de0b6b3a7640000612a8f565b6110c99190612a6f565b9050806110e9576040516376af5f4b60e01b815260040160405180910390fd5b670de0b6b3a764000060fd54826111009190612a8f565b61110a9190612a6f565b60fc546040516370a0823160e01b8152306004820152919350600091670de0b6b3a7640000916001600160a01b0316906370a082319060240160206040518083038186803b15801561115b57600080fd5b505afa15801561116f573d6000803e3d6000fd5b505050506040513d601f19601f820116820180604052508101906111939190612919565b61119d9084612a8f565b6111a79190612a6f565b90506111b33387611e22565b8260fd60008282546111c59190612ad1565b909155505060fc546111e1906001600160a01b0316868361192c565b6111f46001600160a01b03861684611961565b604080518781526020810185905290810182905233907f59c3a0b60c6ab7deb62e1440c9e72441db6db7dfe514dba8cb18e60c0d896efa9060600160405180910390a25050610bae600160c955565b600054610100900460ff16158080156112635750600054600160ff909116105b8061127d5750303b15801561127d575060005460ff166001145b6112e05760405162461bcd60e51b815260206004820152602e60248201527f496e697469616c697a61626c653a20636f6e747261637420697320616c72656160448201526d191e481a5b9a5d1a585b1a5e995960921b6064820152608401610abe565b6000805460ff191660011790558015611303576000805461ff0019166101001790555b61130c83611f56565b6113586040518060400160405280600981526020016804d6574614554484c560bc1b815250604051806040016040528060098152602001680dae08aa8905e8aa8960bb1b815250611f86565b611360611fbb565b611368611fea565b826001600160a01b031663313ce5676040518163ffffffff1660e01b815260040160206040518083038186803b1580156113a157600080fd5b505afa1580156113b5573d6000803e3d6000fd5b505050506040513d601f19601f820116820180604052508101906113d9919061299c565b60ff166012146114475760405162461bcd60e51b815260206004820152603360248201527f774e617469766520746f6b656e206572726f722c20696d706c656d656e746174604482015272696f6e20666f7220313820646563696d616c7360681b6064820152608401610abe565b60fc80546001600160a01b038087166001600160a01b03199283161790925560fb8054928516929091169190911790556114896801a055690d9db80000610f6e565b611494611388610d6d565b80156114da576000805461ff0019169055604051600181527f7f26b83ff96e1f2b6a682f133852f6798a09c465da95921460cefb38474024989060200160405180910390a15b50505050565b60006114ea611867565b60fc546001600160a01b0316331461152a5760fc5460405163c55ddc9760e01b81523360048201526001600160a01b039091166024820152604401610abe565b60fc5460405163ef8b30f760e01b81523460048201526001600160a01b0390911690600090829063ef8b30f79060240160206040518083038186803b15801561157257600080fd5b505afa158015611586573d6000803e3d6000fd5b505050506040513d601f19601f820116820180604052508101906115aa9190612919565b90506115c06001600160a01b038316858361192c565b3460fd60008282546115d29190612a57565b9091555090925050506115e5600160c955565b919050565b60006109ee826000611835565b6001600160a01b0381166000908152603360205260408120546109ee9060006116da565b6001600160a01b0381166000908152603360205260408120546109ee565b6001600160a01b03918216600090815260346020908152604080832093909416825291909152205490565b61166c611d4a565b6001600160a01b0381166116d15760405162461bcd60e51b815260206004820152602660248201527f4f776e61626c653a206e6577206f776e657220697320746865207a65726f206160448201526564647265737360d01b6064820152608401610abe565b610d2a81611dd0565b6000806116e660355490565b90508015611707576117026116f961084b565b85908386612019565b611709565b835b949350505050565b6001600160a01b0383166117735760405162461bcd60e51b8152602060048201526024808201527f45524332303a20617070726f76652066726f6d20746865207a65726f206164646044820152637265737360e01b6064820152608401610abe565b6001600160a01b0382166117d45760405162461bcd60e51b815260206004820152602260248201527f45524332303a20617070726f766520746f20746865207a65726f206164647265604482015261737360f01b6064820152608401610abe565b6001600160a01b0383811660008181526034602090815260408083209487168084529482529182902085905590518481527f8c5be1e5ebec7d5bd14f71427d1e84f3dd0314c0f7b2291e5b200ac8c7c3b925910160405180910390a3505050565b60008061184160355490565b905083158061184e575080155b611707576117028161185e61084b565b86919086612019565b600260c95414156118ba5760405162461bcd60e51b815260206004820152601f60248201527f5265656e7472616e637947756172643a207265656e7472616e742063616c6c006044820152606401610abe565b600260c955565b6040516001600160a01b03808516602483015283166044820152606481018290526114da9085906323b872dd60e01b906084015b60408051601f198184030181529190526020810180516001600160e01b03166001600160e01b031990931692909217909152612092565b6040516001600160a01b03831660248201526044810182905261195c90849063a9059cbb60e01b906064016118f5565b505050565b804710156119b15760405162461bcd60e51b815260206004820152601d60248201527f416464726573733a20696e73756666696369656e742062616c616e63650000006044820152606401610abe565b6000826001600160a01b03168260405160006040518083038185875af1925050503d80600081146119fe576040519150601f19603f3d011682016040523d82523d6000602084013e611a03565b606091505b505090508061195c5760405162461bcd60e51b815260206004820152603a60248201527f416464726573733a20756e61626c6520746f2073656e642076616c75652c207260448201527f6563697069656e74206d617920686176652072657665727465640000000000006064820152608401610abe565b600160c955565b6000611a8d8484611639565b905060001981146114da5781811015611ae85760405162461bcd60e51b815260206004820152601d60248201527f45524332303a20696e73756666696369656e7420616c6c6f77616e63650000006044820152606401610abe565b6114da8484848403611711565b6001600160a01b038316611b595760405162461bcd60e51b815260206004820152602560248201527f45524332303a207472616e736665722066726f6d20746865207a65726f206164604482015264647265737360d81b6064820152608401610abe565b6001600160a01b038216611bbb5760405162461bcd60e51b815260206004820152602360248201527f45524332303a207472616e7366657220746f20746865207a65726f206164647260448201526265737360e81b6064820152608401610abe565b6001600160a01b03831660009081526033602052604090205481811015611c335760405162461bcd60e51b815260206004820152602660248201527f45524332303a207472616e7366657220616d6f756e7420657863656564732062604482015265616c616e636560d01b6064820152608401610abe565b6001600160a01b0380851660008181526033602052604080822086860390559286168082529083902080548601905591517fddf252ad1be2c89b69c2b068fc378daa952ba7f163c4a11628f55a4df523b3ef90611c939086815260200190565b60405180910390a36114da565b611ca8611867565b611cb182612164565b9150611cbc826121fd565b611cc68382612235565b8160fd6000828254611cd89190612a57565b909155505060408051838152602081018390526001600160a01b0380861692908716917fd2491a9b4fe81a7cd4511e8b7b7743951b061dad5bed7da8a7795b080ee08c7e910160405180910390a36114da600160c955565b600080611d3b61084b565b118061094a5750506035541590565b6097546001600160a01b03163314610f6c5760405162461bcd60e51b815260206004820181905260248201527f4f776e61626c653a2063616c6c6572206973206e6f7420746865206f776e65726044820152606401610abe565b60008184841115611dc85760405162461bcd60e51b8152600401610abe91906129d9565b505050900390565b609780546001600160a01b038381166001600160a01b0319831681179093556040519116919082907f8be0079c531659141344cd1fd0a4f28419497f9722a3daafe3b4186f6b6457e090600090a35050565b6001600160a01b038216611e825760405162461bcd60e51b815260206004820152602160248201527f45524332303a206275726e2066726f6d20746865207a65726f206164647265736044820152607360f81b6064820152608401610abe565b6001600160a01b03821660009081526033602052604090205481811015611ef65760405162461bcd60e51b815260206004820152602260248201527f45524332303a206275726e20616d6f756e7420657863656564732062616c616e604482015261636560f01b6064820152608401610abe565b6001600160a01b03831660008181526033602090815260408083208686039055603580548790039055518581529192917fddf252ad1be2c89b69c2b068fc378daa952ba7f163c4a11628f55a4df523b3ef910160405180910390a3505050565b600054610100900460ff16611f7d5760405162461bcd60e51b8152600401610abe90612a0c565b610d2a816122f6565b600054610100900460ff16611fad5760405162461bcd60e51b8152600401610abe90612a0c565b611fb7828261237b565b5050565b600054610100900460ff16611fe25760405162461bcd60e51b8152600401610abe90612a0c565b610f6c6123c9565b600054610100900460ff166120115760405162461bcd60e51b8152600401610abe90612a0c565b610f6c6123f9565b600080612027868686612420565b9050600183600281111561204b57634e487b7160e01b600052602160045260246000fd5b14801561207657506000848061207157634e487b7160e01b600052601260045260246000fd5b868809115b1561208957612086600182612a57565b90505b95945050505050565b60006120e7826040518060400160405280602081526020017f5361666545524332303a206c6f772d6c6576656c2063616c6c206661696c6564815250856001600160a01b03166124de9092919063ffffffff16565b80519091501561195c578080602001905181019061210591906128e1565b61195c5760405162461bcd60e51b815260206004820152602a60248201527f5361666545524332303a204552433230206f7065726174696f6e20646964206e6044820152691bdd081cdd58d8d9595960b21b6064820152608401610abe565b600081612172573491505090565b61219b33308461218a6065546001600160a01b031690565b6001600160a01b03169291906118c1565b606554604051632e1a7d4d60e01b8152600481018490526001600160a01b0390911690632e1a7d4d90602401600060405180830381600087803b1580156121e157600080fd5b505af11580156121f5573d6000803e3d6000fd5b505050505090565b662386f26fc10000811015610d2a5760405163ea691a4b60e01b8152662386f26fc10000600482015260248101829052604401610abe565b6001600160a01b03821661228b5760405162461bcd60e51b815260206004820152601f60248201527f45524332303a206d696e7420746f20746865207a65726f2061646472657373006044820152606401610abe565b806035600082825461229d9190612a57565b90915550506001600160a01b0382166000818152603360209081526040808320805486019055518481527fddf252ad1be2c89b69c2b068fc378daa952ba7f163c4a11628f55a4df523b3ef910160405180910390a35050565b600054610100900460ff1661231d5760405162461bcd60e51b8152600401610abe90612a0c565b600080612329836124ed565b915091508161233957601261233b565b805b606580546001600160a01b039095166001600160a01b031960ff93909316600160a01b02929092166001600160a81b031990951694909417179092555050565b600054610100900460ff166123a25760405162461bcd60e51b8152600401610abe90612a0c565b81516123b590603690602085019061273f565b50805161195c90603790602084019061273f565b600054610100900460ff166123f05760405162461bcd60e51b8152600401610abe90612a0c565b610f6c33611dd0565b600054610100900460ff16611a7a5760405162461bcd60e51b8152600401610abe90612a0c565b6000808060001985870985870292508281108382030391505080600014156124695783828161245f57634e487b7160e01b600052601260045260246000fd5b0492505050610bae565b80841161247557600080fd5b60008486880960026001871981018816978890046003810283188082028403028082028403028082028403028082028403028082028403029081029092039091026000889003889004909101858311909403939093029303949094049190911702949350505050565b606061170984846000856125c9565b60408051600481526024810182526020810180516001600160e01b031663313ce56760e01b17905290516000918291829182916001600160a01b03871691612534916129bd565b600060405180830381855afa9150503d806000811461256f576040519150601f19603f3d011682016040523d82523d6000602084013e612574565b606091505b509150915081801561258857506020815110155b156125bc576000818060200190518101906125a39190612919565b905060ff81116125ba576001969095509350505050565b505b5060009485945092505050565b60608247101561262a5760405162461bcd60e51b815260206004820152602660248201527f416464726573733a20696e73756666696369656e742062616c616e636520666f6044820152651c8818d85b1b60d21b6064820152608401610abe565b600080866001600160a01b0316858760405161264691906129bd565b60006040518083038185875af1925050503d8060008114612683576040519150601f19603f3d011682016040523d82523d6000602084013e612688565b606091505b5091509150612699878383876126a4565b979650505050505050565b60608315612710578251612709576001600160a01b0385163b6127095760405162461bcd60e51b815260206004820152601d60248201527f416464726573733a2063616c6c20746f206e6f6e2d636f6e74726163740000006044820152606401610abe565b5081611709565b61170983838151156127255781518083602001fd5b8060405162461bcd60e51b8152600401610abe91906129d9565b82805461274b90612b14565b90600052602060002090601f01602090048101928261276d57600085556127b3565b82601f1061278657805160ff19168380011785556127b3565b828001600101855582156127b3579182015b828111156127b3578251825591602001919060010190612798565b506127bf9291506127c3565b5090565b5b808211156127bf57600081556001016127c4565b6000602082840312156127e9578081fd5b8135610bae81612b65565b600080600060608486031215612808578182fd5b833561281381612b65565b9250602084013561282381612b65565b9150604084013561283381612b65565b809150509250925092565b60008060408385031215612850578182fd5b823561285b81612b65565b9150602083013561286b81612b65565b809150509250929050565b60008060006060848603121561288a578283fd5b833561289581612b65565b925060208401356128a581612b65565b929592945050506040919091013590565b600080604083850312156128c8578182fd5b82356128d381612b65565b946020939093013593505050565b6000602082840312156128f2578081fd5b81518015158114610bae578182fd5b600060208284031215612912578081fd5b5035919050565b60006020828403121561292a578081fd5b5051919050565b60008060408385031215612943578182fd5b82359150602083013561286b81612b65565b600080600060608486031215612969578283fd5b83359250602084013561282381612b65565b6000806040838503121561298d578182fd5b50508035926020909101359150565b6000602082840312156129ad578081fd5b815160ff81168114610bae578182fd5b600082516129cf818460208701612ae8565b9190910192915050565b60208152600082518060208401526129f8816040850160208701612ae8565b601f01601f19169190910160400192915050565b6020808252602b908201527f496e697469616c697a61626c653a20636f6e7472616374206973206e6f74206960408201526a6e697469616c697a696e6760a81b606082015260800190565b60008219821115612a6a57612a6a612b4f565b500190565b600082612a8a57634e487b7160e01b81526012600452602481fd5b500490565b6000816000190483118215151615612aa957612aa9612b4f565b500290565b600061ffff83811690831681811015612ac957612ac9612b4f565b039392505050565b600082821015612ae357612ae3612b4f565b500390565b60005b83811015612b03578181015183820152602001612aeb565b838111156114da5750506000910152565b600181811c90821680612b2857607f821691505b60208210811415612b4957634e487b7160e01b600052602260045260246000fd5b50919050565b634e487b7160e01b600052601160045260246000fd5b6001600160a01b0381168114610d2a57600080fdfea26469706673582212208b2fee3a84cb6d5d907a19521971a95330895c3a800af2d290a8259bae1f4e8764736f6c63430008040033",
  "linkReferences": {},
  "deployedLinkReferences": {}
}