{
  "_format": "hh-sol-artifact-1",
  "contractName": "LiquidUnstakePool",
  "sourceName": "contracts/LiquidUnstakePool.sol",
  "abi": [
    {
      "anonymous": false,
      "inputs": [
        {
          "indexed": true,
          "internalType": "address",
          "name": "user",
          "type": "address"
        },
        {
          "indexed": true,
          "internalType": "address",
          "name": "_receiver",
          "type": "address"
        },
        {
          "indexed": false,
          "internalType": "uint256",
          "name": "amount",
          "type": "uint256"
        },
        {
          "indexed": false,
          "internalType": "uint256",
          "name": "_shares",
          "type": "uint256"
        }
      ],
      "name": "AddLiquidity",
      "type": "event"
    },
    {
      "anonymous": false,
      "inputs": [
        {
          "indexed": true,
          "internalType": "address",
          "name": "owner",
          "type": "address"
        },
        {
          "indexed": true,
          "internalType": "address",
          "name": "spender",
          "type": "address"
        },
        {
          "indexed": false,
          "internalType": "uint256",
          "name": "value",
          "type": "uint256"
        }
      ],
      "name": "Approval",
      "type": "event"
    },
    {
      "anonymous": false,
      "inputs": [
        {
          "indexed": true,
          "internalType": "address",
          "name": "sender",
          "type": "address"
        },
        {
          "indexed": true,
          "internalType": "address",
          "name": "owner",
          "type": "address"
        },
        {
          "indexed": false,
          "internalType": "uint256",
          "name": "assets",
          "type": "uint256"
        },
        {
          "indexed": false,
          "internalType": "uint256",
          "name": "shares",
          "type": "uint256"
        }
      ],
      "name": "Deposit",
      "type": "event"
    },
    {
      "anonymous": false,
      "inputs": [
        {
          "indexed": false,
          "internalType": "uint8",
          "name": "version",
          "type": "uint8"
        }
      ],
      "name": "Initialized",
      "type": "event"
    },
    {
      "anonymous": false,
      "inputs": [
        {
          "indexed": true,
          "internalType": "address",
          "name": "previousOwner",
          "type": "address"
        },
        {
          "indexed": true,
          "internalType": "address",
          "name": "newOwner",
          "type": "address"
        }
      ],
      "name": "OwnershipTransferred",
      "type": "event"
    },
    {
      "anonymous": false,
      "inputs": [
        {
          "indexed": true,
          "internalType": "address",
          "name": "user",
          "type": "address"
        },
        {
          "indexed": false,
          "internalType": "uint256",
          "name": "_shares",
          "type": "uint256"
        },
        {
          "indexed": false,
          "internalType": "uint256",
          "name": "eth",
          "type": "uint256"
        },
        {
          "indexed": false,
          "internalType": "uint256",
          "name": "mpETH",
          "type": "uint256"
        }
      ],
      "name": "RemoveLiquidity",
      "type": "event"
    },
    {
      "anonymous": false,
      "inputs": [
        {
          "indexed": true,
          "internalType": "address",
          "name": "from",
          "type": "address"
        },
        {
          "indexed": true,
          "internalType": "address",
          "name": "to",
          "type": "address"
        },
        {
          "indexed": false,
          "internalType": "uint256",
          "name": "value",
          "type": "uint256"
        }
      ],
      "name": "Transfer",
      "type": "event"
    },
    {
      "anonymous": false,
      "inputs": [
        {
          "indexed": true,
          "internalType": "address",
          "name": "sender",
          "type": "address"
        },
        {
          "indexed": true,
          "internalType": "address",
          "name": "receiver",
          "type": "address"
        },
        {
          "indexed": true,
          "internalType": "address",
          "name": "owner",
          "type": "address"
        },
        {
          "indexed": false,
          "internalType": "uint256",
          "name": "assets",
          "type": "uint256"
        },
        {
          "indexed": false,
          "internalType": "uint256",
          "name": "shares",
          "type": "uint256"
        }
      ],
      "name": "Withdraw",
      "type": "event"
    },
    {
      "inputs": [],
      "name": "MAX_FEE",
      "outputs": [
        {
          "internalType": "uint16",
          "name": "",
          "type": "uint16"
        }
      ],
      "stateMutability": "view",
      "type": "function"
    },
    {
      "inputs": [],
      "name": "MIN_DEPOSIT",
      "outputs": [
        {
          "internalType": "uint64",
          "name": "",
          "type": "uint64"
        }
      ],
      "stateMutability": "view",
      "type": "function"
    },
    {
      "inputs": [],
      "name": "MIN_FEE",
      "outputs": [
        {
          "internalType": "uint16",
          "name": "",
          "type": "uint16"
        }
      ],
      "stateMutability": "view",
      "type": "function"
    },
    {
      "inputs": [],
      "name": "MIN_RESERVES",
      "outputs": [
        {
          "internalType": "uint256",
          "name": "",
          "type": "uint256"
        }
      ],
      "stateMutability": "view",
      "type": "function"
    },
    {
      "inputs": [],
      "name": "STAKING",
      "outputs": [
        {
          "internalType": "address payable",
          "name": "",
          "type": "address"
        }
      ],
      "stateMutability": "view",
      "type": "function"
    },
    {
      "inputs": [
        {
          "internalType": "address",
          "name": "owner",
          "type": "address"
        },
        {
          "internalType": "address",
          "name": "spender",
          "type": "address"
        }
      ],
      "name": "allowance",
      "outputs": [
        {
          "internalType": "uint256",
          "name": "",
          "type": "uint256"
        }
      ],
      "stateMutability": "view",
      "type": "function"
    },
    {
      "inputs": [
        {
          "internalType": "address",
          "name": "spender",
          "type": "address"
        },
        {
          "internalType": "uint256",
          "name": "amount",
          "type": "uint256"
        }
      ],
      "name": "approve",
      "outputs": [
        {
          "internalType": "bool",
          "name": "",
          "type": "bool"
        }
      ],
      "stateMutability": "nonpayable",
      "type": "function"
    },
    {
      "inputs": [],
      "name": "asset",
      "outputs": [
        {
          "internalType": "address",
          "name": "",
          "type": "address"
        }
      ],
      "stateMutability": "view",
      "type": "function"
    },
    {
      "inputs": [
        {
          "internalType": "address",
          "name": "account",
          "type": "address"
        }
      ],
      "name": "balanceOf",
      "outputs": [
        {
          "internalType": "uint256",
          "name": "",
          "type": "uint256"
        }
      ],
      "stateMutability": "view",
      "type": "function"
    },
    {
      "inputs": [
        {
          "internalType": "uint256",
          "name": "shares",
          "type": "uint256"
        }
      ],
      "name": "convertToAssets",
      "outputs": [
        {
          "internalType": "uint256",
          "name": "assets",
          "type": "uint256"
        }
      ],
      "stateMutability": "view",
      "type": "function"
    },
    {
      "inputs": [
        {
          "internalType": "uint256",
          "name": "assets",
          "type": "uint256"
        }
      ],
      "name": "convertToShares",
      "outputs": [
        {
          "internalType": "uint256",
          "name": "shares",
          "type": "uint256"
        }
      ],
      "stateMutability": "view",
      "type": "function"
    },
    {
      "inputs": [],
      "name": "decimals",
      "outputs": [
        {
          "internalType": "uint8",
          "name": "",
          "type": "uint8"
        }
      ],
      "stateMutability": "view",
      "type": "function"
    },
    {
      "inputs": [
        {
          "internalType": "address",
          "name": "spender",
          "type": "address"
        },
        {
          "internalType": "uint256",
          "name": "subtractedValue",
          "type": "uint256"
        }
      ],
      "name": "decreaseAllowance",
      "outputs": [
        {
          "internalType": "bool",
          "name": "",
          "type": "bool"
        }
      ],
      "stateMutability": "nonpayable",
      "type": "function"
    },
    {
      "inputs": [
        {
          "internalType": "uint256",
          "name": "_assets",
          "type": "uint256"
        },
        {
          "internalType": "address",
          "name": "_receiver",
          "type": "address"
        }
      ],
      "name": "deposit",
      "outputs": [
        {
          "internalType": "uint256",
          "name": "",
          "type": "uint256"
        }
      ],
      "stateMutability": "nonpayable",
      "type": "function"
    },
    {
      "inputs": [
        {
          "internalType": "address",
          "name": "_receiver",
          "type": "address"
        }
      ],
      "name": "depositETH",
      "outputs": [
        {
          "internalType": "uint256",
          "name": "",
          "type": "uint256"
        }
      ],
      "stateMutability": "payable",
      "type": "function"
    },
    {
      "inputs": [
        {
          "internalType": "uint256",
          "name": "_amount",
          "type": "uint256"
        }
      ],
      "name": "getEthForValidator",
      "outputs": [],
      "stateMutability": "payable",
      "type": "function"
    },
    {
      "inputs": [
        {
          "internalType": "address",
          "name": "spender",
          "type": "address"
        },
        {
          "internalType": "uint256",
          "name": "addedValue",
          "type": "uint256"
        }
      ],
      "name": "increaseAllowance",
      "outputs": [
        {
          "internalType": "bool",
          "name": "",
          "type": "bool"
        }
      ],
      "stateMutability": "nonpayable",
      "type": "function"
    },
    {
      "inputs": [
        {
          "internalType": "address payable",
          "name": "staking",
          "type": "address"
        },
        {
          "internalType": "contract IERC20MetadataUpgradeable",
          "name": "_weth",
          "type": "address"
        },
        {
          "internalType": "address",
          "name": "_treasury",
          "type": "address"
        }
      ],
      "name": "initialize",
      "outputs": [],
      "stateMutability": "nonpayable",
      "type": "function"
    },
    {
      "inputs": [
        {
          "internalType": "address",
          "name": "",
          "type": "address"
        }
      ],
      "name": "maxDeposit",
      "outputs": [
        {
          "internalType": "uint256",
          "name": "",
          "type": "uint256"
        }
      ],
      "stateMutability": "view",
      "type": "function"
    },
    {
      "inputs": [
        {
          "internalType": "address",
          "name": "",
          "type": "address"
        }
      ],
      "name": "maxMint",
      "outputs": [
        {
          "internalType": "uint256",
          "name": "",
          "type": "uint256"
        }
      ],
      "stateMutability": "view",
      "type": "function"
    },
    {
      "inputs": [
        {
          "internalType": "address",
          "name": "owner",
          "type": "address"
        }
      ],
      "name": "maxRedeem",
      "outputs": [
        {
          "internalType": "uint256",
          "name": "",
          "type": "uint256"
        }
      ],
      "stateMutability": "view",
      "type": "function"
    },
    {
      "inputs": [
        {
          "internalType": "address",
          "name": "owner",
          "type": "address"
        }
      ],
      "name": "maxWithdraw",
      "outputs": [
        {
          "internalType": "uint256",
          "name": "",
          "type": "uint256"
        }
      ],
      "stateMutability": "view",
      "type": "function"
    },
    {
      "inputs": [
        {
          "internalType": "address",
          "name": "",
          "type": "address"
        }
      ],
      "name": "minDeposit",
      "outputs": [
        {
          "internalType": "uint256",
          "name": "",
          "type": "uint256"
        }
      ],
      "stateMutability": "pure",
      "type": "function"
    },
    {
      "inputs": [
        {
          "internalType": "uint256",
          "name": "shares",
          "type": "uint256"
        },
        {
          "internalType": "address",
          "name": "receiver",
          "type": "address"
        }
      ],
      "name": "mint",
      "outputs": [
        {
          "internalType": "uint256",
          "name": "",
          "type": "uint256"
        }
      ],
      "stateMutability": "nonpayable",
      "type": "function"
    },
    {
      "inputs": [],
      "name": "name",
      "outputs": [
        {
          "internalType": "string",
          "name": "",
          "type": "string"
        }
      ],
      "stateMutability": "view",
      "type": "function"
    },
    {
      "inputs": [],
      "name": "owner",
      "outputs": [
        {
          "internalType": "address",
          "name": "",
          "type": "address"
        }
      ],
      "stateMutability": "view",
      "type": "function"
    },
    {
      "inputs": [
        {
          "internalType": "uint256",
          "name": "assets",
          "type": "uint256"
        }
      ],
      "name": "previewDeposit",
      "outputs": [
        {
          "internalType": "uint256",
          "name": "",
          "type": "uint256"
        }
      ],
      "stateMutability": "view",
      "type": "function"
    },
    {
      "inputs": [
        {
          "internalType": "uint256",
          "name": "shares",
          "type": "uint256"
        }
      ],
      "name": "previewMint",
      "outputs": [
        {
          "internalType": "uint256",
          "name": "",
          "type": "uint256"
        }
      ],
      "stateMutability": "view",
      "type": "function"
    },
    {
      "inputs": [
        {
          "internalType": "uint256",
          "name": "shares",
          "type": "uint256"
        }
      ],
      "name": "previewRedeem",
      "outputs": [
        {
          "internalType": "uint256",
          "name": "",
          "type": "uint256"
        }
      ],
      "stateMutability": "view",
      "type": "function"
    },
    {
      "inputs": [
        {
          "internalType": "uint256",
          "name": "assets",
          "type": "uint256"
        }
      ],
      "name": "previewWithdraw",
      "outputs": [
        {
          "internalType": "uint256",
          "name": "",
          "type": "uint256"
        }
      ],
      "stateMutability": "view",
      "type": "function"
    },
    {
      "inputs": [
        {
          "internalType": "uint256",
          "name": "_shares",
          "type": "uint256"
        },
        {
          "internalType": "address",
          "name": "_receiver",
          "type": "address"
        },
        {
          "internalType": "address",
          "name": "_owner",
          "type": "address"
        }
      ],
      "name": "redeem",
      "outputs": [
        {
          "internalType": "uint256",
          "name": "",
          "type": "uint256"
        }
      ],
      "stateMutability": "nonpayable",
      "type": "function"
    },
    {
      "inputs": [],
      "name": "renounceOwnership",
      "outputs": [],
      "stateMutability": "nonpayable",
      "type": "function"
    },
    {
      "inputs": [
        {
          "internalType": "address",
          "name": "_to",
          "type": "address"
        }
      ],
      "name": "swapETHFormpETH",
      "outputs": [
        {
          "internalType": "uint256",
          "name": "",
          "type": "uint256"
        }
      ],
      "stateMutability": "payable",
      "type": "function"
    },
    {
      "inputs": [
        {
          "internalType": "uint256",
          "name": "_amount",
          "type": "uint256"
        }
      ],
      "name": "swapmpETHforETH",
      "outputs": [
        {
          "internalType": "uint256",
          "name": "",
          "type": "uint256"
        }
      ],
      "stateMutability": "nonpayable",
      "type": "function"
    },
    {
      "inputs": [],
      "name": "symbol",
      "outputs": [
        {
          "internalType": "string",
          "name": "",
          "type": "string"
        }
      ],
      "stateMutability": "view",
      "type": "function"
    },
    {
      "inputs": [],
      "name": "totalAssets",
      "outputs": [
        {
          "internalType": "uint256",
          "name": "",
          "type": "uint256"
        }
      ],
      "stateMutability": "view",
      "type": "function"
    },
    {
      "inputs": [],
      "name": "totalSupply",
      "outputs": [
        {
          "internalType": "uint256",
          "name": "",
          "type": "uint256"
        }
      ],
      "stateMutability": "view",
      "type": "function"
    },
    {
      "inputs": [
        {
          "internalType": "address",
          "name": "to",
          "type": "address"
        },
        {
          "internalType": "uint256",
          "name": "amount",
          "type": "uint256"
        }
      ],
      "name": "transfer",
      "outputs": [
        {
          "internalType": "bool",
          "name": "",
          "type": "bool"
        }
      ],
      "stateMutability": "nonpayable",
      "type": "function"
    },
    {
      "inputs": [
        {
          "internalType": "address",
          "name": "from",
          "type": "address"
        },
        {
          "internalType": "address",
          "name": "to",
          "type": "address"
        },
        {
          "internalType": "uint256",
          "name": "amount",
          "type": "uint256"
        }
      ],
      "name": "transferFrom",
      "outputs": [
        {
          "internalType": "bool",
          "name": "",
          "type": "bool"
        }
      ],
      "stateMutability": "nonpayable",
      "type": "function"
    },
    {
      "inputs": [
        {
          "internalType": "address",
          "name": "newOwner",
          "type": "address"
        }
      ],
      "name": "transferOwnership",
      "outputs": [],
      "stateMutability": "nonpayable",
      "type": "function"
    },
    {
      "inputs": [],
      "name": "treasury",
      "outputs": [
        {
          "internalType": "address",
          "name": "",
          "type": "address"
        }
      ],
      "stateMutability": "view",
      "type": "function"
    },
    {
      "inputs": [
        {
          "internalType": "uint256",
          "name": "assets",
          "type": "uint256"
        },
        {
          "internalType": "address",
          "name": "receiver",
          "type": "address"
        },
        {
          "internalType": "address",
          "name": "owner",
          "type": "address"
        }
      ],
      "name": "withdraw",
      "outputs": [
        {
          "internalType": "uint256",
          "name": "",
          "type": "uint256"
        }
      ],
      "stateMutability": "nonpayable",
      "type": "function"
    }
  ],
  "bytecode": "0x608060405234801561001057600080fd5b50615165806100206000396000f3fe6080604052600436106102515760003560e01c80638da5cb5b11610139578063bc063e1a116100b6578063ce96cb771161007a578063ce96cb771461099d578063d905777e146109da578063dd62ed3e14610a17578063e1e158a514610a54578063ef8b30f714610a7f578063f2fde38b14610abc57610251565b8063bc063e1a1461089f578063c0c53b8b146108ca578063c3e8c4fa146108f3578063c63d75b614610923578063c6e6f5921461096057610251565b8063a51a867f116100fd578063a51a867f1461076e578063a9059cbb146107ab578063b3d7f6b9146107e8578063b460af9414610825578063ba0876521461086257610251565b80638da5cb5b1461067357806394bf804d1461069e57806395d89b41146106db57806397610f3014610706578063a457c2d71461073157610251565b806338329f5e116101d25780634cdad506116101965780634cdad5061461054f57806361d027b31461058c5780636e553f65146105b757806370a08231146105f4578063715018a61461063157806376c7a3c71461064857610251565b806338329f5e1461044257806338d52e0f1461046d57806339509351146104985780633c29f839146104d5578063402d267d1461051257610251565b806318160ddd1161021957806318160ddd1461036357806323b872dd1461038e5780632d2da806146103cb578063313ce567146103fb5780633701206b1461042657610251565b806301e1d1141461025657806306fdde031461028157806307a2d13a146102ac578063095ea7b3146102e95780630a28a47714610326575b600080fd5b34801561026257600080fd5b5061026b610ae5565b604051610278919061368f565b60405180910390f35b34801561028d57600080fd5b50610296610c2e565b6040516102a3919061373a565b60405180910390f35b3480156102b857600080fd5b506102d360048036038101906102ce919061378d565b610cc0565b6040516102e0919061368f565b60405180910390f35b3480156102f557600080fd5b50610310600480360381019061030b9190613818565b610cd4565b60405161031d9190613873565b60405180910390f35b34801561033257600080fd5b5061034d6004803603810190610348919061378d565b610cf7565b60405161035a919061368f565b60405180910390f35b34801561036f57600080fd5b50610378610d0b565b604051610385919061368f565b60405180910390f35b34801561039a57600080fd5b506103b560048036038101906103b0919061388e565b610d15565b6040516103c29190613873565b60405180910390f35b6103e560048036038101906103e091906138e1565b610d44565b6040516103f2919061368f565b60405180910390f35b34801561040757600080fd5b50610410610d74565b60405161041d919061392a565b60405180910390f35b610440600480360381019061043b919061378d565b610d8b565b005b34801561044e57600080fd5b50610457610ec6565b604051610464919061368f565b60405180910390f35b34801561047957600080fd5b50610482610ed3565b60405161048f9190613954565b60405180910390f35b3480156104a457600080fd5b506104bf60048036038101906104ba9190613818565b610efd565b6040516104cc9190613873565b60405180910390f35b3480156104e157600080fd5b506104fc60048036038101906104f791906138e1565b610f34565b604051610509919061368f565b60405180910390f35b34801561051e57600080fd5b50610539600480360381019061053491906138e1565b610f4f565b604051610546919061368f565b60405180910390f35b34801561055b57600080fd5b506105766004803603810190610571919061378d565b610f8d565b604051610583919061368f565b60405180910390f35b34801561059857600080fd5b506105a1610fa1565b6040516105ae9190613954565b60405180910390f35b3480156105c357600080fd5b506105de60048036038101906105d9919061396f565b610fc7565b6040516105eb919061368f565b60405180910390f35b34801561060057600080fd5b5061061b600480360381019061061691906138e1565b610ff7565b604051610628919061368f565b60405180910390f35b34801561063d57600080fd5b50610646611040565b005b34801561065457600080fd5b5061065d611054565b60405161066a91906139cc565b60405180910390f35b34801561067f57600080fd5b50610688611059565b6040516106959190613954565b60405180910390f35b3480156106aa57600080fd5b506106c560048036038101906106c0919061396f565b611083565b6040516106d2919061368f565b60405180910390f35b3480156106e757600080fd5b506106f06110fa565b6040516106fd919061373a565b60405180910390f35b34801561071257600080fd5b5061071b61118c565b6040516107289190613a08565b60405180910390f35b34801561073d57600080fd5b5061075860048036038101906107539190613818565b6111b2565b6040516107659190613873565b60405180910390f35b34801561077a57600080fd5b506107956004803603810190610790919061378d565b611229565b6040516107a2919061368f565b60405180910390f35b3480156107b757600080fd5b506107d260048036038101906107cd9190613818565b61147f565b6040516107df9190613873565b60405180910390f35b3480156107f457600080fd5b5061080f600480360381019061080a919061378d565b6114a2565b60405161081c919061368f565b60405180910390f35b34801561083157600080fd5b5061084c60048036038101906108479190613a23565b6114b6565b604051610859919061368f565b60405180910390f35b34801561086e57600080fd5b5061088960048036038101906108849190613a23565b61152f565b604051610896919061368f565b60405180910390f35b3480156108ab57600080fd5b506108b461176a565b6040516108c191906139cc565b60405180910390f35b3480156108d657600080fd5b506108f160048036038101906108ec9190613ae0565b611770565b005b61090d600480360381019061090891906138e1565b611a6c565b60405161091a919061368f565b60405180910390f35b34801561092f57600080fd5b5061094a600480360381019061094591906138e1565b611c3f565b604051610957919061368f565b60405180910390f35b34801561096c57600080fd5b506109876004803603810190610982919061378d565b611c69565b604051610994919061368f565b60405180910390f35b3480156109a957600080fd5b506109c460048036038101906109bf91906138e1565b611c7d565b6040516109d1919061368f565b60405180910390f35b3480156109e657600080fd5b50610a0160048036038101906109fc91906138e1565b611c99565b604051610a0e919061368f565b60405180910390f35b348015610a2357600080fd5b50610a3e6004803603810190610a399190613b33565b611cab565b604051610a4b919061368f565b60405180910390f35b348015610a6057600080fd5b50610a69611d32565b604051610a769190613b96565b60405180910390f35b348015610a8b57600080fd5b50610aa66004803603810190610aa1919061378d565b611d3d565b604051610ab3919061368f565b60405180910390f35b348015610ac857600080fd5b50610ae36004803603810190610ade91906138e1565b611d51565b005b600060fc60009054906101000a900473ffffffffffffffffffffffffffffffffffffffff1673ffffffffffffffffffffffffffffffffffffffff166307a2d13a60fc60009054906101000a900473ffffffffffffffffffffffffffffffffffffffff1673ffffffffffffffffffffffffffffffffffffffff166370a08231306040518263ffffffff1660e01b8152600401610b809190613954565b602060405180830381865afa158015610b9d573d6000803e3d6000fd5b505050506040513d601f19601f82011682018060405250810190610bc19190613bc6565b6040518263ffffffff1660e01b8152600401610bdd919061368f565b602060405180830381865afa158015610bfa573d6000803e3d6000fd5b505050506040513d601f19601f82011682018060405250810190610c1e9190613bc6565b47610c299190613c22565b905090565b606060368054610c3d90613c85565b80601f0160208091040260200160405190810160405280929190818152602001828054610c6990613c85565b8015610cb65780601f10610c8b57610100808354040283529160200191610cb6565b820191906000526020600020905b815481529060010190602001808311610c9957829003601f168201915b5050505050905090565b6000610ccd826000611dd4565b9050919050565b600080610cdf611e20565b9050610cec818585611e28565b600191505092915050565b6000610d04826001611ff1565b9050919050565b6000603554905090565b600080610d20611e20565b9050610d2d858285612048565b610d388585856120d4565b60019150509392505050565b600034610d508161234d565b6000610d5b34611d3d565b9050610d6a33856000846123e6565b8092505050919050565b6000606560149054906101000a900460ff16905090565b610d93612524565b610dbe60fc60009054906101000a900473ffffffffffffffffffffffffffffffffffffffff16612573565b6801a055690d9db800008147610dd49190613cb6565b1015610e15576040517f08c379a0000000000000000000000000000000000000000000000000000000008152600401610e0c90613d5c565b60405180910390fd5b600060fc60009054906101000a900473ffffffffffffffffffffffffffffffffffffffff1690508073ffffffffffffffffffffffffffffffffffffffff16632d2da80683306040518363ffffffff1660e01b8152600401610e769190613954565b60206040518083038185885af1158015610e94573d6000803e3d6000fd5b50505050506040513d601f19601f82011682018060405250810190610eb99190613bc6565b5050610ec36125e4565b50565b6801a055690d9db8000081565b6000606560009054906101000a900473ffffffffffffffffffffffffffffffffffffffff16905090565b600080610f08611e20565b9050610f29818585610f1a8589611cab565b610f249190613c22565b611e28565b600191505092915050565b6000662386f26fc1000067ffffffffffffffff169050919050565b6000610f596125ee565b610f64576000610f86565b7fffffffffffffffffffffffffffffffffffffffffffffffffffffffffffffffff5b9050919050565b6000610f9a826000611dd4565b9050919050565b60fb60009054906101000a900473ffffffffffffffffffffffffffffffffffffffff1681565b600082610fd38161234d565b6000610fde85611d3d565b9050610fec338587846123e6565b809250505092915050565b6000603360008373ffffffffffffffffffffffffffffffffffffffff1673ffffffffffffffffffffffffffffffffffffffff168152602001908152602001600020549050919050565b611048612611565b611052600061268f565b565b601e81565b6000609760009054906101000a900473ffffffffffffffffffffffffffffffffffffffff16905090565b600061108e82611c3f565b8311156110d0576040517f08c379a00000000000000000000000000000000000000000000000000000000081526004016110c790613dc8565b60405180910390fd5b60006110db846114a2565b90506110f06110e8611e20565b8483876123e6565b8091505092915050565b60606037805461110990613c85565b80601f016020809104026020016040519081016040528092919081815260200182805461113590613c85565b80156111825780601f1061115757610100808354040283529160200191611182565b820191906000526020600020905b81548152906001019060200180831161116557829003601f168201915b5050505050905090565b60fc60009054906101000a900473ffffffffffffffffffffffffffffffffffffffff1681565b6000806111bd611e20565b905060006111cb8286611cab565b905083811015611210576040517f08c379a000000000000000000000000000000000000000000000000000000000815260040161120790613e5a565b60405180910390fd5b61121d8286868403611e28565b60019250505092915050565b6000611233612524565b600060fc60009054906101000a900473ffffffffffffffffffffffffffffffffffffffff1690506000601e6101f461126b9190613e7a565b905060008273ffffffffffffffffffffffffffffffffffffffff166307a2d13a866040518263ffffffff1660e01b81526004016112a8919061368f565b602060405180830381865afa1580156112c5573d6000803e3d6000fd5b505050506040513d601f19601f820116820180604052508101906112e99190613bc6565b90506000611337826040518060400160405280600e81526020017f4e6f7420656e6f75676820455448000000000000000000000000000000000000815250476127559092919063ffffffff16565b905060006801a055690d9db80000828561ffff166113559190613eb0565b61135f9190613f21565b90506000816101f461ffff166113759190613cb6565b90506000612710828a6113889190613eb0565b6113929190613f21565b9050600081866113a29190613cb6565b905060006127106109c4846113b79190613eb0565b6113c19190613f21565b90506113f033308d8c73ffffffffffffffffffffffffffffffffffffffff166127aa909392919063ffffffff16565b61143d60fb60009054906101000a900473ffffffffffffffffffffffffffffffffffffffff16828b73ffffffffffffffffffffffffffffffffffffffff166128339092919063ffffffff16565b611466823373ffffffffffffffffffffffffffffffffffffffff166128b990919063ffffffff16565b81995050505050505050505061147a6125e4565b919050565b60008061148a611e20565b90506114978185856120d4565b600191505092915050565b60006114af826001611dd4565b9050919050565b60006114c182611c7d565b841115611503576040517f08c379a00000000000000000000000000000000000000000000000000000000081526004016114fa90613f9e565b60405180910390fd5b600061150e85610cf7565b905061152461151b611e20565b858588856129ad565b809150509392505050565b6000611539612524565b8173ffffffffffffffffffffffffffffffffffffffff163373ffffffffffffffffffffffffffffffffffffffff161461157857611577823386612048565b5b6000611582610d0b565b670de0b6b3a7640000866115969190613eb0565b6115a09190613f21565b90506000670de0b6b3a764000047836115b99190613eb0565b6115c39190613f21565b90506000670de0b6b3a764000060fc60009054906101000a900473ffffffffffffffffffffffffffffffffffffffff1673ffffffffffffffffffffffffffffffffffffffff166370a08231306040518263ffffffff1660e01b815260040161162b9190613954565b602060405180830381865afa158015611648573d6000803e3d6000fd5b505050506040513d601f19601f8201168201806040525081019061166c9190613bc6565b846116779190613eb0565b6116819190613f21565b905061168d3388612aa8565b6116b6828773ffffffffffffffffffffffffffffffffffffffff166128b990919063ffffffff16565b611703868260fc60009054906101000a900473ffffffffffffffffffffffffffffffffffffffff1673ffffffffffffffffffffffffffffffffffffffff166128339092919063ffffffff16565b3373ffffffffffffffffffffffffffffffffffffffff167f59c3a0b60c6ab7deb62e1440c9e72441db6db7dfe514dba8cb18e60c0d896efa88848460405161174d93929190613fbe565b60405180910390a28193505050506117636125e4565b9392505050565b6101f481565b60008060019054906101000a900460ff161590508080156117a15750600160008054906101000a900460ff1660ff16105b806117ce57506117b030612c77565b1580156117cd5750600160008054906101000a900460ff1660ff16145b5b61180d576040517f08c379a000000000000000000000000000000000000000000000000000000000815260040161180490614067565b60405180910390fd5b60016000806101000a81548160ff021916908360ff160217905550801561184a576001600060016101000a81548160ff0219169083151502179055505b61185383612c9a565b6118c76040518060400160405280600981526020017f4d6574614554484c5000000000000000000000000000000000000000000000008152506040518060400160405280600981526020017f6d704554482f4554480000000000000000000000000000000000000000000000815250612cf5565b6118cf612d52565b6118d7612dab565b60128373ffffffffffffffffffffffffffffffffffffffff1663313ce5676040518163ffffffff1660e01b8152600401602060405180830381865afa158015611924573d6000803e3d6000fd5b505050506040513d601f19601f8201168201806040525081019061194891906140b3565b60ff161461198b576040517f08c379a000000000000000000000000000000000000000000000000000000000815260040161198290614152565b60405180910390fd5b8360fc60006101000a81548173ffffffffffffffffffffffffffffffffffffffff021916908373ffffffffffffffffffffffffffffffffffffffff1602179055508160fb60006101000a81548173ffffffffffffffffffffffffffffffffffffffff021916908373ffffffffffffffffffffffffffffffffffffffff1602179055508015611a665760008060016101000a81548160ff0219169083151502179055507f7f26b83ff96e1f2b6a682f133852f6798a09c465da95921460cefb38474024986001604051611a5d91906141b7565b60405180910390a15b50505050565b6000611a76612524565b611aa160fc60009054906101000a900473ffffffffffffffffffffffffffffffffffffffff16612573565b600060fc60009054906101000a900473ffffffffffffffffffffffffffffffffffffffff16905060008173ffffffffffffffffffffffffffffffffffffffff1663ef8b30f7346040518263ffffffff1660e01b8152600401611b03919061368f565b602060405180830381865afa158015611b20573d6000803e3d6000fd5b505050506040513d601f19601f82011682018060405250810190611b449190613bc6565b9050808273ffffffffffffffffffffffffffffffffffffffff166370a08231306040518263ffffffff1660e01b8152600401611b809190613954565b602060405180830381865afa158015611b9d573d6000803e3d6000fd5b505050506040513d601f19601f82011682018060405250810190611bc19190613bc6565b1015611c02576040517f08c379a0000000000000000000000000000000000000000000000000000000008152600401611bf99061421e565b60405180910390fd5b611c2d84828473ffffffffffffffffffffffffffffffffffffffff166128339092919063ffffffff16565b8092505050611c3a6125e4565b919050565b60007fffffffffffffffffffffffffffffffffffffffffffffffffffffffffffffffff9050919050565b6000611c76826000611ff1565b9050919050565b6000611c92611c8b83610ff7565b6000611dd4565b9050919050565b6000611ca482610ff7565b9050919050565b6000603460008473ffffffffffffffffffffffffffffffffffffffff1673ffffffffffffffffffffffffffffffffffffffff16815260200190815260200160002060008373ffffffffffffffffffffffffffffffffffffffff1673ffffffffffffffffffffffffffffffffffffffff16815260200190815260200160002054905092915050565b662386f26fc1000081565b6000611d4a826000611ff1565b9050919050565b611d59612611565b600073ffffffffffffffffffffffffffffffffffffffff168173ffffffffffffffffffffffffffffffffffffffff1603611dc8576040517f08c379a0000000000000000000000000000000000000000000000000000000008152600401611dbf906142b0565b60405180910390fd5b611dd18161268f565b50565b600080611ddf610d0b565b905060008114611e0c57611e07611df4610ae5565b828587612e04909392919063ffffffff16565b611e17565b611e168484612e7a565b5b91505092915050565b600033905090565b600073ffffffffffffffffffffffffffffffffffffffff168373ffffffffffffffffffffffffffffffffffffffff1603611e97576040517f08c379a0000000000000000000000000000000000000000000000000000000008152600401611e8e90614342565b60405180910390fd5b600073ffffffffffffffffffffffffffffffffffffffff168273ffffffffffffffffffffffffffffffffffffffff1603611f06576040517f08c379a0000000000000000000000000000000000000000000000000000000008152600401611efd906143d4565b60405180910390fd5b80603460008573ffffffffffffffffffffffffffffffffffffffff1673ffffffffffffffffffffffffffffffffffffffff16815260200190815260200160002060008473ffffffffffffffffffffffffffffffffffffffff1673ffffffffffffffffffffffffffffffffffffffff168152602001908152602001600020819055508173ffffffffffffffffffffffffffffffffffffffff168373ffffffffffffffffffffffffffffffffffffffff167f8c5be1e5ebec7d5bd14f71427d1e84f3dd0314c0f7b2291e5b200ac8c7c3b92583604051611fe4919061368f565b60405180910390a3505050565b600080611ffc610d0b565b9050600084148061200d5750600081145b6120345761202f8161201d610ae5565b8587612e04909392919063ffffffff16565b61203f565b61203e8484612e85565b5b91505092915050565b60006120548484611cab565b90507fffffffffffffffffffffffffffffffffffffffffffffffffffffffffffffffff81146120ce57818110156120c0576040517f08c379a00000000000000000000000000000000000000000000000000000000081526004016120b790614440565b60405180910390fd5b6120cd8484848403611e28565b5b50505050565b600073ffffffffffffffffffffffffffffffffffffffff168373ffffffffffffffffffffffffffffffffffffffff1603612143576040517f08c379a000000000000000000000000000000000000000000000000000000000815260040161213a906144d2565b60405180910390fd5b600073ffffffffffffffffffffffffffffffffffffffff168273ffffffffffffffffffffffffffffffffffffffff16036121b2576040517f08c379a00000000000000000000000000000000000000000000000000000000081526004016121a990614564565b60405180910390fd5b6121bd838383612e90565b6000603360008573ffffffffffffffffffffffffffffffffffffffff1673ffffffffffffffffffffffffffffffffffffffff16815260200190815260200160002054905081811015612244576040517f08c379a000000000000000000000000000000000000000000000000000000000815260040161223b906145f6565b60405180910390fd5b818103603360008673ffffffffffffffffffffffffffffffffffffffff1673ffffffffffffffffffffffffffffffffffffffff1681526020019081526020016000208190555081603360008573ffffffffffffffffffffffffffffffffffffffff1673ffffffffffffffffffffffffffffffffffffffff168152602001908152602001600020600082825401925050819055508273ffffffffffffffffffffffffffffffffffffffff168473ffffffffffffffffffffffffffffffffffffffff167fddf252ad1be2c89b69c2b068fc378daa952ba7f163c4a11628f55a4df523b3ef84604051612334919061368f565b60405180910390a3612347848484612e95565b50505050565b61235633610f34565b811015612398576040517f08c379a000000000000000000000000000000000000000000000000000000000815260040161238f90614662565b60405180910390fd5b6123a133610f4f565b8111156123e3576040517f08c379a00000000000000000000000000000000000000000000000000000000081526004016123da906146ce565b60405180910390fd5b50565b6123ee612524565b600082146124a15761242a333084612404610ed3565b73ffffffffffffffffffffffffffffffffffffffff166127aa909392919063ffffffff16565b612432610ed3565b73ffffffffffffffffffffffffffffffffffffffff16632e1a7d4d836040518263ffffffff1660e01b815260040161246a919061368f565b600060405180830381600087803b15801561248457600080fd5b505af1158015612498573d6000803e3d6000fd5b505050506124a5565b3491505b6124af8382612e9a565b8273ffffffffffffffffffffffffffffffffffffffff168473ffffffffffffffffffffffffffffffffffffffff167fd2491a9b4fe81a7cd4511e8b7b7743951b061dad5bed7da8a7795b080ee08c7e848460405161250e9291906146ee565b60405180910390a361251e6125e4565b50505050565b600260c95403612569576040517f08c379a000000000000000000000000000000000000000000000000000000000815260040161256090614763565b60405180910390fd5b600260c981905550565b8073ffffffffffffffffffffffffffffffffffffffff163373ffffffffffffffffffffffffffffffffffffffff16146125e1576040517f08c379a00000000000000000000000000000000000000000000000000000000081526004016125d8906147cf565b60405180910390fd5b50565b600160c981905550565b6000806125f9610ae5565b118061260c5750600061260a610d0b565b145b905090565b612619611e20565b73ffffffffffffffffffffffffffffffffffffffff16612637611059565b73ffffffffffffffffffffffffffffffffffffffff161461268d576040517f08c379a00000000000000000000000000000000000000000000000000000000081526004016126849061483b565b60405180910390fd5b565b6000609760009054906101000a900473ffffffffffffffffffffffffffffffffffffffff16905081609760006101000a81548173ffffffffffffffffffffffffffffffffffffffff021916908373ffffffffffffffffffffffffffffffffffffffff1602179055508173ffffffffffffffffffffffffffffffffffffffff168173ffffffffffffffffffffffffffffffffffffffff167f8be0079c531659141344cd1fd0a4f28419497f9722a3daafe3b4186f6b6457e060405160405180910390a35050565b600083831115829061279d576040517f08c379a0000000000000000000000000000000000000000000000000000000008152600401612794919061373a565b60405180910390fd5b5082840390509392505050565b61282d846323b872dd60e01b8585856040516024016127cb9392919061485b565b604051602081830303815290604052907bffffffffffffffffffffffffffffffffffffffffffffffffffffffff19166020820180517bffffffffffffffffffffffffffffffffffffffffffffffffffffffff8381831617835250505050612ff1565b50505050565b6128b48363a9059cbb60e01b8484604051602401612852929190614892565b604051602081830303815290604052907bffffffffffffffffffffffffffffffffffffffffffffffffffffffff19166020820180517bffffffffffffffffffffffffffffffffffffffffffffffffffffffff8381831617835250505050612ff1565b505050565b804710156128fc576040517f08c379a00000000000000000000000000000000000000000000000000000000081526004016128f390614907565b60405180910390fd5b60008273ffffffffffffffffffffffffffffffffffffffff168260405161292290614958565b60006040518083038185875af1925050503d806000811461295f576040519150601f19603f3d011682016040523d82523d6000602084013e612964565b606091505b50509050806129a8576040517f08c379a000000000000000000000000000000000000000000000000000000000815260040161299f906149df565b60405180910390fd5b505050565b8273ffffffffffffffffffffffffffffffffffffffff168573ffffffffffffffffffffffffffffffffffffffff16146129ec576129eb838683612048565b5b6129f68382612aa8565b612a23606560009054906101000a900473ffffffffffffffffffffffffffffffffffffffff168584612833565b8273ffffffffffffffffffffffffffffffffffffffff168473ffffffffffffffffffffffffffffffffffffffff168673ffffffffffffffffffffffffffffffffffffffff167ffbde797d201c681b91056529119e0b02407c7bb96a4a2c75c01fc9667232c8db8585604051612a999291906146ee565b60405180910390a45050505050565b600073ffffffffffffffffffffffffffffffffffffffff168273ffffffffffffffffffffffffffffffffffffffff1603612b17576040517f08c379a0000000000000000000000000000000000000000000000000000000008152600401612b0e90614a71565b60405180910390fd5b612b2382600083612e90565b6000603360008473ffffffffffffffffffffffffffffffffffffffff1673ffffffffffffffffffffffffffffffffffffffff16815260200190815260200160002054905081811015612baa576040517f08c379a0000000000000000000000000000000000000000000000000000000008152600401612ba190614b03565b60405180910390fd5b818103603360008573ffffffffffffffffffffffffffffffffffffffff1673ffffffffffffffffffffffffffffffffffffffff1681526020019081526020016000208190555081603560008282540392505081905550600073ffffffffffffffffffffffffffffffffffffffff168373ffffffffffffffffffffffffffffffffffffffff167fddf252ad1be2c89b69c2b068fc378daa952ba7f163c4a11628f55a4df523b3ef84604051612c5e919061368f565b60405180910390a3612c7283600084612e95565b505050565b6000808273ffffffffffffffffffffffffffffffffffffffff163b119050919050565b600060019054906101000a900460ff16612ce9576040517f08c379a0000000000000000000000000000000000000000000000000000000008152600401612ce090614b95565b60405180910390fd5b612cf2816130b8565b50565b600060019054906101000a900460ff16612d44576040517f08c379a0000000000000000000000000000000000000000000000000000000008152600401612d3b90614b95565b60405180910390fd5b612d4e828261318b565b5050565b600060019054906101000a900460ff16612da1576040517f08c379a0000000000000000000000000000000000000000000000000000000008152600401612d9890614b95565b60405180910390fd5b612da96131fe565b565b600060019054906101000a900460ff16612dfa576040517f08c379a0000000000000000000000000000000000000000000000000000000008152600401612df190614b95565b60405180910390fd5b612e0261325f565b565b600080612e128686866132b8565b905060016002811115612e2857612e27614bb5565b5b836002811115612e3b57612e3a614bb5565b5b148015612e59575060008480612e5457612e53613ef2565b5b868809115b15612e6e57600181612e6b9190613c22565b90505b80915050949350505050565b600082905092915050565b600082905092915050565b505050565b505050565b600073ffffffffffffffffffffffffffffffffffffffff168273ffffffffffffffffffffffffffffffffffffffff1603612f09576040517f08c379a0000000000000000000000000000000000000000000000000000000008152600401612f0090614c30565b60405180910390fd5b612f1560008383612e90565b8060356000828254612f279190613c22565b9250508190555080603360008473ffffffffffffffffffffffffffffffffffffffff1673ffffffffffffffffffffffffffffffffffffffff168152602001908152602001600020600082825401925050819055508173ffffffffffffffffffffffffffffffffffffffff16600073ffffffffffffffffffffffffffffffffffffffff167fddf252ad1be2c89b69c2b068fc378daa952ba7f163c4a11628f55a4df523b3ef83604051612fd9919061368f565b60405180910390a3612fed60008383612e95565b5050565b6000613053826040518060400160405280602081526020017f5361666545524332303a206c6f772d6c6576656c2063616c6c206661696c65648152508573ffffffffffffffffffffffffffffffffffffffff166133939092919063ffffffff16565b90506000815111156130b357808060200190518101906130739190614c7c565b6130b2576040517f08c379a00000000000000000000000000000000000000000000000000000000081526004016130a990614d1b565b60405180910390fd5b5b505050565b600060019054906101000a900460ff16613107576040517f08c379a00000000000000000000000000000000000000000000000000000000081526004016130fe90614b95565b60405180910390fd5b600080613113836133ab565b9150915081613129576131246134db565b61312b565b805b606560146101000a81548160ff021916908360ff16021790555082606560006101000a81548173ffffffffffffffffffffffffffffffffffffffff021916908373ffffffffffffffffffffffffffffffffffffffff160217905550505050565b600060019054906101000a900460ff166131da576040517f08c379a00000000000000000000000000000000000000000000000000000000081526004016131d190614b95565b60405180910390fd5b81603690816131e99190614f0c565b5080603790816131f99190614f0c565b505050565b600060019054906101000a900460ff1661324d576040517f08c379a000000000000000000000000000000000000000000000000000000000815260040161324490614b95565b60405180910390fd5b61325d613258611e20565b61268f565b565b600060019054906101000a900460ff166132ae576040517f08c379a00000000000000000000000000000000000000000000000000000000081526004016132a590614b95565b60405180910390fd5b600160c981905550565b60008060008019858709858702925082811083820303915050600081036132f3578382816132e9576132e8613ef2565b5b049250505061338c565b8084116132ff57600080fd5b60008486880990508281118203915080830392506000600186190186169050808604955080840493506001818260000304019050808302841793506000600287600302189050808702600203810290508087026002038102905080870260020381029050808702600203810290508087026002038102905080870260020381029050808502955050505050505b9392505050565b60606133a284846000856134e4565b90509392505050565b6000806000808473ffffffffffffffffffffffffffffffffffffffff1663313ce56760e01b604051602401604051602081830303815290604052907bffffffffffffffffffffffffffffffffffffffffffffffffffffffff19166020820180517bffffffffffffffffffffffffffffffffffffffffffffffffffffffff8381831617835250505050604051613440919061501a565b600060405180830381855afa9150503d806000811461347b576040519150601f19603f3d011682016040523d82523d6000602084013e613480565b606091505b509150915081801561349457506020815110155b156134cc576000818060200190518101906134af9190613bc6565b905060ff801681116134ca57600181945094505050506134d6565b505b6000809350935050505b915091565b60006012905090565b606082471015613529576040517f08c379a0000000000000000000000000000000000000000000000000000000008152600401613520906150a3565b60405180910390fd5b6000808673ffffffffffffffffffffffffffffffffffffffff168587604051613552919061501a565b60006040518083038185875af1925050503d806000811461358f576040519150601f19603f3d011682016040523d82523d6000602084013e613594565b606091505b50915091506135a5878383876135b1565b92505050949350505050565b6060831561361357600083510361360b576135cb85612c77565b61360a576040517f08c379a00000000000000000000000000000000000000000000000000000000081526004016136019061510f565b60405180910390fd5b5b82905061361e565b61361d8383613626565b5b949350505050565b6000825111156136395781518083602001fd5b806040517f08c379a000000000000000000000000000000000000000000000000000000000815260040161366d919061373a565b60405180910390fd5b6000819050919050565b61368981613676565b82525050565b60006020820190506136a46000830184613680565b92915050565b600081519050919050565b600082825260208201905092915050565b60005b838110156136e45780820151818401526020810190506136c9565b60008484015250505050565b6000601f19601f8301169050919050565b600061370c826136aa565b61371681856136b5565b93506137268185602086016136c6565b61372f816136f0565b840191505092915050565b600060208201905081810360008301526137548184613701565b905092915050565b600080fd5b61376a81613676565b811461377557600080fd5b50565b60008135905061378781613761565b92915050565b6000602082840312156137a3576137a261375c565b5b60006137b184828501613778565b91505092915050565b600073ffffffffffffffffffffffffffffffffffffffff82169050919050565b60006137e5826137ba565b9050919050565b6137f5816137da565b811461380057600080fd5b50565b600081359050613812816137ec565b92915050565b6000806040838503121561382f5761382e61375c565b5b600061383d85828601613803565b925050602061384e85828601613778565b9150509250929050565b60008115159050919050565b61386d81613858565b82525050565b60006020820190506138886000830184613864565b92915050565b6000806000606084860312156138a7576138a661375c565b5b60006138b586828701613803565b93505060206138c686828701613803565b92505060406138d786828701613778565b9150509250925092565b6000602082840312156138f7576138f661375c565b5b600061390584828501613803565b91505092915050565b600060ff82169050919050565b6139248161390e565b82525050565b600060208201905061393f600083018461391b565b92915050565b61394e816137da565b82525050565b60006020820190506139696000830184613945565b92915050565b600080604083850312156139865761398561375c565b5b600061399485828601613778565b92505060206139a585828601613803565b9150509250929050565b600061ffff82169050919050565b6139c6816139af565b82525050565b60006020820190506139e160008301846139bd565b92915050565b60006139f2826137ba565b9050919050565b613a02816139e7565b82525050565b6000602082019050613a1d60008301846139f9565b92915050565b600080600060608486031215613a3c57613a3b61375c565b5b6000613a4a86828701613778565b9350506020613a5b86828701613803565b9250506040613a6c86828701613803565b9150509250925092565b613a7f816139e7565b8114613a8a57600080fd5b50565b600081359050613a9c81613a76565b92915050565b6000613aad826137da565b9050919050565b613abd81613aa2565b8114613ac857600080fd5b50565b600081359050613ada81613ab4565b92915050565b600080600060608486031215613af957613af861375c565b5b6000613b0786828701613a8d565b9350506020613b1886828701613acb565b9250506040613b2986828701613803565b9150509250925092565b60008060408385031215613b4a57613b4961375c565b5b6000613b5885828601613803565b9250506020613b6985828601613803565b9150509250929050565b600067ffffffffffffffff82169050919050565b613b9081613b73565b82525050565b6000602082019050613bab6000830184613b87565b92915050565b600081519050613bc081613761565b92915050565b600060208284031215613bdc57613bdb61375c565b5b6000613bea84828501613bb1565b91505092915050565b7f4e487b7100000000000000000000000000000000000000000000000000000000600052601160045260246000fd5b6000613c2d82613676565b9150613c3883613676565b9250828201905080821115613c5057613c4f613bf3565b5b92915050565b7f4e487b7100000000000000000000000000000000000000000000000000000000600052602260045260246000fd5b60006002820490506001821680613c9d57607f821691505b602082108103613cb057613caf613c56565b5b50919050565b6000613cc182613676565b9150613ccc83613676565b9250828203905081811115613ce457613ce3613bf3565b5b92915050565b7f4572726f722c2045544820726571756573742073757270617373206d696e207260008201527f6573657276657300000000000000000000000000000000000000000000000000602082015250565b6000613d466027836136b5565b9150613d5182613cea565b604082019050919050565b60006020820190508181036000830152613d7581613d39565b9050919050565b7f455243343632363a206d696e74206d6f7265207468616e206d61780000000000600082015250565b6000613db2601b836136b5565b9150613dbd82613d7c565b602082019050919050565b60006020820190508181036000830152613de181613da5565b9050919050565b7f45524332303a2064656372656173656420616c6c6f77616e63652062656c6f7760008201527f207a65726f000000000000000000000000000000000000000000000000000000602082015250565b6000613e446025836136b5565b9150613e4f82613de8565b604082019050919050565b60006020820190508181036000830152613e7381613e37565b9050919050565b6000613e85826139af565b9150613e90836139af565b9250828203905061ffff811115613eaa57613ea9613bf3565b5b92915050565b6000613ebb82613676565b9150613ec683613676565b9250828202613ed481613676565b91508282048414831517613eeb57613eea613bf3565b5b5092915050565b7f4e487b7100000000000000000000000000000000000000000000000000000000600052601260045260246000fd5b6000613f2c82613676565b9150613f3783613676565b925082613f4757613f46613ef2565b5b828204905092915050565b7f455243343632363a207769746864726177206d6f7265207468616e206d617800600082015250565b6000613f88601f836136b5565b9150613f9382613f52565b602082019050919050565b60006020820190508181036000830152613fb781613f7b565b9050919050565b6000606082019050613fd36000830186613680565b613fe06020830185613680565b613fed6040830184613680565b949350505050565b7f496e697469616c697a61626c653a20636f6e747261637420697320616c72656160008201527f647920696e697469616c697a6564000000000000000000000000000000000000602082015250565b6000614051602e836136b5565b915061405c82613ff5565b604082019050919050565b6000602082019050818103600083015261408081614044565b9050919050565b6140908161390e565b811461409b57600080fd5b50565b6000815190506140ad81614087565b92915050565b6000602082840312156140c9576140c861375c565b5b60006140d78482850161409e565b91505092915050565b7f774e617469766520746f6b656e206572726f722c20696d706c656d656e74617460008201527f696f6e20666f7220313820646563696d616c7300000000000000000000000000602082015250565b600061413c6033836136b5565b9150614147826140e0565b604082019050919050565b6000602082019050818103600083015261416b8161412f565b9050919050565b6000819050919050565b6000819050919050565b60006141a161419c61419784614172565b61417c565b61390e565b9050919050565b6141b181614186565b82525050565b60006020820190506141cc60008301846141a8565b92915050565b7f4c697175696420756e7374616b65206e6f7420656e6f756768206d7045544800600082015250565b6000614208601f836136b5565b9150614213826141d2565b602082019050919050565b60006020820190508181036000830152614237816141fb565b9050919050565b7f4f776e61626c653a206e6577206f776e657220697320746865207a65726f206160008201527f6464726573730000000000000000000000000000000000000000000000000000602082015250565b600061429a6026836136b5565b91506142a58261423e565b604082019050919050565b600060208201905081810360008301526142c98161428d565b9050919050565b7f45524332303a20617070726f76652066726f6d20746865207a65726f2061646460008201527f7265737300000000000000000000000000000000000000000000000000000000602082015250565b600061432c6024836136b5565b9150614337826142d0565b604082019050919050565b6000602082019050818103600083015261435b8161431f565b9050919050565b7f45524332303a20617070726f766520746f20746865207a65726f20616464726560008201527f7373000000000000000000000000000000000000000000000000000000000000602082015250565b60006143be6022836136b5565b91506143c982614362565b604082019050919050565b600060208201905081810360008301526143ed816143b1565b9050919050565b7f45524332303a20696e73756666696369656e7420616c6c6f77616e6365000000600082015250565b600061442a601d836136b5565b9150614435826143f4565b602082019050919050565b600060208201905081810360008301526144598161441d565b9050919050565b7f45524332303a207472616e736665722066726f6d20746865207a65726f20616460008201527f6472657373000000000000000000000000000000000000000000000000000000602082015250565b60006144bc6025836136b5565b91506144c782614460565b604082019050919050565b600060208201905081810360008301526144eb816144af565b9050919050565b7f45524332303a207472616e7366657220746f20746865207a65726f206164647260008201527f6573730000000000000000000000000000000000000000000000000000000000602082015250565b600061454e6023836136b5565b9150614559826144f2565b604082019050919050565b6000602082019050818103600083015261457d81614541565b9050919050565b7f45524332303a207472616e7366657220616d6f756e742065786365656473206260008201527f616c616e63650000000000000000000000000000000000000000000000000000602082015250565b60006145e06026836136b5565b91506145eb82614584565b604082019050919050565b6000602082019050818103600083015261460f816145d3565b9050919050565b7f5374616b696e673a204d494e5f4445504f5349545f4552524f52000000000000600082015250565b600061464c601a836136b5565b915061465782614616565b602082019050919050565b6000602082019050818103600083015261467b8161463f565b9050919050565b7f5374616b696e673a204d41585f4445504f5349545f4552524f52000000000000600082015250565b60006146b8601a836136b5565b91506146c382614682565b602082019050919050565b600060208201905081810360008301526146e7816146ab565b9050919050565b60006040820190506147036000830185613680565b6147106020830184613680565b9392505050565b7f5265656e7472616e637947756172643a207265656e7472616e742063616c6c00600082015250565b600061474d601f836136b5565b915061475882614717565b602082019050919050565b6000602082019050818103600083015261477c81614740565b9050919050565b7f416363657373206572726f720000000000000000000000000000000000000000600082015250565b60006147b9600c836136b5565b91506147c482614783565b602082019050919050565b600060208201905081810360008301526147e8816147ac565b9050919050565b7f4f776e61626c653a2063616c6c6572206973206e6f7420746865206f776e6572600082015250565b60006148256020836136b5565b9150614830826147ef565b602082019050919050565b6000602082019050818103600083015261485481614818565b9050919050565b60006060820190506148706000830186613945565b61487d6020830185613945565b61488a6040830184613680565b949350505050565b60006040820190506148a76000830185613945565b6148b46020830184613680565b9392505050565b7f416464726573733a20696e73756666696369656e742062616c616e6365000000600082015250565b60006148f1601d836136b5565b91506148fc826148bb565b602082019050919050565b60006020820190508181036000830152614920816148e4565b9050919050565b600081905092915050565b50565b6000614942600083614927565b915061494d82614932565b600082019050919050565b600061496382614935565b9150819050919050565b7f416464726573733a20756e61626c6520746f2073656e642076616c75652c207260008201527f6563697069656e74206d61792068617665207265766572746564000000000000602082015250565b60006149c9603a836136b5565b91506149d48261496d565b604082019050919050565b600060208201905081810360008301526149f8816149bc565b9050919050565b7f45524332303a206275726e2066726f6d20746865207a65726f2061646472657360008201527f7300000000000000000000000000000000000000000000000000000000000000602082015250565b6000614a5b6021836136b5565b9150614a66826149ff565b604082019050919050565b60006020820190508181036000830152614a8a81614a4e565b9050919050565b7f45524332303a206275726e20616d6f756e7420657863656564732062616c616e60008201527f6365000000000000000000000000000000000000000000000000000000000000602082015250565b6000614aed6022836136b5565b9150614af882614a91565b604082019050919050565b60006020820190508181036000830152614b1c81614ae0565b9050919050565b7f496e697469616c697a61626c653a20636f6e7472616374206973206e6f74206960008201527f6e697469616c697a696e67000000000000000000000000000000000000000000602082015250565b6000614b7f602b836136b5565b9150614b8a82614b23565b604082019050919050565b60006020820190508181036000830152614bae81614b72565b9050919050565b7f4e487b7100000000000000000000000000000000000000000000000000000000600052602160045260246000fd5b7f45524332303a206d696e7420746f20746865207a65726f206164647265737300600082015250565b6000614c1a601f836136b5565b9150614c2582614be4565b602082019050919050565b60006020820190508181036000830152614c4981614c0d565b9050919050565b614c5981613858565b8114614c6457600080fd5b50565b600081519050614c7681614c50565b92915050565b600060208284031215614c9257614c9161375c565b5b6000614ca084828501614c67565b91505092915050565b7f5361666545524332303a204552433230206f7065726174696f6e20646964206e60008201527f6f74207375636365656400000000000000000000000000000000000000000000602082015250565b6000614d05602a836136b5565b9150614d1082614ca9565b604082019050919050565b60006020820190508181036000830152614d3481614cf8565b9050919050565b7f4e487b7100000000000000000000000000000000000000000000000000000000600052604160045260246000fd5b60008190508160005260206000209050919050565b60006020601f8301049050919050565b600082821b905092915050565b600060088302614dcc7fffffffffffffffffffffffffffffffffffffffffffffffffffffffffffffffff82614d8f565b614dd68683614d8f565b95508019841693508086168417925050509392505050565b6000614e09614e04614dff84613676565b61417c565b613676565b9050919050565b6000819050919050565b614e2383614dee565b614e37614e2f82614e10565b848454614d9c565b825550505050565b600090565b614e4c614e3f565b614e57818484614e1a565b505050565b5b81811015614e7b57614e70600082614e44565b600181019050614e5d565b5050565b601f821115614ec057614e9181614d6a565b614e9a84614d7f565b81016020851015614ea9578190505b614ebd614eb585614d7f565b830182614e5c565b50505b505050565b600082821c905092915050565b6000614ee360001984600802614ec5565b1980831691505092915050565b6000614efc8383614ed2565b9150826002028217905092915050565b614f15826136aa565b67ffffffffffffffff811115614f2e57614f2d614d3b565b5b614f388254613c85565b614f43828285614e7f565b600060209050601f831160018114614f765760008415614f64578287015190505b614f6e8582614ef0565b865550614fd6565b601f198416614f8486614d6a565b60005b82811015614fac57848901518255600182019150602085019450602081019050614f87565b86831015614fc95784890151614fc5601f891682614ed2565b8355505b6001600288020188555050505b505050505050565b600081519050919050565b6000614ff482614fde565b614ffe8185614927565b935061500e8185602086016136c6565b80840191505092915050565b60006150268284614fe9565b915081905092915050565b7f416464726573733a20696e73756666696369656e742062616c616e636520666f60008201527f722063616c6c0000000000000000000000000000000000000000000000000000602082015250565b600061508d6026836136b5565b915061509882615031565b604082019050919050565b600060208201905081810360008301526150bc81615080565b9050919050565b7f416464726573733a2063616c6c20746f206e6f6e2d636f6e7472616374000000600082015250565b60006150f9601d836136b5565b9150615104826150c3565b602082019050919050565b60006020820190508181036000830152615128816150ec565b905091905056fea26469706673582212204974e75d8fa1f67391f56273122604f202bf7fea0bded106f49f215b1d71d76c64736f6c63430008110033",
  "linkReferences": {},
  "deployedLinkReferences": {}
}