{
  "_format": "hh-sol-artifact-1",
  "contractName": "LiquidUnstakePool",
  "sourceName": "contracts/LiquidUnstakePool.sol",
  "abi": [
    {
      "anonymous": false,
      "inputs": [
        {
          "indexed": true,
          "internalType": "address",
          "name": "user",
          "type": "address"
        },
        {
          "indexed": true,
          "internalType": "address",
          "name": "receiver",
          "type": "address"
        },
        {
          "indexed": false,
          "internalType": "uint256",
          "name": "amount",
          "type": "uint256"
        },
        {
          "indexed": false,
          "internalType": "uint256",
          "name": "shares",
          "type": "uint256"
        }
      ],
      "name": "AddLiquidity",
      "type": "event"
    },
    {
      "anonymous": false,
      "inputs": [
        {
          "indexed": true,
          "internalType": "address",
          "name": "owner",
          "type": "address"
        },
        {
          "indexed": true,
          "internalType": "address",
          "name": "spender",
          "type": "address"
        },
        {
          "indexed": false,
          "internalType": "uint256",
          "name": "value",
          "type": "uint256"
        }
      ],
      "name": "Approval",
      "type": "event"
    },
    {
      "anonymous": false,
      "inputs": [
        {
          "indexed": true,
          "internalType": "address",
          "name": "sender",
          "type": "address"
        },
        {
          "indexed": true,
          "internalType": "address",
          "name": "owner",
          "type": "address"
        },
        {
          "indexed": false,
          "internalType": "uint256",
          "name": "assets",
          "type": "uint256"
        },
        {
          "indexed": false,
          "internalType": "uint256",
          "name": "shares",
          "type": "uint256"
        }
      ],
      "name": "Deposit",
      "type": "event"
    },
    {
      "anonymous": false,
      "inputs": [
        {
          "indexed": false,
          "internalType": "uint8",
          "name": "version",
          "type": "uint8"
        }
      ],
      "name": "Initialized",
      "type": "event"
    },
    {
      "anonymous": false,
      "inputs": [
        {
          "indexed": true,
          "internalType": "address",
          "name": "previousOwner",
          "type": "address"
        },
        {
          "indexed": true,
          "internalType": "address",
          "name": "newOwner",
          "type": "address"
        }
      ],
      "name": "OwnershipTransferred",
      "type": "event"
    },
    {
      "anonymous": false,
      "inputs": [
        {
          "indexed": true,
          "internalType": "address",
          "name": "user",
          "type": "address"
        },
        {
          "indexed": false,
          "internalType": "uint256",
          "name": "shares",
          "type": "uint256"
        },
        {
          "indexed": false,
          "internalType": "uint256",
          "name": "eth",
          "type": "uint256"
        },
        {
          "indexed": false,
          "internalType": "uint256",
          "name": "mpETH",
          "type": "uint256"
        }
      ],
      "name": "RemoveLiquidity",
      "type": "event"
    },
    {
      "anonymous": false,
      "inputs": [
        {
          "indexed": false,
          "internalType": "uint256",
          "name": "timestamp",
          "type": "uint256"
        },
        {
          "indexed": false,
          "internalType": "uint256",
          "name": "amount",
          "type": "uint256"
        }
      ],
      "name": "SendETHForValidator",
      "type": "event"
    },
    {
      "anonymous": false,
      "inputs": [
        {
          "indexed": true,
          "internalType": "address",
          "name": "user",
          "type": "address"
        },
        {
          "indexed": false,
          "internalType": "uint256",
          "name": "amountIn",
          "type": "uint256"
        },
        {
          "indexed": false,
          "internalType": "uint256",
          "name": "amountOut",
          "type": "uint256"
        },
        {
          "indexed": false,
          "internalType": "uint256",
          "name": "fees",
          "type": "uint256"
        },
        {
          "indexed": false,
          "internalType": "uint256",
          "name": "treasuryFees",
          "type": "uint256"
        }
      ],
      "name": "Swap",
      "type": "event"
    },
    {
      "anonymous": false,
      "inputs": [
        {
          "indexed": true,
          "internalType": "address",
          "name": "from",
          "type": "address"
        },
        {
          "indexed": true,
          "internalType": "address",
          "name": "to",
          "type": "address"
        },
        {
          "indexed": false,
          "internalType": "uint256",
          "name": "value",
          "type": "uint256"
        }
      ],
      "name": "Transfer",
      "type": "event"
    },
    {
      "anonymous": false,
      "inputs": [
        {
          "indexed": true,
          "internalType": "address",
          "name": "sender",
          "type": "address"
        },
        {
          "indexed": true,
          "internalType": "address",
          "name": "receiver",
          "type": "address"
        },
        {
          "indexed": true,
          "internalType": "address",
          "name": "owner",
          "type": "address"
        },
        {
          "indexed": false,
          "internalType": "uint256",
          "name": "assets",
          "type": "uint256"
        },
        {
          "indexed": false,
          "internalType": "uint256",
          "name": "shares",
          "type": "uint256"
        }
      ],
      "name": "Withdraw",
      "type": "event"
    },
    {
      "inputs": [],
      "name": "MAX_FEE",
      "outputs": [
        {
          "internalType": "uint16",
          "name": "",
          "type": "uint16"
        }
      ],
      "stateMutability": "view",
      "type": "function"
    },
    {
      "inputs": [],
      "name": "MIN_DEPOSIT",
      "outputs": [
        {
          "internalType": "uint64",
          "name": "",
          "type": "uint64"
        }
      ],
      "stateMutability": "view",
      "type": "function"
    },
    {
      "inputs": [],
      "name": "MIN_FEE",
      "outputs": [
        {
          "internalType": "uint16",
          "name": "",
          "type": "uint16"
        }
      ],
      "stateMutability": "view",
      "type": "function"
    },
    {
      "inputs": [],
      "name": "STAKING",
      "outputs": [
        {
          "internalType": "address payable",
          "name": "",
          "type": "address"
        }
      ],
      "stateMutability": "view",
      "type": "function"
    },
    {
      "inputs": [
        {
          "internalType": "address",
          "name": "owner",
          "type": "address"
        },
        {
          "internalType": "address",
          "name": "spender",
          "type": "address"
        }
      ],
      "name": "allowance",
      "outputs": [
        {
          "internalType": "uint256",
          "name": "",
          "type": "uint256"
        }
      ],
      "stateMutability": "view",
      "type": "function"
    },
    {
      "inputs": [
        {
          "internalType": "address",
          "name": "spender",
          "type": "address"
        },
        {
          "internalType": "uint256",
          "name": "amount",
          "type": "uint256"
        }
      ],
      "name": "approve",
      "outputs": [
        {
          "internalType": "bool",
          "name": "",
          "type": "bool"
        }
      ],
      "stateMutability": "nonpayable",
      "type": "function"
    },
    {
      "inputs": [],
      "name": "asset",
      "outputs": [
        {
          "internalType": "address",
          "name": "",
          "type": "address"
        }
      ],
      "stateMutability": "view",
      "type": "function"
    },
    {
      "inputs": [
        {
          "internalType": "address",
          "name": "account",
          "type": "address"
        }
      ],
      "name": "balanceOf",
      "outputs": [
        {
          "internalType": "uint256",
          "name": "",
          "type": "uint256"
        }
      ],
      "stateMutability": "view",
      "type": "function"
    },
    {
      "inputs": [
        {
          "internalType": "uint256",
          "name": "shares",
          "type": "uint256"
        }
      ],
      "name": "convertToAssets",
      "outputs": [
        {
          "internalType": "uint256",
          "name": "assets",
          "type": "uint256"
        }
      ],
      "stateMutability": "view",
      "type": "function"
    },
    {
      "inputs": [
        {
          "internalType": "uint256",
          "name": "assets",
          "type": "uint256"
        }
      ],
      "name": "convertToShares",
      "outputs": [
        {
          "internalType": "uint256",
          "name": "shares",
          "type": "uint256"
        }
      ],
      "stateMutability": "view",
      "type": "function"
    },
    {
      "inputs": [],
      "name": "decimals",
      "outputs": [
        {
          "internalType": "uint8",
          "name": "",
          "type": "uint8"
        }
      ],
      "stateMutability": "view",
      "type": "function"
    },
    {
      "inputs": [
        {
          "internalType": "address",
          "name": "spender",
          "type": "address"
        },
        {
          "internalType": "uint256",
          "name": "subtractedValue",
          "type": "uint256"
        }
      ],
      "name": "decreaseAllowance",
      "outputs": [
        {
          "internalType": "bool",
          "name": "",
          "type": "bool"
        }
      ],
      "stateMutability": "nonpayable",
      "type": "function"
    },
    {
      "inputs": [
        {
          "internalType": "uint256",
          "name": "_assets",
          "type": "uint256"
        },
        {
          "internalType": "address",
          "name": "_receiver",
          "type": "address"
        }
      ],
      "name": "deposit",
      "outputs": [
        {
          "internalType": "uint256",
          "name": "",
          "type": "uint256"
        }
      ],
      "stateMutability": "nonpayable",
      "type": "function"
    },
    {
      "inputs": [
        {
          "internalType": "address",
          "name": "_receiver",
          "type": "address"
        }
      ],
      "name": "depositETH",
      "outputs": [
        {
          "internalType": "uint256",
          "name": "",
          "type": "uint256"
        }
      ],
      "stateMutability": "payable",
      "type": "function"
    },
    {
      "inputs": [],
      "name": "ethBalance",
      "outputs": [
        {
          "internalType": "uint256",
          "name": "",
          "type": "uint256"
        }
      ],
      "stateMutability": "view",
      "type": "function"
    },
    {
      "inputs": [
        {
          "internalType": "uint256",
          "name": "_amount",
          "type": "uint256"
        }
      ],
      "name": "getEthForValidator",
      "outputs": [],
      "stateMutability": "nonpayable",
      "type": "function"
    },
    {
      "inputs": [
        {
          "internalType": "address",
          "name": "spender",
          "type": "address"
        },
        {
          "internalType": "uint256",
          "name": "addedValue",
          "type": "uint256"
        }
      ],
      "name": "increaseAllowance",
      "outputs": [
        {
          "internalType": "bool",
          "name": "",
          "type": "bool"
        }
      ],
      "stateMutability": "nonpayable",
      "type": "function"
    },
    {
      "inputs": [
        {
          "internalType": "address payable",
          "name": "staking",
          "type": "address"
        },
        {
          "internalType": "contract IERC20MetadataUpgradeable",
          "name": "_weth",
          "type": "address"
        },
        {
          "internalType": "address",
          "name": "_treasury",
          "type": "address"
        }
      ],
      "name": "initialize",
      "outputs": [],
      "stateMutability": "nonpayable",
      "type": "function"
    },
    {
      "inputs": [
        {
          "internalType": "address",
          "name": "",
          "type": "address"
        }
      ],
      "name": "maxDeposit",
      "outputs": [
        {
          "internalType": "uint256",
          "name": "",
          "type": "uint256"
        }
      ],
      "stateMutability": "view",
      "type": "function"
    },
    {
      "inputs": [
        {
          "internalType": "address",
          "name": "",
          "type": "address"
        }
      ],
      "name": "maxMint",
      "outputs": [
        {
          "internalType": "uint256",
          "name": "",
          "type": "uint256"
        }
      ],
      "stateMutability": "view",
      "type": "function"
    },
    {
      "inputs": [
        {
          "internalType": "address",
          "name": "owner",
          "type": "address"
        }
      ],
      "name": "maxRedeem",
      "outputs": [
        {
          "internalType": "uint256",
          "name": "",
          "type": "uint256"
        }
      ],
      "stateMutability": "view",
      "type": "function"
    },
    {
      "inputs": [
        {
          "internalType": "address",
          "name": "owner",
          "type": "address"
        }
      ],
      "name": "maxWithdraw",
      "outputs": [
        {
          "internalType": "uint256",
          "name": "",
          "type": "uint256"
        }
      ],
      "stateMutability": "view",
      "type": "function"
    },
    {
      "inputs": [
        {
          "internalType": "address",
          "name": "",
          "type": "address"
        }
      ],
      "name": "minDeposit",
      "outputs": [
        {
          "internalType": "uint256",
          "name": "",
          "type": "uint256"
        }
      ],
      "stateMutability": "pure",
      "type": "function"
    },
    {
      "inputs": [],
      "name": "minETHPercentage",
      "outputs": [
        {
          "internalType": "uint256",
          "name": "",
          "type": "uint256"
        }
      ],
      "stateMutability": "view",
      "type": "function"
    },
    {
      "inputs": [
        {
          "internalType": "uint256",
          "name": "shares",
          "type": "uint256"
        },
        {
          "internalType": "address",
          "name": "receiver",
          "type": "address"
        }
      ],
      "name": "mint",
      "outputs": [
        {
          "internalType": "uint256",
          "name": "",
          "type": "uint256"
        }
      ],
      "stateMutability": "nonpayable",
      "type": "function"
    },
    {
      "inputs": [],
      "name": "name",
      "outputs": [
        {
          "internalType": "string",
          "name": "",
          "type": "string"
        }
      ],
      "stateMutability": "view",
      "type": "function"
    },
    {
      "inputs": [],
      "name": "owner",
      "outputs": [
        {
          "internalType": "address",
          "name": "",
          "type": "address"
        }
      ],
      "stateMutability": "view",
      "type": "function"
    },
    {
      "inputs": [
        {
          "internalType": "uint256",
          "name": "assets",
          "type": "uint256"
        }
      ],
      "name": "previewDeposit",
      "outputs": [
        {
          "internalType": "uint256",
          "name": "",
          "type": "uint256"
        }
      ],
      "stateMutability": "view",
      "type": "function"
    },
    {
      "inputs": [
        {
          "internalType": "uint256",
          "name": "shares",
          "type": "uint256"
        }
      ],
      "name": "previewMint",
      "outputs": [
        {
          "internalType": "uint256",
          "name": "",
          "type": "uint256"
        }
      ],
      "stateMutability": "view",
      "type": "function"
    },
    {
      "inputs": [
        {
          "internalType": "uint256",
          "name": "shares",
          "type": "uint256"
        }
      ],
      "name": "previewRedeem",
      "outputs": [
        {
          "internalType": "uint256",
          "name": "",
          "type": "uint256"
        }
      ],
      "stateMutability": "view",
      "type": "function"
    },
    {
      "inputs": [
        {
          "internalType": "uint256",
          "name": "assets",
          "type": "uint256"
        }
      ],
      "name": "previewWithdraw",
      "outputs": [
        {
          "internalType": "uint256",
          "name": "",
          "type": "uint256"
        }
      ],
      "stateMutability": "view",
      "type": "function"
    },
    {
      "inputs": [
        {
          "internalType": "uint256",
          "name": "_shares",
          "type": "uint256"
        },
        {
          "internalType": "address",
          "name": "_receiver",
          "type": "address"
        },
        {
          "internalType": "address",
          "name": "_owner",
          "type": "address"
        }
      ],
      "name": "redeem",
      "outputs": [
        {
          "internalType": "uint256",
          "name": "",
          "type": "uint256"
        }
      ],
      "stateMutability": "nonpayable",
      "type": "function"
    },
    {
      "inputs": [],
      "name": "renounceOwnership",
      "outputs": [],
      "stateMutability": "nonpayable",
      "type": "function"
    },
    {
      "inputs": [
        {
          "internalType": "address",
          "name": "_to",
          "type": "address"
        }
      ],
      "name": "swapETHFormpETH",
      "outputs": [
        {
          "internalType": "uint256",
          "name": "",
          "type": "uint256"
        }
      ],
      "stateMutability": "payable",
      "type": "function"
    },
    {
      "inputs": [
        {
          "internalType": "uint256",
          "name": "_amount",
          "type": "uint256"
        },
        {
          "internalType": "uint256",
          "name": "_minOut",
          "type": "uint256"
        }
      ],
      "name": "swapmpETHforETH",
      "outputs": [
        {
          "internalType": "uint256",
          "name": "",
          "type": "uint256"
        }
      ],
      "stateMutability": "nonpayable",
      "type": "function"
    },
    {
      "inputs": [],
      "name": "symbol",
      "outputs": [
        {
          "internalType": "string",
          "name": "",
          "type": "string"
        }
      ],
      "stateMutability": "view",
      "type": "function"
    },
    {
      "inputs": [],
      "name": "targetLiquidity",
      "outputs": [
        {
          "internalType": "uint256",
          "name": "",
          "type": "uint256"
        }
      ],
      "stateMutability": "view",
      "type": "function"
    },
    {
      "inputs": [],
      "name": "totalAssets",
      "outputs": [
        {
          "internalType": "uint256",
          "name": "",
          "type": "uint256"
        }
      ],
      "stateMutability": "view",
      "type": "function"
    },
    {
      "inputs": [],
      "name": "totalSupply",
      "outputs": [
        {
          "internalType": "uint256",
          "name": "",
          "type": "uint256"
        }
      ],
      "stateMutability": "view",
      "type": "function"
    },
    {
      "inputs": [
        {
          "internalType": "address",
          "name": "to",
          "type": "address"
        },
        {
          "internalType": "uint256",
          "name": "amount",
          "type": "uint256"
        }
      ],
      "name": "transfer",
      "outputs": [
        {
          "internalType": "bool",
          "name": "",
          "type": "bool"
        }
      ],
      "stateMutability": "nonpayable",
      "type": "function"
    },
    {
      "inputs": [
        {
          "internalType": "address",
          "name": "from",
          "type": "address"
        },
        {
          "internalType": "address",
          "name": "to",
          "type": "address"
        },
        {
          "internalType": "uint256",
          "name": "amount",
          "type": "uint256"
        }
      ],
      "name": "transferFrom",
      "outputs": [
        {
          "internalType": "bool",
          "name": "",
          "type": "bool"
        }
      ],
      "stateMutability": "nonpayable",
      "type": "function"
    },
    {
      "inputs": [
        {
          "internalType": "address",
          "name": "newOwner",
          "type": "address"
        }
      ],
      "name": "transferOwnership",
      "outputs": [],
      "stateMutability": "nonpayable",
      "type": "function"
    },
    {
      "inputs": [],
      "name": "treasury",
      "outputs": [
        {
          "internalType": "address",
          "name": "",
          "type": "address"
        }
      ],
      "stateMutability": "view",
      "type": "function"
    },
    {
      "inputs": [
        {
          "internalType": "uint256",
          "name": "_minETHPercentage",
          "type": "uint256"
        }
      ],
      "name": "updateMinETHPercentage",
      "outputs": [],
      "stateMutability": "nonpayable",
      "type": "function"
    },
    {
      "inputs": [
        {
          "internalType": "uint256",
          "name": "_targetLiquidity",
          "type": "uint256"
        }
      ],
      "name": "updateTargetLiquidity",
      "outputs": [],
      "stateMutability": "nonpayable",
      "type": "function"
    },
    {
      "inputs": [
        {
          "internalType": "uint256",
          "name": "assets",
          "type": "uint256"
        },
        {
          "internalType": "address",
          "name": "receiver",
          "type": "address"
        },
        {
          "internalType": "address",
          "name": "owner",
          "type": "address"
        }
      ],
      "name": "withdraw",
      "outputs": [
        {
          "internalType": "uint256",
          "name": "",
          "type": "uint256"
        }
      ],
      "stateMutability": "nonpayable",
      "type": "function"
    },
    {
      "stateMutability": "payable",
      "type": "receive"
    }
  ],
  "bytecode": "0x608060405234801561001057600080fd5b50612d35806100206000396000f3fe6080604052600436106102815760003560e01c806376c7a3c71161014f578063ba087652116100c1578063ce96cb771161007a578063ce96cb7714610769578063d905777e14610789578063dd62ed3e146107a9578063e1e158a5146107c9578063ef8b30f714610749578063f2fde38b146107fd57600080fd5b8063ba087652146106be578063bc063e1a146106de578063c0c53b8b146106f4578063c3e8c4fa14610714578063c63d75b614610727578063c6e6f5921461074957600080fd5b806395d89b411161011357806395d89b411461060957806397610f301461061e578063a457c2d71461063e578063a9059cbb1461065e578063b3d7f6b91461067e578063b460af941461069e57600080fd5b806376c7a3c71461056d5780637d287f4f146105955780638da5cb5b146105b557806392258ec8146105d357806394bf804d146105e957600080fd5b80633701206b116101f35780634cdad506116101ac5780634cdad506146102d75780634e6630b0146104cc57806361d027b3146104e25780636e553f651461050257806370a0823114610522578063715018a61461055857600080fd5b80633701206b146103f157806338d52e0f1461041357806339509351146104455780633c29f83914610465578063402d267d1461048c578063489569d7146104ac57600080fd5b806318160ddd1161024557806318160ddd14610347578063201687301461035c57806323b872dd1461037c5780632d2da8061461039c5780633100f4f2146103af578063313ce567146103c557600080fd5b806301e1d1141461028d57806306fdde03146102b557806307a2d13a146102d7578063095ea7b3146102f75780630a28a4771461032757600080fd5b3661028857005b600080fd5b34801561029957600080fd5b506102a261081d565b6040519081526020015b60405180910390f35b3480156102c157600080fd5b506102ca610903565b6040516102ac9190612849565b3480156102e357600080fd5b506102a26102f236600461287c565b610995565b34801561030357600080fd5b506103176103123660046128aa565b6109a8565b60405190151581526020016102ac565b34801561033357600080fd5b506102a261034236600461287c565b6109c0565b34801561035357600080fd5b506035546102a2565b34801561036857600080fd5b506102a26103773660046128d6565b6109cd565b34801561038857600080fd5b506103176103973660046128f8565b610c96565b6102a26103aa366004612939565b610cbc565b3480156103bb57600080fd5b506102a260ff5481565b3480156103d157600080fd5b50606554600160a01b900460ff1660405160ff90911681526020016102ac565b3480156103fd57600080fd5b5061041161040c36600461287c565b610ceb565b005b34801561041f57600080fd5b506065546001600160a01b03165b6040516001600160a01b0390911681526020016102ac565b34801561045157600080fd5b506103176104603660046128aa565b610e83565b34801561047157600080fd5b506102a2610480366004612939565b50662386f26fc1000090565b34801561049857600080fd5b506102a26104a7366004612939565b610ea5565b3480156104b857600080fd5b506104116104c736600461287c565b610ec3565b3480156104d857600080fd5b506102a260fd5481565b3480156104ee57600080fd5b5060fb5461042d906001600160a01b031681565b34801561050e57600080fd5b506102a261051d366004612956565b610ed0565b34801561052e57600080fd5b506102a261053d366004612939565b6001600160a01b031660009081526033602052604090205490565b34801561056457600080fd5b50610411610eff565b34801561057957600080fd5b50610582601e81565b60405161ffff90911681526020016102ac565b3480156105a157600080fd5b506104116105b036600461287c565b610f13565b3480156105c157600080fd5b506097546001600160a01b031661042d565b3480156105df57600080fd5b506102a260fe5481565b3480156105f557600080fd5b506102a2610604366004612956565b610f20565b34801561061557600080fd5b506102ca610f3a565b34801561062a57600080fd5b5060fc5461042d906001600160a01b031681565b34801561064a57600080fd5b506103176106593660046128aa565b610f49565b34801561066a57600080fd5b506103176106793660046128aa565b610fcf565b34801561068a57600080fd5b506102a261069936600461287c565b610fdd565b3480156106aa57600080fd5b506102a26106b9366004612986565b610fea565b3480156106ca57600080fd5b506102a26106d9366004612986565b611066565b3480156106ea57600080fd5b506105826101f481565b34801561070057600080fd5b5061041161070f3660046129c8565b611203565b6102a2610722366004612939565b611487565b34801561073357600080fd5b506102a2610742366004612939565b5060001990565b34801561075557600080fd5b506102a261076436600461287c565b611610565b34801561077557600080fd5b506102a2610784366004612939565b61161d565b34801561079557600080fd5b506102a26107a4366004612939565b611641565b3480156107b557600080fd5b506102a26107c43660046129f8565b61165f565b3480156107d557600080fd5b506107e4662386f26fc1000081565b60405167ffffffffffffffff90911681526020016102ac565b34801561080957600080fd5b50610411610818366004612939565b61168a565b60fc546040516370a0823160e01b81523060048201526000916001600160a01b0316906307a2d13a9082906370a0823190602401602060405180830381865afa15801561086e573d6000803e3d6000fd5b505050506040513d601f19601f820116820180604052508101906108929190612a26565b6040518263ffffffff1660e01b81526004016108b091815260200190565b602060405180830381865afa1580156108cd573d6000803e3d6000fd5b505050506040513d601f19601f820116820180604052508101906108f19190612a26565b60fd546108fe9190612a55565b905090565b60606036805461091290612a68565b80601f016020809104026020016040519081016040528092919081815260200182805461093e90612a68565b801561098b5780601f106109605761010080835404028352916020019161098b565b820191906000526020600020905b81548152906001019060200180831161096e57829003601f168201915b5050505050905090565b60006109a2826000611700565b92915050565b6000336109b6818585611733565b5060019392505050565b60006109a2826001611857565b60006109d7611889565b60fc546001600160a01b031660006109f2601e6101f4612a9c565b6040516303d1689d60e11b8152600481018790529091506000906001600160a01b038416906307a2d13a90602401602060405180830381865afa158015610a3d573d6000803e3d6000fd5b505050506040513d601f19601f82011682018060405250810190610a619190612a26565b90506000610aa2826040518060400160405280600e81526020016d09cdee840cadcdeeaced0408aa8960931b81525060fd546118e29092919063ffffffff16565b60fe54909150601e90821015610ae25760fe54600090610ac68461ffff8816612ab7565b610ad09190612ae4565b9050610ade816101f4612b06565b9150505b6000612710610af1838b612ab7565b610afb9190612ae4565b90506001600160a01b0386166307a2d13a610b16838c612b06565b6040518263ffffffff1660e01b8152600401610b3491815260200190565b602060405180830381865afa158015610b51573d6000803e3d6000fd5b505050506040513d601f19601f82011682018060405250810190610b759190612a26565b935087841015610bcc5760405162461bcd60e51b815260206004820152601d60248201527f5377617020646f65736e2774207265616368206d696e20616d6f756e7400000060448201526064015b60405180910390fd5b6000612710610bdd836109c4612ab7565b610be79190612ae4565b9050610bfe6001600160a01b03881633308d61190e565b60fb54610c18906001600160a01b03898116911683611979565b610c2233866119ae565b8460fd6000828254610c349190612b06565b9091555050604080518b8152602081018790529081018390526060810182905233907f49926bbebe8474393f434dfa4f78694c0923efa07d19f2284518bfabd06eb7379060800160405180910390a25092955050505050506109a2600160c955565b600033610ca4858285611ace565b610caf858585611b42565b60019150505b9392505050565b600034610cc881611ced565b6000610cd334611610565b9050610ce23385600084611d44565b91505b50919050565b610cf3611889565b60fc54610d08906001600160a01b0316611e56565b61271060ff5482610d1761081d565b610d219190612b06565b610d2b9190612ab7565b610d359190612ae4565b8160fd54610d439190612b06565b1015610da65760405162461bcd60e51b815260206004820152602c60248201527f45544820726571756573746564207265616368206d696e204554482f6d70455460448201526b2410383937b837b93a34b7b760a11b6064820152608401610bc3565b60fc5460fd80546001600160a01b0390921691839190600090610dca908490612b06565b9091555050604051631696d40360e11b81523060048201526001600160a01b03821690632d2da80690849060240160206040518083038185885af1158015610e16573d6000803e3d6000fd5b50505050506040513d601f19601f82011682018060405250810190610e3b9190612a26565b5060408051428152602081018490527f7ac2a41af785a0be7c54324b10c6f29b473018b57e4b58f9b86a050124173b1b910160405180910390a150610e80600160c955565b50565b6000336109b6818585610e96838361165f565b610ea09190612a55565b611733565b6000610eaf611e9d565b610eba5760006109a2565b60001992915050565b610ecb611eb7565b60ff55565b600082610edc81611ced565b6000610ee785611610565b9050610ef533858784611d44565b91505b5092915050565b610f07611eb7565b610f116000611f11565b565b610f1b611eb7565b60fe55565b600080610f2c84610fdd565b9050610cb533848387611d44565b60606037805461091290612a68565b60003381610f57828661165f565b905083811015610fb75760405162461bcd60e51b815260206004820152602560248201527f45524332303a2064656372656173656420616c6c6f77616e63652062656c6f77604482015264207a65726f60d81b6064820152608401610bc3565b610fc48286868403611733565b506001949350505050565b6000336109b6818585611b42565b60006109a2826001611700565b6000610ff58261161d565b8411156110445760405162461bcd60e51b815260206004820152601f60248201527f455243343632363a207769746864726177206d6f7265207468616e206d6178006044820152606401610bc3565b600061104f856109c0565b905061105e3385858885611f63565b949350505050565b6000611070611889565b336001600160a01b0383161461108b5761108b823386611ace565b600061109660355490565b6110a886670de0b6b3a7640000612ab7565b6110b29190612ae4565b90506000670de0b6b3a764000060fd54836110cd9190612ab7565b6110d79190612ae4565b60fc546040516370a0823160e01b8152306004820152919250600091670de0b6b3a7640000916001600160a01b0316906370a0823190602401602060405180830381865afa15801561112d573d6000803e3d6000fd5b505050506040513d601f19601f820116820180604052508101906111519190612a26565b61115b9085612ab7565b6111659190612ae4565b9050611171338861200f565b6111846001600160a01b038716836119ae565b60fc5461119b906001600160a01b03168783611979565b8160fd60008282546111ad9190612b06565b9091555050604080518881526020810184905290810182905233907f59c3a0b60c6ab7deb62e1440c9e72441db6db7dfe514dba8cb18e60c0d896efa9060600160405180910390a250915050610cb5600160c955565b600054610100900460ff16158080156112235750600054600160ff909116105b8061123d5750303b15801561123d575060005460ff166001145b6112a05760405162461bcd60e51b815260206004820152602e60248201527f496e697469616c697a61626c653a20636f6e747261637420697320616c72656160448201526d191e481a5b9a5d1a585b1a5e995960921b6064820152608401610bc3565b6000805460ff1916600117905580156112c3576000805461ff0019166101001790555b6112cc83612143565b6113186040518060400160405280600981526020016804d6574614554484c560bc1b815250604051806040016040528060098152602001680dae08aa8905e8aa8960bb1b815250612173565b6113206121a8565b6113286121d7565b826001600160a01b031663313ce5676040518163ffffffff1660e01b8152600401602060405180830381865afa158015611366573d6000803e3d6000fd5b505050506040513d601f19601f8201168201806040525081019061138a9190612b19565b60ff166012146113f85760405162461bcd60e51b815260206004820152603360248201527f774e617469766520746f6b656e206572726f722c20696d706c656d656e746174604482015272696f6e20666f7220313820646563696d616c7360681b6064820152608401610bc3565b60fc80546001600160a01b038087166001600160a01b03199283161790925560fb8054928516929091169190911790556801a055690d9db8000060fe5561138860ff558015611481576000805461ff0019169055604051600181527f7f26b83ff96e1f2b6a682f133852f6798a09c465da95921460cefb38474024989060200160405180910390a15b50505050565b6000611491611889565b60fc546114a6906001600160a01b0316611e56565b60fc5460405163ef8b30f760e01b81523460048201526001600160a01b0390911690600090829063ef8b30f790602401602060405180830381865afa1580156114f3573d6000803e3d6000fd5b505050506040513d601f19601f820116820180604052508101906115179190612a26565b6040516370a0823160e01b815230600482015290915081906001600160a01b038416906370a0823190602401602060405180830381865afa158015611560573d6000803e3d6000fd5b505050506040513d601f19601f820116820180604052508101906115849190612a26565b10156115d25760405162461bcd60e51b815260206004820152601f60248201527f4c697175696420756e7374616b65206e6f7420656e6f756768206d70455448006044820152606401610bc3565b6115e66001600160a01b0383168583611979565b3460fd60008282546115f89190612a55565b90915550909250505061160b600160c955565b919050565b60006109a2826000611857565b6001600160a01b0381166000908152603360205260408120546109a2906000611700565b6001600160a01b0381166000908152603360205260408120546109a2565b6001600160a01b03918216600090815260346020908152604080832093909416825291909152205490565b611692611eb7565b6001600160a01b0381166116f75760405162461bcd60e51b815260206004820152602660248201527f4f776e61626c653a206e6577206f776e657220697320746865207a65726f206160448201526564647265737360d01b6064820152608401610bc3565b610e8081611f11565b60008061170c60355490565b9050801561172d5761172861171f61081d565b85908386612206565b610ef5565b83610ef5565b6001600160a01b0383166117955760405162461bcd60e51b8152602060048201526024808201527f45524332303a20617070726f76652066726f6d20746865207a65726f206164646044820152637265737360e01b6064820152608401610bc3565b6001600160a01b0382166117f65760405162461bcd60e51b815260206004820152602260248201527f45524332303a20617070726f766520746f20746865207a65726f206164647265604482015261737360f01b6064820152608401610bc3565b6001600160a01b0383811660008181526034602090815260408083209487168084529482529182902085905590518481527f8c5be1e5ebec7d5bd14f71427d1e84f3dd0314c0f7b2291e5b200ac8c7c3b925910160405180910390a3505050565b60008061186360355490565b9050831580611870575080155b61172d576117288161188061081d565b86919086612206565b600260c954036118db5760405162461bcd60e51b815260206004820152601f60248201527f5265656e7472616e637947756172643a207265656e7472616e742063616c6c006044820152606401610bc3565b600260c955565b600081848411156119065760405162461bcd60e51b8152600401610bc39190612849565b505050900390565b6040516001600160a01b03808516602483015283166044820152606481018290526114819085906323b872dd60e01b906084015b60408051601f198184030181529190526020810180516001600160e01b03166001600160e01b031990931692909217909152612263565b6040516001600160a01b0383166024820152604481018290526119a990849063a9059cbb60e01b90606401611942565b505050565b804710156119fe5760405162461bcd60e51b815260206004820152601d60248201527f416464726573733a20696e73756666696369656e742062616c616e63650000006044820152606401610bc3565b6000826001600160a01b03168260405160006040518083038185875af1925050503d8060008114611a4b576040519150601f19603f3d011682016040523d82523d6000602084013e611a50565b606091505b50509050806119a95760405162461bcd60e51b815260206004820152603a60248201527f416464726573733a20756e61626c6520746f2073656e642076616c75652c207260448201527f6563697069656e74206d617920686176652072657665727465640000000000006064820152608401610bc3565b600160c955565b6000611ada848461165f565b905060001981146114815781811015611b355760405162461bcd60e51b815260206004820152601d60248201527f45524332303a20696e73756666696369656e7420616c6c6f77616e63650000006044820152606401610bc3565b6114818484848403611733565b6001600160a01b038316611ba65760405162461bcd60e51b815260206004820152602560248201527f45524332303a207472616e736665722066726f6d20746865207a65726f206164604482015264647265737360d81b6064820152608401610bc3565b6001600160a01b038216611c085760405162461bcd60e51b815260206004820152602360248201527f45524332303a207472616e7366657220746f20746865207a65726f206164647260448201526265737360e81b6064820152608401610bc3565b6001600160a01b03831660009081526033602052604090205481811015611c805760405162461bcd60e51b815260206004820152602660248201527f45524332303a207472616e7366657220616d6f756e7420657863656564732062604482015265616c616e636560d01b6064820152608401610bc3565b6001600160a01b0380851660008181526033602052604080822086860390559286168082529083902080548601905591517fddf252ad1be2c89b69c2b068fc378daa952ba7f163c4a11628f55a4df523b3ef90611ce09086815260200190565b60405180910390a3611481565b662386f26fc10000811015610e805760405162461bcd60e51b815260206004820152601960248201527f4465706f736974206174206c6561737420302e303120455448000000000000006044820152606401610bc3565b611d4c611889565b8115611dde57611d7b333084611d6a6065546001600160a01b031690565b6001600160a01b031692919061190e565b606554604051632e1a7d4d60e01b8152600481018490526001600160a01b0390911690632e1a7d4d90602401600060405180830381600087803b158015611dc157600080fd5b505af1158015611dd5573d6000803e3d6000fd5b50505050611de2565b3491505b611dec8382612335565b8160fd6000828254611dfe9190612a55565b909155505060408051838152602081018390526001600160a01b0380861692908716917fd2491a9b4fe81a7cd4511e8b7b7743951b061dad5bed7da8a7795b080ee08c7e910160405180910390a3611481600160c955565b336001600160a01b03821614610e805760405162461bcd60e51b815260206004820152600c60248201526b20b1b1b2b9b99032b93937b960a11b6044820152606401610bc3565b600080611ea861081d565b11806108fe5750506035541590565b6097546001600160a01b03163314610f115760405162461bcd60e51b815260206004820181905260248201527f4f776e61626c653a2063616c6c6572206973206e6f7420746865206f776e65726044820152606401610bc3565b609780546001600160a01b038381166001600160a01b0319831681179093556040519116919082907f8be0079c531659141344cd1fd0a4f28419497f9722a3daafe3b4186f6b6457e090600090a35050565b826001600160a01b0316856001600160a01b031614611f8757611f87838683611ace565b611f91838261200f565b606554611fa8906001600160a01b03168584611979565b826001600160a01b0316846001600160a01b0316866001600160a01b03167ffbde797d201c681b91056529119e0b02407c7bb96a4a2c75c01fc9667232c8db8585604051612000929190918252602082015260400190565b60405180910390a45050505050565b6001600160a01b03821661206f5760405162461bcd60e51b815260206004820152602160248201527f45524332303a206275726e2066726f6d20746865207a65726f206164647265736044820152607360f81b6064820152608401610bc3565b6001600160a01b038216600090815260336020526040902054818110156120e35760405162461bcd60e51b815260206004820152602260248201527f45524332303a206275726e20616d6f756e7420657863656564732062616c616e604482015261636560f01b6064820152608401610bc3565b6001600160a01b03831660008181526033602090815260408083208686039055603580548790039055518581529192917fddf252ad1be2c89b69c2b068fc378daa952ba7f163c4a11628f55a4df523b3ef910160405180910390a3505050565b600054610100900460ff1661216a5760405162461bcd60e51b8152600401610bc390612b3c565b610e80816123f6565b600054610100900460ff1661219a5760405162461bcd60e51b8152600401610bc390612b3c565b6121a4828261247b565b5050565b600054610100900460ff166121cf5760405162461bcd60e51b8152600401610bc390612b3c565b610f116124bb565b600054610100900460ff166121fe5760405162461bcd60e51b8152600401610bc390612b3c565b610f116124eb565b600080612214868686612512565b9050600183600281111561222a5761222a612b87565b14801561224757506000848061224257612242612ace565b868809115b1561225a57612257600182612a55565b90505b95945050505050565b60006122b8826040518060400160405280602081526020017f5361666545524332303a206c6f772d6c6576656c2063616c6c206661696c6564815250856001600160a01b03166125c19092919063ffffffff16565b8051909150156119a957808060200190518101906122d69190612b9d565b6119a95760405162461bcd60e51b815260206004820152602a60248201527f5361666545524332303a204552433230206f7065726174696f6e20646964206e6044820152691bdd081cdd58d8d9595960b21b6064820152608401610bc3565b6001600160a01b03821661238b5760405162461bcd60e51b815260206004820152601f60248201527f45524332303a206d696e7420746f20746865207a65726f2061646472657373006044820152606401610bc3565b806035600082825461239d9190612a55565b90915550506001600160a01b0382166000818152603360209081526040808320805486019055518481527fddf252ad1be2c89b69c2b068fc378daa952ba7f163c4a11628f55a4df523b3ef910160405180910390a35050565b600054610100900460ff1661241d5760405162461bcd60e51b8152600401610bc390612b3c565b600080612429836125d0565b915091508161243957601261243b565b805b606580546001600160a01b039095166001600160a01b031960ff93909316600160a01b02929092166001600160a81b031990951694909417179092555050565b600054610100900460ff166124a25760405162461bcd60e51b8152600401610bc390612b3c565b60366124ae8382612c23565b5060376119a98282612c23565b600054610100900460ff166124e25760405162461bcd60e51b8152600401610bc390612b3c565b610f1133611f11565b600054610100900460ff16611ac75760405162461bcd60e51b8152600401610bc390612b3c565b600080806000198587098587029250828110838203039150508060000361254c5783828161254257612542612ace565b0492505050610cb5565b80841161255857600080fd5b60008486880960026001871981018816978890046003810283188082028403028082028403028082028403028082028403028082028403029081029092039091026000889003889004909101858311909403939093029303949094049190911702949350505050565b606061105e84846000856126ac565b60408051600481526024810182526020810180516001600160e01b031663313ce56760e01b17905290516000918291829182916001600160a01b0387169161261791612ce3565b600060405180830381855afa9150503d8060008114612652576040519150601f19603f3d011682016040523d82523d6000602084013e612657565b606091505b509150915081801561266b57506020815110155b1561269f576000818060200190518101906126869190612a26565b905060ff811161269d576001969095509350505050565b505b5060009485945092505050565b60608247101561270d5760405162461bcd60e51b815260206004820152602660248201527f416464726573733a20696e73756666696369656e742062616c616e636520666f6044820152651c8818d85b1b60d21b6064820152608401610bc3565b600080866001600160a01b031685876040516127299190612ce3565b60006040518083038185875af1925050503d8060008114612766576040519150601f19603f3d011682016040523d82523d6000602084013e61276b565b606091505b509150915061277c87838387612787565b979650505050505050565b606083156127f65782516000036127ef576001600160a01b0385163b6127ef5760405162461bcd60e51b815260206004820152601d60248201527f416464726573733a2063616c6c20746f206e6f6e2d636f6e74726163740000006044820152606401610bc3565b508161105e565b61105e838381511561280b5781518083602001fd5b8060405162461bcd60e51b8152600401610bc39190612849565b60005b83811015612840578181015183820152602001612828565b50506000910152565b6020815260008251806020840152612868816040850160208701612825565b601f01601f19169190910160400192915050565b60006020828403121561288e57600080fd5b5035919050565b6001600160a01b0381168114610e8057600080fd5b600080604083850312156128bd57600080fd5b82356128c881612895565b946020939093013593505050565b600080604083850312156128e957600080fd5b50508035926020909101359150565b60008060006060848603121561290d57600080fd5b833561291881612895565b9250602084013561292881612895565b929592945050506040919091013590565b60006020828403121561294b57600080fd5b8135610cb581612895565b6000806040838503121561296957600080fd5b82359150602083013561297b81612895565b809150509250929050565b60008060006060848603121561299b57600080fd5b8335925060208401356129ad81612895565b915060408401356129bd81612895565b809150509250925092565b6000806000606084860312156129dd57600080fd5b83356129e881612895565b925060208401356129ad81612895565b60008060408385031215612a0b57600080fd5b8235612a1681612895565b9150602083013561297b81612895565b600060208284031215612a3857600080fd5b5051919050565b634e487b7160e01b600052601160045260246000fd5b808201808211156109a2576109a2612a3f565b600181811c90821680612a7c57607f821691505b602082108103610ce557634e487b7160e01b600052602260045260246000fd5b61ffff828116828216039080821115610ef857610ef8612a3f565b80820281158282048414176109a2576109a2612a3f565b634e487b7160e01b600052601260045260246000fd5b600082612b0157634e487b7160e01b600052601260045260246000fd5b500490565b818103818111156109a2576109a2612a3f565b600060208284031215612b2b57600080fd5b815160ff81168114610cb557600080fd5b6020808252602b908201527f496e697469616c697a61626c653a20636f6e7472616374206973206e6f74206960408201526a6e697469616c697a696e6760a81b606082015260800190565b634e487b7160e01b600052602160045260246000fd5b600060208284031215612baf57600080fd5b81518015158114610cb557600080fd5b634e487b7160e01b600052604160045260246000fd5b601f8211156119a957600081815260208120601f850160051c81016020861015612bfc5750805b601f850160051c820191505b81811015612c1b57828155600101612c08565b505050505050565b815167ffffffffffffffff811115612c3d57612c3d612bbf565b612c5181612c4b8454612a68565b84612bd5565b602080601f831160018114612c865760008415612c6e5750858301515b600019600386901b1c1916600185901b178555612c1b565b600085815260208120601f198616915b82811015612cb557888601518255948401946001909101908401612c96565b5085821015612cd35787850151600019600388901b60f8161c191681555b5050505050600190811b01905550565b60008251612cf5818460208701612825565b919091019291505056fea264697066735822122030fd6ace5c8aa3b0af8814e77115a3c98aca6c8ad2c6d49196df8f401a79401c64736f6c63430008110033",
  "linkReferences": {},
  "deployedLinkReferences": {}
}