{
  "_format": "hh-sol-artifact-1",
  "contractName": "StakingManager",
  "sourceName": "contracts/StakingManager.sol",
  "abi": [
    {
      "inputs": [
        {
          "internalType": "address",
          "name": "_stAurVault",
          "type": "address"
        },
        {
          "internalType": "address",
          "name": "_auroraStaking",
          "type": "address"
        },
        {
          "internalType": "address",
          "name": "_contractOperatorRole",
          "type": "address"
        },
        {
          "internalType": "uint256",
          "name": "_maxWithdrawOrders",
          "type": "uint256"
        },
        {
          "internalType": "uint256",
          "name": "_maxDepositors",
          "type": "uint256"
        }
      ],
      "stateMutability": "nonpayable",
      "type": "constructor"
    },
    {
      "anonymous": false,
      "inputs": [
        {
          "indexed": true,
          "internalType": "address",
          "name": "_caller",
          "type": "address"
        },
        {
          "indexed": true,
          "internalType": "address",
          "name": "_receiver",
          "type": "address"
        },
        {
          "indexed": true,
          "internalType": "address",
          "name": "_owner",
          "type": "address"
        },
        {
          "indexed": false,
          "internalType": "uint256",
          "name": "_assets",
          "type": "uint256"
        }
      ],
      "name": "AltWithdraw",
      "type": "event"
    },
    {
      "anonymous": false,
      "inputs": [
        {
          "indexed": false,
          "internalType": "uint256",
          "name": "_nextCleanTimestamp",
          "type": "uint256"
        }
      ],
      "name": "CleanOrdersQueue",
      "type": "event"
    },
    {
      "anonymous": false,
      "inputs": [
        {
          "indexed": false,
          "internalType": "uint256",
          "name": "_maxDepositors",
          "type": "uint256"
        },
        {
          "indexed": false,
          "internalType": "address",
          "name": "_sender",
          "type": "address"
        }
      ],
      "name": "MaxDepositorsUpdate",
      "type": "event"
    },
    {
      "anonymous": false,
      "inputs": [
        {
          "indexed": false,
          "internalType": "uint256",
          "name": "_maxWithdrawOrders",
          "type": "uint256"
        },
        {
          "indexed": false,
          "internalType": "address",
          "name": "_sender",
          "type": "address"
        }
      ],
      "name": "MaxWithdrawOrdersUpdate",
      "type": "event"
    },
    {
      "anonymous": false,
      "inputs": [
        {
          "indexed": false,
          "internalType": "address",
          "name": "_depositor",
          "type": "address"
        },
        {
          "indexed": false,
          "internalType": "address",
          "name": "_sender",
          "type": "address"
        }
      ],
      "name": "NewDepositorAdded",
      "type": "event"
    },
    {
      "anonymous": false,
      "inputs": [
        {
          "indexed": true,
          "internalType": "bytes32",
          "name": "role",
          "type": "bytes32"
        },
        {
          "indexed": true,
          "internalType": "bytes32",
          "name": "previousAdminRole",
          "type": "bytes32"
        },
        {
          "indexed": true,
          "internalType": "bytes32",
          "name": "newAdminRole",
          "type": "bytes32"
        }
      ],
      "name": "RoleAdminChanged",
      "type": "event"
    },
    {
      "anonymous": false,
      "inputs": [
        {
          "indexed": true,
          "internalType": "bytes32",
          "name": "role",
          "type": "bytes32"
        },
        {
          "indexed": true,
          "internalType": "address",
          "name": "account",
          "type": "address"
        },
        {
          "indexed": true,
          "internalType": "address",
          "name": "sender",
          "type": "address"
        }
      ],
      "name": "RoleGranted",
      "type": "event"
    },
    {
      "anonymous": false,
      "inputs": [
        {
          "indexed": true,
          "internalType": "bytes32",
          "name": "role",
          "type": "bytes32"
        },
        {
          "indexed": true,
          "internalType": "address",
          "name": "account",
          "type": "address"
        },
        {
          "indexed": true,
          "internalType": "address",
          "name": "sender",
          "type": "address"
        }
      ],
      "name": "RoleRevoked",
      "type": "event"
    },
    {
      "anonymous": false,
      "inputs": [
        {
          "indexed": false,
          "internalType": "bool",
          "name": "_isProcessStopped",
          "type": "bool"
        },
        {
          "indexed": false,
          "internalType": "address",
          "name": "_sender",
          "type": "address"
        }
      ],
      "name": "UpdateProcessWithdrawOrders",
      "type": "event"
    },
    {
      "inputs": [],
      "name": "ADMIN_ROLE",
      "outputs": [
        {
          "internalType": "bytes32",
          "name": "",
          "type": "bytes32"
        }
      ],
      "stateMutability": "view",
      "type": "function"
    },
    {
      "inputs": [],
      "name": "DEFAULT_ADMIN_ROLE",
      "outputs": [
        {
          "internalType": "bytes32",
          "name": "",
          "type": "bytes32"
        }
      ],
      "stateMutability": "view",
      "type": "function"
    },
    {
      "inputs": [],
      "name": "OPERATOR_ROLE",
      "outputs": [
        {
          "internalType": "bytes32",
          "name": "",
          "type": "bytes32"
        }
      ],
      "stateMutability": "view",
      "type": "function"
    },
    {
      "inputs": [],
      "name": "SAFETY_BUFFER",
      "outputs": [
        {
          "internalType": "uint256",
          "name": "",
          "type": "uint256"
        }
      ],
      "stateMutability": "view",
      "type": "function"
    },
    {
      "inputs": [
        {
          "internalType": "uint256",
          "name": "_assets",
          "type": "uint256"
        },
        {
          "internalType": "address",
          "name": "_receiver",
          "type": "address"
        }
      ],
      "name": "alternativeWithdraw",
      "outputs": [],
      "stateMutability": "nonpayable",
      "type": "function"
    },
    {
      "inputs": [],
      "name": "auroraStaking",
      "outputs": [
        {
          "internalType": "address",
          "name": "",
          "type": "address"
        }
      ],
      "stateMutability": "view",
      "type": "function"
    },
    {
      "inputs": [],
      "name": "auroraToken",
      "outputs": [
        {
          "internalType": "address",
          "name": "",
          "type": "address"
        }
      ],
      "stateMutability": "view",
      "type": "function"
    },
    {
      "inputs": [
        {
          "internalType": "uint256",
          "name": "_maxDepositors",
          "type": "uint256"
        }
      ],
      "name": "changeMaxDepositors",
      "outputs": [],
      "stateMutability": "nonpayable",
      "type": "function"
    },
    {
      "inputs": [
        {
          "internalType": "uint256",
          "name": "_maxWithdrawOrders",
          "type": "uint256"
        }
      ],
      "name": "changeMaxWithdrawOrders",
      "outputs": [],
      "stateMutability": "nonpayable",
      "type": "function"
    },
    {
      "inputs": [],
      "name": "cleanOrdersQueue",
      "outputs": [],
      "stateMutability": "nonpayable",
      "type": "function"
    },
    {
      "inputs": [
        {
          "internalType": "uint256",
          "name": "_assets",
          "type": "uint256"
        },
        {
          "internalType": "address",
          "name": "_receiver",
          "type": "address"
        }
      ],
      "name": "createWithdrawOrder",
      "outputs": [],
      "stateMutability": "nonpayable",
      "type": "function"
    },
    {
      "inputs": [
        {
          "internalType": "address",
          "name": "_depositor",
          "type": "address"
        }
      ],
      "name": "depositorExists",
      "outputs": [
        {
          "internalType": "bool",
          "name": "",
          "type": "bool"
        }
      ],
      "stateMutability": "view",
      "type": "function"
    },
    {
      "inputs": [
        {
          "internalType": "uint256",
          "name": "",
          "type": "uint256"
        }
      ],
      "name": "depositors",
      "outputs": [
        {
          "internalType": "address",
          "name": "",
          "type": "address"
        }
      ],
      "stateMutability": "view",
      "type": "function"
    },
    {
      "inputs": [],
      "name": "depositorsLength",
      "outputs": [
        {
          "internalType": "uint256",
          "name": "",
          "type": "uint256"
        }
      ],
      "stateMutability": "view",
      "type": "function"
    },
    {
      "inputs": [
        {
          "internalType": "address",
          "name": "_account",
          "type": "address"
        }
      ],
      "name": "getAvailableAssets",
      "outputs": [
        {
          "internalType": "uint256",
          "name": "",
          "type": "uint256"
        }
      ],
      "stateMutability": "view",
      "type": "function"
    },
    {
      "inputs": [
        {
          "internalType": "bool",
          "name": "_isWithdrawOrder",
          "type": "bool"
        }
      ],
      "name": "getAvailableTimestamp",
      "outputs": [
        {
          "internalType": "uint256",
          "name": "",
          "type": "uint256"
        }
      ],
      "stateMutability": "view",
      "type": "function"
    },
    {
      "inputs": [
        {
          "internalType": "address",
          "name": "_depositor",
          "type": "address"
        }
      ],
      "name": "getDepositorShares",
      "outputs": [
        {
          "internalType": "uint256",
          "name": "",
          "type": "uint256"
        }
      ],
      "stateMutability": "view",
      "type": "function"
    },
    {
      "inputs": [],
      "name": "getDepositorsLength",
      "outputs": [
        {
          "internalType": "uint256",
          "name": "",
          "type": "uint256"
        }
      ],
      "stateMutability": "view",
      "type": "function"
    },
    {
      "inputs": [
        {
          "internalType": "address",
          "name": "_account",
          "type": "address"
        }
      ],
      "name": "getPendingOrderAssets",
      "outputs": [
        {
          "internalType": "uint256",
          "name": "",
          "type": "uint256"
        }
      ],
      "stateMutability": "view",
      "type": "function"
    },
    {
      "inputs": [
        {
          "internalType": "bytes32",
          "name": "role",
          "type": "bytes32"
        }
      ],
      "name": "getRoleAdmin",
      "outputs": [
        {
          "internalType": "bytes32",
          "name": "",
          "type": "bytes32"
        }
      ],
      "stateMutability": "view",
      "type": "function"
    },
    {
      "inputs": [
        {
          "internalType": "address",
          "name": "_depositor",
          "type": "address"
        }
      ],
      "name": "getTotalAssetsFromDepositor",
      "outputs": [
        {
          "internalType": "uint256",
          "name": "",
          "type": "uint256"
        }
      ],
      "stateMutability": "view",
      "type": "function"
    },
    {
      "inputs": [],
      "name": "getTotalAssetsFromDepositors",
      "outputs": [
        {
          "internalType": "uint256",
          "name": "",
          "type": "uint256"
        }
      ],
      "stateMutability": "view",
      "type": "function"
    },
    {
      "inputs": [],
      "name": "getTotalPendingOrders",
      "outputs": [
        {
          "internalType": "uint256",
          "name": "",
          "type": "uint256"
        }
      ],
      "stateMutability": "view",
      "type": "function"
    },
    {
      "inputs": [],
      "name": "getTotalWithdrawOrders",
      "outputs": [
        {
          "internalType": "uint256",
          "name": "",
          "type": "uint256"
        }
      ],
      "stateMutability": "view",
      "type": "function"
    },
    {
      "inputs": [
        {
          "internalType": "address",
          "name": "_account",
          "type": "address"
        }
      ],
      "name": "getWithdrawOrderAssets",
      "outputs": [
        {
          "internalType": "uint256",
          "name": "",
          "type": "uint256"
        }
      ],
      "stateMutability": "view",
      "type": "function"
    },
    {
      "inputs": [
        {
          "internalType": "bytes32",
          "name": "role",
          "type": "bytes32"
        },
        {
          "internalType": "address",
          "name": "account",
          "type": "address"
        }
      ],
      "name": "grantRole",
      "outputs": [],
      "stateMutability": "nonpayable",
      "type": "function"
    },
    {
      "inputs": [
        {
          "internalType": "bytes32",
          "name": "role",
          "type": "bytes32"
        },
        {
          "internalType": "address",
          "name": "account",
          "type": "address"
        }
      ],
      "name": "hasRole",
      "outputs": [
        {
          "internalType": "bool",
          "name": "",
          "type": "bool"
        }
      ],
      "stateMutability": "view",
      "type": "function"
    },
    {
      "inputs": [
        {
          "internalType": "address",
          "name": "_depositor",
          "type": "address"
        }
      ],
      "name": "insertDepositor",
      "outputs": [],
      "stateMutability": "nonpayable",
      "type": "function"
    },
    {
      "inputs": [],
      "name": "nextCleanOrderQueue",
      "outputs": [
        {
          "internalType": "uint256",
          "name": "",
          "type": "uint256"
        }
      ],
      "stateMutability": "view",
      "type": "function"
    },
    {
      "inputs": [],
      "name": "nextDepositor",
      "outputs": [
        {
          "internalType": "address",
          "name": "",
          "type": "address"
        }
      ],
      "stateMutability": "view",
      "type": "function"
    },
    {
      "inputs": [
        {
          "internalType": "bytes32",
          "name": "role",
          "type": "bytes32"
        },
        {
          "internalType": "address",
          "name": "account",
          "type": "address"
        }
      ],
      "name": "renounceRole",
      "outputs": [],
      "stateMutability": "nonpayable",
      "type": "function"
    },
    {
      "inputs": [
        {
          "internalType": "bytes32",
          "name": "role",
          "type": "bytes32"
        },
        {
          "internalType": "address",
          "name": "account",
          "type": "address"
        }
      ],
      "name": "revokeRole",
      "outputs": [],
      "stateMutability": "nonpayable",
      "type": "function"
    },
    {
      "inputs": [],
      "name": "setNextDepositor",
      "outputs": [],
      "stateMutability": "nonpayable",
      "type": "function"
    },
    {
      "inputs": [],
      "name": "stAurVault",
      "outputs": [
        {
          "internalType": "address",
          "name": "",
          "type": "address"
        }
      ],
      "stateMutability": "view",
      "type": "function"
    },
    {
      "inputs": [
        {
          "internalType": "bool",
          "name": "_isProcessStopped",
          "type": "bool"
        }
      ],
      "name": "stopProcessingWithdrawOrders",
      "outputs": [],
      "stateMutability": "nonpayable",
      "type": "function"
    },
    {
      "inputs": [],
      "name": "stopWithdrawOrders",
      "outputs": [
        {
          "internalType": "bool",
          "name": "",
          "type": "bool"
        }
      ],
      "stateMutability": "view",
      "type": "function"
    },
    {
      "inputs": [
        {
          "internalType": "bytes4",
          "name": "interfaceId",
          "type": "bytes4"
        }
      ],
      "name": "supportsInterface",
      "outputs": [
        {
          "internalType": "bool",
          "name": "",
          "type": "bool"
        }
      ],
      "stateMutability": "view",
      "type": "function"
    },
    {
      "inputs": [],
      "name": "totalAssets",
      "outputs": [
        {
          "internalType": "uint256",
          "name": "",
          "type": "uint256"
        }
      ],
      "stateMutability": "view",
      "type": "function"
    },
    {
      "inputs": [],
      "name": "totalWithdrawInQueue",
      "outputs": [
        {
          "internalType": "uint256",
          "name": "",
          "type": "uint256"
        }
      ],
      "stateMutability": "view",
      "type": "function"
    },
    {
      "inputs": [
        {
          "internalType": "address",
          "name": "_receiver",
          "type": "address"
        },
        {
          "internalType": "address",
          "name": "_owner",
          "type": "address"
        },
        {
          "internalType": "uint256",
          "name": "_assets",
          "type": "uint256"
        }
      ],
      "name": "transferAurora",
      "outputs": [],
      "stateMutability": "nonpayable",
      "type": "function"
    },
    {
      "stateMutability": "payable",
      "type": "receive"
    }
  ],
  "bytecode": "0x60e06040523480156200001157600080fd5b5060405162004884380380620048848339818101604052810190620000379190620004cc565b600073ffffffffffffffffffffffffffffffffffffffff168573ffffffffffffffffffffffffffffffffffffffff1614158015620000a25750600073ffffffffffffffffffffffffffffffffffffffff168473ffffffffffffffffffffffffffffffffffffffff1614155b8015620000dc5750600073ffffffffffffffffffffffffffffffffffffffff168373ffffffffffffffffffffffffffffffffffffffff1614155b6200011e576040517f08c379a00000000000000000000000000000000000000000000000000000000081526004016200011590620005b5565b60405180910390fd5b8473ffffffffffffffffffffffffffffffffffffffff1660808173ffffffffffffffffffffffffffffffffffffffff16815250508373ffffffffffffffffffffffffffffffffffffffff1660c08173ffffffffffffffffffffffffffffffffffffffff16815250508473ffffffffffffffffffffffffffffffffffffffff166338d52e0f6040518163ffffffff1660e01b8152600401602060405180830381865afa158015620001d2573d6000803e3d6000fd5b505050506040513d601f19601f82011682018060405250810190620001f89190620005d7565b73ffffffffffffffffffffffffffffffffffffffff1660a08173ffffffffffffffffffffffffffffffffffffffff168152505081600c8190555080600d8190555042600281905550620002727fa49807205ce4d355092ef5a8a18f56e8913cf4a201fbe287825b095693c2177533620002c460201b60201c565b620002876000801b33620002c460201b60201c565b620002b97f97667070c54ef182b0f5858b034beac1b6f3089aa2d3188bb1e8929f4fa9b92984620002c460201b60201c565b505050505062000609565b620002d68282620003b560201b60201c565b620003b157600160008084815260200190815260200160002060000160008373ffffffffffffffffffffffffffffffffffffffff1673ffffffffffffffffffffffffffffffffffffffff16815260200190815260200160002060006101000a81548160ff021916908315150217905550620003566200041f60201b60201c565b73ffffffffffffffffffffffffffffffffffffffff168173ffffffffffffffffffffffffffffffffffffffff16837f2f8788117e7eff1d82e926ec794901d17c78024a50270940304540a733656f0d60405160405180910390a45b5050565b600080600084815260200190815260200160002060000160008373ffffffffffffffffffffffffffffffffffffffff1673ffffffffffffffffffffffffffffffffffffffff16815260200190815260200160002060009054906101000a900460ff16905092915050565b600033905090565b600080fd5b600073ffffffffffffffffffffffffffffffffffffffff82169050919050565b600062000459826200042c565b9050919050565b6200046b816200044c565b81146200047757600080fd5b50565b6000815190506200048b8162000460565b92915050565b6000819050919050565b620004a68162000491565b8114620004b257600080fd5b50565b600081519050620004c6816200049b565b92915050565b600080600080600060a08688031215620004eb57620004ea62000427565b5b6000620004fb888289016200047a565b95505060206200050e888289016200047a565b945050604062000521888289016200047a565b93505060606200053488828901620004b5565b92505060806200054788828901620004b5565b9150509295509295909350565b600082825260208201905092915050565b7f494e56414c49445f5a45524f5f41444452455353000000000000000000000000600082015250565b60006200059d60148362000554565b9150620005aa8262000565565b602082019050919050565b60006020820190508181036000830152620005d0816200058e565b9050919050565b600060208284031215620005f057620005ef62000427565b5b600062000600848285016200047a565b91505092915050565b60805160a05160c0516142136200067160003960008181610cc601528181611bde01528181611ef901526126cc015260008181610d8801526128a8015260008181610c8f01528181610dff015281816116600152818161182c0152611a3d01526142136000f3fe60806040526004361061023f5760003560e01c806375b238fc1161012e578063c02d3f22116100ab578063e2f32def1161006f578063e2f32def14610894578063e4b2fb79146108bd578063e979157b146108fa578063f5b541a614610937578063f7ae5c761461096257610246565b8063c02d3f221461079f578063c536e16a146107c8578063cac2589714610805578063d2239e0414610842578063d547741f1461086b57610246565b8063a217fddf116100f2578063a217fddf146106bc578063a3c18c9b146106e7578063a512e06a14610710578063a6c528821461074d578063b7f30a511461077657610246565b806375b238fc146105d55780637f8523b114610600578063825dc073146106175780638b2741b21461064257806391d148541461067f57610246565b806340c19663116101bc5780634b9b1e24116101805780634b9b1e24146105005780635578fdb21461052b57806360cd09021461055657806369d9446a1461059357806374b573f2146105be57610246565b806340c196631461042b57806343266c821461045657806346e90fa614610481578063481e730e146104ac5780634aa853fc146104d757610246565b8063248a9ca311610203578063248a9ca3146103465780632f2ff15d146103835780632fea20f6146103ac57806336568abe146103d7578063367c98b81461040057610246565b806301e1d1141461024b57806301ffc9a714610276578063048b7c15146102b357806308ee04f0146102f05780630ef7fb671461031b57610246565b3661024657005b600080fd5b34801561025757600080fd5b5061026061098d565b60405161026d919061306c565b60405180910390f35b34801561028257600080fd5b5061029d600480360381019061029891906130e4565b6109a9565b6040516102aa919061312c565b60405180910390f35b3480156102bf57600080fd5b506102da60048036038101906102d591906131a5565b610a23565b6040516102e7919061312c565b60405180910390f35b3480156102fc57600080fd5b50610305610ad6565b604051610312919061306c565b60405180910390f35b34801561032757600080fd5b50610330610bb7565b60405161033d919061306c565b60405180910390f35b34801561035257600080fd5b5061036d60048036038101906103689190613208565b610bbd565b60405161037a9190613244565b60405180910390f35b34801561038f57600080fd5b506103aa60048036038101906103a5919061325f565b610bdc565b005b3480156103b857600080fd5b506103c1610bfd565b6040516103ce919061306c565b60405180910390f35b3480156103e357600080fd5b506103fe60048036038101906103f9919061325f565b610c0a565b005b34801561040c57600080fd5b50610415610c8d565b60405161042291906132ae565b60405180910390f35b34801561043757600080fd5b50610440610cb1565b60405161044d919061306c565b60405180910390f35b34801561046257600080fd5b5061046b610cb7565b604051610478919061306c565b60405180910390f35b34801561048d57600080fd5b50610496610cc4565b6040516104a391906132ae565b60405180910390f35b3480156104b857600080fd5b506104c1610ce8565b6040516104ce919061306c565b60405180910390f35b3480156104e357600080fd5b506104fe60048036038101906104f991906132f5565b610cf2565b005b34801561050c57600080fd5b50610515610d73565b604051610522919061312c565b60405180910390f35b34801561053757600080fd5b50610540610d86565b60405161054d91906132ae565b60405180910390f35b34801561056257600080fd5b5061057d600480360381019061057891906131a5565b610daa565b60405161058a919061306c565b60405180910390f35b34801561059f57600080fd5b506105a8610df3565b6040516105b5919061306c565b60405180910390f35b3480156105ca57600080fd5b506105d3610dfd565b005b3480156105e157600080fd5b506105ea611070565b6040516105f79190613244565b60405180910390f35b34801561060c57600080fd5b50610615611094565b005b34801561062357600080fd5b5061062c6111b0565b60405161063991906132ae565b60405180910390f35b34801561064e57600080fd5b50610669600480360381019061066491906131a5565b6111d6565b604051610676919061306c565b60405180910390f35b34801561068b57600080fd5b506106a660048036038101906106a1919061325f565b61123f565b6040516106b3919061312c565b60405180910390f35b3480156106c857600080fd5b506106d16112a9565b6040516106de9190613244565b60405180910390f35b3480156106f357600080fd5b5061070e6004803603810190610709919061334e565b6112b0565b005b34801561071c57600080fd5b50610737600480360381019061073291906131a5565b6113ac565b604051610744919061306c565b60405180910390f35b34801561075957600080fd5b50610774600480360381019061076f919061334e565b6113f5565b005b34801561078257600080fd5b5061079d600480360381019061079891906131a5565b6114f1565b005b3480156107ab57600080fd5b506107c660048036038101906107c1919061337b565b611647565b005b3480156107d457600080fd5b506107ef60048036038101906107ea91906132f5565b6117ce565b6040516107fc919061306c565b60405180910390f35b34801561081157600080fd5b5061082c600480360381019061082791906131a5565b6117fd565b604051610839919061306c565b60405180910390f35b34801561084e57600080fd5b506108696004803603810190610864919061337b565b61182a565b005b34801561087757600080fd5b50610892600480360381019061088d919061325f565b611a1a565b005b3480156108a057600080fd5b506108bb60048036038101906108b691906133bb565b611a3b565b005b3480156108c957600080fd5b506108e460048036038101906108df919061334e565b611ad9565b6040516108f191906132ae565b60405180910390f35b34801561090657600080fd5b50610921600480360381019061091c91906131a5565b611b18565b60405161092e919061306c565b60405180910390f35b34801561094357600080fd5b5061094c611b45565b6040516109599190613244565b60405180910390f35b34801561096e57600080fd5b50610977611b69565b604051610984919061306c565b60405180910390f35b600060085461099a610ad6565b6109a4919061343d565b905090565b60007f7965db0b000000000000000000000000000000000000000000000000000000007bffffffffffffffffffffffffffffffffffffffffffffffffffffffff1916827bffffffffffffffffffffffffffffffffffffffffffffffffffffffff19161480610a1c5750610a1b82611b6f565b5b9050919050565b600080610a2e610bfd565b905060005b81811015610aca578373ffffffffffffffffffffffffffffffffffffffff1660038281548110610a6657610a65613471565b5b9060005260206000200160009054906101000a900473ffffffffffffffffffffffffffffffffffffffff1673ffffffffffffffffffffffffffffffffffffffff1603610ab757600192505050610ad1565b8080610ac2906134a0565b915050610a33565b5060009150505b919050565b600080600090506000610ae7610bfd565b905060005b81811015610b92576005600060038381548110610b0c57610b0b613471565b5b9060005260206000200160009054906101000a900473ffffffffffffffffffffffffffffffffffffffff1673ffffffffffffffffffffffffffffffffffffffff1673ffffffffffffffffffffffffffffffffffffffff1681526020019081526020016000205483610b7d91906134e8565b92508080610b8a906134a0565b915050610aec565b5060008203610ba657600092505050610bb4565b610baf82611bd9565b925050505b90565b610e1081565b6000806000838152602001908152602001600020600101549050919050565b610be582610bbd565b610bee81611d1a565b610bf88383611d2e565b505050565b6000600380549050905090565b610c12611e0e565b73ffffffffffffffffffffffffffffffffffffffff168173ffffffffffffffffffffffffffffffffffffffff1614610c7f576040517f08c379a0000000000000000000000000000000000000000000000000000000008152600401610c769061359f565b60405180910390fd5b610c898282611e16565b5050565b7f000000000000000000000000000000000000000000000000000000000000000081565b60085481565b6000600380549050905090565b7f000000000000000000000000000000000000000000000000000000000000000081565b6000600754905090565b7fa49807205ce4d355092ef5a8a18f56e8913cf4a201fbe287825b095693c21775610d1c81611d1a565b81600160006101000a81548160ff0219169083151502179055507f984d14093d32e1a05b1830f8ab780226363c9dd53cf80eee84135ce66eb845f58233604051610d679291906135bf565b60405180910390a15050565b600160009054906101000a900460ff1681565b7f000000000000000000000000000000000000000000000000000000000000000081565b6000600b60008373ffffffffffffffffffffffffffffffffffffffff1673ffffffffffffffffffffffffffffffffffffffff168152602001908152602001600020549050919050565b6000600a54905090565b7f000000000000000000000000000000000000000000000000000000000000000073ffffffffffffffffffffffffffffffffffffffff163373ffffffffffffffffffffffffffffffffffffffff1614610e8b576040517f08c379a0000000000000000000000000000000000000000000000000000000008152600401610e8290613634565b60405180910390fd5b610eb6600460009054906101000a900473ffffffffffffffffffffffffffffffffffffffff16611ef7565b60006003600081548110610ecd57610ecc613471565b5b9060005260206000200160009054906101000a900473ffffffffffffffffffffffffffffffffffffffff1690506000610f04610bfd565b905060005b8181101561102a57600560008473ffffffffffffffffffffffffffffffffffffffff1673ffffffffffffffffffffffffffffffffffffffff168152602001908152602001600020546005600060038481548110610f6957610f68613471565b5b9060005260206000200160009054906101000a900473ffffffffffffffffffffffffffffffffffffffff1673ffffffffffffffffffffffffffffffffffffffff1673ffffffffffffffffffffffffffffffffffffffff1681526020019081526020016000205410156110175760038181548110610fe957610fe8613471565b5b9060005260206000200160009054906101000a900473ffffffffffffffffffffffffffffffffffffffff1692505b8080611022906134a0565b915050610f09565b5081600460006101000a81548173ffffffffffffffffffffffffffffffffffffffff021916908373ffffffffffffffffffffffffffffffffffffffff1602179055505050565b7fa49807205ce4d355092ef5a8a18f56e8913cf4a201fbe287825b095693c2177581565b600061109e610bfd565b116110de576040517f08c379a00000000000000000000000000000000000000000000000000000000081526004016110d5906136a0565b60405180910390fd5b426002541115611123576040517f08c379a000000000000000000000000000000000000000000000000000000000815260040161111a9061370c565b60405180910390fd5b61112b611fd7565b611133612132565b600160009054906101000a900460ff166111585761114f6122e0565b6111576124b8565b5b60006111626126c7565b4261116d91906134e8565b9050806002819055507fbcd58ee065940437e252f0433bf600c5b27a876c27decbe32d9e559238cf0a92816040516111a5919061306c565b60405180910390a150565b600460009054906101000a900473ffffffffffffffffffffffffffffffffffffffff1681565b600080600560008473ffffffffffffffffffffffffffffffffffffffff1673ffffffffffffffffffffffffffffffffffffffff1681526020019081526020016000205490506000810361122d57600091505061123a565b61123681611bd9565b9150505b919050565b600080600084815260200190815260200160002060000160008373ffffffffffffffffffffffffffffffffffffffff1673ffffffffffffffffffffffffffffffffffffffff16815260200190815260200160002060009054906101000a900460ff16905092915050565b6000801b81565b7f97667070c54ef182b0f5858b034beac1b6f3089aa2d3188bb1e8929f4fa9b9296112da81611d1a565b600d54820361131e576040517f08c379a000000000000000000000000000000000000000000000000000000000815260040161131590613778565b60405180910390fd5b611326610bfd565b821015611368576040517f08c379a000000000000000000000000000000000000000000000000000000000815260040161135f906137e4565b60405180910390fd5b81600d819055507f8cc9924fc5f90ac32f1d9e69593ae169088e2f8129fdff7c1ffafeebab17d87e82336040516113a0929190613804565b60405180910390a15050565b6000600560008373ffffffffffffffffffffffffffffffffffffffff1673ffffffffffffffffffffffffffffffffffffffff168152602001908152602001600020549050919050565b7f97667070c54ef182b0f5858b034beac1b6f3089aa2d3188bb1e8929f4fa9b92961141f81611d1a565b600c548203611463576040517f08c379a000000000000000000000000000000000000000000000000000000000815260040161145a90613778565b60405180910390fd5b61146b610ce8565b8210156114ad576040517f08c379a00000000000000000000000000000000000000000000000000000000081526004016114a4906137e4565b60405180910390fd5b81600c819055507f97e43b23016a0fa22fe411135d94e6667f69308bc545a0935087ce7cf645783b82336040516114e5929190613804565b60405180910390a15050565b7f97667070c54ef182b0f5858b034beac1b6f3089aa2d3188bb1e8929f4fa9b92961151b81611d1a565b600d54611526610bfd565b10611566576040517f08c379a000000000000000000000000000000000000000000000000000000000815260040161155d90613879565b60405180910390fd5b6003829080600181540180825580915050600190039060005260206000200160009091909190916101000a81548173ffffffffffffffffffffffffffffffffffffffff021916908373ffffffffffffffffffffffffffffffffffffffff16021790555081600460006101000a81548173ffffffffffffffffffffffffffffffffffffffff021916908373ffffffffffffffffffffffffffffffffffffffff1602179055507fb0c8d3ffe0e68b1135aeb0f0f57e57f41616354b7afa966b5718dc4ca429ffd0823360405161163b929190613899565b60405180910390a15050565b3073ffffffffffffffffffffffffffffffffffffffff167f000000000000000000000000000000000000000000000000000000000000000073ffffffffffffffffffffffffffffffffffffffff166322828cc26040518163ffffffff1660e01b8152600401602060405180830381865afa1580156116c9573d6000803e3d6000fd5b505050506040513d601f19601f820116820180604052508101906116ed91906138d7565b73ffffffffffffffffffffffffffffffffffffffff1603611743576040517f08c379a000000000000000000000000000000000000000000000000000000000815260040161173a90613950565b60405180910390fd5b61174e813384612786565b3373ffffffffffffffffffffffffffffffffffffffff168173ffffffffffffffffffffffffffffffffffffffff163373ffffffffffffffffffffffffffffffffffffffff167f2c5df8c7ab98e30b283cdf51aba7043b460d144a940c6557458a00870b58fe2e856040516117c2919061306c565b60405180910390a45050565b600081156117f2576117de6126c7565b6002546117eb91906134e8565b90506117f8565b60025490505b919050565b600080611809836128f1565b90506006600082815260200190815260200160002060000154915050919050565b7f000000000000000000000000000000000000000000000000000000000000000073ffffffffffffffffffffffffffffffffffffffff163373ffffffffffffffffffffffffffffffffffffffff16146118b8576040517f08c379a00000000000000000000000000000000000000000000000000000000081526004016118af90613634565b60405180910390fd5b81600860008282546118ca91906134e8565b9250508190555060006118dc826128f1565b905060006118e8610ce8565b9050600082036119e657600c548110611936576040517f08c379a000000000000000000000000000000000000000000000000000000000815260040161192d906139bc565b60405180910390fd5b600060018261194591906134e8565b90508060078190555060405180604001604052808681526020018573ffffffffffffffffffffffffffffffffffffffff16815250600660008381526020019081526020016000206000820151816000015560208201518160010160006101000a81548173ffffffffffffffffffffffffffffffffffffffff021916908373ffffffffffffffffffffffffffffffffffffffff16021790555090505050611a14565b83600660008481526020019081526020016000206000016000828254611a0c91906134e8565b925050819055505b50505050565b611a2382610bbd565b611a2c81611d1a565b611a368383611e16565b505050565b7f000000000000000000000000000000000000000000000000000000000000000073ffffffffffffffffffffffffffffffffffffffff163373ffffffffffffffffffffffffffffffffffffffff1614611ac9576040517f08c379a0000000000000000000000000000000000000000000000000000000008152600401611ac090613634565b60405180910390fd5b611ad4838383612786565b505050565b60038181548110611ae957600080fd5b906000526020600020016000915054906101000a900473ffffffffffffffffffffffffffffffffffffffff1681565b600080611b248361299e565b90506009600082815260200190815260200160002060000154915050919050565b7f97667070c54ef182b0f5858b034beac1b6f3089aa2d3188bb1e8929f4fa9b92981565b60025481565b60007f01ffc9a7000000000000000000000000000000000000000000000000000000007bffffffffffffffffffffffffffffffffffffffffffffffffffffffff1916827bffffffffffffffffffffffffffffffffffffffffffffffffffffffff1916149050919050565b6000807f0000000000000000000000000000000000000000000000000000000000000000905060008173ffffffffffffffffffffffffffffffffffffffff1663bb07ec1b6040518163ffffffff1660e01b8152600401602060405180830381865afa158015611c4c573d6000803e3d6000fd5b505050506040513d601f19601f82011682018060405250810190611c7091906139f1565b905060008103611c8557600092505050611d15565b60008273ffffffffffffffffffffffffffffffffffffffff1663cd5ba5906040518163ffffffff1660e01b8152600401602060405180830381865afa158015611cd2573d6000803e3d6000fd5b505050506040513d601f19601f82011682018060405250810190611cf691906139f1565b85611d019190613a1e565b90508181611d0f9190613a8f565b93505050505b919050565b611d2b81611d26611e0e565b612a4b565b50565b611d38828261123f565b611e0a57600160008084815260200190815260200160002060000160008373ffffffffffffffffffffffffffffffffffffffff1673ffffffffffffffffffffffffffffffffffffffff16815260200190815260200160002060006101000a81548160ff021916908315150217905550611daf611e0e565b73ffffffffffffffffffffffffffffffffffffffff168173ffffffffffffffffffffffffffffffffffffffff16837f2f8788117e7eff1d82e926ec794901d17c78024a50270940304540a733656f0d60405160405180910390a45b5050565b600033905090565b611e20828261123f565b15611ef357600080600084815260200190815260200160002060000160008373ffffffffffffffffffffffffffffffffffffffff1673ffffffffffffffffffffffffffffffffffffffff16815260200190815260200160002060006101000a81548160ff021916908315150217905550611e98611e0e565b73ffffffffffffffffffffffffffffffffffffffff168173ffffffffffffffffffffffffffffffffffffffff16837ff6391f5c32d9c69d2a47ea670b442974b53935d1edc7fd64eb21e047a839171b60405160405180910390a45b5050565b7f000000000000000000000000000000000000000000000000000000000000000073ffffffffffffffffffffffffffffffffffffffff1663ba0cb22b826040518263ffffffff1660e01b8152600401611f5091906132ae565b602060405180830381865afa158015611f6d573d6000803e3d6000fd5b505050506040513d601f19601f82011682018060405250810190611f9191906139f1565b600560008373ffffffffffffffffffffffffffffffffffffffff1673ffffffffffffffffffffffffffffffffffffffff1681526020019081526020016000208190555050565b6000611fe1610bfd565b905060005b8181101561212e5760006003828154811061200457612003613471565b5b9060005260206000200160009054906101000a900473ffffffffffffffffffffffffffffffffffffffff16905060008173ffffffffffffffffffffffffffffffffffffffff166381739a6e6040518163ffffffff1660e01b8152600401602060405180830381865afa15801561207e573d6000803e3d6000fd5b505050506040513d601f19601f820116820180604052508101906120a291906139f1565b90506000811115612119578173ffffffffffffffffffffffffffffffffffffffff16632e1a7d4d826040518263ffffffff1660e01b81526004016120e6919061306c565b600060405180830381600087803b15801561210057600080fd5b505af1158015612114573d6000803e3d6000fd5b505050505b50508080612126906134a0565b915050611fe6565b5050565b600061213c610df3565b90506000600190505b8181116122d457600060096000838152602001908152602001600020604051806040016040529081600082015481526020016001820160009054906101000a900473ffffffffffffffffffffffffffffffffffffffff1673ffffffffffffffffffffffffffffffffffffffff1673ffffffffffffffffffffffffffffffffffffffff16815250509050604051806040016040528060008152602001600073ffffffffffffffffffffffffffffffffffffffff16815250600960008481526020019081526020016000206000820151816000015560208201518160010160006101000a81548173ffffffffffffffffffffffffffffffffffffffff021916908373ffffffffffffffffffffffffffffffffffffffff1602179055509050508060000151600b6000836020015173ffffffffffffffffffffffffffffffffffffffff1673ffffffffffffffffffffffffffffffffffffffff16815260200190815260200160002060008282546122b991906134e8565b925050819055505080806122cc906134a0565b915050612145565b506000600a8190555050565b6000806122eb610bfd565b905060006008549050600060085411156124b25760008290505b60008111156124b0576000600360018361231f919061343d565b815481106123305761232f613471565b5b9060005260206000200160009054906101000a900473ffffffffffffffffffffffffffffffffffffffff1690506000612368826111d6565b90506000810361237957505061249d565b60008685612387919061343d565b905080821061240e578273ffffffffffffffffffffffffffffffffffffffff16632e17de78826040518263ffffffff1660e01b81526004016123c9919061306c565b600060405180830381600087803b1580156123e357600080fd5b505af11580156123f7573d6000803e3d6000fd5b50505050808761240791906134e8565b965061247d565b8273ffffffffffffffffffffffffffffffffffffffff166335322f376040518163ffffffff1660e01b8152600401600060405180830381600087803b15801561245657600080fd5b505af115801561246a573d6000803e3d6000fd5b50505050818761247a91906134e8565b96505b61248683611ef7565b84870361249957505050505050506124b6565b5050505b80806124a890613ac0565b915050612305565b505b5050505b565b60006124c2610ce8565b90506000600190505b8181116126ac57600060066000838152602001908152602001600020604051806040016040529081600082015481526020016001820160009054906101000a900473ffffffffffffffffffffffffffffffffffffffff1673ffffffffffffffffffffffffffffffffffffffff1673ffffffffffffffffffffffffffffffffffffffff16815250509050600081600001519050600081111561269757600082602001519050604051806040016040528060008152602001600073ffffffffffffffffffffffffffffffffffffffff16815250600660008681526020019081526020016000206000820151816000015560208201518160010160006101000a81548173ffffffffffffffffffffffffffffffffffffffff021916908373ffffffffffffffffffffffffffffffffffffffff16021790555090505060405180604001604052808381526020018273ffffffffffffffffffffffffffffffffffffffff16815250600960008681526020019081526020016000206000820151816000015560208201518160010160006101000a81548173ffffffffffffffffffffffffffffffffffffffff021916908373ffffffffffffffffffffffffffffffffffffffff160217905550905050505b505080806126a4906134a0565b9150506124cb565b5080600a819055506000600781905550600060088190555050565b6000807f000000000000000000000000000000000000000000000000000000000000000073ffffffffffffffffffffffffffffffffffffffff1663894e9a0d60006040518263ffffffff1660e01b81526004016127249190613b2e565b61016060405180830381865afa158015612742573d6000803e3d6000fd5b505050506040513d601f19601f820116820180604052508101906127669190613b6e565b509950505050505050505050610e108161278091906134e8565b91505090565b600081116127c9576040517f08c379a00000000000000000000000000000000000000000000000000000000081526004016127c090613cae565b60405180910390fd5b80600b60008473ffffffffffffffffffffffffffffffffffffffff1673ffffffffffffffffffffffffffffffffffffffff16815260200190815260200160002054101561284b576040517f08c379a000000000000000000000000000000000000000000000000000000000815260040161284290613d1a565b60405180910390fd5b80600b60008473ffffffffffffffffffffffffffffffffffffffff1673ffffffffffffffffffffffffffffffffffffffff168152602001908152602001600020600082825461289a919061343d565b925050819055506128ec83827f000000000000000000000000000000000000000000000000000000000000000073ffffffffffffffffffffffffffffffffffffffff16612ad09092919063ffffffff16565b505050565b6000806128fc610ce8565b90506000600190505b818111612992578373ffffffffffffffffffffffffffffffffffffffff166006600083815260200190815260200160002060010160009054906101000a900473ffffffffffffffffffffffffffffffffffffffff1673ffffffffffffffffffffffffffffffffffffffff160361297f578092505050612999565b808061298a906134a0565b915050612905565b5060009150505b919050565b6000806129a9610df3565b90506000600190505b818111612a3f578373ffffffffffffffffffffffffffffffffffffffff166009600083815260200190815260200160002060010160009054906101000a900473ffffffffffffffffffffffffffffffffffffffff1673ffffffffffffffffffffffffffffffffffffffff1603612a2c578092505050612a46565b8080612a37906134a0565b9150506129b2565b5060009150505b919050565b612a55828261123f565b612acc57612a6281612b56565b612a708360001c6020612b83565b604051602001612a81929190613e43565b6040516020818303038152906040526040517f08c379a0000000000000000000000000000000000000000000000000000000008152600401612ac39190613ec7565b60405180910390fd5b5050565b612b518363a9059cbb60e01b8484604051602401612aef929190613ee9565b604051602081830303815290604052907bffffffffffffffffffffffffffffffffffffffffffffffffffffffff19166020820180517bffffffffffffffffffffffffffffffffffffffffffffffffffffffff8381831617835250505050612dbf565b505050565b6060612b7c8273ffffffffffffffffffffffffffffffffffffffff16601460ff16612b83565b9050919050565b606060006002836002612b969190613a1e565b612ba091906134e8565b67ffffffffffffffff811115612bb957612bb8613f12565b5b6040519080825280601f01601f191660200182016040528015612beb5781602001600182028036833780820191505090505b5090507f300000000000000000000000000000000000000000000000000000000000000081600081518110612c2357612c22613471565b5b60200101907effffffffffffffffffffffffffffffffffffffffffffffffffffffffffffff1916908160001a9053507f780000000000000000000000000000000000000000000000000000000000000081600181518110612c8757612c86613471565b5b60200101907effffffffffffffffffffffffffffffffffffffffffffffffffffffffffffff1916908160001a90535060006001846002612cc79190613a1e565b612cd191906134e8565b90505b6001811115612d71577f3031323334353637383961626364656600000000000000000000000000000000600f861660108110612d1357612d12613471565b5b1a60f81b828281518110612d2a57612d29613471565b5b60200101907effffffffffffffffffffffffffffffffffffffffffffffffffffffffffffff1916908160001a905350600485901c945080612d6a90613ac0565b9050612cd4565b5060008414612db5576040517f08c379a0000000000000000000000000000000000000000000000000000000008152600401612dac90613f8d565b60405180910390fd5b8091505092915050565b6000612e21826040518060400160405280602081526020017f5361666545524332303a206c6f772d6c6576656c2063616c6c206661696c65648152508573ffffffffffffffffffffffffffffffffffffffff16612e869092919063ffffffff16565b9050600081511115612e815780806020019051810190612e419190613fc2565b612e80576040517f08c379a0000000000000000000000000000000000000000000000000000000008152600401612e7790614061565b60405180910390fd5b5b505050565b6060612e958484600085612e9e565b90509392505050565b606082471015612ee3576040517f08c379a0000000000000000000000000000000000000000000000000000000008152600401612eda906140f3565b60405180910390fd5b6000808673ffffffffffffffffffffffffffffffffffffffff168587604051612f0c919061415a565b60006040518083038185875af1925050503d8060008114612f49576040519150601f19603f3d011682016040523d82523d6000602084013e612f4e565b606091505b5091509150612f5f87838387612f6b565b92505050949350505050565b60608315612fcd576000835103612fc557612f8585612fe0565b612fc4576040517f08c379a0000000000000000000000000000000000000000000000000000000008152600401612fbb906141bd565b60405180910390fd5b5b829050612fd8565b612fd78383613003565b5b949350505050565b6000808273ffffffffffffffffffffffffffffffffffffffff163b119050919050565b6000825111156130165781518083602001fd5b806040517f08c379a000000000000000000000000000000000000000000000000000000000815260040161304a9190613ec7565b60405180910390fd5b6000819050919050565b61306681613053565b82525050565b6000602082019050613081600083018461305d565b92915050565b600080fd5b60007fffffffff0000000000000000000000000000000000000000000000000000000082169050919050565b6130c18161308c565b81146130cc57600080fd5b50565b6000813590506130de816130b8565b92915050565b6000602082840312156130fa576130f9613087565b5b6000613108848285016130cf565b91505092915050565b60008115159050919050565b61312681613111565b82525050565b6000602082019050613141600083018461311d565b92915050565b600073ffffffffffffffffffffffffffffffffffffffff82169050919050565b600061317282613147565b9050919050565b61318281613167565b811461318d57600080fd5b50565b60008135905061319f81613179565b92915050565b6000602082840312156131bb576131ba613087565b5b60006131c984828501613190565b91505092915050565b6000819050919050565b6131e5816131d2565b81146131f057600080fd5b50565b600081359050613202816131dc565b92915050565b60006020828403121561321e5761321d613087565b5b600061322c848285016131f3565b91505092915050565b61323e816131d2565b82525050565b60006020820190506132596000830184613235565b92915050565b6000806040838503121561327657613275613087565b5b6000613284858286016131f3565b925050602061329585828601613190565b9150509250929050565b6132a881613167565b82525050565b60006020820190506132c3600083018461329f565b92915050565b6132d281613111565b81146132dd57600080fd5b50565b6000813590506132ef816132c9565b92915050565b60006020828403121561330b5761330a613087565b5b6000613319848285016132e0565b91505092915050565b61332b81613053565b811461333657600080fd5b50565b60008135905061334881613322565b92915050565b60006020828403121561336457613363613087565b5b600061337284828501613339565b91505092915050565b6000806040838503121561339257613391613087565b5b60006133a085828601613339565b92505060206133b185828601613190565b9150509250929050565b6000806000606084860312156133d4576133d3613087565b5b60006133e286828701613190565b93505060206133f386828701613190565b925050604061340486828701613339565b9150509250925092565b7f4e487b7100000000000000000000000000000000000000000000000000000000600052601160045260246000fd5b600061344882613053565b915061345383613053565b925082820390508181111561346b5761346a61340e565b5b92915050565b7f4e487b7100000000000000000000000000000000000000000000000000000000600052603260045260246000fd5b60006134ab82613053565b91507fffffffffffffffffffffffffffffffffffffffffffffffffffffffffffffffff82036134dd576134dc61340e565b5b600182019050919050565b60006134f382613053565b91506134fe83613053565b92508282019050808211156135165761351561340e565b5b92915050565b600082825260208201905092915050565b7f416363657373436f6e74726f6c3a2063616e206f6e6c792072656e6f756e636560008201527f20726f6c657320666f722073656c660000000000000000000000000000000000602082015250565b6000613589602f8361351c565b91506135948261352d565b604082019050919050565b600060208201905081810360008301526135b88161357c565b9050919050565b60006040820190506135d4600083018561311d565b6135e1602083018461329f565b9392505050565b7f4f4e4c595f464f525f53544155525f5641554c54000000000000000000000000600082015250565b600061361e60148361351c565b9150613629826135e8565b602082019050919050565b6000602082019050818103600083015261364d81613611565b9050919050565b7f4352454154455f4445504f5349544f5200000000000000000000000000000000600082015250565b600061368a60108361351c565b915061369582613654565b602082019050919050565b600060208201905081810360008301526136b98161367d565b9050919050565b7f574149545f464f525f4e4558545f434c45414e5f4f5244455200000000000000600082015250565b60006136f660198361351c565b9150613701826136c0565b602082019050919050565b60006020820190508181036000830152613725816136e9565b9050919050565b7f494e56414c49445f4348414e4745000000000000000000000000000000000000600082015250565b6000613762600e8361351c565b915061376d8261372c565b602082019050919050565b6000602082019050818103600083015261379181613755565b9050919050565b7f42454c4f575f43555252454e545f4c454e475448000000000000000000000000600082015250565b60006137ce60148361351c565b91506137d982613798565b602082019050919050565b600060208201905081810360008301526137fd816137c1565b9050919050565b6000604082019050613819600083018561305d565b613826602083018461329f565b9392505050565b7f4445504f5349544f52535f4c494d49545f524541434845440000000000000000600082015250565b600061386360188361351c565b915061386e8261382d565b602082019050919050565b6000602082019050818103600083015261389281613856565b9050919050565b60006040820190506138ae600083018561329f565b6138bb602083018461329f565b9392505050565b6000815190506138d181613179565b92915050565b6000602082840312156138ed576138ec613087565b5b60006138fb848285016138c2565b91505092915050565b7f5641554c545f414e445f4d414e414745525f5354494c4c5f4154544143484544600082015250565b600061393a60208361351c565b915061394582613904565b602082019050919050565b600060208201905081810360008301526139698161392d565b9050919050565b7f544f4f5f4d414e595f57495448445241575f4f52444552530000000000000000600082015250565b60006139a660188361351c565b91506139b182613970565b602082019050919050565b600060208201905081810360008301526139d581613999565b9050919050565b6000815190506139eb81613322565b92915050565b600060208284031215613a0757613a06613087565b5b6000613a15848285016139dc565b91505092915050565b6000613a2982613053565b9150613a3483613053565b9250828202613a4281613053565b91508282048414831517613a5957613a5861340e565b5b5092915050565b7f4e487b7100000000000000000000000000000000000000000000000000000000600052601260045260246000fd5b6000613a9a82613053565b9150613aa583613053565b925082613ab557613ab4613a60565b5b828204905092915050565b6000613acb82613053565b915060008203613ade57613add61340e565b5b600182039050919050565b6000819050919050565b6000819050919050565b6000613b18613b13613b0e84613ae9565b613af3565b613053565b9050919050565b613b2881613afd565b82525050565b6000602082019050613b436000830184613b1f565b92915050565b60038110613b5657600080fd5b50565b600081519050613b6881613b49565b92915050565b60008060008060008060008060008060006101608c8e031215613b9457613b93613087565b5b6000613ba28e828f016138c2565b9b50506020613bb38e828f016138c2565b9a50506040613bc48e828f016139dc565b9950506060613bd58e828f016139dc565b9850506080613be68e828f016139dc565b97505060a0613bf78e828f016139dc565b96505060c0613c088e828f016139dc565b95505060e0613c198e828f016139dc565b945050610100613c2b8e828f016139dc565b935050610120613c3d8e828f016139dc565b925050610140613c4f8e828f01613b59565b9150509295989b509295989b9093969950565b7f43414e4e4f545f57495448445241575f5a45524f5f4153534554530000000000600082015250565b6000613c98601b8361351c565b9150613ca382613c62565b602082019050919050565b60006020820190508181036000830152613cc781613c8b565b9050919050565b7f4e4f545f454e4f5547485f415641494c41424c455f4153534554530000000000600082015250565b6000613d04601b8361351c565b9150613d0f82613cce565b602082019050919050565b60006020820190508181036000830152613d3381613cf7565b9050919050565b600081905092915050565b7f416363657373436f6e74726f6c3a206163636f756e7420000000000000000000600082015250565b6000613d7b601783613d3a565b9150613d8682613d45565b601782019050919050565b600081519050919050565b60005b83811015613dba578082015181840152602081019050613d9f565b60008484015250505050565b6000613dd182613d91565b613ddb8185613d3a565b9350613deb818560208601613d9c565b80840191505092915050565b7f206973206d697373696e6720726f6c6520000000000000000000000000000000600082015250565b6000613e2d601183613d3a565b9150613e3882613df7565b601182019050919050565b6000613e4e82613d6e565b9150613e5a8285613dc6565b9150613e6582613e20565b9150613e718284613dc6565b91508190509392505050565b6000601f19601f8301169050919050565b6000613e9982613d91565b613ea3818561351c565b9350613eb3818560208601613d9c565b613ebc81613e7d565b840191505092915050565b60006020820190508181036000830152613ee18184613e8e565b905092915050565b6000604082019050613efe600083018561329f565b613f0b602083018461305d565b9392505050565b7f4e487b7100000000000000000000000000000000000000000000000000000000600052604160045260246000fd5b7f537472696e67733a20686578206c656e67746820696e73756666696369656e74600082015250565b6000613f7760208361351c565b9150613f8282613f41565b602082019050919050565b60006020820190508181036000830152613fa681613f6a565b9050919050565b600081519050613fbc816132c9565b92915050565b600060208284031215613fd857613fd7613087565b5b6000613fe684828501613fad565b91505092915050565b7f5361666545524332303a204552433230206f7065726174696f6e20646964206e60008201527f6f74207375636365656400000000000000000000000000000000000000000000602082015250565b600061404b602a8361351c565b915061405682613fef565b604082019050919050565b6000602082019050818103600083015261407a8161403e565b9050919050565b7f416464726573733a20696e73756666696369656e742062616c616e636520666f60008201527f722063616c6c0000000000000000000000000000000000000000000000000000602082015250565b60006140dd60268361351c565b91506140e882614081565b604082019050919050565b6000602082019050818103600083015261410c816140d0565b9050919050565b600081519050919050565b600081905092915050565b600061413482614113565b61413e818561411e565b935061414e818560208601613d9c565b80840191505092915050565b60006141668284614129565b915081905092915050565b7f416464726573733a2063616c6c20746f206e6f6e2d636f6e7472616374000000600082015250565b60006141a7601d8361351c565b91506141b282614171565b602082019050919050565b600060208201905081810360008301526141d68161419a565b905091905056fea2646970667358221220328091d215284c6766ceb8e4b95e55bf8aa03e8abccf296eefe5a50306df20fe64736f6c63430008120033",
  "linkReferences": {},
  "deployedLinkReferences": {}
}