{
  "_format": "hh-sol-artifact-1",
  "contractName": "Staking",
  "sourceName": "contracts/Staking.sol",
  "abi": [
    {
      "anonymous": false,
      "inputs": [
        {
          "indexed": true,
          "internalType": "address",
          "name": "owner",
          "type": "address"
        },
        {
          "indexed": true,
          "internalType": "address",
          "name": "spender",
          "type": "address"
        },
        {
          "indexed": false,
          "internalType": "uint256",
          "name": "value",
          "type": "uint256"
        }
      ],
      "name": "Approval",
      "type": "event"
    },
    {
      "anonymous": false,
      "inputs": [
        {
          "indexed": true,
          "internalType": "address",
          "name": "sender",
          "type": "address"
        },
        {
          "indexed": true,
          "internalType": "address",
          "name": "owner",
          "type": "address"
        },
        {
          "indexed": false,
          "internalType": "uint256",
          "name": "assets",
          "type": "uint256"
        },
        {
          "indexed": false,
          "internalType": "uint256",
          "name": "shares",
          "type": "uint256"
        }
      ],
      "name": "Deposit",
      "type": "event"
    },
    {
      "anonymous": false,
      "inputs": [
        {
          "indexed": false,
          "internalType": "uint8",
          "name": "version",
          "type": "uint8"
        }
      ],
      "name": "Initialized",
      "type": "event"
    },
    {
      "anonymous": false,
      "inputs": [
        {
          "indexed": true,
          "internalType": "address",
          "name": "sender",
          "type": "address"
        },
        {
          "indexed": true,
          "internalType": "address",
          "name": "owner",
          "type": "address"
        },
        {
          "indexed": false,
          "internalType": "uint256",
          "name": "assets",
          "type": "uint256"
        },
        {
          "indexed": false,
          "internalType": "uint256",
          "name": "shares",
          "type": "uint256"
        }
      ],
      "name": "Mint",
      "type": "event"
    },
    {
      "anonymous": false,
      "inputs": [
        {
          "indexed": true,
          "internalType": "bytes32",
          "name": "role",
          "type": "bytes32"
        },
        {
          "indexed": true,
          "internalType": "bytes32",
          "name": "previousAdminRole",
          "type": "bytes32"
        },
        {
          "indexed": true,
          "internalType": "bytes32",
          "name": "newAdminRole",
          "type": "bytes32"
        }
      ],
      "name": "RoleAdminChanged",
      "type": "event"
    },
    {
      "anonymous": false,
      "inputs": [
        {
          "indexed": true,
          "internalType": "bytes32",
          "name": "role",
          "type": "bytes32"
        },
        {
          "indexed": true,
          "internalType": "address",
          "name": "account",
          "type": "address"
        },
        {
          "indexed": true,
          "internalType": "address",
          "name": "sender",
          "type": "address"
        }
      ],
      "name": "RoleGranted",
      "type": "event"
    },
    {
      "anonymous": false,
      "inputs": [
        {
          "indexed": true,
          "internalType": "bytes32",
          "name": "role",
          "type": "bytes32"
        },
        {
          "indexed": true,
          "internalType": "address",
          "name": "account",
          "type": "address"
        },
        {
          "indexed": true,
          "internalType": "address",
          "name": "sender",
          "type": "address"
        }
      ],
      "name": "RoleRevoked",
      "type": "event"
    },
    {
      "anonymous": false,
      "inputs": [
        {
          "indexed": false,
          "internalType": "uint256",
          "name": "nodeId",
          "type": "uint256"
        },
        {
          "indexed": true,
          "internalType": "bytes",
          "name": "pubkey",
          "type": "bytes"
        }
      ],
      "name": "Stake",
      "type": "event"
    },
    {
      "anonymous": false,
      "inputs": [
        {
          "indexed": true,
          "internalType": "address",
          "name": "from",
          "type": "address"
        },
        {
          "indexed": true,
          "internalType": "address",
          "name": "to",
          "type": "address"
        },
        {
          "indexed": false,
          "internalType": "uint256",
          "name": "value",
          "type": "uint256"
        }
      ],
      "name": "Transfer",
      "type": "event"
    },
    {
      "anonymous": false,
      "inputs": [
        {
          "indexed": false,
          "internalType": "uint256",
          "name": "nodeId",
          "type": "uint256"
        },
        {
          "components": [
            {
              "internalType": "bytes",
              "name": "pubkey",
              "type": "bytes"
            },
            {
              "internalType": "bytes",
              "name": "withdrawCredentials",
              "type": "bytes"
            },
            {
              "internalType": "bytes",
              "name": "signature",
              "type": "bytes"
            },
            {
              "internalType": "bytes32",
              "name": "depositDataRoot",
              "type": "bytes32"
            }
          ],
          "indexed": false,
          "internalType": "struct Staking.Node",
          "name": "data",
          "type": "tuple"
        }
      ],
      "name": "UpdateNodeData",
      "type": "event"
    },
    {
      "anonymous": false,
      "inputs": [
        {
          "indexed": false,
          "internalType": "uint256",
          "name": "balance",
          "type": "uint256"
        }
      ],
      "name": "UpdateNodesBalance",
      "type": "event"
    },
    {
      "anonymous": false,
      "inputs": [
        {
          "indexed": true,
          "internalType": "address",
          "name": "sender",
          "type": "address"
        },
        {
          "indexed": true,
          "internalType": "address",
          "name": "receiver",
          "type": "address"
        },
        {
          "indexed": true,
          "internalType": "address",
          "name": "owner",
          "type": "address"
        },
        {
          "indexed": false,
          "internalType": "uint256",
          "name": "assets",
          "type": "uint256"
        },
        {
          "indexed": false,
          "internalType": "uint256",
          "name": "shares",
          "type": "uint256"
        }
      ],
      "name": "Withdraw",
      "type": "event"
    },
    {
      "inputs": [],
      "name": "ACTIVATOR_ROLE",
      "outputs": [
        {
          "internalType": "bytes32",
          "name": "",
          "type": "bytes32"
        }
      ],
      "stateMutability": "view",
      "type": "function"
    },
    {
      "inputs": [],
      "name": "DEFAULT_ADMIN_ROLE",
      "outputs": [
        {
          "internalType": "bytes32",
          "name": "",
          "type": "bytes32"
        }
      ],
      "stateMutability": "view",
      "type": "function"
    },
    {
      "inputs": [],
      "name": "UPDATER_ROLE",
      "outputs": [
        {
          "internalType": "bytes32",
          "name": "",
          "type": "bytes32"
        }
      ],
      "stateMutability": "view",
      "type": "function"
    },
    {
      "inputs": [],
      "name": "UPDATE_BALANCE_TIMELOCK",
      "outputs": [
        {
          "internalType": "uint64",
          "name": "",
          "type": "uint64"
        }
      ],
      "stateMutability": "view",
      "type": "function"
    },
    {
      "inputs": [
        {
          "internalType": "address",
          "name": "owner",
          "type": "address"
        },
        {
          "internalType": "address",
          "name": "spender",
          "type": "address"
        }
      ],
      "name": "allowance",
      "outputs": [
        {
          "internalType": "uint256",
          "name": "",
          "type": "uint256"
        }
      ],
      "stateMutability": "view",
      "type": "function"
    },
    {
      "inputs": [
        {
          "internalType": "address",
          "name": "spender",
          "type": "address"
        },
        {
          "internalType": "uint256",
          "name": "amount",
          "type": "uint256"
        }
      ],
      "name": "approve",
      "outputs": [
        {
          "internalType": "bool",
          "name": "",
          "type": "bool"
        }
      ],
      "stateMutability": "nonpayable",
      "type": "function"
    },
    {
      "inputs": [],
      "name": "asset",
      "outputs": [
        {
          "internalType": "address",
          "name": "",
          "type": "address"
        }
      ],
      "stateMutability": "view",
      "type": "function"
    },
    {
      "inputs": [
        {
          "internalType": "address",
          "name": "account",
          "type": "address"
        }
      ],
      "name": "balanceOf",
      "outputs": [
        {
          "internalType": "uint256",
          "name": "",
          "type": "uint256"
        }
      ],
      "stateMutability": "view",
      "type": "function"
    },
    {
      "inputs": [
        {
          "internalType": "uint256",
          "name": "shares",
          "type": "uint256"
        }
      ],
      "name": "convertToAssets",
      "outputs": [
        {
          "internalType": "uint256",
          "name": "assets",
          "type": "uint256"
        }
      ],
      "stateMutability": "view",
      "type": "function"
    },
    {
      "inputs": [
        {
          "internalType": "uint256",
          "name": "assets",
          "type": "uint256"
        }
      ],
      "name": "convertToShares",
      "outputs": [
        {
          "internalType": "uint256",
          "name": "shares",
          "type": "uint256"
        }
      ],
      "stateMutability": "view",
      "type": "function"
    },
    {
      "inputs": [],
      "name": "decimals",
      "outputs": [
        {
          "internalType": "uint8",
          "name": "",
          "type": "uint8"
        }
      ],
      "stateMutability": "view",
      "type": "function"
    },
    {
      "inputs": [
        {
          "internalType": "address",
          "name": "spender",
          "type": "address"
        },
        {
          "internalType": "uint256",
          "name": "subtractedValue",
          "type": "uint256"
        }
      ],
      "name": "decreaseAllowance",
      "outputs": [
        {
          "internalType": "bool",
          "name": "",
          "type": "bool"
        }
      ],
      "stateMutability": "nonpayable",
      "type": "function"
    },
    {
      "inputs": [
        {
          "internalType": "uint256",
          "name": "_assets",
          "type": "uint256"
        },
        {
          "internalType": "address",
          "name": "_receiver",
          "type": "address"
        }
      ],
      "name": "deposit",
      "outputs": [
        {
          "internalType": "uint256",
          "name": "",
          "type": "uint256"
        }
      ],
      "stateMutability": "nonpayable",
      "type": "function"
    },
    {
      "inputs": [],
      "name": "depositContract",
      "outputs": [
        {
          "internalType": "contract IDeposit",
          "name": "",
          "type": "address"
        }
      ],
      "stateMutability": "view",
      "type": "function"
    },
    {
      "inputs": [
        {
          "internalType": "address",
          "name": "_receiver",
          "type": "address"
        }
      ],
      "name": "depositETH",
      "outputs": [
        {
          "internalType": "uint256",
          "name": "",
          "type": "uint256"
        }
      ],
      "stateMutability": "payable",
      "type": "function"
    },
    {
      "inputs": [],
      "name": "estimatedRewardsPerSecond",
      "outputs": [
        {
          "internalType": "uint64",
          "name": "",
          "type": "uint64"
        }
      ],
      "stateMutability": "view",
      "type": "function"
    },
    {
      "inputs": [
        {
          "internalType": "bytes32",
          "name": "role",
          "type": "bytes32"
        }
      ],
      "name": "getRoleAdmin",
      "outputs": [
        {
          "internalType": "bytes32",
          "name": "",
          "type": "bytes32"
        }
      ],
      "stateMutability": "view",
      "type": "function"
    },
    {
      "inputs": [
        {
          "internalType": "bytes32",
          "name": "role",
          "type": "bytes32"
        },
        {
          "internalType": "address",
          "name": "account",
          "type": "address"
        }
      ],
      "name": "grantRole",
      "outputs": [],
      "stateMutability": "nonpayable",
      "type": "function"
    },
    {
      "inputs": [
        {
          "internalType": "bytes32",
          "name": "role",
          "type": "bytes32"
        },
        {
          "internalType": "address",
          "name": "account",
          "type": "address"
        }
      ],
      "name": "hasRole",
      "outputs": [
        {
          "internalType": "bool",
          "name": "",
          "type": "bool"
        }
      ],
      "stateMutability": "view",
      "type": "function"
    },
    {
      "inputs": [
        {
          "internalType": "address",
          "name": "spender",
          "type": "address"
        },
        {
          "internalType": "uint256",
          "name": "addedValue",
          "type": "uint256"
        }
      ],
      "name": "increaseAllowance",
      "outputs": [
        {
          "internalType": "bool",
          "name": "",
          "type": "bool"
        }
      ],
      "stateMutability": "nonpayable",
      "type": "function"
    },
    {
      "inputs": [
        {
          "internalType": "contract IDeposit",
          "name": "_depositContract",
          "type": "address"
        },
        {
          "internalType": "contract IERC20MetadataUpgradeable",
          "name": "_weth",
          "type": "address"
        },
        {
          "internalType": "address",
          "name": "_treasury",
          "type": "address"
        },
        {
          "internalType": "address",
          "name": "_updater",
          "type": "address"
        },
        {
          "internalType": "address",
          "name": "_activator",
          "type": "address"
        }
      ],
      "name": "initialize",
      "outputs": [],
      "stateMutability": "nonpayable",
      "type": "function"
    },
    {
      "inputs": [],
      "name": "liquidUnstakePool",
      "outputs": [
        {
          "internalType": "address payable",
          "name": "",
          "type": "address"
        }
      ],
      "stateMutability": "view",
      "type": "function"
    },
    {
      "inputs": [
        {
          "internalType": "address",
          "name": "",
          "type": "address"
        }
      ],
      "name": "maxDeposit",
      "outputs": [
        {
          "internalType": "uint256",
          "name": "",
          "type": "uint256"
        }
      ],
      "stateMutability": "view",
      "type": "function"
    },
    {
      "inputs": [
        {
          "internalType": "address",
          "name": "",
          "type": "address"
        }
      ],
      "name": "maxMint",
      "outputs": [
        {
          "internalType": "uint256",
          "name": "",
          "type": "uint256"
        }
      ],
      "stateMutability": "view",
      "type": "function"
    },
    {
      "inputs": [
        {
          "internalType": "address",
          "name": "",
          "type": "address"
        }
      ],
      "name": "maxRedeem",
      "outputs": [
        {
          "internalType": "uint256",
          "name": "",
          "type": "uint256"
        }
      ],
      "stateMutability": "view",
      "type": "function"
    },
    {
      "inputs": [
        {
          "internalType": "address",
          "name": "",
          "type": "address"
        }
      ],
      "name": "maxWithdraw",
      "outputs": [
        {
          "internalType": "uint256",
          "name": "",
          "type": "uint256"
        }
      ],
      "stateMutability": "pure",
      "type": "function"
    },
    {
      "inputs": [
        {
          "internalType": "address",
          "name": "",
          "type": "address"
        }
      ],
      "name": "minDeposit",
      "outputs": [
        {
          "internalType": "uint256",
          "name": "",
          "type": "uint256"
        }
      ],
      "stateMutability": "pure",
      "type": "function"
    },
    {
      "inputs": [
        {
          "internalType": "uint256",
          "name": "shares",
          "type": "uint256"
        },
        {
          "internalType": "address",
          "name": "receiver",
          "type": "address"
        }
      ],
      "name": "mint",
      "outputs": [
        {
          "internalType": "uint256",
          "name": "",
          "type": "uint256"
        }
      ],
      "stateMutability": "nonpayable",
      "type": "function"
    },
    {
      "inputs": [],
      "name": "name",
      "outputs": [
        {
          "internalType": "string",
          "name": "",
          "type": "string"
        }
      ],
      "stateMutability": "view",
      "type": "function"
    },
    {
      "inputs": [],
      "name": "nodesBalanceUnlockTime",
      "outputs": [
        {
          "internalType": "uint64",
          "name": "",
          "type": "uint64"
        }
      ],
      "stateMutability": "view",
      "type": "function"
    },
    {
      "inputs": [],
      "name": "nodesTotalBalance",
      "outputs": [
        {
          "internalType": "uint256",
          "name": "",
          "type": "uint256"
        }
      ],
      "stateMutability": "view",
      "type": "function"
    },
    {
      "inputs": [
        {
          "internalType": "uint256",
          "name": "assets",
          "type": "uint256"
        }
      ],
      "name": "previewDeposit",
      "outputs": [
        {
          "internalType": "uint256",
          "name": "",
          "type": "uint256"
        }
      ],
      "stateMutability": "view",
      "type": "function"
    },
    {
      "inputs": [
        {
          "internalType": "uint256",
          "name": "shares",
          "type": "uint256"
        }
      ],
      "name": "previewMint",
      "outputs": [
        {
          "internalType": "uint256",
          "name": "",
          "type": "uint256"
        }
      ],
      "stateMutability": "view",
      "type": "function"
    },
    {
      "inputs": [
        {
          "internalType": "uint256",
          "name": "shares",
          "type": "uint256"
        }
      ],
      "name": "previewRedeem",
      "outputs": [
        {
          "internalType": "uint256",
          "name": "",
          "type": "uint256"
        }
      ],
      "stateMutability": "view",
      "type": "function"
    },
    {
      "inputs": [
        {
          "internalType": "uint256",
          "name": "assets",
          "type": "uint256"
        }
      ],
      "name": "previewWithdraw",
      "outputs": [
        {
          "internalType": "uint256",
          "name": "",
          "type": "uint256"
        }
      ],
      "stateMutability": "view",
      "type": "function"
    },
    {
      "inputs": [
        {
          "components": [
            {
              "internalType": "bytes",
              "name": "pubkey",
              "type": "bytes"
            },
            {
              "internalType": "bytes",
              "name": "withdrawCredentials",
              "type": "bytes"
            },
            {
              "internalType": "bytes",
              "name": "signature",
              "type": "bytes"
            },
            {
              "internalType": "bytes32",
              "name": "depositDataRoot",
              "type": "bytes32"
            }
          ],
          "internalType": "struct Staking.Node[]",
          "name": "_nodes",
          "type": "tuple[]"
        },
        {
          "internalType": "uint256",
          "name": "_requestPoolAmount",
          "type": "uint256"
        },
        {
          "internalType": "uint256",
          "name": "_requestWithdrawalAmount",
          "type": "uint256"
        }
      ],
      "name": "pushToBeacon",
      "outputs": [],
      "stateMutability": "nonpayable",
      "type": "function"
    },
    {
      "inputs": [
        {
          "internalType": "uint256",
          "name": "shares",
          "type": "uint256"
        },
        {
          "internalType": "address",
          "name": "receiver",
          "type": "address"
        },
        {
          "internalType": "address",
          "name": "owner",
          "type": "address"
        }
      ],
      "name": "redeem",
      "outputs": [
        {
          "internalType": "uint256",
          "name": "",
          "type": "uint256"
        }
      ],
      "stateMutability": "nonpayable",
      "type": "function"
    },
    {
      "inputs": [
        {
          "internalType": "bytes32",
          "name": "role",
          "type": "bytes32"
        },
        {
          "internalType": "address",
          "name": "account",
          "type": "address"
        }
      ],
      "name": "renounceRole",
      "outputs": [],
      "stateMutability": "nonpayable",
      "type": "function"
    },
    {
      "inputs": [
        {
          "internalType": "bytes32",
          "name": "role",
          "type": "bytes32"
        },
        {
          "internalType": "address",
          "name": "account",
          "type": "address"
        }
      ],
      "name": "revokeRole",
      "outputs": [],
      "stateMutability": "nonpayable",
      "type": "function"
    },
    {
      "inputs": [],
      "name": "rewardsFee",
      "outputs": [
        {
          "internalType": "uint16",
          "name": "",
          "type": "uint16"
        }
      ],
      "stateMutability": "view",
      "type": "function"
    },
    {
      "inputs": [],
      "name": "stakingBalance",
      "outputs": [
        {
          "internalType": "uint256",
          "name": "",
          "type": "uint256"
        }
      ],
      "stateMutability": "view",
      "type": "function"
    },
    {
      "inputs": [
        {
          "internalType": "bytes4",
          "name": "interfaceId",
          "type": "bytes4"
        }
      ],
      "name": "supportsInterface",
      "outputs": [
        {
          "internalType": "bool",
          "name": "",
          "type": "bool"
        }
      ],
      "stateMutability": "view",
      "type": "function"
    },
    {
      "inputs": [],
      "name": "symbol",
      "outputs": [
        {
          "internalType": "string",
          "name": "",
          "type": "string"
        }
      ],
      "stateMutability": "view",
      "type": "function"
    },
    {
      "inputs": [],
      "name": "totalAssets",
      "outputs": [
        {
          "internalType": "uint256",
          "name": "",
          "type": "uint256"
        }
      ],
      "stateMutability": "view",
      "type": "function"
    },
    {
      "inputs": [],
      "name": "totalNodesActivated",
      "outputs": [
        {
          "internalType": "uint32",
          "name": "",
          "type": "uint32"
        }
      ],
      "stateMutability": "view",
      "type": "function"
    },
    {
      "inputs": [],
      "name": "totalSupply",
      "outputs": [
        {
          "internalType": "uint256",
          "name": "",
          "type": "uint256"
        }
      ],
      "stateMutability": "view",
      "type": "function"
    },
    {
      "inputs": [
        {
          "internalType": "address",
          "name": "to",
          "type": "address"
        },
        {
          "internalType": "uint256",
          "name": "amount",
          "type": "uint256"
        }
      ],
      "name": "transfer",
      "outputs": [
        {
          "internalType": "bool",
          "name": "",
          "type": "bool"
        }
      ],
      "stateMutability": "nonpayable",
      "type": "function"
    },
    {
      "inputs": [
        {
          "internalType": "address",
          "name": "from",
          "type": "address"
        },
        {
          "internalType": "address",
          "name": "to",
          "type": "address"
        },
        {
          "internalType": "uint256",
          "name": "amount",
          "type": "uint256"
        }
      ],
      "name": "transferFrom",
      "outputs": [
        {
          "internalType": "bool",
          "name": "",
          "type": "bool"
        }
      ],
      "stateMutability": "nonpayable",
      "type": "function"
    },
    {
      "inputs": [],
      "name": "treasury",
      "outputs": [
        {
          "internalType": "address",
          "name": "",
          "type": "address"
        }
      ],
      "stateMutability": "view",
      "type": "function"
    },
    {
      "inputs": [
        {
          "internalType": "address payable",
          "name": "_liquidPool",
          "type": "address"
        }
      ],
      "name": "updateLiquidPool",
      "outputs": [],
      "stateMutability": "nonpayable",
      "type": "function"
    },
    {
      "inputs": [
        {
          "internalType": "uint256",
          "name": "_newBalance",
          "type": "uint256"
        }
      ],
      "name": "updateNodesBalance",
      "outputs": [],
      "stateMutability": "nonpayable",
      "type": "function"
    },
    {
      "inputs": [
        {
          "internalType": "uint16",
          "name": "_rewardsFee",
          "type": "uint16"
        }
      ],
      "name": "updateRewardsFee",
      "outputs": [],
      "stateMutability": "nonpayable",
      "type": "function"
    },
    {
      "inputs": [
        {
          "internalType": "uint256",
          "name": "assets",
          "type": "uint256"
        },
        {
          "internalType": "address",
          "name": "receiver",
          "type": "address"
        },
        {
          "internalType": "address",
          "name": "owner",
          "type": "address"
        }
      ],
      "name": "withdraw",
      "outputs": [
        {
          "internalType": "uint256",
          "name": "",
          "type": "uint256"
        }
      ],
      "stateMutability": "nonpayable",
      "type": "function"
    },
    {
      "stateMutability": "payable",
      "type": "receive"
    }
  ],
  "bytecode": "0x608060405234801561001057600080fd5b50613212806100206000396000f3fe60806040526004361061031e5760003560e01c806353411d64116101ab578063b3d7f6b9116100f7578063d905777e11610095578063e94ad65b1161006f578063e94ad65b146109aa578063ef8b30f714610913578063f096a846146109ca578063f6c14be2146109eb57600080fd5b8063d905777e14610933578063dd62ed3e14610974578063e59e7de71461099457600080fd5b8063c63d75b6116100d1578063c63d75b6146108f1578063c6e6f59214610913578063ce96cb7714610933578063d547741f1461095457600080fd5b8063b3d7f6b914610891578063b460af94146108b1578063ba087652146108d157600080fd5b806391d14854116101645780639dc162ca1161013e5780639dc162ca1461081c578063a217fddf1461083c578063a457c2d714610851578063a9059cbb1461087157600080fd5b806391d14854146107c757806394bf804d146107e757806395d89b411461080757600080fd5b806353411d64146106d7578063593f8907146106f757806361d027b3146107175780636e553f65146107375780636e64b5781461075757806370a082311461079157600080fd5b80632bb14e1d1161026a57806338d52e0f11610223578063402d267d116101fd578063402d267d1461066357806347e63380146106835780634cdad506146103c65780634dc1d6fb146106b757600080fd5b806338d52e0f146105ea578063395093511461061c5780633c29f8391461063c57600080fd5b80632bb14e1d1461051f5780632ca82cd5146105555780632d2da8061461056b5780632f2ff15d1461057e578063313ce5671461059e57806336568abe146105ca57600080fd5b8063095ea7b3116102d75780631459457a116102b15780631459457a1461049a57806318160ddd146104ba57806323b872dd146104cf578063248a9ca3146104ef57600080fd5b8063095ea7b31461041a5780630a28a4771461043a5780630c8797dd1461045a57600080fd5b80630165933c1461032a57806301e1d1141461034c57806301ffc9a71461037457806306fdde03146103a457806307a2d13a146103c657806308740a3b146103e657600080fd5b3661032557005b600080fd5b34801561033657600080fd5b5061034a6103453660046129b4565b610a01565b005b34801561035857600080fd5b50610361610d06565b6040519081526020015b60405180910390f35b34801561038057600080fd5b5061039461038f366004612b0a565b610d73565b604051901515815260200161036b565b3480156103b057600080fd5b506103b9610daa565b60405161036b9190612b84565b3480156103d257600080fd5b506103616103e1366004612b97565b610e3c565b3480156103f257600080fd5b506103617fec5aad7bdface20c35bc02d6d2d5760df981277427368525d634f4e2603ea19281565b34801561042657600080fd5b50610394610435366004612bc5565b610e49565b34801561044657600080fd5b50610361610455366004612b97565b610e61565b34801561046657600080fd5b506101005461048290600160401b90046001600160401b031681565b6040516001600160401b03909116815260200161036b565b3480156104a657600080fd5b5061034a6104b5366004612bf1565b610e6e565b3480156104c657600080fd5b50603554610361565b3480156104db57600080fd5b506103946104ea366004612c62565b6111c5565b3480156104fb57600080fd5b5061036161050a366004612b97565b600090815260c9602052604090206001015490565b34801561052b57600080fd5b506101005461054290600160a01b900461ffff1681565b60405161ffff909116815260200161036b565b34801561056157600080fd5b5061036160fe5481565b610361610579366004612ca3565b6111eb565b34801561058a57600080fd5b5061034a610599366004612cc0565b61121a565b3480156105aa57600080fd5b50606554600160a01b900460ff1660405160ff909116815260200161036b565b3480156105d657600080fd5b5061034a6105e5366004612cc0565b611244565b3480156105f657600080fd5b506065546001600160a01b03165b6040516001600160a01b03909116815260200161036b565b34801561062857600080fd5b50610394610637366004612bc5565b6112c2565b34801561064857600080fd5b50610361610657366004612ca3565b50662386f26fc1000090565b34801561066f57600080fd5b5061036161067e366004612ca3565b6112e4565b34801561068f57600080fd5b506103617f73e573f9566d61418a34d5de3ff49360f9c51fec37f7486551670290f6285dab81565b3480156106c357600080fd5b5061034a6106d2366004612cf0565b611302565b3480156106e357600080fd5b5061034a6106f2366004612b97565b611331565b34801561070357600080fd5b5061034a610712366004612ca3565b61159d565b34801561072357600080fd5b5060fb54610604906001600160a01b031681565b34801561074357600080fd5b50610361610752366004612cc0565b611618565b34801561076357600080fd5b506101005461077c90600160801b900463ffffffff1681565b60405163ffffffff909116815260200161036b565b34801561079d57600080fd5b506103616107ac366004612ca3565b6001600160a01b031660009081526033602052604090205490565b3480156107d357600080fd5b506103946107e2366004612cc0565b611647565b3480156107f357600080fd5b50610361610802366004612cc0565b611672565b34801561081357600080fd5b506103b961168c565b34801561082857600080fd5b5060fc54610604906001600160a01b031681565b34801561084857600080fd5b50610361600081565b34801561085d57600080fd5b5061039461086c366004612bc5565b61169b565b34801561087d57600080fd5b5061039461088c366004612bc5565b611721565b34801561089d57600080fd5b506103616108ac366004612b97565b61172f565b3480156108bd57600080fd5b506103616108cc366004612d14565b61173c565b3480156108dd57600080fd5b506103616108ec366004612d14565b6117ae565b3480156108fd57600080fd5b5061036161090c366004612ca3565b5060001990565b34801561091f57600080fd5b5061036161092e366004612b97565b611818565b34801561093f57600080fd5b5061036161094e366004612ca3565b50600090565b34801561096057600080fd5b5061034a61096f366004612cc0565b611825565b34801561098057600080fd5b5061036161098f366004612d56565b61184a565b3480156109a057600080fd5b5061048261384081565b3480156109b657600080fd5b5060fd54610604906001600160a01b031681565b3480156109d657600080fd5b5061010054610482906001600160401b031681565b3480156109f757600080fd5b5061036160ff5481565b7fec5aad7bdface20c35bc02d6d2d5760df981277427368525d634f4e2603ea192610a2b81611875565b82516000610a4863ffffffff83166801bc16d674ec800000612d9a565b68ffffffffffffffffff169050808460ff54610a649190612dc7565b1015610aac5760405162461bcd60e51b81526020600482015260126024820152714e6f7420656e6f7567682062616c616e636560701b60448201526064015b60405180910390fd5b8315610b115760fc54604051633701206b60e01b8152600481018690526001600160a01b0390911690633701206b90602401600060405180830381600087803b158015610af857600080fd5b505af1158015610b0c573d6000803e3d6000fd5b505050505b61010054600160801b900463ffffffff1660005b8363ffffffff16811015610ca95760fd5487516001600160a01b03909116906322895118906801bc16d674ec800000908a9085908110610b6757610b67612dda565b6020026020010151600001518a8581518110610b8557610b85612dda565b6020026020010151602001518b8681518110610ba357610ba3612dda565b6020026020010151604001518c8781518110610bc157610bc1612dda565b6020026020010151606001516040518663ffffffff1660e01b8152600401610bec9493929190612df0565b6000604051808303818588803b158015610c0557600080fd5b505af1158015610c19573d6000803e3d6000fd5b50505050508180610c2990612e3b565b925050868181518110610c3e57610c3e612dda565b602002602001015160000151604051610c579190612e5e565b60405190819003812063ffffffff84168252907fd30c530f2d5e6c518f21d801360ff46849e74bf1cba98a64c7dbc741fc9b263a9060200160405180910390a280610ca181612e7a565b915050610b25565b508160ff6000828254610cbc9190612e93565b925050819055508160fe6000828254610cd59190612dc7565b9091555050610100805463ffffffff909216600160801b0263ffffffff60801b199092169190911790555050505050565b61010054600090610d2390613840906001600160401b0316612ea6565b610d2d9042612ea6565b61010054610d4b9190600160401b90046001600160401b0316612ec6565b6001600160401b031660fe5460ff54610d649190612dc7565b610d6e9190612dc7565b905090565b60006001600160e01b03198216637965db0b60e01b1480610da457506301ffc9a760e01b6001600160e01b03198316145b92915050565b606060368054610db990612ee9565b80601f0160208091040260200160405190810160405280929190818152602001828054610de590612ee9565b8015610e325780601f10610e0757610100808354040283529160200191610e32565b820191906000526020600020905b815481529060010190602001808311610e1557829003601f168201915b5050505050905090565b6000610da4826000611882565b600033610e578185856118b5565b5060019392505050565b6000610da48260016119d9565b600054610100900460ff1615808015610e8e5750600054600160ff909116105b80610ea85750303b158015610ea8575060005460ff166001145b610f0b5760405162461bcd60e51b815260206004820152602e60248201527f496e697469616c697a61626c653a20636f6e747261637420697320616c72656160448201526d191e481a5b9a5d1a585b1a5e995960921b6064820152608401610aa3565b6000805460ff191660011790558015610f2e576000805461ff0019166101001790555b610f3785611a0b565b610f816040518060400160405280600b81526020016a09acae8c2a0deded88aa8960ab1b815250604051806040016040528060058152602001640dae08aa8960db1b815250611a3b565b610f89611a6c565b846001600160a01b031663313ce5676040518163ffffffff1660e01b8152600401602060405180830381865afa158015610fc7573d6000803e3d6000fd5b505050506040513d601f19601f82011682018060405250810190610feb9190612f1d565b60ff166012146110595760405162461bcd60e51b815260206004820152603360248201527f774e617469766520746f6b656e206572726f722c20696d706c656d656e746174604482015272696f6e20666f7220313820646563696d616c7360681b6064820152608401610aa3565b47156110b55760405162461bcd60e51b815260206004820152602560248201527f4572726f7220696e697469616c697a652077697468206e6f207a65726f2062616044820152646c616e636560d81b6064820152608401610aa3565b6110c0600033611a95565b6110ea7f73e573f9566d61418a34d5de3ff49360f9c51fec37f7486551670290f6285dab84611a95565b6111147fec5aad7bdface20c35bc02d6d2d5760df981277427368525d634f4e2603ea19283611a95565b610100805460fb80546001600160a01b038089166001600160a01b03199283161790925560fd8054928b16929091169190911790556001600160401b03421675ffff000000000000000000000000ffffffffffffffff1990911617607d60a21b17905580156111bd576000805461ff0019169055604051600181527f7f26b83ff96e1f2b6a682f133852f6798a09c465da95921460cefb38474024989060200160405180910390a15b505050505050565b6000336111d3858285611b1b565b6111de858585611b95565b60019150505b9392505050565b6000346111f781611d40565b600061120234611818565b90506112113385600084611d97565b91505b50919050565b600082815260c9602052604090206001015461123581611875565b61123f8383611a95565b505050565b6001600160a01b03811633146112b45760405162461bcd60e51b815260206004820152602f60248201527f416363657373436f6e74726f6c3a2063616e206f6e6c792072656e6f756e636560448201526e103937b632b9903337b91039b2b63360891b6064820152608401610aa3565b6112be8282612035565b5050565b600033610e578185856112d5838361184a565b6112df9190612dc7565b6118b5565b60006112ee61209c565b6112f9576000610da4565b60001992915050565b600061130d81611875565b50610100805461ffff909216600160a01b0261ffff60a01b19909216919091179055565b7f73e573f9566d61418a34d5de3ff49360f9c51fec37f7486551670290f6285dab61135b81611875565b610100546001600160401b03164281106113b75760405162461bcd60e51b815260206004820152601760248201527f556e6c6f636b2074696d65206e6f7420726561636865640000000000000000006044820152606401610aa3565b60fe5460008185116113d2576113cd8583612e93565b6113dc565b6113dc8286612e93565b90506113ea6103e883612f56565b8111156114395760405162461bcd60e51b815260206004820152601c60248201527f446966666572656e63652067726561746572207468616e20302e3125000000006044820152606401610aa3565b610100546000906127109061145990600160a01b900461ffff1684612f78565b6114639190612f56565b9050600061147082611818565b60fb54909150611489906001600160a01b0316826120b6565b60fb5460408051848152602081018490526001600160a01b039092169133917f2f00e3cdd69a77be7ed215ec7b2a36784dd158f921fca79ac29deffa353fe6ee910160405180910390a36114df61384086612ea6565b6114e99042612ea6565b6114fc906001600160401b031684612f56565b61010080546001600160401b0392909216600160401b026fffffffffffffffff00000000000000001990921691909117905561153a61384042612f8f565b610100805467ffffffffffffffff19166001600160401b039290921691909117905560fe8790556040518781527f4d1b7ebdfd13eb13637b375375c66d848b00ed846f22df0039c8fb561f1cec9e9060200160405180910390a150505050505050565b60006115a881611875565b6001600160a01b0382166115f55760405162461bcd60e51b8152602060048201526014602482015273496e76616c69642061646472657373207a65726f60601b6044820152606401610aa3565b5060fc80546001600160a01b0319166001600160a01b0392909216919091179055565b60008261162481611d40565b600061162f85611818565b905061163d33858784611d97565b91505b5092915050565b600091825260c9602090815260408084206001600160a01b0393909316845291905290205460ff1690565b60008061167e8461172f565b90506111e433848387611d97565b606060378054610db990612ee9565b600033816116a9828661184a565b9050838110156117095760405162461bcd60e51b815260206004820152602560248201527f45524332303a2064656372656173656420616c6c6f77616e63652062656c6f77604482015264207a65726f60d81b6064820152608401610aa3565b61171682868684036118b5565b506001949350505050565b600033610e57818585611b95565b6000610da4826001611882565b6000831561178c5760405162461bcd60e51b815260206004820152601f60248201527f455243343632363a207769746864726177206d6f7265207468616e206d6178006044820152606401610aa3565b600061179785610e61565b90506117a63385858885612177565b949350505050565b600083156117fe5760405162461bcd60e51b815260206004820152601d60248201527f455243343632363a2072656465656d206d6f7265207468616e206d61780000006044820152606401610aa3565b600061180985610e3c565b90506117a63385858489612177565b6000610da48260006119d9565b600082815260c9602052604090206001015461184081611875565b61123f8383612035565b6001600160a01b03918216600090815260346020908152604080832093909416825291909152205490565b61187f81336121bf565b50565b60008061188e60355490565b905080156118af576118aa6118a1610d06565b85908386612218565b61163d565b8361163d565b6001600160a01b0383166119175760405162461bcd60e51b8152602060048201526024808201527f45524332303a20617070726f76652066726f6d20746865207a65726f206164646044820152637265737360e01b6064820152608401610aa3565b6001600160a01b0382166119785760405162461bcd60e51b815260206004820152602260248201527f45524332303a20617070726f766520746f20746865207a65726f206164647265604482015261737360f01b6064820152608401610aa3565b6001600160a01b0383811660008181526034602090815260408083209487168084529482529182902085905590518481527f8c5be1e5ebec7d5bd14f71427d1e84f3dd0314c0f7b2291e5b200ac8c7c3b925910160405180910390a3505050565b6000806119e560355490565b90508315806119f2575080155b6118af576118aa81611a02610d06565b86919086612218565b600054610100900460ff16611a325760405162461bcd60e51b8152600401610aa390612faf565b61187f81612275565b600054610100900460ff16611a625760405162461bcd60e51b8152600401610aa390612faf565b6112be82826122fa565b600054610100900460ff16611a935760405162461bcd60e51b8152600401610aa390612faf565b565b611a9f8282611647565b6112be57600082815260c9602090815260408083206001600160a01b03851684529091529020805460ff19166001179055611ad73390565b6001600160a01b0316816001600160a01b0316837f2f8788117e7eff1d82e926ec794901d17c78024a50270940304540a733656f0d60405160405180910390a45050565b6000611b27848461184a565b90506000198114611b8f5781811015611b825760405162461bcd60e51b815260206004820152601d60248201527f45524332303a20696e73756666696369656e7420616c6c6f77616e63650000006044820152606401610aa3565b611b8f84848484036118b5565b50505050565b6001600160a01b038316611bf95760405162461bcd60e51b815260206004820152602560248201527f45524332303a207472616e736665722066726f6d20746865207a65726f206164604482015264647265737360d81b6064820152608401610aa3565b6001600160a01b038216611c5b5760405162461bcd60e51b815260206004820152602360248201527f45524332303a207472616e7366657220746f20746865207a65726f206164647260448201526265737360e81b6064820152608401610aa3565b6001600160a01b03831660009081526033602052604090205481811015611cd35760405162461bcd60e51b815260206004820152602660248201527f45524332303a207472616e7366657220616d6f756e7420657863656564732062604482015265616c616e636560d01b6064820152608401610aa3565b6001600160a01b0380851660008181526033602052604080822086860390559286168082529083902080548601905591517fddf252ad1be2c89b69c2b068fc378daa952ba7f163c4a11628f55a4df523b3ef90611d339086815260200190565b60405180910390a3611b8f565b662386f26fc1000081101561187f5760405162461bcd60e51b815260206004820152601960248201527f4465706f736974206174206c6561737420302e303120455448000000000000006044820152606401610aa3565b8115611e2957611dc6333084611db56065546001600160a01b031690565b6001600160a01b031692919061233a565b606554604051632e1a7d4d60e01b8152600481018490526001600160a01b0390911690632e1a7d4d90602401600060405180830381600087803b158015611e0c57600080fd5b505af1158015611e20573d6000803e3d6000fd5b50505050611e2d565b3491505b60fc5460009081906001600160a01b03163314611f545760fc546001600160a01b0316600090815260336020526040902054611e699084612394565b9150611e748261172f565b90508115611f545760fc546040516361f4627d60e11b81526001600160a01b0387811660048301528492169063c3e8c4fa90849060240160206040518083038185885af1158015611ec9573d6000803e3d6000fd5b50505050506040513d601f19601f82011682018060405250810190611eee9190612ffa565b14611f3b5760405162461bcd60e51b815260206004820152601b60248201527f506f6f6c205f736861726573207472616e73666572206572726f7200000000006044820152606401610aa3565b611f458284612e93565b9250611f518185612e93565b93505b8215611fbb57611f6485846120b6565b846001600160a01b0316866001600160a01b03167f2f00e3cdd69a77be7ed215ec7b2a36784dd158f921fca79ac29deffa353fe6ee8686604051611fb2929190918252602082015260400190565b60405180910390a35b8360ff6000828254611fcd9190612dc7565b90915550506001600160a01b038086169087167fdcbc1c05240f31ff3ad067ef1ee35ce4997762752e3a095284754544f4c709d761200b8488612dc7565b6120158688612dc7565b6040805192835260208301919091520160405180910390a3505050505050565b61203f8282611647565b156112be57600082815260c9602090815260408083206001600160a01b0385168085529252808320805460ff1916905551339285917ff6391f5c32d9c69d2a47ea670b442974b53935d1edc7fd64eb21e047a839171b9190a45050565b6000806120a7610d06565b1180610d6e5750506035541590565b6001600160a01b03821661210c5760405162461bcd60e51b815260206004820152601f60248201527f45524332303a206d696e7420746f20746865207a65726f2061646472657373006044820152606401610aa3565b806035600082825461211e9190612dc7565b90915550506001600160a01b0382166000818152603360209081526040808320805486019055518481527fddf252ad1be2c89b69c2b068fc378daa952ba7f163c4a11628f55a4df523b3ef910160405180910390a35050565b60405162461bcd60e51b815260206004820152601860248201527f5769746864726177206e6f7420696d706c656d656e74656400000000000000006044820152606401610aa3565b6121c98282611647565b6112be576121d6816123aa565b6121e18360206123bc565b6040516020016121f2929190613013565b60408051601f198184030181529082905262461bcd60e51b8252610aa391600401612b84565b600080612226868686612557565b9050600183600281111561223c5761223c613088565b14801561225957506000848061225457612254612f40565b868809115b1561226c57612269600182612dc7565b90505b95945050505050565b600054610100900460ff1661229c5760405162461bcd60e51b8152600401610aa390612faf565b6000806122a883612606565b91509150816122b85760126122ba565b805b606580546001600160a01b039095166001600160a01b031960ff93909316600160a01b02929092166001600160a81b031990951694909417179092555050565b600054610100900460ff166123215760405162461bcd60e51b8152600401610aa390612faf565b603661232d83826130e4565b50603761123f82826130e4565b604080516001600160a01b0385811660248301528416604482015260648082018490528251808303909101815260849091019091526020810180516001600160e01b03166323b872dd60e01b179052611b8f9085906126e2565b60008183106123a357816111e4565b5090919050565b6060610da46001600160a01b03831660145b606060006123cb836002612f78565b6123d6906002612dc7565b6001600160401b038111156123ed576123ed6128d7565b6040519080825280601f01601f191660200182016040528015612417576020820181803683370190505b509050600360fc1b8160008151811061243257612432612dda565b60200101906001600160f81b031916908160001a905350600f60fb1b8160018151811061246157612461612dda565b60200101906001600160f81b031916908160001a9053506000612485846002612f78565b612490906001612dc7565b90505b6001811115612508576f181899199a1a9b1b9c1cb0b131b232b360811b85600f16601081106124c4576124c4612dda565b1a60f81b8282815181106124da576124da612dda565b60200101906001600160f81b031916908160001a90535060049490941c93612501816131a3565b9050612493565b5083156111e45760405162461bcd60e51b815260206004820181905260248201527f537472696e67733a20686578206c656e67746820696e73756666696369656e746044820152606401610aa3565b60008080600019858709858702925082811083820303915050806000036125915783828161258757612587612f40565b04925050506111e4565b80841161259d57600080fd5b60008486880960026001871981018816978890046003810283188082028403028082028403028082028403028082028403028082028403029081029092039091026000889003889004909101858311909403939093029303949094049190911702949350505050565b60408051600481526024810182526020810180516001600160e01b031663313ce56760e01b17905290516000918291829182916001600160a01b0387169161264d91612e5e565b600060405180830381855afa9150503d8060008114612688576040519150601f19603f3d011682016040523d82523d6000602084013e61268d565b606091505b50915091508180156126a157506020815110155b156126d5576000818060200190518101906126bc9190612ffa565b905060ff81116126d3576001969095509350505050565b505b5060009485945092505050565b6000612737826040518060400160405280602081526020017f5361666545524332303a206c6f772d6c6576656c2063616c6c206661696c6564815250856001600160a01b03166127b49092919063ffffffff16565b80519091501561123f578080602001905181019061275591906131ba565b61123f5760405162461bcd60e51b815260206004820152602a60248201527f5361666545524332303a204552433230206f7065726174696f6e20646964206e6044820152691bdd081cdd58d8d9595960b21b6064820152608401610aa3565b60606117a6848460008585600080866001600160a01b031685876040516127db9190612e5e565b60006040518083038185875af1925050503d8060008114612818576040519150601f19603f3d011682016040523d82523d6000602084013e61281d565b606091505b509150915061282e87838387612839565b979650505050505050565b606083156128a85782516000036128a1576001600160a01b0385163b6128a15760405162461bcd60e51b815260206004820152601d60248201527f416464726573733a2063616c6c20746f206e6f6e2d636f6e74726163740000006044820152606401610aa3565b50816117a6565b6117a683838151156128bd5781518083602001fd5b8060405162461bcd60e51b8152600401610aa39190612b84565b634e487b7160e01b600052604160045260246000fd5b604051608081016001600160401b038111828210171561290f5761290f6128d7565b60405290565b604051601f8201601f191681016001600160401b038111828210171561293d5761293d6128d7565b604052919050565b600082601f83011261295657600080fd5b81356001600160401b0381111561296f5761296f6128d7565b612982601f8201601f1916602001612915565b81815284602083860101111561299757600080fd5b816020850160208301376000918101602001919091529392505050565b600080604083850312156129c757600080fd5b82356001600160401b03808211156129de57600080fd5b818501915085601f8301126129f257600080fd5b8135602082821115612a0657612a066128d7565b8160051b612a15828201612915565b928352848101820192828101908a851115612a2f57600080fd5b83870192505b84831015612af957823586811115612a4c57600080fd5b87016080818d03601f19011215612a635760008081fd5b612a6b6128ed565b8582013588811115612a7d5760008081fd5b612a8b8e8883860101612945565b825250604082013588811115612aa15760008081fd5b612aaf8e8883860101612945565b878301525060608083013589811115612ac85760008081fd5b612ad68f8983870101612945565b604084015250608092909201359181019190915282529183019190830190612a35565b9a9890920135985050505050505050565b600060208284031215612b1c57600080fd5b81356001600160e01b0319811681146111e457600080fd5b60005b83811015612b4f578181015183820152602001612b37565b50506000910152565b60008151808452612b70816020860160208601612b34565b601f01601f19169290920160200192915050565b6020815260006111e46020830184612b58565b600060208284031215612ba957600080fd5b5035919050565b6001600160a01b038116811461187f57600080fd5b60008060408385031215612bd857600080fd5b8235612be381612bb0565b946020939093013593505050565b600080600080600060a08688031215612c0957600080fd5b8535612c1481612bb0565b94506020860135612c2481612bb0565b93506040860135612c3481612bb0565b92506060860135612c4481612bb0565b91506080860135612c5481612bb0565b809150509295509295909350565b600080600060608486031215612c7757600080fd5b8335612c8281612bb0565b92506020840135612c9281612bb0565b929592945050506040919091013590565b600060208284031215612cb557600080fd5b81356111e481612bb0565b60008060408385031215612cd357600080fd5b823591506020830135612ce581612bb0565b809150509250929050565b600060208284031215612d0257600080fd5b813561ffff811681146111e457600080fd5b600080600060608486031215612d2957600080fd5b833592506020840135612d3b81612bb0565b91506040840135612d4b81612bb0565b809150509250925092565b60008060408385031215612d6957600080fd5b8235612d7481612bb0565b91506020830135612ce581612bb0565b634e487b7160e01b600052601160045260246000fd5b68ffffffffffffffffff818116838216028082169190828114612dbf57612dbf612d84565b505092915050565b80820180821115610da457610da4612d84565b634e487b7160e01b600052603260045260246000fd5b608081526000612e036080830187612b58565b8281036020840152612e158187612b58565b90508281036040840152612e298186612b58565b91505082606083015295945050505050565b600063ffffffff808316818103612e5457612e54612d84565b6001019392505050565b60008251612e70818460208701612b34565b9190910192915050565b600060018201612e8c57612e8c612d84565b5060010190565b81810381811115610da457610da4612d84565b6001600160401b0382811682821603908082111561164057611640612d84565b6001600160401b03818116838216028082169190828114612dbf57612dbf612d84565b600181811c90821680612efd57607f821691505b60208210810361121457634e487b7160e01b600052602260045260246000fd5b600060208284031215612f2f57600080fd5b815160ff811681146111e457600080fd5b634e487b7160e01b600052601260045260246000fd5b600082612f7357634e487b7160e01b600052601260045260246000fd5b500490565b8082028115828204841417610da457610da4612d84565b6001600160401b0381811683821601908082111561164057611640612d84565b6020808252602b908201527f496e697469616c697a61626c653a20636f6e7472616374206973206e6f74206960408201526a6e697469616c697a696e6760a81b606082015260800190565b60006020828403121561300c57600080fd5b5051919050565b7f416363657373436f6e74726f6c3a206163636f756e742000000000000000000081526000835161304b816017850160208801612b34565b7001034b99036b4b9b9b4b733903937b6329607d1b601791840191820152835161307c816028840160208801612b34565b01602801949350505050565b634e487b7160e01b600052602160045260246000fd5b601f82111561123f57600081815260208120601f850160051c810160208610156130c55750805b601f850160051c820191505b818110156111bd578281556001016130d1565b81516001600160401b038111156130fd576130fd6128d7565b6131118161310b8454612ee9565b8461309e565b602080601f831160018114613146576000841561312e5750858301515b600019600386901b1c1916600185901b1785556111bd565b600085815260208120601f198616915b8281101561317557888601518255948401946001909101908401613156565b50858210156131935787850151600019600388901b60f8161c191681555b5050505050600190811b01905550565b6000816131b2576131b2612d84565b506000190190565b6000602082840312156131cc57600080fd5b815180151581146111e457600080fdfea2646970667358221220f5e7ffee30a1cd4cb730a9e53c07d2068a6559b2f089339ea822fd8f894da8d664736f6c63430008110033",
  "linkReferences": {},
  "deployedLinkReferences": {}
}