{
  "_format": "hh-sol-artifact-1",
  "contractName": "Staking",
  "sourceName": "contracts/Staking.sol",
  "abi": [
    {
      "inputs": [
        {
          "internalType": "uint16",
          "name": "_acceptableUnderlyingChangeSent",
          "type": "uint16"
        },
        {
          "internalType": "uint16",
          "name": "_maxAcceptableUnderlyingChange",
          "type": "uint16"
        }
      ],
      "name": "AcceptableUnderlyingChangeTooBig",
      "type": "error"
    },
    {
      "inputs": [
        {
          "internalType": "uint256",
          "name": "_minAmount",
          "type": "uint256"
        },
        {
          "internalType": "uint256",
          "name": "_amountSent",
          "type": "uint256"
        }
      ],
      "name": "DepositTooLow",
      "type": "error"
    },
    {
      "inputs": [
        {
          "internalType": "uint16",
          "name": "_sentFee",
          "type": "uint16"
        },
        {
          "internalType": "uint16",
          "name": "_maxFee",
          "type": "uint16"
        }
      ],
      "name": "FeeSentTooBig",
      "type": "error"
    },
    {
      "inputs": [
        {
          "internalType": "uint64",
          "name": "_from",
          "type": "uint64"
        },
        {
          "internalType": "uint64",
          "name": "_lastEpochReported",
          "type": "uint64"
        }
      ],
      "name": "InvalidEpochFrom",
      "type": "error"
    },
    {
      "inputs": [
        {
          "internalType": "uint64",
          "name": "_from",
          "type": "uint64"
        },
        {
          "internalType": "uint64",
          "name": "_to",
          "type": "uint64"
        }
      ],
      "name": "InvalidEpochs",
      "type": "error"
    },
    {
      "inputs": [
        {
          "internalType": "bytes",
          "name": "_pubkey",
          "type": "bytes"
        }
      ],
      "name": "NodeAlreadyUsed",
      "type": "error"
    },
    {
      "inputs": [
        {
          "internalType": "uint256",
          "name": "_stakingBalance",
          "type": "uint256"
        },
        {
          "internalType": "uint256",
          "name": "_requestedToPool",
          "type": "uint256"
        },
        {
          "internalType": "uint256",
          "name": "_requestedToWithdrawal",
          "type": "uint256"
        },
        {
          "internalType": "uint256",
          "name": "_requiredBalance",
          "type": "uint256"
        }
      ],
      "name": "NotEnoughETHtoStake",
      "type": "error"
    },
    {
      "inputs": [
        {
          "internalType": "int256",
          "name": "_rewardsPerSecondSent",
          "type": "int256"
        },
        {
          "internalType": "int256",
          "name": "_maxRewardsPerSecond",
          "type": "int256"
        }
      ],
      "name": "RewardsPerSecondTooBig",
      "type": "error"
    },
    {
      "inputs": [
        {
          "internalType": "uint256",
          "name": "_unlockTimestamp",
          "type": "uint256"
        },
        {
          "internalType": "uint256",
          "name": "_currentTimestamp",
          "type": "uint256"
        }
      ],
      "name": "SubmitReportTimelocked",
      "type": "error"
    },
    {
      "inputs": [
        {
          "internalType": "uint256",
          "name": "_currentTotalAssets",
          "type": "uint256"
        },
        {
          "internalType": "uint256",
          "name": "_newTotalUnderlying",
          "type": "uint256"
        },
        {
          "internalType": "uint256",
          "name": "_difference",
          "type": "uint256"
        },
        {
          "internalType": "uint256",
          "name": "_maxDifference",
          "type": "uint256"
        }
      ],
      "name": "UpdateTooBig",
      "type": "error"
    },
    {
      "inputs": [
        {
          "internalType": "address",
          "name": "_user",
          "type": "address"
        }
      ],
      "name": "UserNotWhitelisted",
      "type": "error"
    },
    {
      "inputs": [
        {
          "internalType": "string",
          "name": "_address",
          "type": "string"
        }
      ],
      "name": "ZeroAddress",
      "type": "error"
    },
    {
      "anonymous": false,
      "inputs": [
        {
          "indexed": true,
          "internalType": "address",
          "name": "owner",
          "type": "address"
        },
        {
          "indexed": true,
          "internalType": "address",
          "name": "spender",
          "type": "address"
        },
        {
          "indexed": false,
          "internalType": "uint256",
          "name": "value",
          "type": "uint256"
        }
      ],
      "name": "Approval",
      "type": "event"
    },
    {
      "anonymous": false,
      "inputs": [
        {
          "indexed": true,
          "internalType": "address",
          "name": "sender",
          "type": "address"
        },
        {
          "indexed": true,
          "internalType": "address",
          "name": "owner",
          "type": "address"
        },
        {
          "indexed": false,
          "internalType": "uint256",
          "name": "assets",
          "type": "uint256"
        },
        {
          "indexed": false,
          "internalType": "uint256",
          "name": "shares",
          "type": "uint256"
        }
      ],
      "name": "Deposit",
      "type": "event"
    },
    {
      "anonymous": false,
      "inputs": [
        {
          "indexed": false,
          "internalType": "uint8",
          "name": "version",
          "type": "uint8"
        }
      ],
      "name": "Initialized",
      "type": "event"
    },
    {
      "anonymous": false,
      "inputs": [
        {
          "indexed": true,
          "internalType": "address",
          "name": "sender",
          "type": "address"
        },
        {
          "indexed": true,
          "internalType": "address",
          "name": "owner",
          "type": "address"
        },
        {
          "indexed": false,
          "internalType": "uint256",
          "name": "assets",
          "type": "uint256"
        },
        {
          "indexed": false,
          "internalType": "uint256",
          "name": "shares",
          "type": "uint256"
        }
      ],
      "name": "Mint",
      "type": "event"
    },
    {
      "anonymous": false,
      "inputs": [
        {
          "components": [
            {
              "internalType": "uint64",
              "name": "from",
              "type": "uint64"
            },
            {
              "internalType": "uint64",
              "name": "to",
              "type": "uint64"
            },
            {
              "internalType": "uint256",
              "name": "rewards",
              "type": "uint256"
            },
            {
              "internalType": "uint256",
              "name": "penalties",
              "type": "uint256"
            }
          ],
          "indexed": false,
          "internalType": "struct Staking.EpochsReport",
          "name": "report",
          "type": "tuple"
        },
        {
          "indexed": false,
          "internalType": "uint256",
          "name": "newTotalUnderlying",
          "type": "uint256"
        }
      ],
      "name": "ReportEpochs",
      "type": "event"
    },
    {
      "anonymous": false,
      "inputs": [
        {
          "indexed": true,
          "internalType": "bytes32",
          "name": "role",
          "type": "bytes32"
        },
        {
          "indexed": true,
          "internalType": "bytes32",
          "name": "previousAdminRole",
          "type": "bytes32"
        },
        {
          "indexed": true,
          "internalType": "bytes32",
          "name": "newAdminRole",
          "type": "bytes32"
        }
      ],
      "name": "RoleAdminChanged",
      "type": "event"
    },
    {
      "anonymous": false,
      "inputs": [
        {
          "indexed": true,
          "internalType": "bytes32",
          "name": "role",
          "type": "bytes32"
        },
        {
          "indexed": true,
          "internalType": "address",
          "name": "account",
          "type": "address"
        },
        {
          "indexed": true,
          "internalType": "address",
          "name": "sender",
          "type": "address"
        }
      ],
      "name": "RoleGranted",
      "type": "event"
    },
    {
      "anonymous": false,
      "inputs": [
        {
          "indexed": true,
          "internalType": "bytes32",
          "name": "role",
          "type": "bytes32"
        },
        {
          "indexed": true,
          "internalType": "address",
          "name": "account",
          "type": "address"
        },
        {
          "indexed": true,
          "internalType": "address",
          "name": "sender",
          "type": "address"
        }
      ],
      "name": "RoleRevoked",
      "type": "event"
    },
    {
      "anonymous": false,
      "inputs": [
        {
          "indexed": false,
          "internalType": "uint256",
          "name": "nodeId",
          "type": "uint256"
        },
        {
          "indexed": true,
          "internalType": "bytes",
          "name": "pubkey",
          "type": "bytes"
        }
      ],
      "name": "Stake",
      "type": "event"
    },
    {
      "anonymous": false,
      "inputs": [
        {
          "indexed": true,
          "internalType": "address",
          "name": "from",
          "type": "address"
        },
        {
          "indexed": true,
          "internalType": "address",
          "name": "to",
          "type": "address"
        },
        {
          "indexed": false,
          "internalType": "uint256",
          "name": "value",
          "type": "uint256"
        }
      ],
      "name": "Transfer",
      "type": "event"
    },
    {
      "anonymous": false,
      "inputs": [
        {
          "indexed": false,
          "internalType": "uint256",
          "name": "nodeId",
          "type": "uint256"
        },
        {
          "components": [
            {
              "internalType": "bytes",
              "name": "pubkey",
              "type": "bytes"
            },
            {
              "internalType": "bytes",
              "name": "signature",
              "type": "bytes"
            },
            {
              "internalType": "bytes32",
              "name": "depositDataRoot",
              "type": "bytes32"
            }
          ],
          "indexed": false,
          "internalType": "struct Staking.Node",
          "name": "data",
          "type": "tuple"
        }
      ],
      "name": "UpdateNodeData",
      "type": "event"
    },
    {
      "anonymous": false,
      "inputs": [
        {
          "indexed": true,
          "internalType": "address",
          "name": "sender",
          "type": "address"
        },
        {
          "indexed": true,
          "internalType": "address",
          "name": "receiver",
          "type": "address"
        },
        {
          "indexed": true,
          "internalType": "address",
          "name": "owner",
          "type": "address"
        },
        {
          "indexed": false,
          "internalType": "uint256",
          "name": "assets",
          "type": "uint256"
        },
        {
          "indexed": false,
          "internalType": "uint256",
          "name": "shares",
          "type": "uint256"
        }
      ],
      "name": "Withdraw",
      "type": "event"
    },
    {
      "inputs": [],
      "name": "ACTIVATOR_ROLE",
      "outputs": [
        {
          "internalType": "bytes32",
          "name": "",
          "type": "bytes32"
        }
      ],
      "stateMutability": "view",
      "type": "function"
    },
    {
      "inputs": [],
      "name": "DEFAULT_ADMIN_ROLE",
      "outputs": [
        {
          "internalType": "bytes32",
          "name": "",
          "type": "bytes32"
        }
      ],
      "stateMutability": "view",
      "type": "function"
    },
    {
      "inputs": [],
      "name": "MAX_ACCEPTABLE_UNDERLYING_CHANGE",
      "outputs": [
        {
          "internalType": "uint16",
          "name": "",
          "type": "uint16"
        }
      ],
      "stateMutability": "view",
      "type": "function"
    },
    {
      "inputs": [],
      "name": "MAX_DEPOSIT_FEE",
      "outputs": [
        {
          "internalType": "uint16",
          "name": "",
          "type": "uint16"
        }
      ],
      "stateMutability": "view",
      "type": "function"
    },
    {
      "inputs": [],
      "name": "MAX_REWARDS_FEE",
      "outputs": [
        {
          "internalType": "uint16",
          "name": "",
          "type": "uint16"
        }
      ],
      "stateMutability": "view",
      "type": "function"
    },
    {
      "inputs": [],
      "name": "MIN_DEPOSIT",
      "outputs": [
        {
          "internalType": "uint64",
          "name": "",
          "type": "uint64"
        }
      ],
      "stateMutability": "view",
      "type": "function"
    },
    {
      "inputs": [],
      "name": "SUBMIT_REPORT_TIMELOCK",
      "outputs": [
        {
          "internalType": "uint64",
          "name": "",
          "type": "uint64"
        }
      ],
      "stateMutability": "view",
      "type": "function"
    },
    {
      "inputs": [],
      "name": "UPDATER_ROLE",
      "outputs": [
        {
          "internalType": "bytes32",
          "name": "",
          "type": "bytes32"
        }
      ],
      "stateMutability": "view",
      "type": "function"
    },
    {
      "inputs": [],
      "name": "acceptableUnderlyingChange",
      "outputs": [
        {
          "internalType": "uint16",
          "name": "",
          "type": "uint16"
        }
      ],
      "stateMutability": "view",
      "type": "function"
    },
    {
      "inputs": [
        {
          "internalType": "address[]",
          "name": "addresses",
          "type": "address[]"
        }
      ],
      "name": "addToWhitelist",
      "outputs": [],
      "stateMutability": "nonpayable",
      "type": "function"
    },
    {
      "inputs": [
        {
          "internalType": "address",
          "name": "owner",
          "type": "address"
        },
        {
          "internalType": "address",
          "name": "spender",
          "type": "address"
        }
      ],
      "name": "allowance",
      "outputs": [
        {
          "internalType": "uint256",
          "name": "",
          "type": "uint256"
        }
      ],
      "stateMutability": "view",
      "type": "function"
    },
    {
      "inputs": [
        {
          "internalType": "address",
          "name": "spender",
          "type": "address"
        },
        {
          "internalType": "uint256",
          "name": "amount",
          "type": "uint256"
        }
      ],
      "name": "approve",
      "outputs": [
        {
          "internalType": "bool",
          "name": "",
          "type": "bool"
        }
      ],
      "stateMutability": "nonpayable",
      "type": "function"
    },
    {
      "inputs": [],
      "name": "asset",
      "outputs": [
        {
          "internalType": "address",
          "name": "",
          "type": "address"
        }
      ],
      "stateMutability": "view",
      "type": "function"
    },
    {
      "inputs": [
        {
          "internalType": "address",
          "name": "account",
          "type": "address"
        }
      ],
      "name": "balanceOf",
      "outputs": [
        {
          "internalType": "uint256",
          "name": "",
          "type": "uint256"
        }
      ],
      "stateMutability": "view",
      "type": "function"
    },
    {
      "inputs": [
        {
          "internalType": "uint256",
          "name": "shares",
          "type": "uint256"
        }
      ],
      "name": "convertToAssets",
      "outputs": [
        {
          "internalType": "uint256",
          "name": "assets",
          "type": "uint256"
        }
      ],
      "stateMutability": "view",
      "type": "function"
    },
    {
      "inputs": [
        {
          "internalType": "uint256",
          "name": "assets",
          "type": "uint256"
        }
      ],
      "name": "convertToShares",
      "outputs": [
        {
          "internalType": "uint256",
          "name": "shares",
          "type": "uint256"
        }
      ],
      "stateMutability": "view",
      "type": "function"
    },
    {
      "inputs": [],
      "name": "decimals",
      "outputs": [
        {
          "internalType": "uint8",
          "name": "",
          "type": "uint8"
        }
      ],
      "stateMutability": "view",
      "type": "function"
    },
    {
      "inputs": [
        {
          "internalType": "address",
          "name": "spender",
          "type": "address"
        },
        {
          "internalType": "uint256",
          "name": "subtractedValue",
          "type": "uint256"
        }
      ],
      "name": "decreaseAllowance",
      "outputs": [
        {
          "internalType": "bool",
          "name": "",
          "type": "bool"
        }
      ],
      "stateMutability": "nonpayable",
      "type": "function"
    },
    {
      "inputs": [
        {
          "internalType": "uint256",
          "name": "_assets",
          "type": "uint256"
        },
        {
          "internalType": "address",
          "name": "_receiver",
          "type": "address"
        }
      ],
      "name": "deposit",
      "outputs": [
        {
          "internalType": "uint256",
          "name": "",
          "type": "uint256"
        }
      ],
      "stateMutability": "nonpayable",
      "type": "function"
    },
    {
      "inputs": [],
      "name": "depositContract",
      "outputs": [
        {
          "internalType": "contract IDeposit",
          "name": "",
          "type": "address"
        }
      ],
      "stateMutability": "view",
      "type": "function"
    },
    {
      "inputs": [
        {
          "internalType": "address",
          "name": "_receiver",
          "type": "address"
        }
      ],
      "name": "depositETH",
      "outputs": [
        {
          "internalType": "uint256",
          "name": "",
          "type": "uint256"
        }
      ],
      "stateMutability": "payable",
      "type": "function"
    },
    {
      "inputs": [],
      "name": "depositFee",
      "outputs": [
        {
          "internalType": "uint16",
          "name": "",
          "type": "uint16"
        }
      ],
      "stateMutability": "view",
      "type": "function"
    },
    {
      "inputs": [],
      "name": "estimatedRewardsPerSecond",
      "outputs": [
        {
          "internalType": "int256",
          "name": "",
          "type": "int256"
        }
      ],
      "stateMutability": "view",
      "type": "function"
    },
    {
      "inputs": [
        {
          "internalType": "bytes32",
          "name": "role",
          "type": "bytes32"
        }
      ],
      "name": "getRoleAdmin",
      "outputs": [
        {
          "internalType": "bytes32",
          "name": "",
          "type": "bytes32"
        }
      ],
      "stateMutability": "view",
      "type": "function"
    },
    {
      "inputs": [
        {
          "internalType": "bytes32",
          "name": "role",
          "type": "bytes32"
        },
        {
          "internalType": "address",
          "name": "account",
          "type": "address"
        }
      ],
      "name": "grantRole",
      "outputs": [],
      "stateMutability": "nonpayable",
      "type": "function"
    },
    {
      "inputs": [
        {
          "internalType": "bytes32",
          "name": "role",
          "type": "bytes32"
        },
        {
          "internalType": "address",
          "name": "account",
          "type": "address"
        }
      ],
      "name": "hasRole",
      "outputs": [
        {
          "internalType": "bool",
          "name": "",
          "type": "bool"
        }
      ],
      "stateMutability": "view",
      "type": "function"
    },
    {
      "inputs": [
        {
          "internalType": "address",
          "name": "spender",
          "type": "address"
        },
        {
          "internalType": "uint256",
          "name": "addedValue",
          "type": "uint256"
        }
      ],
      "name": "increaseAllowance",
      "outputs": [
        {
          "internalType": "bool",
          "name": "",
          "type": "bool"
        }
      ],
      "stateMutability": "nonpayable",
      "type": "function"
    },
    {
      "inputs": [
        {
          "internalType": "address",
          "name": "_liquidPool",
          "type": "address"
        },
        {
          "internalType": "address",
          "name": "_withdrawal",
          "type": "address"
        },
        {
          "internalType": "address",
          "name": "_depositContract",
          "type": "address"
        },
        {
          "internalType": "contract IERC20MetadataUpgradeable",
          "name": "_weth",
          "type": "address"
        },
        {
          "internalType": "address",
          "name": "_treasury",
          "type": "address"
        },
        {
          "internalType": "address",
          "name": "_updater",
          "type": "address"
        },
        {
          "internalType": "address",
          "name": "_activator",
          "type": "address"
        }
      ],
      "name": "initialize",
      "outputs": [],
      "stateMutability": "nonpayable",
      "type": "function"
    },
    {
      "inputs": [],
      "name": "lastEpochReported",
      "outputs": [
        {
          "internalType": "uint64",
          "name": "",
          "type": "uint64"
        }
      ],
      "stateMutability": "view",
      "type": "function"
    },
    {
      "inputs": [],
      "name": "liquidUnstakePool",
      "outputs": [
        {
          "internalType": "address payable",
          "name": "",
          "type": "address"
        }
      ],
      "stateMutability": "view",
      "type": "function"
    },
    {
      "inputs": [
        {
          "internalType": "address",
          "name": "",
          "type": "address"
        }
      ],
      "name": "maxDeposit",
      "outputs": [
        {
          "internalType": "uint256",
          "name": "",
          "type": "uint256"
        }
      ],
      "stateMutability": "view",
      "type": "function"
    },
    {
      "inputs": [
        {
          "internalType": "address",
          "name": "",
          "type": "address"
        }
      ],
      "name": "maxMint",
      "outputs": [
        {
          "internalType": "uint256",
          "name": "",
          "type": "uint256"
        }
      ],
      "stateMutability": "view",
      "type": "function"
    },
    {
      "inputs": [
        {
          "internalType": "address",
          "name": "owner",
          "type": "address"
        }
      ],
      "name": "maxRedeem",
      "outputs": [
        {
          "internalType": "uint256",
          "name": "",
          "type": "uint256"
        }
      ],
      "stateMutability": "view",
      "type": "function"
    },
    {
      "inputs": [
        {
          "internalType": "address",
          "name": "owner",
          "type": "address"
        }
      ],
      "name": "maxWithdraw",
      "outputs": [
        {
          "internalType": "uint256",
          "name": "",
          "type": "uint256"
        }
      ],
      "stateMutability": "view",
      "type": "function"
    },
    {
      "inputs": [
        {
          "internalType": "uint256",
          "name": "shares",
          "type": "uint256"
        },
        {
          "internalType": "address",
          "name": "receiver",
          "type": "address"
        }
      ],
      "name": "mint",
      "outputs": [
        {
          "internalType": "uint256",
          "name": "",
          "type": "uint256"
        }
      ],
      "stateMutability": "nonpayable",
      "type": "function"
    },
    {
      "inputs": [],
      "name": "name",
      "outputs": [
        {
          "internalType": "string",
          "name": "",
          "type": "string"
        }
      ],
      "stateMutability": "view",
      "type": "function"
    },
    {
      "inputs": [
        {
          "internalType": "bytes",
          "name": "",
          "type": "bytes"
        }
      ],
      "name": "nodePubkeyUsed",
      "outputs": [
        {
          "internalType": "bool",
          "name": "",
          "type": "bool"
        }
      ],
      "stateMutability": "view",
      "type": "function"
    },
    {
      "inputs": [
        {
          "internalType": "uint256",
          "name": "assets",
          "type": "uint256"
        }
      ],
      "name": "previewDeposit",
      "outputs": [
        {
          "internalType": "uint256",
          "name": "",
          "type": "uint256"
        }
      ],
      "stateMutability": "view",
      "type": "function"
    },
    {
      "inputs": [
        {
          "internalType": "uint256",
          "name": "shares",
          "type": "uint256"
        }
      ],
      "name": "previewMint",
      "outputs": [
        {
          "internalType": "uint256",
          "name": "",
          "type": "uint256"
        }
      ],
      "stateMutability": "view",
      "type": "function"
    },
    {
      "inputs": [
        {
          "internalType": "uint256",
          "name": "shares",
          "type": "uint256"
        }
      ],
      "name": "previewRedeem",
      "outputs": [
        {
          "internalType": "uint256",
          "name": "",
          "type": "uint256"
        }
      ],
      "stateMutability": "view",
      "type": "function"
    },
    {
      "inputs": [
        {
          "internalType": "uint256",
          "name": "assets",
          "type": "uint256"
        }
      ],
      "name": "previewWithdraw",
      "outputs": [
        {
          "internalType": "uint256",
          "name": "",
          "type": "uint256"
        }
      ],
      "stateMutability": "view",
      "type": "function"
    },
    {
      "inputs": [
        {
          "components": [
            {
              "internalType": "bytes",
              "name": "pubkey",
              "type": "bytes"
            },
            {
              "internalType": "bytes",
              "name": "signature",
              "type": "bytes"
            },
            {
              "internalType": "bytes32",
              "name": "depositDataRoot",
              "type": "bytes32"
            }
          ],
          "internalType": "struct Staking.Node[]",
          "name": "_nodes",
          "type": "tuple[]"
        },
        {
          "internalType": "uint256",
          "name": "_requestPoolAmount",
          "type": "uint256"
        },
        {
          "internalType": "uint256",
          "name": "_requestWithdrawalAmount",
          "type": "uint256"
        }
      ],
      "name": "pushToBeacon",
      "outputs": [],
      "stateMutability": "nonpayable",
      "type": "function"
    },
    {
      "inputs": [
        {
          "internalType": "uint256",
          "name": "shares",
          "type": "uint256"
        },
        {
          "internalType": "address",
          "name": "receiver",
          "type": "address"
        },
        {
          "internalType": "address",
          "name": "owner",
          "type": "address"
        }
      ],
      "name": "redeem",
      "outputs": [
        {
          "internalType": "uint256",
          "name": "",
          "type": "uint256"
        }
      ],
      "stateMutability": "nonpayable",
      "type": "function"
    },
    {
      "inputs": [
        {
          "internalType": "address[]",
          "name": "addresses",
          "type": "address[]"
        }
      ],
      "name": "removeFromWhitelist",
      "outputs": [],
      "stateMutability": "nonpayable",
      "type": "function"
    },
    {
      "inputs": [
        {
          "internalType": "bytes32",
          "name": "role",
          "type": "bytes32"
        },
        {
          "internalType": "address",
          "name": "account",
          "type": "address"
        }
      ],
      "name": "renounceRole",
      "outputs": [],
      "stateMutability": "nonpayable",
      "type": "function"
    },
    {
      "inputs": [
        {
          "components": [
            {
              "internalType": "uint64",
              "name": "from",
              "type": "uint64"
            },
            {
              "internalType": "uint64",
              "name": "to",
              "type": "uint64"
            },
            {
              "internalType": "uint256",
              "name": "rewards",
              "type": "uint256"
            },
            {
              "internalType": "uint256",
              "name": "penalties",
              "type": "uint256"
            }
          ],
          "internalType": "struct Staking.EpochsReport",
          "name": "_epochsReport",
          "type": "tuple"
        },
        {
          "internalType": "int256",
          "name": "_estimatedRewardsPerSecond",
          "type": "int256"
        }
      ],
      "name": "reportEpochs",
      "outputs": [],
      "stateMutability": "nonpayable",
      "type": "function"
    },
    {
      "inputs": [
        {
          "internalType": "uint256",
          "name": "_requestedETH",
          "type": "uint256"
        }
      ],
      "name": "requestEthFromLiquidPoolToWithdrawal",
      "outputs": [],
      "stateMutability": "nonpayable",
      "type": "function"
    },
    {
      "inputs": [
        {
          "internalType": "bytes32",
          "name": "role",
          "type": "bytes32"
        },
        {
          "internalType": "address",
          "name": "account",
          "type": "address"
        }
      ],
      "name": "revokeRole",
      "outputs": [],
      "stateMutability": "nonpayable",
      "type": "function"
    },
    {
      "inputs": [],
      "name": "rewardsFee",
      "outputs": [
        {
          "internalType": "uint16",
          "name": "",
          "type": "uint16"
        }
      ],
      "stateMutability": "view",
      "type": "function"
    },
    {
      "inputs": [],
      "name": "submitReportUnlockTime",
      "outputs": [
        {
          "internalType": "uint256",
          "name": "",
          "type": "uint256"
        }
      ],
      "stateMutability": "view",
      "type": "function"
    },
    {
      "inputs": [
        {
          "internalType": "bytes4",
          "name": "interfaceId",
          "type": "bytes4"
        }
      ],
      "name": "supportsInterface",
      "outputs": [
        {
          "internalType": "bool",
          "name": "",
          "type": "bool"
        }
      ],
      "stateMutability": "view",
      "type": "function"
    },
    {
      "inputs": [],
      "name": "symbol",
      "outputs": [
        {
          "internalType": "string",
          "name": "",
          "type": "string"
        }
      ],
      "stateMutability": "view",
      "type": "function"
    },
    {
      "inputs": [],
      "name": "toggleWhitelistEnabled",
      "outputs": [],
      "stateMutability": "nonpayable",
      "type": "function"
    },
    {
      "inputs": [],
      "name": "totalAssets",
      "outputs": [
        {
          "internalType": "uint256",
          "name": "assets",
          "type": "uint256"
        }
      ],
      "stateMutability": "view",
      "type": "function"
    },
    {
      "inputs": [],
      "name": "totalNodesActivated",
      "outputs": [
        {
          "internalType": "uint32",
          "name": "",
          "type": "uint32"
        }
      ],
      "stateMutability": "view",
      "type": "function"
    },
    {
      "inputs": [],
      "name": "totalSupply",
      "outputs": [
        {
          "internalType": "uint256",
          "name": "",
          "type": "uint256"
        }
      ],
      "stateMutability": "view",
      "type": "function"
    },
    {
      "inputs": [],
      "name": "totalUnderlying",
      "outputs": [
        {
          "internalType": "uint256",
          "name": "",
          "type": "uint256"
        }
      ],
      "stateMutability": "view",
      "type": "function"
    },
    {
      "inputs": [
        {
          "internalType": "address",
          "name": "to",
          "type": "address"
        },
        {
          "internalType": "uint256",
          "name": "amount",
          "type": "uint256"
        }
      ],
      "name": "transfer",
      "outputs": [
        {
          "internalType": "bool",
          "name": "",
          "type": "bool"
        }
      ],
      "stateMutability": "nonpayable",
      "type": "function"
    },
    {
      "inputs": [
        {
          "internalType": "address",
          "name": "from",
          "type": "address"
        },
        {
          "internalType": "address",
          "name": "to",
          "type": "address"
        },
        {
          "internalType": "uint256",
          "name": "amount",
          "type": "uint256"
        }
      ],
      "name": "transferFrom",
      "outputs": [
        {
          "internalType": "bool",
          "name": "",
          "type": "bool"
        }
      ],
      "stateMutability": "nonpayable",
      "type": "function"
    },
    {
      "inputs": [],
      "name": "treasury",
      "outputs": [
        {
          "internalType": "address",
          "name": "",
          "type": "address"
        }
      ],
      "stateMutability": "view",
      "type": "function"
    },
    {
      "inputs": [
        {
          "internalType": "uint16",
          "name": "_acceptableUnderlyingChange",
          "type": "uint16"
        }
      ],
      "name": "updateAcceptableUnderlyingChange",
      "outputs": [],
      "stateMutability": "nonpayable",
      "type": "function"
    },
    {
      "inputs": [
        {
          "internalType": "uint16",
          "name": "_depositFee",
          "type": "uint16"
        }
      ],
      "name": "updateDepositFee",
      "outputs": [],
      "stateMutability": "nonpayable",
      "type": "function"
    },
    {
      "inputs": [
        {
          "internalType": "int256",
          "name": "_estimatedRewardsPerSecond",
          "type": "int256"
        }
      ],
      "name": "updateEstimatedRewardsPerSecond",
      "outputs": [],
      "stateMutability": "nonpayable",
      "type": "function"
    },
    {
      "inputs": [
        {
          "internalType": "address payable",
          "name": "_liquidPool",
          "type": "address"
        }
      ],
      "name": "updateLiquidPool",
      "outputs": [],
      "stateMutability": "nonpayable",
      "type": "function"
    },
    {
      "inputs": [
        {
          "internalType": "uint16",
          "name": "_rewardsFee",
          "type": "uint16"
        }
      ],
      "name": "updateRewardsFee",
      "outputs": [],
      "stateMutability": "nonpayable",
      "type": "function"
    },
    {
      "inputs": [
        {
          "internalType": "address payable",
          "name": "_withdrawal",
          "type": "address"
        }
      ],
      "name": "updateWithdrawal",
      "outputs": [],
      "stateMutability": "nonpayable",
      "type": "function"
    },
    {
      "inputs": [],
      "name": "whitelistEnabled",
      "outputs": [
        {
          "internalType": "bool",
          "name": "",
          "type": "bool"
        }
      ],
      "stateMutability": "view",
      "type": "function"
    },
    {
      "inputs": [
        {
          "internalType": "address",
          "name": "",
          "type": "address"
        }
      ],
      "name": "whitelistedAccounts",
      "outputs": [
        {
          "internalType": "bool",
          "name": "",
          "type": "bool"
        }
      ],
      "stateMutability": "view",
      "type": "function"
    },
    {
      "inputs": [
        {
          "internalType": "uint256",
          "name": "assets",
          "type": "uint256"
        },
        {
          "internalType": "address",
          "name": "receiver",
          "type": "address"
        },
        {
          "internalType": "address",
          "name": "owner",
          "type": "address"
        }
      ],
      "name": "withdraw",
      "outputs": [
        {
          "internalType": "uint256",
          "name": "",
          "type": "uint256"
        }
      ],
      "stateMutability": "nonpayable",
      "type": "function"
    },
    {
      "inputs": [],
      "name": "withdrawal",
      "outputs": [
        {
          "internalType": "address payable",
          "name": "",
          "type": "address"
        }
      ],
      "stateMutability": "view",
      "type": "function"
    },
    {
      "inputs": [],
      "name": "withdrawalCredential",
      "outputs": [
        {
          "internalType": "bytes",
          "name": "",
          "type": "bytes"
        }
      ],
      "stateMutability": "view",
      "type": "function"
    },
    {
      "stateMutability": "payable",
      "type": "receive"
    }
  ],
  "bytecode": "0x608060405234801561001057600080fd5b50614253806100206000396000f3fe6080604052600436106104135760003560e01c80637f6497831161021e578063c62b60f711610123578063d547741f116100ab578063e534744f1161007a578063e534744f14610cd7578063e94ad65b14610ced578063ef8b30f714610ba6578063f6a6830f14610d0d578063f75cd13414610d3e57600080fd5b8063d547741f14610c5c578063d905777e14610c7c578063dd62ed3e14610c9c578063e1e158a514610cbc57600080fd5b8063c70920bc116100f2578063c70920bc14610bc6578063ce96cb7714610bdc578063d1906eb014610bfc578063d31c877114610c1c578063d4e9329214610c3c57600080fd5b8063c62b60f714610b4f578063c63d75b614610b6f578063c6d87dd514610b91578063c6e6f59214610ba657600080fd5b8063982c3c8d116101a6578063a457c2d711610175578063a457c2d714610aaf578063a9059cbb14610acf578063b3d7f6b914610aef578063b460af9414610b0f578063ba08765214610b2f57600080fd5b8063982c3c8d14610a1a5780639dc162ca14610a5a578063a217fddf14610a7a578063a41a5e2514610a8f57600080fd5b8063911140bb116101ed578063911140bb1461099857806391d14854146109ae578063925c765e146109ce57806394bf804d146109e557806395d89b4114610a0557600080fd5b80637f64978314610907578063830593031461092757806387d6c0171461093c5780638aab7d1c1461097857600080fd5b8063358764761161032457806351fb012d116102ac57806367a527931161027b57806367a527931461083b5780636e553f651461085e5780636e64b5781461087e57806370a08231146108b15780637ba8837f146108e757600080fd5b806351fb012d146107c0578063548db174146107db578063593f8907146107fb57806361d027b31461081b57600080fd5b8063402d267d116102f3578063402d267d1461074957806346fd12681461076957806347e633801461077e5780634cdad506146104ef5780634dc1d6fb146107a057600080fd5b806335876476146106b757806336568abe146106d757806338d52e0f146106f7578063395093511461072957600080fd5b80630c8797dd116103a7578063248a9ca311610376578063248a9ca3146106075780632bb14e1d146106375780632d2da806146106585780632f2ff15d1461066b578063313ce5671461068b57600080fd5b80630c8797dd1461058357806317ba07d51461059a57806318160ddd146105d257806323b872dd146105e757600080fd5b806307a2d13a116103e357806307a2d13a146104ef57806308740a3b1461050f578063095ea7b3146105435780630a28a4771461056357600080fd5b8062ed53d61461045557806301e1d1141461047557806301ffc9a71461049d57806306fdde03146104cd57600080fd5b36610450576065546001600160a01b0316331480159061043e575060fd546001600160a01b03163314155b1561044e5761044c33610d53565b505b005b600080fd5b34801561046157600080fd5b5061044e610470366004613d32565b610d73565b34801561048157600080fd5b5061048a610dde565b6040519081526020015b60405180910390f35b3480156104a957600080fd5b506104bd6104b8366004613c55565b610e4b565b6040519015158152602001610494565b3480156104d957600080fd5b506104e2610e80565b6040516104949190613ebf565b3480156104fb57600080fd5b5061048a61050a366004613c19565b610f12565b34801561051b57600080fd5b5061048a7fec5aad7bdface20c35bc02d6d2d5760df981277427368525d634f4e2603ea19281565b34801561054f57600080fd5b506104bd61055e366004613a8e565b610f1f565b34801561056f57600080fd5b5061048a61057e366004613c19565b610f37565b34801561058f57600080fd5b5061048a6101005481565b3480156105a657600080fd5b50610105546105bf9065010000000000900461ffff1681565b60405161ffff9091168152602001610494565b3480156105de57600080fd5b5060355461048a565b3480156105f357600080fd5b506104bd610602366004613a4e565b610f44565b34801561061357600080fd5b5061048a610622366004613c19565b600090815260c9602052604090206001015490565b34801561064357600080fd5b50610105546105bf90610100900461ffff1681565b61048a610666366004613965565b610d53565b34801561067757600080fd5b5061044e610686366004613c31565b610f6a565b34801561069757600080fd5b50606554600160a01b900460ff1660405160ff9091168152602001610494565b3480156106c357600080fd5b5061044e6106d23660046139b9565b610f94565b3480156106e357600080fd5b5061044e6106f2366004613c31565b611388565b34801561070357600080fd5b506065546001600160a01b03165b6040516001600160a01b039091168152602001610494565b34801561073557600080fd5b506104bd610744366004613a8e565b611406565b34801561075557600080fd5b5061048a610764366004613965565b611428565b34801561077557600080fd5b5061044e611446565b34801561078a57600080fd5b5061048a6000805160206141fe83398151915281565b3480156107ac57600080fd5b5061044e6107bb366004613d32565b611467565b3480156107cc57600080fd5b50610105546104bd9060ff1681565b3480156107e757600080fd5b5061044e6107f6366004613ab9565b6114c7565b34801561080757600080fd5b5061044e610816366004613965565b611558565b34801561082757600080fd5b5060fe54610711906001600160a01b031681565b34801561084757600080fd5b50610105546105bf906301000000900461ffff1681565b34801561086a57600080fd5b5061048a610879366004613c31565b6115ca565b34801561088a57600080fd5b506101015461089c9063ffffffff1681565b60405163ffffffff9091168152602001610494565b3480156108bd57600080fd5b5061048a6108cc366004613965565b6001600160a01b031660009081526033602052604090205490565b3480156108f357600080fd5b5061044e610902366004613965565b61166b565b34801561091357600080fd5b5061044e610922366004613ab9565b611739565b34801561093357600080fd5b506104e26117c3565b34801561094857600080fd5b506104bd610957366004613c7d565b80516020818301810180516101038252928201919093012091525460ff1681565b34801561098457600080fd5b5061044e610993366004613d32565b611852565b3480156109a457600080fd5b506105bf6107d081565b3480156109ba57600080fd5b506104bd6109c9366004613c31565b6118b4565b3480156109da57600080fd5b5061048a6101025481565b3480156109f157600080fd5b5061048a610a00366004613c31565b6118df565b348015610a1157600080fd5b506104e26118f9565b348015610a2657600080fd5b5061010554610a4290600160381b90046001600160401b031681565b6040516001600160401b039091168152602001610494565b348015610a6657600080fd5b5060fc54610711906001600160a01b031681565b348015610a8657600080fd5b5061048a600081565b348015610a9b57600080fd5b5061044e610aaa366004613b28565b611908565b348015610abb57600080fd5b506104bd610aca366004613a8e565b611dd0565b348015610adb57600080fd5b506104bd610aea366004613a8e565b611e56565b348015610afb57600080fd5b5061048a610b0a366004613c19565b611e64565b348015610b1b57600080fd5b5061048a610b2a366004613d6c565b611e71565b348015610b3b57600080fd5b5061048a610b4a366004613d6c565b611eed565b348015610b5b57600080fd5b5061044e610b6a366004613c19565b611f61565b348015610b7b57600080fd5b5061048a610b8a366004613965565b5060001990565b348015610b9d57600080fd5b506105bf606481565b348015610bb257600080fd5b5061048a610bc1366004613c19565b611fee565b348015610bd257600080fd5b5061048a60ff5481565b348015610be857600080fd5b5061048a610bf7366004613965565b611ffb565b348015610c0857600080fd5b5061044e610c17366004613c19565b61201f565b348015610c2857600080fd5b5061044e610c37366004613caf565b612097565b348015610c4857600080fd5b5060fd54610711906001600160a01b031681565b348015610c6857600080fd5b5061044e610c77366004613c31565b6123aa565b348015610c8857600080fd5b5061048a610c97366004613965565b6123cf565b348015610ca857600080fd5b5061048a610cb7366004613981565b6123ed565b348015610cc857600080fd5b50610a42662386f26fc1000081565b348015610ce357600080fd5b50610a4261384081565b348015610cf957600080fd5b5060fb54610711906001600160a01b031681565b348015610d1957600080fd5b506104bd610d28366004613965565b6101046020526000908152604090205460ff1681565b348015610d4a57600080fd5b506105bf60c881565b600080610d5f34611fee565b9050610d6d33843484612418565b92915050565b6000610d7e816125bc565b60c861ffff83161115610db657604051632b34e40960e21b815261ffff8316600482015260c860248201526044015b60405180910390fd5b50610105805461ffff909216650100000000000266ffff000000000019909216919091179055565b6000806138406001600160401b031661010254610dfb91906140ce565b610e0590426140ce565b61010054610e139190613ffb565b905060008112610e31578060ff54610e2b9190613f98565b91505090565b610e3a816141a2565b60ff54610e2b91906140ce565b5090565b60006001600160e01b03198216637965db0b60e01b1480610d6d57506301ffc9a760e01b6001600160e01b0319831614610d6d565b606060368054610e8f90614128565b80601f0160208091040260200160405190810160405280929190818152602001828054610ebb90614128565b8015610f085780601f10610edd57610100808354040283529160200191610f08565b820191906000526020600020905b815481529060010190602001808311610eeb57829003601f168201915b5050505050905090565b6000610d6d8260006125c9565b600033610f2d8185856125fc565b5060019392505050565b6000610d6d826001612720565b600033610f52858285612752565b610f5d8585856127cc565b60019150505b9392505050565b600082815260c96020526040902060010154610f85816125bc565b610f8f8383612977565b505050565b600054610100900460ff1615808015610fb45750600054600160ff909116105b80610fce5750303b158015610fce575060005460ff166001145b6110315760405162461bcd60e51b815260206004820152602e60248201527f496e697469616c697a61626c653a20636f6e747261637420697320616c72656160448201526d191e481a5b9a5d1a585b1a5e995960921b6064820152608401610dad565b6000805460ff191660011790558015611054576000805461ff0019166101001790555b6001600160a01b0384166110965760405163eac0d38960e01b8152602060048201526008602482015267747265617375727960c01b6044820152606401610dad565b6001600160a01b0386166110df5760405163eac0d38960e01b815260206004820152600f60248201526e19195c1bdcda5d10dbdb9d1c9858dd608a1b6044820152606401610dad565b846001600160a01b031663313ce5676040518163ffffffff1660e01b815260040160206040518083038186803b15801561111857600080fd5b505afa15801561112c573d6000803e3d6000fd5b505050506040513d601f19601f820116820180604052508101906111509190613dad565b60ff166012146111be5760405162461bcd60e51b815260206004820152603360248201527f774e617469766520746f6b656e206572726f722c20696d706c656d656e746174604482015272696f6e20666f7220313820646563696d616c7360681b6064820152608401610dad565b471561121a5760405162461bcd60e51b815260206004820152602560248201527f4572726f7220696e697469616c697a652077697468206e6f207a65726f2062616044820152646c616e636560d81b6064820152608401610dad565b611223856129fd565b61126d6040518060400160405280600b81526020016a09acae8c2a0deded88aa8960ab1b815250604051806040016040528060058152602001640dae08aa8960db1b815250612a2d565b611275612a5e565b611280600033612977565b6112986000805160206141fe83398151915284612977565b6112c27fec5aad7bdface20c35bc02d6d2d5760df981277427368525d634f4e2603ea19283612977565b6112cb8761166b565b6112d488611558565b6112df6101f4611467565b60fe80546001600160a01b038087166001600160a01b03199283161790925560fb8054928916929091169190911790556001600160401b0342166101025561010580546564000000000066ffff000000000019909116179055801561137e576000805461ff0019169055604051600181527f7f26b83ff96e1f2b6a682f133852f6798a09c465da95921460cefb38474024989060200160405180910390a15b5050505050505050565b6001600160a01b03811633146113f85760405162461bcd60e51b815260206004820152602f60248201527f416363657373436f6e74726f6c3a2063616e206f6e6c792072656e6f756e636560448201526e103937b632b9903337b91039b2b63360891b6064820152608401610dad565b6114028282612a87565b5050565b600033610f2d81858561141983836123ed565b6114239190613f98565b6125fc565b6000611432612aee565b61143d576000610d6d565b60001992915050565b6000611451816125bc565b50610105805460ff19811660ff90911615179055565b6000611472816125bc565b6107d061ffff831611156114a7576040516308dcf86960e31b815261ffff831660048201526107d06024820152604401610dad565b50610105805461ffff9092166101000262ffff0019909216919091179055565b60006114d2816125bc565b8160005b818114611551576000610104600087878581811061150457634e487b7160e01b600052603260045260246000fd5b90506020020160208101906115199190613965565b6001600160a01b031681526020810191909152604001600020805460ff191691151591909117905561154a81614163565b90506114d6565b5050505050565b6000611563816125bc565b6001600160a01b0382166115a75760405163eac0d38960e01b815260206004820152600a6024820152691b1a5c5d5a59141bdbdb60b21b6044820152606401610dad565b5060fc80546001600160a01b0319166001600160a01b0392909216919091179055565b6000806115d684611fee565b90506116013330866115f06065546001600160a01b031690565b6001600160a01b0316929190612b0a565b606554604051632e1a7d4d60e01b8152600481018690526001600160a01b0390911690632e1a7d4d90602401600060405180830381600087803b15801561164757600080fd5b505af115801561165b573d6000803e3d6000fd5b50505050610f6333848684612418565b6000611676816125bc565b6001600160a01b0382166116ba5760405163eac0d38960e01b815260206004820152600a6024820152691dda5d1a191c985dd85b60b21b6044820152606401610dad565b60006040518060400160405280600c8152602001600160f81b8152509050808360601b6040516020016116ee929190613e16565b60405160208183030381529060405261010690805190602001906117139291906137bd565b505060fd80546001600160a01b0319166001600160a01b03939093169290921790915550565b6000611744816125bc565b8160005b818114611551576001610104600087878581811061177657634e487b7160e01b600052603260045260246000fd5b905060200201602081019061178b9190613965565b6001600160a01b031681526020810191909152604001600020805460ff19169115159190911790556117bc81614163565b9050611748565b61010680546117d190614128565b80601f01602080910402602001604051908101604052809291908181526020018280546117fd90614128565b801561184a5780601f1061181f5761010080835404028352916020019161184a565b820191906000526020600020905b81548152906001019060200180831161182d57829003601f168201915b505050505081565b600061185d816125bc565b606461ffff83161115611890576040516308dcf86960e31b815261ffff8316600482015260646024820152604401610dad565b50610105805461ffff90921663010000000264ffff00000019909216919091179055565b600091825260c9602090815260408084206001600160a01b0393909316845291905290205460ff1690565b6000806118eb84611e64565b9050610f6333848387612418565b606060378054610e8f90614128565b7fec5aad7bdface20c35bc02d6d2d5760df981277427368525d634f4e2603ea192611932816125bc565b8351600061194f63ffffffff83166801bc16d674ec80000061409d565b68ffffffffffffffffff1690504781856119698884613f98565b6119739190613f98565b10156119aa57604051634b82651b60e01b815260048101829052602481018790526044810186905260648101839052608401610dad565b8515611a0f5760fc54604051633701206b60e01b8152600481018890526001600160a01b0390911690633701206b90602401600060405180830381600087803b1580156119f657600080fd5b505af1158015611a0a573d6000803e3d6000fd5b505050505b8415611a745760fd54604051633701206b60e01b8152600481018790526001600160a01b0390911690633701206b90602401600060405180830381600087803b158015611a5b57600080fd5b505af1158015611a6f573d6000803e3d6000fd5b505050505b61010154610106805463ffffffff9092169160009190611a9390614128565b80601f0160208091040260200160405190810160405280929190818152602001828054611abf90614128565b8015611b0c5780601f10611ae157610100808354040283529160200191611b0c565b820191906000526020600020905b815481529060010190602001808311611aef57829003601f168201915b5050505050905060005b8563ffffffff168114611daa576101038a8281518110611b4657634e487b7160e01b600052603260045260246000fd5b602002602001015160000151604051611b5f9190613dfa565b9081526040519081900360200190205460ff1615611bbd57898181518110611b9757634e487b7160e01b600052603260045260246000fd5b6020026020010151600001516040516314e6a03d60e11b8152600401610dad9190613ebf565b60016101038b8381518110611be257634e487b7160e01b600052603260045260246000fd5b602002602001015160000151604051611bfb9190613dfa565b908152604051908190036020019020805491151560ff1990921691909117905560fb548a516001600160a01b03909116906322895118906801bc16d674ec800000908d9085908110611c5d57634e487b7160e01b600052603260045260246000fd5b602002602001015160000151858e8681518110611c8a57634e487b7160e01b600052603260045260246000fd5b6020026020010151602001518f8781518110611cb657634e487b7160e01b600052603260045260246000fd5b6020026020010151604001516040518663ffffffff1660e01b8152600401611ce19493929190613ed2565b6000604051808303818588803b158015611cfa57600080fd5b505af1158015611d0e573d6000803e3d6000fd5b50505050508280611d1e9061417e565b935050898181518110611d4157634e487b7160e01b600052603260045260246000fd5b602002602001015160000151604051611d5a9190613dfa565b60405190819003812063ffffffff85168252907fd30c530f2d5e6c518f21d801360ff46849e74bf1cba98a64c7dbc741fc9b263a9060200160405180910390a2611da381614163565b9050611b16565b5050610101805463ffffffff191663ffffffff9290921691909117905550505050505050565b60003381611dde82866123ed565b905083811015611e3e5760405162461bcd60e51b815260206004820152602560248201527f45524332303a2064656372656173656420616c6c6f77616e63652062656c6f77604482015264207a65726f60d81b6064820152608401610dad565b611e4b82868684036125fc565b506001949350505050565b600033610f2d8185856127cc565b6000610d6d8260016125c9565b6000611e7c82611ffb565b841115611ecb5760405162461bcd60e51b815260206004820152601f60248201527f455243343632363a207769746864726177206d6f7265207468616e206d6178006044820152606401610dad565b6000611ed685610f37565b9050611ee53385858885612b64565b949350505050565b6000611ef8826123cf565b841115611f475760405162461bcd60e51b815260206004820152601d60248201527f455243343632363a2072656465656d206d6f7265207468616e206d61780000006044820152606401610dad565b6000611f5285610f12565b9050611ee53385858489612b64565b6000805160206141fe833981519152611f79816125bc565b60fc54604051633701206b60e01b8152600481018490526001600160a01b0390911690633701206b90602401600060405180830381600087803b158015611fbf57600080fd5b505af1158015611fd3573d6000803e3d6000fd5b505060fd5461140292506001600160a01b0316905083612c7e565b6000610d6d826000612720565b6001600160a01b038116600090815260336020526040812054610d6d9060006125c9565b6000805160206141fe833981519152612037816125bc565b60006301c9c380612046610dde565b6120509190613fdb565b9050808313806120675750612064816141a2565b83125b1561208f5760405163bcc1b4cf60e01b81526004810184905260248101829052604401610dad565b505061010055565b6000805160206141fe8339815191526120af816125bc565b61010254428111156120dd5760405163a966ca8960e01b815260048101829052426024820152604401610dad565b8380602001516001600160401b031681600001516001600160401b03161115612133578051602082015160405163a52a8b0d60e01b81526001600160401b03928316600482015291166024820152604401610dad565b6101055461215290600160381b90046001600160401b03166001613fb0565b6001600160401b031681600001516001600160401b031614158015612189575061010554600160381b90046001600160401b031615155b156121c95780516101055460405163198b9e6760e11b81526001600160401b039283166004820152600160381b9091049091166024820152604401610dad565b60ff5460608601516040870151600091906121e49084613f98565b6121ee91906140ce565b90508181116000816122095761220483856140ce565b612213565b61221384846140ce565b610105549091506000906127109065010000000000900461ffff16612236610dde565b612240919061407e565b61224a9190613fdb565b90508082111561228e5761225c610dde565b604051633a588a7960e11b81526004810191909152602481018590526044810183905260648101829052608401610dad565b82156122e55761010554600090612710906122b290610100900461ffff168561407e565b6122bc9190613fdb565b905060006122c982611fee565b60fe549091506122e2906001600160a01b031682612d97565b50505b60ff8490556122f38961201f565b604080518b516001600160401b0390811682526020808e0151909116908201528b820151818301526060808d0151908201526080810186905290517f642cc6ad3f4e6e00dab418b5a48b88a15e0a0f37e10ab912506316d8cf0598789181900360a00190a150505060209092015161010580546001600160401b03909216600160381b026effffffffffffffff0000000000000019909216919091179055506123a0905061384042613f98565b6101025550505050565b600082815260c960205260409020600101546123c5816125bc565b610f8f8383612a87565b6001600160a01b038116600090815260336020526040812054610d6d565b6001600160a01b03918216600090815260346020908152604080832093909416825291909152205490565b6101055460ff16801561243c5750336000908152610104602052604090205460ff16155b1561245c57604051632e6eba8560e11b8152336004820152602401610dad565b662386f26fc100008210156124945760405163ea691a4b60e01b8152662386f26fc10000600482015260248101839052604401610dad565b6000806124a18330612e58565b909250905060006124b283856140ce565b905060006124c083876140ce565b905081156124d2576124d23083612d97565b8060ff60008282546124e49190613f98565b909155505060fc5485906001600160a01b0316331461255057610105546000906127109061251d906301000000900461ffff168961407e565b6125279190613fdb565b60fe549091506125429030906001600160a01b0316836127cc565b61254c81836140ce565b9150505b61255b3089836127cc565b876001600160a01b0316896001600160a01b03167fdcbc1c05240f31ff3ad067ef1ee35ce4997762752e3a095284754544f4c709d789896040516125a9929190918252602082015260400190565b60405180910390a3505050505050505050565b6125c68133612f4d565b50565b6000806125d560355490565b905080156125f6576125f16125e8610dde565b85908386612fa6565b611ee5565b83611ee5565b6001600160a01b03831661265e5760405162461bcd60e51b8152602060048201526024808201527f45524332303a20617070726f76652066726f6d20746865207a65726f206164646044820152637265737360e01b6064820152608401610dad565b6001600160a01b0382166126bf5760405162461bcd60e51b815260206004820152602260248201527f45524332303a20617070726f766520746f20746865207a65726f206164647265604482015261737360f01b6064820152608401610dad565b6001600160a01b0383811660008181526034602090815260408083209487168084529482529182902085905590518481527f8c5be1e5ebec7d5bd14f71427d1e84f3dd0314c0f7b2291e5b200ac8c7c3b925910160405180910390a3505050565b60008061272c60355490565b9050831580612739575080155b6125f6576125f181612749610dde565b86919086612fa6565b600061275e84846123ed565b905060001981146127c657818110156127b95760405162461bcd60e51b815260206004820152601d60248201527f45524332303a20696e73756666696369656e7420616c6c6f77616e63650000006044820152606401610dad565b6127c684848484036125fc565b50505050565b6001600160a01b0383166128305760405162461bcd60e51b815260206004820152602560248201527f45524332303a207472616e736665722066726f6d20746865207a65726f206164604482015264647265737360d81b6064820152608401610dad565b6001600160a01b0382166128925760405162461bcd60e51b815260206004820152602360248201527f45524332303a207472616e7366657220746f20746865207a65726f206164647260448201526265737360e81b6064820152608401610dad565b6001600160a01b0383166000908152603360205260409020548181101561290a5760405162461bcd60e51b815260206004820152602660248201527f45524332303a207472616e7366657220616d6f756e7420657863656564732062604482015265616c616e636560d01b6064820152608401610dad565b6001600160a01b0380851660008181526033602052604080822086860390559286168082529083902080548601905591517fddf252ad1be2c89b69c2b068fc378daa952ba7f163c4a11628f55a4df523b3ef9061296a9086815260200190565b60405180910390a36127c6565b61298182826118b4565b61140257600082815260c9602090815260408083206001600160a01b03851684529091529020805460ff191660011790556129b93390565b6001600160a01b0316816001600160a01b0316837f2f8788117e7eff1d82e926ec794901d17c78024a50270940304540a733656f0d60405160405180910390a45050565b600054610100900460ff16612a245760405162461bcd60e51b8152600401610dad90613f1d565b6125c68161301f565b600054610100900460ff16612a545760405162461bcd60e51b8152600401610dad90613f1d565b61140282826130a4565b600054610100900460ff16612a855760405162461bcd60e51b8152600401610dad90613f1d565b565b612a9182826118b4565b1561140257600082815260c9602090815260408083206001600160a01b0385168085529252808320805460ff1916905551339285917ff6391f5c32d9c69d2a47ea670b442974b53935d1edc7fd64eb21e047a839171b9190a45050565b600080612af9610dde565b1180612b055750603554155b905090565b604080516001600160a01b0385811660248301528416604482015260648082018490528251808303909101815260849091019091526020810180516001600160e01b03166323b872dd60e01b1790526127c69085906130f2565b826001600160a01b0316856001600160a01b031614612b8857612b88838683612752565b612b9283826131c4565b8160ff6000828254612ba491906140ce565b909155505060fd546040516319792d1d60e11b8152600481018490526001600160a01b0387811660248301528681166044830152909116906332f25a3a90606401600060405180830381600087803b158015612bff57600080fd5b505af1158015612c13573d6000803e3d6000fd5b50505050826001600160a01b0316846001600160a01b0316866001600160a01b03167ffbde797d201c681b91056529119e0b02407c7bb96a4a2c75c01fc9667232c8db8585604051612c6f929190918252602082015260400190565b60405180910390a45050505050565b80471015612cce5760405162461bcd60e51b815260206004820152601d60248201527f416464726573733a20696e73756666696369656e742062616c616e63650000006044820152606401610dad565b6000826001600160a01b03168260405160006040518083038185875af1925050503d8060008114612d1b576040519150601f19603f3d011682016040523d82523d6000602084013e612d20565b606091505b5050905080610f8f5760405162461bcd60e51b815260206004820152603a60248201527f416464726573733a20756e61626c6520746f2073656e642076616c75652c207260448201527f6563697069656e74206d617920686176652072657665727465640000000000006064820152608401610dad565b6001600160a01b038216612ded5760405162461bcd60e51b815260206004820152601f60248201527f45524332303a206d696e7420746f20746865207a65726f2061646472657373006044820152606401610dad565b8060356000828254612dff9190613f98565b90915550506001600160a01b0382166000818152603360209081526040808320805486019055518481527fddf252ad1be2c89b69c2b068fc378daa952ba7f163c4a11628f55a4df523b3ef910160405180910390a35050565b60fc5460009081906001600160a01b03163314612f465760fc546001600160a01b0316600090815260336020526040902054612e9490856132f8565b91508115612f4657612ea582611e64565b60fc546040516361f4627d60e11b81526001600160a01b03868116600483015292935084929091169063c3e8c4fa9084906024016020604051808303818588803b158015612ef257600080fd5b505af1158015612f06573d6000803e3d6000fd5b50505050506040513d601f19601f82011682018060405250810190612f2b9190613d54565b14612f4657634e487b7160e01b600052600160045260246000fd5b9250929050565b612f5782826118b4565b61140257612f648161330e565b612f6f836020613320565b604051602001612f80929190613e4a565b60408051601f198184030181529082905262461bcd60e51b8252610dad91600401613ebf565b600080612fb4868686613501565b90506001836002811115612fd857634e487b7160e01b600052602160045260246000fd5b148015613003575060008480612ffe57634e487b7160e01b600052601260045260246000fd5b868809115b1561301657613013600182613f98565b90505b95945050505050565b600054610100900460ff166130465760405162461bcd60e51b8152600401610dad90613f1d565b600080613052836135bf565b9150915081613062576012613064565b805b606580546001600160a01b039095166001600160a01b031960ff93909316600160a01b02929092166001600160a81b031990951694909417179092555050565b600054610100900460ff166130cb5760405162461bcd60e51b8152600401610dad90613f1d565b81516130de9060369060208501906137bd565b508051610f8f9060379060208401906137bd565b6000613147826040518060400160405280602081526020017f5361666545524332303a206c6f772d6c6576656c2063616c6c206661696c6564815250856001600160a01b031661369d9092919063ffffffff16565b805190915015610f8f57808060200190518101906131659190613bf9565b610f8f5760405162461bcd60e51b815260206004820152602a60248201527f5361666545524332303a204552433230206f7065726174696f6e20646964206e6044820152691bdd081cdd58d8d9595960b21b6064820152608401610dad565b6001600160a01b0382166132245760405162461bcd60e51b815260206004820152602160248201527f45524332303a206275726e2066726f6d20746865207a65726f206164647265736044820152607360f81b6064820152608401610dad565b6001600160a01b038216600090815260336020526040902054818110156132985760405162461bcd60e51b815260206004820152602260248201527f45524332303a206275726e20616d6f756e7420657863656564732062616c616e604482015261636560f01b6064820152608401610dad565b6001600160a01b03831660008181526033602090815260408083208686039055603580548790039055518581529192917fddf252ad1be2c89b69c2b068fc378daa952ba7f163c4a11628f55a4df523b3ef910160405180910390a3505050565b60008183106133075781610f63565b5090919050565b6060610d6d6001600160a01b03831660145b6060600061332f83600261407e565b61333a906002613f98565b6001600160401b0381111561335f57634e487b7160e01b600052604160045260246000fd5b6040519080825280601f01601f191660200182016040528015613389576020820181803683370190505b509050600360fc1b816000815181106133b257634e487b7160e01b600052603260045260246000fd5b60200101906001600160f81b031916908160001a905350600f60fb1b816001815181106133ef57634e487b7160e01b600052603260045260246000fd5b60200101906001600160f81b031916908160001a905350600061341384600261407e565b61341e906001613f98565b90505b60018111156134b2576f181899199a1a9b1b9c1cb0b131b232b360811b85600f166010811061346057634e487b7160e01b600052603260045260246000fd5b1a60f81b82828151811061348457634e487b7160e01b600052603260045260246000fd5b60200101906001600160f81b031916908160001a90535060049490941c936134ab81614111565b9050613421565b508315610f635760405162461bcd60e51b815260206004820181905260248201527f537472696e67733a20686578206c656e67746820696e73756666696369656e746044820152606401610dad565b60008080600019858709858702925082811083820303915050806000141561354a5783828161354057634e487b7160e01b600052601260045260246000fd5b0492505050610f63565b80841161355657600080fd5b60008486880960026001871981018816978890046003810283188082028403028082028403028082028403028082028403028082028403029081029092039091026000889003889004909101858311909403939093029303949094049190911702949350505050565b60408051600481526024810182526020810180516001600160e01b031663313ce56760e01b17905290516000918291829182916001600160a01b0387169161360691613dfa565b6000604051808303816000865af19150503d8060008114613643576040519150601f19603f3d011682016040523d82523d6000602084013e613648565b606091505b509150915081801561365c57506020815110155b15613690576000818060200190518101906136779190613d54565b905060ff811161368e576001969095509350505050565b505b5060009485945092505050565b6060611ee5848460008585600080866001600160a01b031685876040516136c49190613dfa565b60006040518083038185875af1925050503d8060008114613701576040519150601f19603f3d011682016040523d82523d6000602084013e613706565b606091505b509150915061371787838387613722565b979650505050505050565b6060831561378e578251613787576001600160a01b0385163b6137875760405162461bcd60e51b815260206004820152601d60248201527f416464726573733a2063616c6c20746f206e6f6e2d636f6e74726163740000006044820152606401610dad565b5081611ee5565b611ee583838151156137a35781518083602001fd5b8060405162461bcd60e51b8152600401610dad9190613ebf565b8280546137c990614128565b90600052602060002090601f0160209004810192826137eb5760008555613831565b82601f1061380457805160ff1916838001178555613831565b82800160010185558215613831579182015b82811115613831578251825591602001919060010190613816565b50610e479291505b80821115610e475760008155600101613839565b600082601f83011261385d578081fd5b81356001600160401b03811115613876576138766141d2565b613889601f8201601f1916602001613f68565b81815284602083860101111561389d578283fd5b816020850160208301379081016020019190915292915050565b6000606082840312156138c8578081fd5b604051606081016001600160401b0382821081831117156138eb576138eb6141d2565b81604052829350843591508082111561390357600080fd5b61390f8683870161384d565b8352602085013591508082111561392557600080fd5b506139328582860161384d565b602083015250604083013560408201525092915050565b80356001600160401b038116811461396057600080fd5b919050565b600060208284031215613976578081fd5b8135610f63816141e8565b60008060408385031215613993578081fd5b823561399e816141e8565b915060208301356139ae816141e8565b809150509250929050565b600080600080600080600060e0888a0312156139d3578283fd5b87356139de816141e8565b965060208801356139ee816141e8565b955060408801356139fe816141e8565b94506060880135613a0e816141e8565b93506080880135613a1e816141e8565b925060a0880135613a2e816141e8565b915060c0880135613a3e816141e8565b8091505092959891949750929550565b600080600060608486031215613a62578283fd5b8335613a6d816141e8565b92506020840135613a7d816141e8565b929592945050506040919091013590565b60008060408385031215613aa0578182fd5b8235613aab816141e8565b946020939093013593505050565b60008060208385031215613acb578182fd5b82356001600160401b0380821115613ae1578384fd5b818501915085601f830112613af4578384fd5b813581811115613b02578485fd5b8660208260051b8501011115613b16578485fd5b60209290920196919550909350505050565b600080600060608486031215613b3c578081fd5b83356001600160401b0380821115613b52578283fd5b818601915086601f830112613b65578283fd5b8135602082821115613b7957613b796141d2565b8160051b613b88828201613f68565b8381528281019086840183880185018d1015613ba2578889fd5b8893505b85841015613bdf57803587811115613bbc57898afd5b613bca8e87838c01016138b7565b84525060019390930192918401918401613ba6565b509b928a01359a5050506040909701359695505050505050565b600060208284031215613c0a578081fd5b81518015158114610f63578182fd5b600060208284031215613c2a578081fd5b5035919050565b60008060408385031215613c43578182fd5b8235915060208301356139ae816141e8565b600060208284031215613c66578081fd5b81356001600160e01b031981168114610f63578182fd5b600060208284031215613c8e578081fd5b81356001600160401b03811115613ca3578182fd5b611ee58482850161384d565b60008082840360a0811215613cc2578283fd5b6080811215613ccf578283fd5b50604051608081018181106001600160401b0382111715613cf257613cf26141d2565b604052613cfe84613949565b8152613d0c60208501613949565b602082015260408481013590820152606080850135908201529460809093013593505050565b600060208284031215613d43578081fd5b813561ffff81168114610f63578182fd5b600060208284031215613d65578081fd5b5051919050565b600080600060608486031215613d80578081fd5b833592506020840135613d92816141e8565b91506040840135613da2816141e8565b809150509250925092565b600060208284031215613dbe578081fd5b815160ff81168114610f63578182fd5b60008151808452613de68160208601602086016140e5565b601f01601f19169290920160200192915050565b60008251613e0c8184602087016140e5565b9190910192915050565b60008351613e288184602088016140e5565b6bffffffffffffffffffffffff19939093169190920190815260140192915050565b7f416363657373436f6e74726f6c3a206163636f756e7420000000000000000000815260008351613e828160178501602088016140e5565b7001034b99036b4b9b9b4b733903937b6329607d1b6017918401918201528351613eb38160288401602088016140e5565b01602801949350505050565b602081526000610f636020830184613dce565b608081526000613ee56080830187613dce565b8281036020840152613ef78187613dce565b90508281036040840152613f0b8186613dce565b91505082606083015295945050505050565b6020808252602b908201527f496e697469616c697a61626c653a20636f6e7472616374206973206e6f74206960408201526a6e697469616c697a696e6760a81b606082015260800190565b604051601f8201601f191681016001600160401b0381118282101715613f9057613f906141d2565b604052919050565b60008219821115613fab57613fab6141bc565b500190565b60006001600160401b03808316818516808303821115613fd257613fd26141bc565b01949350505050565b600082613ff657634e487b7160e01b81526012600452602481fd5b500490565b60006001600160ff1b0381841382841380821686840486111615614021576140216141bc565b600160ff1b8487128281168783058912161561403f5761403f6141bc565b85871292508782058712848416161561405a5761405a6141bc565b87850587128184161615614070576140706141bc565b505050929093029392505050565b6000816000190483118215151615614098576140986141bc565b500290565b600068ffffffffffffffffff808316818516818304811182151516156140c5576140c56141bc565b02949350505050565b6000828210156140e0576140e06141bc565b500390565b60005b838110156141005781810151838201526020016140e8565b838111156127c65750506000910152565b600081614120576141206141bc565b506000190190565b600181811c9082168061413c57607f821691505b6020821081141561415d57634e487b7160e01b600052602260045260246000fd5b50919050565b6000600019821415614177576141776141bc565b5060010190565b600063ffffffff80831681811415614198576141986141bc565b6001019392505050565b6000600160ff1b8214156141b8576141b86141bc565b0390565b634e487b7160e01b600052601160045260246000fd5b634e487b7160e01b600052604160045260246000fd5b6001600160a01b03811681146125c657600080fdfe73e573f9566d61418a34d5de3ff49360f9c51fec37f7486551670290f6285daba26469706673582212201da32a55513f7e806b67ba976f8e0f53bc68f9bad126370c8e936bf474c4bd1764736f6c63430008040033",
  "linkReferences": {},
  "deployedLinkReferences": {}
}