{
  "_format": "hh-sol-artifact-1",
  "contractName": "Staking",
  "sourceName": "contracts/Staking.sol",
  "abi": [
    {
      "inputs": [
        {
          "internalType": "uint256",
          "name": "_minAmount",
          "type": "uint256"
        },
        {
          "internalType": "uint256",
          "name": "_amountSent",
          "type": "uint256"
        }
      ],
      "name": "DepositTooLow",
      "type": "error"
    },
    {
      "inputs": [
        {
          "internalType": "bytes",
          "name": "_pubkey",
          "type": "bytes"
        }
      ],
      "name": "NodeAlreadyUsed",
      "type": "error"
    },
    {
      "inputs": [
        {
          "internalType": "uint256",
          "name": "_stakingBalance",
          "type": "uint256"
        },
        {
          "internalType": "uint256",
          "name": "_requestedToPool",
          "type": "uint256"
        },
        {
          "internalType": "uint256",
          "name": "_requestedToWithdrawal",
          "type": "uint256"
        },
        {
          "internalType": "uint256",
          "name": "_requiredBalance",
          "type": "uint256"
        }
      ],
      "name": "NotEnoughETHtoStake",
      "type": "error"
    },
    {
      "inputs": [
        {
          "internalType": "uint16",
          "name": "_sentFee",
          "type": "uint16"
        },
        {
          "internalType": "uint16",
          "name": "_maxFee",
          "type": "uint16"
        }
      ],
      "name": "RewardFeeTooBig",
      "type": "error"
    },
    {
      "inputs": [
        {
          "internalType": "int256",
          "name": "_rewardsPerSecondSent",
          "type": "int256"
        },
        {
          "internalType": "int256",
          "name": "_maxRewardsPerSecond",
          "type": "int256"
        }
      ],
      "name": "RewardsPerSecondTooBig",
      "type": "error"
    },
    {
      "inputs": [
        {
          "internalType": "uint256",
          "name": "_unlockTimestamp",
          "type": "uint256"
        },
        {
          "internalType": "uint256",
          "name": "_currentTimestamp",
          "type": "uint256"
        }
      ],
      "name": "UpdateBalanceTimestampNotReached",
      "type": "error"
    },
    {
      "inputs": [
        {
          "internalType": "uint256",
          "name": "_currentNodesBalance",
          "type": "uint256"
        },
        {
          "internalType": "uint256",
          "name": "_newSubmittedNodesBalance",
          "type": "uint256"
        },
        {
          "internalType": "uint256",
          "name": "_difference",
          "type": "uint256"
        },
        {
          "internalType": "uint256",
          "name": "_maxDifference",
          "type": "uint256"
        }
      ],
      "name": "UpdateTooBig",
      "type": "error"
    },
    {
      "inputs": [
        {
          "internalType": "address",
          "name": "_user",
          "type": "address"
        }
      ],
      "name": "UserNotWhitelisted",
      "type": "error"
    },
    {
      "inputs": [
        {
          "internalType": "string",
          "name": "_address",
          "type": "string"
        }
      ],
      "name": "ZeroAddress",
      "type": "error"
    },
    {
      "anonymous": false,
      "inputs": [
        {
          "indexed": true,
          "internalType": "address",
          "name": "owner",
          "type": "address"
        },
        {
          "indexed": true,
          "internalType": "address",
          "name": "spender",
          "type": "address"
        },
        {
          "indexed": false,
          "internalType": "uint256",
          "name": "value",
          "type": "uint256"
        }
      ],
      "name": "Approval",
      "type": "event"
    },
    {
      "anonymous": false,
      "inputs": [
        {
          "indexed": true,
          "internalType": "address",
          "name": "sender",
          "type": "address"
        },
        {
          "indexed": true,
          "internalType": "address",
          "name": "owner",
          "type": "address"
        },
        {
          "indexed": false,
          "internalType": "uint256",
          "name": "assets",
          "type": "uint256"
        },
        {
          "indexed": false,
          "internalType": "uint256",
          "name": "shares",
          "type": "uint256"
        }
      ],
      "name": "Deposit",
      "type": "event"
    },
    {
      "anonymous": false,
      "inputs": [
        {
          "indexed": false,
          "internalType": "uint8",
          "name": "version",
          "type": "uint8"
        }
      ],
      "name": "Initialized",
      "type": "event"
    },
    {
      "anonymous": false,
      "inputs": [
        {
          "indexed": true,
          "internalType": "address",
          "name": "sender",
          "type": "address"
        },
        {
          "indexed": true,
          "internalType": "address",
          "name": "owner",
          "type": "address"
        },
        {
          "indexed": false,
          "internalType": "uint256",
          "name": "assets",
          "type": "uint256"
        },
        {
          "indexed": false,
          "internalType": "uint256",
          "name": "shares",
          "type": "uint256"
        }
      ],
      "name": "Mint",
      "type": "event"
    },
    {
      "anonymous": false,
      "inputs": [
        {
          "indexed": true,
          "internalType": "bytes32",
          "name": "role",
          "type": "bytes32"
        },
        {
          "indexed": true,
          "internalType": "bytes32",
          "name": "previousAdminRole",
          "type": "bytes32"
        },
        {
          "indexed": true,
          "internalType": "bytes32",
          "name": "newAdminRole",
          "type": "bytes32"
        }
      ],
      "name": "RoleAdminChanged",
      "type": "event"
    },
    {
      "anonymous": false,
      "inputs": [
        {
          "indexed": true,
          "internalType": "bytes32",
          "name": "role",
          "type": "bytes32"
        },
        {
          "indexed": true,
          "internalType": "address",
          "name": "account",
          "type": "address"
        },
        {
          "indexed": true,
          "internalType": "address",
          "name": "sender",
          "type": "address"
        }
      ],
      "name": "RoleGranted",
      "type": "event"
    },
    {
      "anonymous": false,
      "inputs": [
        {
          "indexed": true,
          "internalType": "bytes32",
          "name": "role",
          "type": "bytes32"
        },
        {
          "indexed": true,
          "internalType": "address",
          "name": "account",
          "type": "address"
        },
        {
          "indexed": true,
          "internalType": "address",
          "name": "sender",
          "type": "address"
        }
      ],
      "name": "RoleRevoked",
      "type": "event"
    },
    {
      "anonymous": false,
      "inputs": [
        {
          "indexed": false,
          "internalType": "uint256",
          "name": "nodeId",
          "type": "uint256"
        },
        {
          "indexed": true,
          "internalType": "bytes",
          "name": "pubkey",
          "type": "bytes"
        }
      ],
      "name": "Stake",
      "type": "event"
    },
    {
      "anonymous": false,
      "inputs": [
        {
          "indexed": true,
          "internalType": "address",
          "name": "from",
          "type": "address"
        },
        {
          "indexed": true,
          "internalType": "address",
          "name": "to",
          "type": "address"
        },
        {
          "indexed": false,
          "internalType": "uint256",
          "name": "value",
          "type": "uint256"
        }
      ],
      "name": "Transfer",
      "type": "event"
    },
    {
      "anonymous": false,
      "inputs": [
        {
          "indexed": false,
          "internalType": "uint256",
          "name": "nodeId",
          "type": "uint256"
        },
        {
          "components": [
            {
              "internalType": "bytes",
              "name": "pubkey",
              "type": "bytes"
            },
            {
              "internalType": "bytes",
              "name": "withdrawCredentials",
              "type": "bytes"
            },
            {
              "internalType": "bytes",
              "name": "signature",
              "type": "bytes"
            },
            {
              "internalType": "bytes32",
              "name": "depositDataRoot",
              "type": "bytes32"
            }
          ],
          "indexed": false,
          "internalType": "struct Staking.Node",
          "name": "data",
          "type": "tuple"
        }
      ],
      "name": "UpdateNodeData",
      "type": "event"
    },
    {
      "anonymous": false,
      "inputs": [
        {
          "indexed": false,
          "internalType": "uint256",
          "name": "balance",
          "type": "uint256"
        }
      ],
      "name": "UpdateNodesBalance",
      "type": "event"
    },
    {
      "anonymous": false,
      "inputs": [
        {
          "indexed": true,
          "internalType": "address",
          "name": "sender",
          "type": "address"
        },
        {
          "indexed": true,
          "internalType": "address",
          "name": "receiver",
          "type": "address"
        },
        {
          "indexed": true,
          "internalType": "address",
          "name": "owner",
          "type": "address"
        },
        {
          "indexed": false,
          "internalType": "uint256",
          "name": "assets",
          "type": "uint256"
        },
        {
          "indexed": false,
          "internalType": "uint256",
          "name": "shares",
          "type": "uint256"
        }
      ],
      "name": "Withdraw",
      "type": "event"
    },
    {
      "inputs": [],
      "name": "ACTIVATOR_ROLE",
      "outputs": [
        {
          "internalType": "bytes32",
          "name": "",
          "type": "bytes32"
        }
      ],
      "stateMutability": "view",
      "type": "function"
    },
    {
      "inputs": [],
      "name": "DEFAULT_ADMIN_ROLE",
      "outputs": [
        {
          "internalType": "bytes32",
          "name": "",
          "type": "bytes32"
        }
      ],
      "stateMutability": "view",
      "type": "function"
    },
    {
      "inputs": [],
      "name": "MAX_REWARDS_FEE",
      "outputs": [
        {
          "internalType": "uint16",
          "name": "",
          "type": "uint16"
        }
      ],
      "stateMutability": "view",
      "type": "function"
    },
    {
      "inputs": [],
      "name": "MIN_DEPOSIT",
      "outputs": [
        {
          "internalType": "uint64",
          "name": "",
          "type": "uint64"
        }
      ],
      "stateMutability": "view",
      "type": "function"
    },
    {
      "inputs": [],
      "name": "UPDATER_ROLE",
      "outputs": [
        {
          "internalType": "bytes32",
          "name": "",
          "type": "bytes32"
        }
      ],
      "stateMutability": "view",
      "type": "function"
    },
    {
      "inputs": [],
      "name": "UPDATE_BALANCE_TIMELOCK",
      "outputs": [
        {
          "internalType": "uint64",
          "name": "",
          "type": "uint64"
        }
      ],
      "stateMutability": "view",
      "type": "function"
    },
    {
      "inputs": [
        {
          "internalType": "address[]",
          "name": "addresses",
          "type": "address[]"
        }
      ],
      "name": "addToWhitelist",
      "outputs": [],
      "stateMutability": "nonpayable",
      "type": "function"
    },
    {
      "inputs": [
        {
          "internalType": "address",
          "name": "owner",
          "type": "address"
        },
        {
          "internalType": "address",
          "name": "spender",
          "type": "address"
        }
      ],
      "name": "allowance",
      "outputs": [
        {
          "internalType": "uint256",
          "name": "",
          "type": "uint256"
        }
      ],
      "stateMutability": "view",
      "type": "function"
    },
    {
      "inputs": [
        {
          "internalType": "address",
          "name": "spender",
          "type": "address"
        },
        {
          "internalType": "uint256",
          "name": "amount",
          "type": "uint256"
        }
      ],
      "name": "approve",
      "outputs": [
        {
          "internalType": "bool",
          "name": "",
          "type": "bool"
        }
      ],
      "stateMutability": "nonpayable",
      "type": "function"
    },
    {
      "inputs": [],
      "name": "asset",
      "outputs": [
        {
          "internalType": "address",
          "name": "",
          "type": "address"
        }
      ],
      "stateMutability": "view",
      "type": "function"
    },
    {
      "inputs": [
        {
          "internalType": "address",
          "name": "account",
          "type": "address"
        }
      ],
      "name": "balanceOf",
      "outputs": [
        {
          "internalType": "uint256",
          "name": "",
          "type": "uint256"
        }
      ],
      "stateMutability": "view",
      "type": "function"
    },
    {
      "inputs": [],
      "name": "completeWithdraw",
      "outputs": [],
      "stateMutability": "nonpayable",
      "type": "function"
    },
    {
      "inputs": [
        {
          "internalType": "uint256",
          "name": "shares",
          "type": "uint256"
        }
      ],
      "name": "convertToAssets",
      "outputs": [
        {
          "internalType": "uint256",
          "name": "assets",
          "type": "uint256"
        }
      ],
      "stateMutability": "view",
      "type": "function"
    },
    {
      "inputs": [
        {
          "internalType": "uint256",
          "name": "assets",
          "type": "uint256"
        }
      ],
      "name": "convertToShares",
      "outputs": [
        {
          "internalType": "uint256",
          "name": "shares",
          "type": "uint256"
        }
      ],
      "stateMutability": "view",
      "type": "function"
    },
    {
      "inputs": [],
      "name": "decimals",
      "outputs": [
        {
          "internalType": "uint8",
          "name": "",
          "type": "uint8"
        }
      ],
      "stateMutability": "view",
      "type": "function"
    },
    {
      "inputs": [
        {
          "internalType": "address",
          "name": "spender",
          "type": "address"
        },
        {
          "internalType": "uint256",
          "name": "subtractedValue",
          "type": "uint256"
        }
      ],
      "name": "decreaseAllowance",
      "outputs": [
        {
          "internalType": "bool",
          "name": "",
          "type": "bool"
        }
      ],
      "stateMutability": "nonpayable",
      "type": "function"
    },
    {
      "inputs": [
        {
          "internalType": "uint256",
          "name": "_assets",
          "type": "uint256"
        },
        {
          "internalType": "address",
          "name": "_receiver",
          "type": "address"
        }
      ],
      "name": "deposit",
      "outputs": [
        {
          "internalType": "uint256",
          "name": "",
          "type": "uint256"
        }
      ],
      "stateMutability": "nonpayable",
      "type": "function"
    },
    {
      "inputs": [],
      "name": "depositContract",
      "outputs": [
        {
          "internalType": "contract IDeposit",
          "name": "",
          "type": "address"
        }
      ],
      "stateMutability": "view",
      "type": "function"
    },
    {
      "inputs": [
        {
          "internalType": "address",
          "name": "_receiver",
          "type": "address"
        }
      ],
      "name": "depositETH",
      "outputs": [
        {
          "internalType": "uint256",
          "name": "",
          "type": "uint256"
        }
      ],
      "stateMutability": "payable",
      "type": "function"
    },
    {
      "inputs": [],
      "name": "estimatedRewardsPerSecond",
      "outputs": [
        {
          "internalType": "int256",
          "name": "",
          "type": "int256"
        }
      ],
      "stateMutability": "view",
      "type": "function"
    },
    {
      "inputs": [
        {
          "internalType": "bytes32",
          "name": "role",
          "type": "bytes32"
        }
      ],
      "name": "getRoleAdmin",
      "outputs": [
        {
          "internalType": "bytes32",
          "name": "",
          "type": "bytes32"
        }
      ],
      "stateMutability": "view",
      "type": "function"
    },
    {
      "inputs": [
        {
          "internalType": "bytes32",
          "name": "role",
          "type": "bytes32"
        },
        {
          "internalType": "address",
          "name": "account",
          "type": "address"
        }
      ],
      "name": "grantRole",
      "outputs": [],
      "stateMutability": "nonpayable",
      "type": "function"
    },
    {
      "inputs": [
        {
          "internalType": "bytes32",
          "name": "role",
          "type": "bytes32"
        },
        {
          "internalType": "address",
          "name": "account",
          "type": "address"
        }
      ],
      "name": "hasRole",
      "outputs": [
        {
          "internalType": "bool",
          "name": "",
          "type": "bool"
        }
      ],
      "stateMutability": "view",
      "type": "function"
    },
    {
      "inputs": [
        {
          "internalType": "address",
          "name": "spender",
          "type": "address"
        },
        {
          "internalType": "uint256",
          "name": "addedValue",
          "type": "uint256"
        }
      ],
      "name": "increaseAllowance",
      "outputs": [
        {
          "internalType": "bool",
          "name": "",
          "type": "bool"
        }
      ],
      "stateMutability": "nonpayable",
      "type": "function"
    },
    {
      "inputs": [
        {
          "internalType": "address",
          "name": "_depositContract",
          "type": "address"
        },
        {
          "internalType": "contract IERC20MetadataUpgradeable",
          "name": "_weth",
          "type": "address"
        },
        {
          "internalType": "address",
          "name": "_treasury",
          "type": "address"
        },
        {
          "internalType": "address",
          "name": "_updater",
          "type": "address"
        },
        {
          "internalType": "address",
          "name": "_activator",
          "type": "address"
        }
      ],
      "name": "initialize",
      "outputs": [],
      "stateMutability": "nonpayable",
      "type": "function"
    },
    {
      "inputs": [],
      "name": "liquidUnstakePool",
      "outputs": [
        {
          "internalType": "address payable",
          "name": "",
          "type": "address"
        }
      ],
      "stateMutability": "view",
      "type": "function"
    },
    {
      "inputs": [
        {
          "internalType": "address",
          "name": "",
          "type": "address"
        }
      ],
      "name": "maxDeposit",
      "outputs": [
        {
          "internalType": "uint256",
          "name": "",
          "type": "uint256"
        }
      ],
      "stateMutability": "view",
      "type": "function"
    },
    {
      "inputs": [
        {
          "internalType": "address",
          "name": "",
          "type": "address"
        }
      ],
      "name": "maxMint",
      "outputs": [
        {
          "internalType": "uint256",
          "name": "",
          "type": "uint256"
        }
      ],
      "stateMutability": "view",
      "type": "function"
    },
    {
      "inputs": [
        {
          "internalType": "address",
          "name": "owner",
          "type": "address"
        }
      ],
      "name": "maxRedeem",
      "outputs": [
        {
          "internalType": "uint256",
          "name": "",
          "type": "uint256"
        }
      ],
      "stateMutability": "view",
      "type": "function"
    },
    {
      "inputs": [
        {
          "internalType": "address",
          "name": "owner",
          "type": "address"
        }
      ],
      "name": "maxWithdraw",
      "outputs": [
        {
          "internalType": "uint256",
          "name": "",
          "type": "uint256"
        }
      ],
      "stateMutability": "view",
      "type": "function"
    },
    {
      "inputs": [
        {
          "internalType": "uint256",
          "name": "shares",
          "type": "uint256"
        },
        {
          "internalType": "address",
          "name": "receiver",
          "type": "address"
        }
      ],
      "name": "mint",
      "outputs": [
        {
          "internalType": "uint256",
          "name": "",
          "type": "uint256"
        }
      ],
      "stateMutability": "nonpayable",
      "type": "function"
    },
    {
      "inputs": [],
      "name": "name",
      "outputs": [
        {
          "internalType": "string",
          "name": "",
          "type": "string"
        }
      ],
      "stateMutability": "view",
      "type": "function"
    },
    {
      "inputs": [
        {
          "internalType": "bytes",
          "name": "",
          "type": "bytes"
        }
      ],
      "name": "nodePubkeyUsed",
      "outputs": [
        {
          "internalType": "bool",
          "name": "",
          "type": "bool"
        }
      ],
      "stateMutability": "view",
      "type": "function"
    },
    {
      "inputs": [],
      "name": "nodesAndWithdrawalTotalBalance",
      "outputs": [
        {
          "internalType": "uint256",
          "name": "",
          "type": "uint256"
        }
      ],
      "stateMutability": "view",
      "type": "function"
    },
    {
      "inputs": [],
      "name": "nodesBalanceUnlockTime",
      "outputs": [
        {
          "internalType": "uint256",
          "name": "",
          "type": "uint256"
        }
      ],
      "stateMutability": "view",
      "type": "function"
    },
    {
      "inputs": [
        {
          "internalType": "uint256",
          "name": "assets",
          "type": "uint256"
        }
      ],
      "name": "previewDeposit",
      "outputs": [
        {
          "internalType": "uint256",
          "name": "",
          "type": "uint256"
        }
      ],
      "stateMutability": "view",
      "type": "function"
    },
    {
      "inputs": [
        {
          "internalType": "uint256",
          "name": "shares",
          "type": "uint256"
        }
      ],
      "name": "previewMint",
      "outputs": [
        {
          "internalType": "uint256",
          "name": "",
          "type": "uint256"
        }
      ],
      "stateMutability": "view",
      "type": "function"
    },
    {
      "inputs": [
        {
          "internalType": "uint256",
          "name": "shares",
          "type": "uint256"
        }
      ],
      "name": "previewRedeem",
      "outputs": [
        {
          "internalType": "uint256",
          "name": "",
          "type": "uint256"
        }
      ],
      "stateMutability": "view",
      "type": "function"
    },
    {
      "inputs": [
        {
          "internalType": "uint256",
          "name": "assets",
          "type": "uint256"
        }
      ],
      "name": "previewWithdraw",
      "outputs": [
        {
          "internalType": "uint256",
          "name": "",
          "type": "uint256"
        }
      ],
      "stateMutability": "view",
      "type": "function"
    },
    {
      "inputs": [
        {
          "components": [
            {
              "internalType": "bytes",
              "name": "pubkey",
              "type": "bytes"
            },
            {
              "internalType": "bytes",
              "name": "withdrawCredentials",
              "type": "bytes"
            },
            {
              "internalType": "bytes",
              "name": "signature",
              "type": "bytes"
            },
            {
              "internalType": "bytes32",
              "name": "depositDataRoot",
              "type": "bytes32"
            }
          ],
          "internalType": "struct Staking.Node[]",
          "name": "_nodes",
          "type": "tuple[]"
        },
        {
          "internalType": "uint256",
          "name": "_requestPoolAmount",
          "type": "uint256"
        },
        {
          "internalType": "uint256",
          "name": "_requestWithdrawalAmount",
          "type": "uint256"
        }
      ],
      "name": "pushToBeacon",
      "outputs": [],
      "stateMutability": "nonpayable",
      "type": "function"
    },
    {
      "inputs": [
        {
          "internalType": "uint256",
          "name": "shares",
          "type": "uint256"
        },
        {
          "internalType": "address",
          "name": "receiver",
          "type": "address"
        },
        {
          "internalType": "address",
          "name": "owner",
          "type": "address"
        }
      ],
      "name": "redeem",
      "outputs": [
        {
          "internalType": "uint256",
          "name": "",
          "type": "uint256"
        }
      ],
      "stateMutability": "nonpayable",
      "type": "function"
    },
    {
      "inputs": [
        {
          "internalType": "address[]",
          "name": "addresses",
          "type": "address[]"
        }
      ],
      "name": "removeFromWhitelist",
      "outputs": [],
      "stateMutability": "nonpayable",
      "type": "function"
    },
    {
      "inputs": [
        {
          "internalType": "bytes32",
          "name": "role",
          "type": "bytes32"
        },
        {
          "internalType": "address",
          "name": "account",
          "type": "address"
        }
      ],
      "name": "renounceRole",
      "outputs": [],
      "stateMutability": "nonpayable",
      "type": "function"
    },
    {
      "inputs": [
        {
          "internalType": "uint256",
          "name": "_requestedETH",
          "type": "uint256"
        }
      ],
      "name": "requestEthFromLiquidPoolToWithdrawal",
      "outputs": [],
      "stateMutability": "nonpayable",
      "type": "function"
    },
    {
      "inputs": [
        {
          "internalType": "bytes32",
          "name": "role",
          "type": "bytes32"
        },
        {
          "internalType": "address",
          "name": "account",
          "type": "address"
        }
      ],
      "name": "revokeRole",
      "outputs": [],
      "stateMutability": "nonpayable",
      "type": "function"
    },
    {
      "inputs": [],
      "name": "rewardsFee",
      "outputs": [
        {
          "internalType": "uint16",
          "name": "",
          "type": "uint16"
        }
      ],
      "stateMutability": "view",
      "type": "function"
    },
    {
      "inputs": [],
      "name": "stakingBalance",
      "outputs": [
        {
          "internalType": "uint256",
          "name": "",
          "type": "uint256"
        }
      ],
      "stateMutability": "view",
      "type": "function"
    },
    {
      "inputs": [
        {
          "internalType": "bytes4",
          "name": "interfaceId",
          "type": "bytes4"
        }
      ],
      "name": "supportsInterface",
      "outputs": [
        {
          "internalType": "bool",
          "name": "",
          "type": "bool"
        }
      ],
      "stateMutability": "view",
      "type": "function"
    },
    {
      "inputs": [],
      "name": "symbol",
      "outputs": [
        {
          "internalType": "string",
          "name": "",
          "type": "string"
        }
      ],
      "stateMutability": "view",
      "type": "function"
    },
    {
      "inputs": [],
      "name": "toggleWhitelistEnabled",
      "outputs": [],
      "stateMutability": "nonpayable",
      "type": "function"
    },
    {
      "inputs": [],
      "name": "totalAssets",
      "outputs": [
        {
          "internalType": "uint256",
          "name": "assets",
          "type": "uint256"
        }
      ],
      "stateMutability": "view",
      "type": "function"
    },
    {
      "inputs": [],
      "name": "totalNodesActivated",
      "outputs": [
        {
          "internalType": "uint32",
          "name": "",
          "type": "uint32"
        }
      ],
      "stateMutability": "view",
      "type": "function"
    },
    {
      "inputs": [],
      "name": "totalSupply",
      "outputs": [
        {
          "internalType": "uint256",
          "name": "",
          "type": "uint256"
        }
      ],
      "stateMutability": "view",
      "type": "function"
    },
    {
      "inputs": [
        {
          "internalType": "address",
          "name": "to",
          "type": "address"
        },
        {
          "internalType": "uint256",
          "name": "amount",
          "type": "uint256"
        }
      ],
      "name": "transfer",
      "outputs": [
        {
          "internalType": "bool",
          "name": "",
          "type": "bool"
        }
      ],
      "stateMutability": "nonpayable",
      "type": "function"
    },
    {
      "inputs": [
        {
          "internalType": "address",
          "name": "from",
          "type": "address"
        },
        {
          "internalType": "address",
          "name": "to",
          "type": "address"
        },
        {
          "internalType": "uint256",
          "name": "amount",
          "type": "uint256"
        }
      ],
      "name": "transferFrom",
      "outputs": [
        {
          "internalType": "bool",
          "name": "",
          "type": "bool"
        }
      ],
      "stateMutability": "nonpayable",
      "type": "function"
    },
    {
      "inputs": [],
      "name": "treasury",
      "outputs": [
        {
          "internalType": "address",
          "name": "",
          "type": "address"
        }
      ],
      "stateMutability": "view",
      "type": "function"
    },
    {
      "inputs": [
        {
          "internalType": "int256",
          "name": "_estimatedRewardsPerSecond",
          "type": "int256"
        }
      ],
      "name": "updateEstimatedRewardsPerSecond",
      "outputs": [],
      "stateMutability": "nonpayable",
      "type": "function"
    },
    {
      "inputs": [
        {
          "internalType": "address payable",
          "name": "_liquidPool",
          "type": "address"
        }
      ],
      "name": "updateLiquidPool",
      "outputs": [],
      "stateMutability": "nonpayable",
      "type": "function"
    },
    {
      "inputs": [
        {
          "internalType": "uint256",
          "name": "_newNodesBalance",
          "type": "uint256"
        },
        {
          "internalType": "int256",
          "name": "_estimatedRewardsPerSecond",
          "type": "int256"
        }
      ],
      "name": "updateNodesBalance",
      "outputs": [],
      "stateMutability": "nonpayable",
      "type": "function"
    },
    {
      "inputs": [
        {
          "internalType": "uint16",
          "name": "_rewardsFee",
          "type": "uint16"
        }
      ],
      "name": "updateRewardsFee",
      "outputs": [],
      "stateMutability": "nonpayable",
      "type": "function"
    },
    {
      "inputs": [
        {
          "internalType": "address payable",
          "name": "_withdrawal",
          "type": "address"
        }
      ],
      "name": "updateWithdrawal",
      "outputs": [],
      "stateMutability": "nonpayable",
      "type": "function"
    },
    {
      "inputs": [],
      "name": "whitelistEnabled",
      "outputs": [
        {
          "internalType": "bool",
          "name": "",
          "type": "bool"
        }
      ],
      "stateMutability": "view",
      "type": "function"
    },
    {
      "inputs": [
        {
          "internalType": "address",
          "name": "",
          "type": "address"
        }
      ],
      "name": "whitelistedAccounts",
      "outputs": [
        {
          "internalType": "bool",
          "name": "",
          "type": "bool"
        }
      ],
      "stateMutability": "view",
      "type": "function"
    },
    {
      "inputs": [
        {
          "internalType": "uint256",
          "name": "assets",
          "type": "uint256"
        },
        {
          "internalType": "address",
          "name": "receiver",
          "type": "address"
        },
        {
          "internalType": "address",
          "name": "owner",
          "type": "address"
        }
      ],
      "name": "withdraw",
      "outputs": [
        {
          "internalType": "uint256",
          "name": "",
          "type": "uint256"
        }
      ],
      "stateMutability": "nonpayable",
      "type": "function"
    },
    {
      "inputs": [],
      "name": "withdrawal",
      "outputs": [
        {
          "internalType": "address payable",
          "name": "",
          "type": "address"
        }
      ],
      "stateMutability": "view",
      "type": "function"
    },
    {
      "stateMutability": "payable",
      "type": "receive"
    }
  ],
  "bytecode": "0x608060405234801561001057600080fd5b5061416d806100206000396000f3fe6080604052600436106103d25760003560e01c80637ba8837f116101fd578063c62b60f711610118578063dd62ed3e116100ab578063ef8b30f71161007a578063ef8b30f714610a61578063f096a84614610bb3578063f6a6830f14610bca578063f6c14be214610bfb578063f756fa2114610c1157600080fd5b8063dd62ed3e14610b29578063e1e158a514610b49578063e59e7de714610b7d578063e94ad65b14610b9357600080fd5b8063d1906eb0116100e7578063d1906eb014610aa1578063d4e9329214610ac1578063d547741f14610ae9578063d905777e14610b0957600080fd5b8063c62b60f714610a1f578063c63d75b614610a3f578063c6e6f59214610a61578063ce96cb7714610a8157600080fd5b80639dc162ca11610190578063b0c6a9ad1161015f578063b0c6a9ad146109a9578063b3d7f6b9146109bf578063b460af94146109df578063ba087652146109ff57600080fd5b80639dc162ca14610934578063a217fddf14610954578063a457c2d714610969578063a9059cbb1461098957600080fd5b806391d14854116101cc57806391d14854146108bf57806394131038146108df57806394bf804d146108ff57806395d89b411461091f57600080fd5b80637ba8837f1461082d5780637f6497831461084d57806387d6c0171461086d578063911140bb146108a957600080fd5b8063317d760d116102ed5780634dc1d6fb1161028057806361d027b31161024f57806361d027b3146107845780636e553f65146107a45780636e64b578146107c457806370a08231146107f757600080fd5b80634dc1d6fb1461070957806351fb012d14610729578063548db17414610744578063593f89071461076457600080fd5b8063402d267d116102bc578063402d267d146106b257806346fd1268146106d257806347e63380146106e75780634cdad5061461045857600080fd5b8063317d760d1461062057806336568abe1461064057806338d52e0f14610660578063395093511461069257600080fd5b80631459457a116103655780632bb14e1d116103345780632bb14e1d1461058a5780632d2da806146105c15780632f2ff15d146105d4578063313ce567146105f457600080fd5b80631459457a1461050357806318160ddd1461052557806323b872dd1461053a578063248a9ca31461055a57600080fd5b806308740a3b116103a157806308740a3b14610478578063095ea7b3146104ac5780630a28a477146104cc5780630c8797dd146104ec57600080fd5b806301e1d114146103de57806301ffc9a71461040657806306fdde031461043657806307a2d13a1461045857600080fd5b366103d957005b600080fd5b3480156103ea57600080fd5b506103f3610c26565b6040519081526020015b60405180910390f35b34801561041257600080fd5b50610426610421366004613b93565b610dc6565b60405190151581526020016103fd565b34801561044257600080fd5b5061044b610dfd565b6040516103fd9190613d8b565b34801561046457600080fd5b506103f3610473366004613b57565b610e8f565b34801561048457600080fd5b506103f37fec5aad7bdface20c35bc02d6d2d5760df981277427368525d634f4e2603ea19281565b3480156104b857600080fd5b506104266104c73660046139ca565b610e9c565b3480156104d857600080fd5b506103f36104e7366004613b57565b610eb4565b3480156104f857600080fd5b506103f36101015481565b34801561050f57600080fd5b5061052361051e36600461395a565b610ec1565b005b34801561053157600080fd5b506035546103f3565b34801561054657600080fd5b5061042661055536600461391a565b61128c565b34801561056657600080fd5b506103f3610575366004613b57565b600090815260c9602052604090206001015490565b34801561059657600080fd5b50610102546105ae90640100000000900461ffff1681565b60405161ffff90911681526020016103fd565b6103f36105cf3660046138c6565b6112b2565b3480156105e057600080fd5b506105236105ef366004613b6f565b6112cd565b34801561060057600080fd5b50606554600160a01b900460ff1660405160ff90911681526020016103fd565b34801561062c57600080fd5b5061052361063b366004613c69565b6112f7565b34801561064c57600080fd5b5061052361065b366004613b6f565b61157d565b34801561066c57600080fd5b506065546001600160a01b03165b6040516001600160a01b0390911681526020016103fd565b34801561069e57600080fd5b506104266106ad3660046139ca565b6115fb565b3480156106be57600080fd5b506103f36106cd3660046138c6565b61161d565b3480156106de57600080fd5b5061052361163b565b3480156106f357600080fd5b506103f360008051602061411883398151915281565b34801561071557600080fd5b50610523610724366004613bee565b61165c565b34801561073557600080fd5b50610104546104269060ff1681565b34801561075057600080fd5b5061052361075f3660046139f5565b6116c2565b34801561077057600080fd5b5061052361077f3660046138c6565b611753565b34801561079057600080fd5b5060fb5461067a906001600160a01b031681565b3480156107b057600080fd5b506103f36107bf366004613b6f565b6117c5565b3480156107d057600080fd5b50610102546107e29063ffffffff1681565b60405163ffffffff90911681526020016103fd565b34801561080357600080fd5b506103f36108123660046138c6565b6001600160a01b031660009081526033602052604090205490565b34801561083957600080fd5b506105236108483660046138c6565b6117df565b34801561085957600080fd5b506105236108683660046139f5565b611842565b34801561087957600080fd5b50610426610888366004613bbb565b80516020818301810180516101058252928201919093012091525460ff1681565b3480156108b557600080fd5b506105ae6107d081565b3480156108cb57600080fd5b506104266108da366004613b6f565b6118cc565b3480156108eb57600080fd5b506105236108fa366004613a65565b6118f7565b34801561090b57600080fd5b506103f361091a366004613b6f565b611dfb565b34801561092b57600080fd5b5061044b611e15565b34801561094057600080fd5b5060fc5461067a906001600160a01b031681565b34801561096057600080fd5b506103f3600081565b34801561097557600080fd5b506104266109843660046139ca565b611e24565b34801561099557600080fd5b506104266109a43660046139ca565b611eaa565b3480156109b557600080fd5b506103f360fe5481565b3480156109cb57600080fd5b506103f36109da366004613b57565b611eb8565b3480156109eb57600080fd5b506103f36109fa366004613c28565b611ec5565b348015610a0b57600080fd5b506103f3610a1a366004613c28565b611f41565b348015610a2b57600080fd5b50610523610a3a366004613b57565b611fb5565b348015610a4b57600080fd5b506103f3610a5a3660046138c6565b5060001990565b348015610a6d57600080fd5b506103f3610a7c366004613b57565b6120a4565b348015610a8d57600080fd5b506103f3610a9c3660046138c6565b6120b1565b348015610aad57600080fd5b50610523610abc366004613b57565b6120d5565b348015610acd57600080fd5b506101025461067a90600160301b90046001600160a01b031681565b348015610af557600080fd5b50610523610b04366004613b6f565b61214c565b348015610b1557600080fd5b506103f3610b243660046138c6565b612171565b348015610b3557600080fd5b506103f3610b443660046138e2565b61218f565b348015610b5557600080fd5b50610b64662386f26fc1000081565b60405167ffffffffffffffff90911681526020016103fd565b348015610b8957600080fd5b50610b6461384081565b348015610b9f57600080fd5b5060fd5461067a906001600160a01b031681565b348015610bbf57600080fd5b506103f36101005481565b348015610bd657600080fd5b50610426610be53660046138c6565b6101036020526000908152604090205460ff1681565b348015610c0757600080fd5b506103f360ff5481565b348015610c1d57600080fd5b506105236121ba565b60008061384067ffffffffffffffff1661010054610c449190613fe8565b610c4e9042613fe8565b61010154610c5c9190613f15565b905060008112610d185761010260069054906101000a90046001600160a01b03166001600160a01b031663f7fc70026040518163ffffffff1660e01b815260040160206040518083038186803b158015610cb557600080fd5b505afa158015610cc9573d6000803e3d6000fd5b505050506040513d601f19601f82011682018060405250810190610ced9190613c10565b8160fe5460ff54610cfe9190613edd565b610d089190613edd565b610d129190613fe8565b91505090565b61010260069054906101000a90046001600160a01b03166001600160a01b031663f7fc70026040518163ffffffff1660e01b815260040160206040518083038186803b158015610d6757600080fd5b505afa158015610d7b573d6000803e3d6000fd5b505050506040513d601f19601f82011682018060405250810190610d9f9190613c10565b610da8826140bc565b60fe5460ff54610db89190613edd565b610d089190613fe8565b5090565b60006001600160e01b03198216637965db0b60e01b1480610df757506301ffc9a760e01b6001600160e01b03198316145b92915050565b606060368054610e0c90614042565b80601f0160208091040260200160405190810160405280929190818152602001828054610e3890614042565b8015610e855780601f10610e5a57610100808354040283529160200191610e85565b820191906000526020600020905b815481529060010190602001808311610e6857829003601f168201915b5050505050905090565b6000610df78260006122b7565b600033610eaa8185856122ea565b5060019392505050565b6000610df782600161240e565b600054610100900460ff1615808015610ee15750600054600160ff909116105b80610efb5750303b158015610efb575060005460ff166001145b610f635760405162461bcd60e51b815260206004820152602e60248201527f496e697469616c697a61626c653a20636f6e747261637420697320616c72656160448201526d191e481a5b9a5d1a585b1a5e995960921b60648201526084015b60405180910390fd5b6000805460ff191660011790558015610f86576000805461ff0019166101001790555b6001600160a01b038416610fc85760405163eac0d38960e01b8152602060048201526008602482015267747265617375727960c01b6044820152606401610f5a565b6001600160a01b0386166110115760405163eac0d38960e01b815260206004820152600f60248201526e19195c1bdcda5d10dbdb9d1c9858dd608a1b6044820152606401610f5a565b61101a85612440565b6110646040518060400160405280600b81526020016a09acae8c2a0deded88aa8960ab1b815250604051806040016040528060058152602001640dae08aa8960db1b815250612473565b61106c6124a4565b846001600160a01b031663313ce5676040518163ffffffff1660e01b815260040160206040518083038186803b1580156110a557600080fd5b505afa1580156110b9573d6000803e3d6000fd5b505050506040513d601f19601f820116820180604052508101906110dd9190613cad565b60ff1660121461114b5760405162461bcd60e51b815260206004820152603360248201527f774e617469766520746f6b656e206572726f722c20696d706c656d656e746174604482015272696f6e20666f7220313820646563696d616c7360681b6064820152608401610f5a565b47156111a75760405162461bcd60e51b815260206004820152602560248201527f4572726f7220696e697469616c697a652077697468206e6f207a65726f2062616044820152646c616e636560d81b6064820152608401610f5a565b6111b26000336124cd565b6111ca600080516020614118833981519152846124cd565b6111f47fec5aad7bdface20c35bc02d6d2d5760df981277427368525d634f4e2603ea192836124cd565b6111ff6101f461165c565b60fb80546001600160a01b038087166001600160a01b03199283161790925560fd80549289169290911691909117905567ffffffffffffffff4216610100558015611284576000805461ff0019169055604051600181527f7f26b83ff96e1f2b6a682f133852f6798a09c465da95921460cefb38474024989060200160405180910390a15b505050505050565b60003361129a858285612553565b6112a58585856125cd565b60019150505b9392505050565b6000806112be346120a4565b9050610df73384600084612778565b600082815260c960205260409020600101546112e8816128de565b6112f283836124cd565b505050565b61010254600160301b90046001600160a01b03166113285760405163eac0d38960e01b8152600401610f5a90613e14565b60fc546001600160a01b03166113515760405163eac0d38960e01b8152600401610f5a90613de9565b600080516020614118833981519152611369816128de565b611372826120d5565b61010054428111156113a05760405163b267cf3f60e01b815260048101829052426024820152604401610f5a565b60fe546101025460408051637bfe380160e11b81529051600092600160301b90046001600160a01b03169163f7fc7002916004808301926020929190829003018186803b1580156113f057600080fd5b505afa158015611404573d6000803e3d6000fd5b505050506040513d601f19601f820116820180604052508101906114289190613c10565b6101025461144790600160301b90046001600160a01b03163188613edd565b6114519190613fe8565b905081811160008161146c576114678385613fe8565b611476565b6114768484613fe8565b90506114846103e885613ef5565b8111156114c95783838261149a6103e884613ef5565b604051633a588a7960e11b81526004810194909452602484019290925260448301526064820152608401610f5a565b81156115235761010254600090612710906114f090640100000000900461ffff1684613f98565b6114fa9190613ef5565b90506000611507826120a4565b60fb54909150611520906001600160a01b0316826128e8565b50505b600061153161384042613edd565b61010081905560fe8590556040518581529091507f4d1b7ebdfd13eb13637b375375c66d848b00ed846f22df0039c8fb561f1cec9e9060200160405180910390a1505050505050505050565b6001600160a01b03811633146115ed5760405162461bcd60e51b815260206004820152602f60248201527f416363657373436f6e74726f6c3a2063616e206f6e6c792072656e6f756e636560448201526e103937b632b9903337b91039b2b63360891b6064820152608401610f5a565b6115f782826129a9565b5050565b600033610eaa81858561160e838361218f565b6116189190613edd565b6122ea565b6000611627612a10565b611632576000610df7565b60001992915050565b6000611646816128de565b50610104805460ff19811660ff90911615179055565b6000611667816128de565b6107d061ffff8316111561169c5760405163031d0da160e61b815261ffff831660048201526107d06024820152604401610f5a565b50610102805461ffff9092166401000000000265ffff0000000019909216919091179055565b60006116cd816128de565b8160005b81811461174c57600061010360008787858181106116ff57634e487b7160e01b600052603260045260246000fd5b905060200201602081019061171491906138c6565b6001600160a01b031681526020810191909152604001600020805460ff19169115159190911790556117458161407d565b90506116d1565b5050505050565b600061175e816128de565b6001600160a01b0382166117a25760405163eac0d38960e01b815260206004820152600a6024820152691b1a5c5d5a59141bdbdb60b21b6044820152606401610f5a565b5060fc80546001600160a01b0319166001600160a01b0392909216919091179055565b6000806117d1846120a4565b90506112ab33848684612778565b60006117ea816128de565b6001600160a01b0382166118115760405163eac0d38960e01b8152600401610f5a90613e14565b5061010280546001600160a01b03909216600160301b026601000000000000600160d01b0319909216919091179055565b600061184d816128de565b8160005b81811461174c576001610103600087878581811061187f57634e487b7160e01b600052603260045260246000fd5b905060200201602081019061189491906138c6565b6001600160a01b031681526020810191909152604001600020805460ff19169115159190911790556118c58161407d565b9050611851565b600091825260c9602090815260408084206001600160a01b0393909316845291905290205460ff1690565b61010254600160301b90046001600160a01b03166119285760405163eac0d38960e01b8152600401610f5a90613e14565b60fc546001600160a01b03166119515760405163eac0d38960e01b8152600401610f5a90613de9565b7fec5aad7bdface20c35bc02d6d2d5760df981277427368525d634f4e2603ea19261197b816128de565b8351600061199863ffffffff83166801bc16d674ec800000613fb7565b68ffffffffffffffffff16905080848660ff546119b59190613edd565b6119bf9190613edd565b10156119fa5760ff54604051634b82651b60e01b81526004810191909152602481018690526044810185905260648101829052608401610f5a565b8415611a5f5760fc54604051633701206b60e01b8152600481018790526001600160a01b0390911690633701206b90602401600060405180830381600087803b158015611a4657600080fd5b505af1158015611a5a573d6000803e3d6000fd5b505050505b8315611acb5761010254604051633701206b60e01b815260048101869052600160301b9091046001600160a01b031690633701206b90602401600060405180830381600087803b158015611ab257600080fd5b505af1158015611ac6573d6000803e3d6000fd5b505050505b6101025463ffffffff1660005b8363ffffffff168114611d9757610105888281518110611b0857634e487b7160e01b600052603260045260246000fd5b602002602001015160000151604051611b219190613cfa565b9081526040519081900360200190205460ff1615611b7f57878181518110611b5957634e487b7160e01b600052603260045260246000fd5b6020026020010151600001516040516314e6a03d60e11b8152600401610f5a9190613d8b565b6001610105898381518110611ba457634e487b7160e01b600052603260045260246000fd5b602002602001015160000151604051611bbd9190613cfa565b908152604051908190036020019020805491151560ff1990921691909117905560fd5488516001600160a01b03909116906322895118906801bc16d674ec800000908b9085908110611c1f57634e487b7160e01b600052603260045260246000fd5b6020026020010151600001518b8581518110611c4b57634e487b7160e01b600052603260045260246000fd5b6020026020010151602001518c8681518110611c7757634e487b7160e01b600052603260045260246000fd5b6020026020010151604001518d8781518110611ca357634e487b7160e01b600052603260045260246000fd5b6020026020010151606001516040518663ffffffff1660e01b8152600401611cce9493929190613d9e565b6000604051808303818588803b158015611ce757600080fd5b505af1158015611cfb573d6000803e3d6000fd5b50505050508180611d0b90614098565b925050878181518110611d2e57634e487b7160e01b600052603260045260246000fd5b602002602001015160000151604051611d479190613cfa565b60405190819003812063ffffffff84168252907fd30c530f2d5e6c518f21d801360ff46849e74bf1cba98a64c7dbc741fc9b263a9060200160405180910390a2611d908161407d565b9050611ad8565b506000611da48684613fe8565b90508060ff6000828254611db89190613fe8565b925050819055508060fe6000828254611dd19190613edd565b9091555050610102805463ffffffff191663ffffffff939093169290921790915550505050505050565b600080611e0784611eb8565b90506112ab33848387612778565b606060378054610e0c90614042565b60003381611e32828661218f565b905083811015611e925760405162461bcd60e51b815260206004820152602560248201527f45524332303a2064656372656173656420616c6c6f77616e63652062656c6f77604482015264207a65726f60d81b6064820152608401610f5a565b611e9f82868684036122ea565b506001949350505050565b600033610eaa8185856125cd565b6000610df78260016122b7565b6000611ed0826120b1565b841115611f1f5760405162461bcd60e51b815260206004820152601f60248201527f455243343632363a207769746864726177206d6f7265207468616e206d6178006044820152606401610f5a565b6000611f2a85610eb4565b9050611f393385858885612a2c565b949350505050565b6000611f4c82612171565b841115611f9b5760405162461bcd60e51b815260206004820152601d60248201527f455243343632363a2072656465656d206d6f7265207468616e206d61780000006044820152606401610f5a565b6000611fa685610e8f565b9050611f393385858489612a2c565b61010254600160301b90046001600160a01b0316611fe65760405163eac0d38960e01b8152600401610f5a90613e14565b60fc546001600160a01b031661200f5760405163eac0d38960e01b8152600401610f5a90613de9565b600080516020614118833981519152612027816128de565b60fc54604051633701206b60e01b8152600481018490526001600160a01b0390911690633701206b90602401600060405180830381600087803b15801561206d57600080fd5b505af1158015612081573d6000803e3d6000fd5b5050610102546115f79250600160301b90046001600160a01b0316905083612b86565b6000610df782600061240e565b6001600160a01b038116600090815260336020526040812054610df79060006122b7565b6000805160206141188339815191526120ed816128de565b6000629896806120fb610c26565b6121059190613ef5565b90508083138061211c5750612119816140bc565b83125b156121445760405163bcc1b4cf60e01b81526004810184905260248101829052604401610f5a565b505061010155565b600082815260c96020526040902060010154612167816128de565b6112f283836129a9565b6001600160a01b038116600090815260336020526040812054610df7565b6001600160a01b03918216600090815260346020908152604080832093909416825291909152205490565b6101025460405163fa14d48160e01b8152336004820152600091600160301b90046001600160a01b03169063fa14d48190602401604080518083038186803b15801561220557600080fd5b505afa158015612219573d6000803e3d6000fd5b505050506040513d601f19601f8201168201806040525081019061223d9190613c8a565b5090508060fe60008282546122529190613fe8565b90915550506101025460405163bf3b826b60e01b8152336004820152600160301b9091046001600160a01b03169063bf3b826b90602401600060405180830381600087803b1580156122a357600080fd5b505af115801561174c573d6000803e3d6000fd5b6000806122c360355490565b905080156122e4576122df6122d6610c26565b85908386612c9f565b611f39565b83611f39565b6001600160a01b03831661234c5760405162461bcd60e51b8152602060048201526024808201527f45524332303a20617070726f76652066726f6d20746865207a65726f206164646044820152637265737360e01b6064820152608401610f5a565b6001600160a01b0382166123ad5760405162461bcd60e51b815260206004820152602260248201527f45524332303a20617070726f766520746f20746865207a65726f206164647265604482015261737360f01b6064820152608401610f5a565b6001600160a01b0383811660008181526034602090815260408083209487168084529482529182902085905590518481527f8c5be1e5ebec7d5bd14f71427d1e84f3dd0314c0f7b2291e5b200ac8c7c3b925910160405180910390a3505050565b60008061241a60355490565b9050831580612427575080155b6122e4576122df81612437610c26565b86919086612c9f565b600054610100900460ff166124675760405162461bcd60e51b8152600401610f5a90613e38565b61247081612d18565b50565b600054610100900460ff1661249a5760405162461bcd60e51b8152600401610f5a90613e38565b6115f78282612d9d565b600054610100900460ff166124cb5760405162461bcd60e51b8152600401610f5a90613e38565b565b6124d782826118cc565b6115f757600082815260c9602090815260408083206001600160a01b03851684529091529020805460ff1916600117905561250f3390565b6001600160a01b0316816001600160a01b0316837f2f8788117e7eff1d82e926ec794901d17c78024a50270940304540a733656f0d60405160405180910390a45050565b600061255f848461218f565b905060001981146125c757818110156125ba5760405162461bcd60e51b815260206004820152601d60248201527f45524332303a20696e73756666696369656e7420616c6c6f77616e63650000006044820152606401610f5a565b6125c784848484036122ea565b50505050565b6001600160a01b0383166126315760405162461bcd60e51b815260206004820152602560248201527f45524332303a207472616e736665722066726f6d20746865207a65726f206164604482015264647265737360d81b6064820152608401610f5a565b6001600160a01b0382166126935760405162461bcd60e51b815260206004820152602360248201527f45524332303a207472616e7366657220746f20746865207a65726f206164647260448201526265737360e81b6064820152608401610f5a565b6001600160a01b0383166000908152603360205260409020548181101561270b5760405162461bcd60e51b815260206004820152602660248201527f45524332303a207472616e7366657220616d6f756e7420657863656564732062604482015265616c616e636560d01b6064820152608401610f5a565b6001600160a01b0380851660008181526033602052604080822086860390559286168082529083902080548601905591517fddf252ad1be2c89b69c2b068fc378daa952ba7f163c4a11628f55a4df523b3ef9061276b9086815260200190565b60405180910390a36125c7565b61010254600160301b90046001600160a01b03166127a95760405163eac0d38960e01b8152600401610f5a90613e14565b60fc546001600160a01b03166127d25760405163eac0d38960e01b8152600401610f5a90613de9565b6101045460ff1680156127f65750336000908152610103602052604090205460ff16155b1561281657604051632e6eba8560e11b8152336004820152602401610f5a565b61281f82612deb565b915061282a82612e84565b6000806128378386612ebc565b90925090506128468284613fe8565b92506128528185613fe8565b935082156128645761286485846128e8565b8360ff60008282546128769190613edd565b90915550506001600160a01b038086169087167fdcbc1c05240f31ff3ad067ef1ee35ce4997762752e3a095284754544f4c709d76128b48488613edd565b6128be8688613edd565b6040805192835260208301919091520160405180910390a3505050505050565b6124708133612fb1565b6001600160a01b03821661293e5760405162461bcd60e51b815260206004820152601f60248201527f45524332303a206d696e7420746f20746865207a65726f2061646472657373006044820152606401610f5a565b80603560008282546129509190613edd565b90915550506001600160a01b0382166000818152603360209081526040808320805486019055518481527fddf252ad1be2c89b69c2b068fc378daa952ba7f163c4a11628f55a4df523b3ef910160405180910390a35050565b6129b382826118cc565b156115f757600082815260c9602090815260408083206001600160a01b0385168085529252808320805460ff1916905551339285917ff6391f5c32d9c69d2a47ea670b442974b53935d1edc7fd64eb21e047a839171b9190a45050565b600080612a1b610c26565b1180612a275750603554155b905090565b61010254600160301b90046001600160a01b0316612a5d5760405163eac0d38960e01b8152600401610f5a90613e14565b60fc546001600160a01b0316612a865760405163eac0d38960e01b8152600401610f5a90613de9565b826001600160a01b0316856001600160a01b031614612aaa57612aaa838683612553565b612ab4838261300a565b61010254604051631998287760e31b815260048101849052336024820152600160301b9091046001600160a01b03169063ccc143b890604401600060405180830381600087803b158015612b0757600080fd5b505af1158015612b1b573d6000803e3d6000fd5b50505050826001600160a01b0316846001600160a01b0316866001600160a01b03167ffbde797d201c681b91056529119e0b02407c7bb96a4a2c75c01fc9667232c8db8585604051612b77929190918252602082015260400190565b60405180910390a45050505050565b80471015612bd65760405162461bcd60e51b815260206004820152601d60248201527f416464726573733a20696e73756666696369656e742062616c616e63650000006044820152606401610f5a565b6000826001600160a01b03168260405160006040518083038185875af1925050503d8060008114612c23576040519150601f19603f3d011682016040523d82523d6000602084013e612c28565b606091505b50509050806112f25760405162461bcd60e51b815260206004820152603a60248201527f416464726573733a20756e61626c6520746f2073656e642076616c75652c207260448201527f6563697069656e74206d617920686176652072657665727465640000000000006064820152608401610f5a565b600080612cad86868661313e565b90506001836002811115612cd157634e487b7160e01b600052602160045260246000fd5b148015612cfc575060008480612cf757634e487b7160e01b600052601260045260246000fd5b868809115b15612d0f57612d0c600182613edd565b90505b95945050505050565b600054610100900460ff16612d3f5760405162461bcd60e51b8152600401610f5a90613e38565b600080612d4b836131fc565b9150915081612d5b576012612d5d565b805b606580546001600160a01b039095166001600160a01b031960ff93909316600160a01b02929092166001600160a81b031990951694909417179092555050565b600054610100900460ff16612dc45760405162461bcd60e51b8152600401610f5a90613e38565b8151612dd790603690602085019061372e565b5080516112f290603790602084019061372e565b600081612df9573491505090565b612e22333084612e116065546001600160a01b031690565b6001600160a01b03169291906132d8565b606554604051632e1a7d4d60e01b8152600481018490526001600160a01b0390911690632e1a7d4d90602401600060405180830381600087803b158015612e6857600080fd5b505af1158015612e7c573d6000803e3d6000fd5b505050505090565b662386f26fc100008110156124705760405163ea691a4b60e01b8152662386f26fc10000600482015260248101829052604401610f5a565b60fc5460009081906001600160a01b03163314612faa5760fc546001600160a01b0316600090815260336020526040902054612ef89085613332565b91508115612faa57612f0982611eb8565b60fc546040516361f4627d60e11b81526001600160a01b03868116600483015292935084929091169063c3e8c4fa9084906024016020604051808303818588803b158015612f5657600080fd5b505af1158015612f6a573d6000803e3d6000fd5b50505050506040513d601f19601f82011682018060405250810190612f8f9190613c10565b14612faa57634e487b7160e01b600052600160045260246000fd5b9250929050565b612fbb82826118cc565b6115f757612fc881613348565b612fd383602061335a565b604051602001612fe4929190613d16565b60408051601f198184030181529082905262461bcd60e51b8252610f5a91600401613d8b565b6001600160a01b03821661306a5760405162461bcd60e51b815260206004820152602160248201527f45524332303a206275726e2066726f6d20746865207a65726f206164647265736044820152607360f81b6064820152608401610f5a565b6001600160a01b038216600090815260336020526040902054818110156130de5760405162461bcd60e51b815260206004820152602260248201527f45524332303a206275726e20616d6f756e7420657863656564732062616c616e604482015261636560f01b6064820152608401610f5a565b6001600160a01b03831660008181526033602090815260408083208686039055603580548790039055518581529192917fddf252ad1be2c89b69c2b068fc378daa952ba7f163c4a11628f55a4df523b3ef910160405180910390a3505050565b6000808060001985870985870292508281108382030391505080600014156131875783828161317d57634e487b7160e01b600052601260045260246000fd5b04925050506112ab565b80841161319357600080fd5b60008486880960026001871981018816978890046003810283188082028403028082028403028082028403028082028403028082028403029081029092039091026000889003889004909101858311909403939093029303949094049190911702949350505050565b60408051600481526024810182526020810180516001600160e01b031663313ce56760e01b17905290516000918291829182916001600160a01b0387169161324391613cfa565b600060405180830381855afa9150503d806000811461327e576040519150601f19603f3d011682016040523d82523d6000602084013e613283565b606091505b509150915081801561329757506020815110155b156132cb576000818060200190518101906132b29190613c10565b905060ff81116132c9576001969095509350505050565b505b5060009485945092505050565b604080516001600160a01b0385811660248301528416604482015260648082018490528251808303909101815260849091019091526020810180516001600160e01b03166323b872dd60e01b1790526125c790859061353c565b600081831061334157816112ab565b5090919050565b6060610df76001600160a01b03831660145b60606000613369836002613f98565b613374906002613edd565b67ffffffffffffffff81111561339a57634e487b7160e01b600052604160045260246000fd5b6040519080825280601f01601f1916602001820160405280156133c4576020820181803683370190505b509050600360fc1b816000815181106133ed57634e487b7160e01b600052603260045260246000fd5b60200101906001600160f81b031916908160001a905350600f60fb1b8160018151811061342a57634e487b7160e01b600052603260045260246000fd5b60200101906001600160f81b031916908160001a905350600061344e846002613f98565b613459906001613edd565b90505b60018111156134ed576f181899199a1a9b1b9c1cb0b131b232b360811b85600f166010811061349b57634e487b7160e01b600052603260045260246000fd5b1a60f81b8282815181106134bf57634e487b7160e01b600052603260045260246000fd5b60200101906001600160f81b031916908160001a90535060049490941c936134e68161402b565b905061345c565b5083156112ab5760405162461bcd60e51b815260206004820181905260248201527f537472696e67733a20686578206c656e67746820696e73756666696369656e746044820152606401610f5a565b6000613591826040518060400160405280602081526020017f5361666545524332303a206c6f772d6c6576656c2063616c6c206661696c6564815250856001600160a01b031661360e9092919063ffffffff16565b8051909150156112f257808060200190518101906135af9190613b37565b6112f25760405162461bcd60e51b815260206004820152602a60248201527f5361666545524332303a204552433230206f7065726174696f6e20646964206e6044820152691bdd081cdd58d8d9595960b21b6064820152608401610f5a565b6060611f39848460008585600080866001600160a01b031685876040516136359190613cfa565b60006040518083038185875af1925050503d8060008114613672576040519150601f19603f3d011682016040523d82523d6000602084013e613677565b606091505b509150915061368887838387613693565b979650505050505050565b606083156136ff5782516136f8576001600160a01b0385163b6136f85760405162461bcd60e51b815260206004820152601d60248201527f416464726573733a2063616c6c20746f206e6f6e2d636f6e74726163740000006044820152606401610f5a565b5081611f39565b611f3983838151156137145781518083602001fd5b8060405162461bcd60e51b8152600401610f5a9190613d8b565b82805461373a90614042565b90600052602060002090601f01602090048101928261375c57600085556137a2565b82601f1061377557805160ff19168380011785556137a2565b828001600101855582156137a2579182015b828111156137a2578251825591602001919060010190613787565b50610dc29291505b80821115610dc257600081556001016137aa565b600082601f8301126137ce578081fd5b813567ffffffffffffffff8111156137e8576137e86140ec565b6137fb601f8201601f1916602001613eac565b81815284602083860101111561380f578283fd5b816020850160208301379081016020019190915292915050565b60006080828403121561383a578081fd5b613842613e83565b9050813567ffffffffffffffff8082111561385c57600080fd5b613868858386016137be565b8352602084013591508082111561387e57600080fd5b61388a858386016137be565b602084015260408401359150808211156138a357600080fd5b506138b0848285016137be565b6040830152506060820135606082015292915050565b6000602082840312156138d7578081fd5b81356112ab81614102565b600080604083850312156138f4578081fd5b82356138ff81614102565b9150602083013561390f81614102565b809150509250929050565b60008060006060848603121561392e578081fd5b833561393981614102565b9250602084013561394981614102565b929592945050506040919091013590565b600080600080600060a08688031215613971578081fd5b853561397c81614102565b9450602086013561398c81614102565b9350604086013561399c81614102565b925060608601356139ac81614102565b915060808601356139bc81614102565b809150509295509295909350565b600080604083850312156139dc578182fd5b82356139e781614102565b946020939093013593505050565b60008060208385031215613a07578182fd5b823567ffffffffffffffff80821115613a1e578384fd5b818501915085601f830112613a31578384fd5b813581811115613a3f578485fd5b8660208260051b8501011115613a53578485fd5b60209290920196919550909350505050565b600080600060608486031215613a79578283fd5b833567ffffffffffffffff80821115613a90578485fd5b818601915086601f830112613aa3578485fd5b8135602082821115613ab757613ab76140ec565b8160051b613ac6828201613eac565b8381528281019086840183880185018d1015613ae0578a8bfd5b8a93505b85841015613b1d57803587811115613afa578b8cfd5b613b088e87838c0101613829565b84525060019390930192918401918401613ae4565b509b928a01359a5050506040909701359695505050505050565b600060208284031215613b48578081fd5b815180151581146112ab578182fd5b600060208284031215613b68578081fd5b5035919050565b60008060408385031215613b81578182fd5b82359150602083013561390f81614102565b600060208284031215613ba4578081fd5b81356001600160e01b0319811681146112ab578182fd5b600060208284031215613bcc578081fd5b813567ffffffffffffffff811115613be2578182fd5b611f39848285016137be565b600060208284031215613bff578081fd5b813561ffff811681146112ab578182fd5b600060208284031215613c21578081fd5b5051919050565b600080600060608486031215613c3c578081fd5b833592506020840135613c4e81614102565b91506040840135613c5e81614102565b809150509250925092565b60008060408385031215613c7b578182fd5b50508035926020909101359150565b60008060408385031215613c9c578182fd5b505080516020909101519092909150565b600060208284031215613cbe578081fd5b815160ff811681146112ab578182fd5b60008151808452613ce6816020860160208601613fff565b601f01601f19169290920160200192915050565b60008251613d0c818460208701613fff565b9190910192915050565b7f416363657373436f6e74726f6c3a206163636f756e7420000000000000000000815260008351613d4e816017850160208801613fff565b7001034b99036b4b9b9b4b733903937b6329607d1b6017918401918201528351613d7f816028840160208801613fff565b01602801949350505050565b6020815260006112ab6020830184613cce565b608081526000613db16080830187613cce565b8281036020840152613dc38187613cce565b90508281036040840152613dd78186613cce565b91505082606083015295945050505050565b6020808252601190820152701b1a5c5d5a59155b9cdd185ad9541bdbdb607a1b604082015260600190565b6020808252600a90820152691dda5d1a191c985dd85b60b21b604082015260600190565b6020808252602b908201527f496e697469616c697a61626c653a20636f6e7472616374206973206e6f74206960408201526a6e697469616c697a696e6760a81b606082015260800190565b6040516080810167ffffffffffffffff81118282101715613ea657613ea66140ec565b60405290565b604051601f8201601f1916810167ffffffffffffffff81118282101715613ed557613ed56140ec565b604052919050565b60008219821115613ef057613ef06140d6565b500190565b600082613f1057634e487b7160e01b81526012600452602481fd5b500490565b60006001600160ff1b0381841382841380821686840486111615613f3b57613f3b6140d6565b600160ff1b84871282811687830589121615613f5957613f596140d6565b858712925087820587128484161615613f7457613f746140d6565b87850587128184161615613f8a57613f8a6140d6565b505050929093029392505050565b6000816000190483118215151615613fb257613fb26140d6565b500290565b600068ffffffffffffffffff80831681851681830481118215151615613fdf57613fdf6140d6565b02949350505050565b600082821015613ffa57613ffa6140d6565b500390565b60005b8381101561401a578181015183820152602001614002565b838111156125c75750506000910152565b60008161403a5761403a6140d6565b506000190190565b600181811c9082168061405657607f821691505b6020821081141561407757634e487b7160e01b600052602260045260246000fd5b50919050565b6000600019821415614091576140916140d6565b5060010190565b600063ffffffff808316818114156140b2576140b26140d6565b6001019392505050565b6000600160ff1b8214156140d2576140d26140d6565b0390565b634e487b7160e01b600052601160045260246000fd5b634e487b7160e01b600052604160045260246000fd5b6001600160a01b038116811461247057600080fdfe73e573f9566d61418a34d5de3ff49360f9c51fec37f7486551670290f6285daba26469706673582212200b3e8e7631a61ceafeb87b1cb209e75efa29a332ff6e237b84612eb03264328464736f6c63430008040033",
  "linkReferences": {},
  "deployedLinkReferences": {}
}