{
  "_format": "hh-sol-artifact-1",
  "contractName": "Staking",
  "sourceName": "contracts/Staking.sol",
  "abi": [
    {
      "anonymous": false,
      "inputs": [
        {
          "indexed": true,
          "internalType": "address",
          "name": "owner",
          "type": "address"
        },
        {
          "indexed": true,
          "internalType": "address",
          "name": "spender",
          "type": "address"
        },
        {
          "indexed": false,
          "internalType": "uint256",
          "name": "value",
          "type": "uint256"
        }
      ],
      "name": "Approval",
      "type": "event"
    },
    {
      "anonymous": false,
      "inputs": [
        {
          "indexed": true,
          "internalType": "address",
          "name": "sender",
          "type": "address"
        },
        {
          "indexed": true,
          "internalType": "address",
          "name": "owner",
          "type": "address"
        },
        {
          "indexed": false,
          "internalType": "uint256",
          "name": "assets",
          "type": "uint256"
        },
        {
          "indexed": false,
          "internalType": "uint256",
          "name": "shares",
          "type": "uint256"
        }
      ],
      "name": "Deposit",
      "type": "event"
    },
    {
      "anonymous": false,
      "inputs": [
        {
          "indexed": false,
          "internalType": "uint8",
          "name": "version",
          "type": "uint8"
        }
      ],
      "name": "Initialized",
      "type": "event"
    },
    {
      "anonymous": false,
      "inputs": [
        {
          "indexed": true,
          "internalType": "address",
          "name": "sender",
          "type": "address"
        },
        {
          "indexed": true,
          "internalType": "address",
          "name": "owner",
          "type": "address"
        },
        {
          "indexed": false,
          "internalType": "uint256",
          "name": "assets",
          "type": "uint256"
        },
        {
          "indexed": false,
          "internalType": "uint256",
          "name": "shares",
          "type": "uint256"
        }
      ],
      "name": "Mint",
      "type": "event"
    },
    {
      "anonymous": false,
      "inputs": [
        {
          "indexed": true,
          "internalType": "bytes32",
          "name": "role",
          "type": "bytes32"
        },
        {
          "indexed": true,
          "internalType": "bytes32",
          "name": "previousAdminRole",
          "type": "bytes32"
        },
        {
          "indexed": true,
          "internalType": "bytes32",
          "name": "newAdminRole",
          "type": "bytes32"
        }
      ],
      "name": "RoleAdminChanged",
      "type": "event"
    },
    {
      "anonymous": false,
      "inputs": [
        {
          "indexed": true,
          "internalType": "bytes32",
          "name": "role",
          "type": "bytes32"
        },
        {
          "indexed": true,
          "internalType": "address",
          "name": "account",
          "type": "address"
        },
        {
          "indexed": true,
          "internalType": "address",
          "name": "sender",
          "type": "address"
        }
      ],
      "name": "RoleGranted",
      "type": "event"
    },
    {
      "anonymous": false,
      "inputs": [
        {
          "indexed": true,
          "internalType": "bytes32",
          "name": "role",
          "type": "bytes32"
        },
        {
          "indexed": true,
          "internalType": "address",
          "name": "account",
          "type": "address"
        },
        {
          "indexed": true,
          "internalType": "address",
          "name": "sender",
          "type": "address"
        }
      ],
      "name": "RoleRevoked",
      "type": "event"
    },
    {
      "anonymous": false,
      "inputs": [
        {
          "indexed": false,
          "internalType": "uint256",
          "name": "nodeId",
          "type": "uint256"
        },
        {
          "indexed": true,
          "internalType": "bytes",
          "name": "pubkey",
          "type": "bytes"
        }
      ],
      "name": "Stake",
      "type": "event"
    },
    {
      "anonymous": false,
      "inputs": [
        {
          "indexed": true,
          "internalType": "address",
          "name": "from",
          "type": "address"
        },
        {
          "indexed": true,
          "internalType": "address",
          "name": "to",
          "type": "address"
        },
        {
          "indexed": false,
          "internalType": "uint256",
          "name": "value",
          "type": "uint256"
        }
      ],
      "name": "Transfer",
      "type": "event"
    },
    {
      "anonymous": false,
      "inputs": [
        {
          "indexed": false,
          "internalType": "uint256",
          "name": "nodeId",
          "type": "uint256"
        },
        {
          "components": [
            {
              "internalType": "bytes",
              "name": "pubkey",
              "type": "bytes"
            },
            {
              "internalType": "bytes",
              "name": "withdrawCredentials",
              "type": "bytes"
            },
            {
              "internalType": "bytes",
              "name": "signature",
              "type": "bytes"
            },
            {
              "internalType": "bytes32",
              "name": "depositDataRoot",
              "type": "bytes32"
            }
          ],
          "indexed": false,
          "internalType": "struct Staking.Node",
          "name": "data",
          "type": "tuple"
        }
      ],
      "name": "UpdateNodeData",
      "type": "event"
    },
    {
      "anonymous": false,
      "inputs": [
        {
          "indexed": false,
          "internalType": "uint256",
          "name": "balance",
          "type": "uint256"
        }
      ],
      "name": "UpdateNodesBalance",
      "type": "event"
    },
    {
      "anonymous": false,
      "inputs": [
        {
          "indexed": true,
          "internalType": "address",
          "name": "sender",
          "type": "address"
        },
        {
          "indexed": true,
          "internalType": "address",
          "name": "receiver",
          "type": "address"
        },
        {
          "indexed": true,
          "internalType": "address",
          "name": "owner",
          "type": "address"
        },
        {
          "indexed": false,
          "internalType": "uint256",
          "name": "assets",
          "type": "uint256"
        },
        {
          "indexed": false,
          "internalType": "uint256",
          "name": "shares",
          "type": "uint256"
        }
      ],
      "name": "Withdraw",
      "type": "event"
    },
    {
      "inputs": [],
      "name": "ACTIVATOR_ROLE",
      "outputs": [
        {
          "internalType": "bytes32",
          "name": "",
          "type": "bytes32"
        }
      ],
      "stateMutability": "view",
      "type": "function"
    },
    {
      "inputs": [],
      "name": "DEFAULT_ADMIN_ROLE",
      "outputs": [
        {
          "internalType": "bytes32",
          "name": "",
          "type": "bytes32"
        }
      ],
      "stateMutability": "view",
      "type": "function"
    },
    {
      "inputs": [],
      "name": "UPDATER_ROLE",
      "outputs": [
        {
          "internalType": "bytes32",
          "name": "",
          "type": "bytes32"
        }
      ],
      "stateMutability": "view",
      "type": "function"
    },
    {
      "inputs": [
        {
          "internalType": "address",
          "name": "owner",
          "type": "address"
        },
        {
          "internalType": "address",
          "name": "spender",
          "type": "address"
        }
      ],
      "name": "allowance",
      "outputs": [
        {
          "internalType": "uint256",
          "name": "",
          "type": "uint256"
        }
      ],
      "stateMutability": "view",
      "type": "function"
    },
    {
      "inputs": [
        {
          "internalType": "address",
          "name": "spender",
          "type": "address"
        },
        {
          "internalType": "uint256",
          "name": "amount",
          "type": "uint256"
        }
      ],
      "name": "approve",
      "outputs": [
        {
          "internalType": "bool",
          "name": "",
          "type": "bool"
        }
      ],
      "stateMutability": "nonpayable",
      "type": "function"
    },
    {
      "inputs": [],
      "name": "asset",
      "outputs": [
        {
          "internalType": "address",
          "name": "",
          "type": "address"
        }
      ],
      "stateMutability": "view",
      "type": "function"
    },
    {
      "inputs": [
        {
          "internalType": "address",
          "name": "account",
          "type": "address"
        }
      ],
      "name": "balanceOf",
      "outputs": [
        {
          "internalType": "uint256",
          "name": "",
          "type": "uint256"
        }
      ],
      "stateMutability": "view",
      "type": "function"
    },
    {
      "inputs": [
        {
          "internalType": "uint256",
          "name": "shares",
          "type": "uint256"
        }
      ],
      "name": "convertToAssets",
      "outputs": [
        {
          "internalType": "uint256",
          "name": "assets",
          "type": "uint256"
        }
      ],
      "stateMutability": "view",
      "type": "function"
    },
    {
      "inputs": [
        {
          "internalType": "uint256",
          "name": "assets",
          "type": "uint256"
        }
      ],
      "name": "convertToShares",
      "outputs": [
        {
          "internalType": "uint256",
          "name": "shares",
          "type": "uint256"
        }
      ],
      "stateMutability": "view",
      "type": "function"
    },
    {
      "inputs": [],
      "name": "decimals",
      "outputs": [
        {
          "internalType": "uint8",
          "name": "",
          "type": "uint8"
        }
      ],
      "stateMutability": "view",
      "type": "function"
    },
    {
      "inputs": [
        {
          "internalType": "address",
          "name": "spender",
          "type": "address"
        },
        {
          "internalType": "uint256",
          "name": "subtractedValue",
          "type": "uint256"
        }
      ],
      "name": "decreaseAllowance",
      "outputs": [
        {
          "internalType": "bool",
          "name": "",
          "type": "bool"
        }
      ],
      "stateMutability": "nonpayable",
      "type": "function"
    },
    {
      "inputs": [
        {
          "internalType": "uint256",
          "name": "_assets",
          "type": "uint256"
        },
        {
          "internalType": "address",
          "name": "_receiver",
          "type": "address"
        }
      ],
      "name": "deposit",
      "outputs": [
        {
          "internalType": "uint256",
          "name": "",
          "type": "uint256"
        }
      ],
      "stateMutability": "nonpayable",
      "type": "function"
    },
    {
      "inputs": [],
      "name": "depositContract",
      "outputs": [
        {
          "internalType": "contract IDeposit",
          "name": "",
          "type": "address"
        }
      ],
      "stateMutability": "view",
      "type": "function"
    },
    {
      "inputs": [
        {
          "internalType": "address",
          "name": "_receiver",
          "type": "address"
        }
      ],
      "name": "depositETH",
      "outputs": [
        {
          "internalType": "uint256",
          "name": "",
          "type": "uint256"
        }
      ],
      "stateMutability": "payable",
      "type": "function"
    },
    {
      "inputs": [
        {
          "internalType": "bytes32",
          "name": "role",
          "type": "bytes32"
        }
      ],
      "name": "getRoleAdmin",
      "outputs": [
        {
          "internalType": "bytes32",
          "name": "",
          "type": "bytes32"
        }
      ],
      "stateMutability": "view",
      "type": "function"
    },
    {
      "inputs": [
        {
          "internalType": "bytes32",
          "name": "role",
          "type": "bytes32"
        },
        {
          "internalType": "address",
          "name": "account",
          "type": "address"
        }
      ],
      "name": "grantRole",
      "outputs": [],
      "stateMutability": "nonpayable",
      "type": "function"
    },
    {
      "inputs": [
        {
          "internalType": "bytes32",
          "name": "role",
          "type": "bytes32"
        },
        {
          "internalType": "address",
          "name": "account",
          "type": "address"
        }
      ],
      "name": "hasRole",
      "outputs": [
        {
          "internalType": "bool",
          "name": "",
          "type": "bool"
        }
      ],
      "stateMutability": "view",
      "type": "function"
    },
    {
      "inputs": [
        {
          "internalType": "address",
          "name": "spender",
          "type": "address"
        },
        {
          "internalType": "uint256",
          "name": "addedValue",
          "type": "uint256"
        }
      ],
      "name": "increaseAllowance",
      "outputs": [
        {
          "internalType": "bool",
          "name": "",
          "type": "bool"
        }
      ],
      "stateMutability": "nonpayable",
      "type": "function"
    },
    {
      "inputs": [
        {
          "internalType": "contract IDeposit",
          "name": "_depositContract",
          "type": "address"
        },
        {
          "internalType": "contract IERC20MetadataUpgradeable",
          "name": "_weth",
          "type": "address"
        },
        {
          "internalType": "address",
          "name": "_treasury",
          "type": "address"
        },
        {
          "internalType": "address",
          "name": "_updater",
          "type": "address"
        },
        {
          "internalType": "address",
          "name": "_activator",
          "type": "address"
        }
      ],
      "name": "initialize",
      "outputs": [],
      "stateMutability": "nonpayable",
      "type": "function"
    },
    {
      "inputs": [],
      "name": "liquidUnstakePool",
      "outputs": [
        {
          "internalType": "address",
          "name": "",
          "type": "address"
        }
      ],
      "stateMutability": "view",
      "type": "function"
    },
    {
      "inputs": [
        {
          "internalType": "address",
          "name": "",
          "type": "address"
        }
      ],
      "name": "maxDeposit",
      "outputs": [
        {
          "internalType": "uint256",
          "name": "",
          "type": "uint256"
        }
      ],
      "stateMutability": "view",
      "type": "function"
    },
    {
      "inputs": [
        {
          "internalType": "address",
          "name": "",
          "type": "address"
        }
      ],
      "name": "maxMint",
      "outputs": [
        {
          "internalType": "uint256",
          "name": "",
          "type": "uint256"
        }
      ],
      "stateMutability": "view",
      "type": "function"
    },
    {
      "inputs": [
        {
          "internalType": "address",
          "name": "owner",
          "type": "address"
        }
      ],
      "name": "maxRedeem",
      "outputs": [
        {
          "internalType": "uint256",
          "name": "",
          "type": "uint256"
        }
      ],
      "stateMutability": "view",
      "type": "function"
    },
    {
      "inputs": [
        {
          "internalType": "address",
          "name": "",
          "type": "address"
        }
      ],
      "name": "maxWithdraw",
      "outputs": [
        {
          "internalType": "uint256",
          "name": "",
          "type": "uint256"
        }
      ],
      "stateMutability": "pure",
      "type": "function"
    },
    {
      "inputs": [
        {
          "internalType": "address",
          "name": "",
          "type": "address"
        }
      ],
      "name": "minDeposit",
      "outputs": [
        {
          "internalType": "uint256",
          "name": "",
          "type": "uint256"
        }
      ],
      "stateMutability": "pure",
      "type": "function"
    },
    {
      "inputs": [
        {
          "internalType": "uint256",
          "name": "shares",
          "type": "uint256"
        },
        {
          "internalType": "address",
          "name": "receiver",
          "type": "address"
        }
      ],
      "name": "mint",
      "outputs": [
        {
          "internalType": "uint256",
          "name": "",
          "type": "uint256"
        }
      ],
      "stateMutability": "nonpayable",
      "type": "function"
    },
    {
      "inputs": [],
      "name": "name",
      "outputs": [
        {
          "internalType": "string",
          "name": "",
          "type": "string"
        }
      ],
      "stateMutability": "view",
      "type": "function"
    },
    {
      "inputs": [],
      "name": "nodesBalanceUnlockTime",
      "outputs": [
        {
          "internalType": "uint64",
          "name": "",
          "type": "uint64"
        }
      ],
      "stateMutability": "view",
      "type": "function"
    },
    {
      "inputs": [],
      "name": "nodesTotalBalance",
      "outputs": [
        {
          "internalType": "uint256",
          "name": "",
          "type": "uint256"
        }
      ],
      "stateMutability": "view",
      "type": "function"
    },
    {
      "inputs": [
        {
          "internalType": "uint256",
          "name": "assets",
          "type": "uint256"
        }
      ],
      "name": "previewDeposit",
      "outputs": [
        {
          "internalType": "uint256",
          "name": "",
          "type": "uint256"
        }
      ],
      "stateMutability": "view",
      "type": "function"
    },
    {
      "inputs": [
        {
          "internalType": "uint256",
          "name": "shares",
          "type": "uint256"
        }
      ],
      "name": "previewMint",
      "outputs": [
        {
          "internalType": "uint256",
          "name": "",
          "type": "uint256"
        }
      ],
      "stateMutability": "view",
      "type": "function"
    },
    {
      "inputs": [
        {
          "internalType": "uint256",
          "name": "shares",
          "type": "uint256"
        }
      ],
      "name": "previewRedeem",
      "outputs": [
        {
          "internalType": "uint256",
          "name": "",
          "type": "uint256"
        }
      ],
      "stateMutability": "view",
      "type": "function"
    },
    {
      "inputs": [
        {
          "internalType": "uint256",
          "name": "assets",
          "type": "uint256"
        }
      ],
      "name": "previewWithdraw",
      "outputs": [
        {
          "internalType": "uint256",
          "name": "",
          "type": "uint256"
        }
      ],
      "stateMutability": "view",
      "type": "function"
    },
    {
      "inputs": [
        {
          "components": [
            {
              "internalType": "bytes",
              "name": "pubkey",
              "type": "bytes"
            },
            {
              "internalType": "bytes",
              "name": "withdrawCredentials",
              "type": "bytes"
            },
            {
              "internalType": "bytes",
              "name": "signature",
              "type": "bytes"
            },
            {
              "internalType": "bytes32",
              "name": "depositDataRoot",
              "type": "bytes32"
            }
          ],
          "internalType": "struct Staking.Node[]",
          "name": "_nodes",
          "type": "tuple[]"
        },
        {
          "internalType": "uint256",
          "name": "_requestPoolAmount",
          "type": "uint256"
        }
      ],
      "name": "pushToBeacon",
      "outputs": [],
      "stateMutability": "nonpayable",
      "type": "function"
    },
    {
      "inputs": [
        {
          "internalType": "uint256",
          "name": "shares",
          "type": "uint256"
        },
        {
          "internalType": "address",
          "name": "receiver",
          "type": "address"
        },
        {
          "internalType": "address",
          "name": "owner",
          "type": "address"
        }
      ],
      "name": "redeem",
      "outputs": [
        {
          "internalType": "uint256",
          "name": "",
          "type": "uint256"
        }
      ],
      "stateMutability": "nonpayable",
      "type": "function"
    },
    {
      "inputs": [
        {
          "internalType": "bytes32",
          "name": "role",
          "type": "bytes32"
        },
        {
          "internalType": "address",
          "name": "account",
          "type": "address"
        }
      ],
      "name": "renounceRole",
      "outputs": [],
      "stateMutability": "nonpayable",
      "type": "function"
    },
    {
      "inputs": [
        {
          "internalType": "bytes32",
          "name": "role",
          "type": "bytes32"
        },
        {
          "internalType": "address",
          "name": "account",
          "type": "address"
        }
      ],
      "name": "revokeRole",
      "outputs": [],
      "stateMutability": "nonpayable",
      "type": "function"
    },
    {
      "inputs": [],
      "name": "rewardsFee",
      "outputs": [
        {
          "internalType": "uint16",
          "name": "",
          "type": "uint16"
        }
      ],
      "stateMutability": "view",
      "type": "function"
    },
    {
      "inputs": [
        {
          "internalType": "bytes4",
          "name": "interfaceId",
          "type": "bytes4"
        }
      ],
      "name": "supportsInterface",
      "outputs": [
        {
          "internalType": "bool",
          "name": "",
          "type": "bool"
        }
      ],
      "stateMutability": "view",
      "type": "function"
    },
    {
      "inputs": [],
      "name": "symbol",
      "outputs": [
        {
          "internalType": "string",
          "name": "",
          "type": "string"
        }
      ],
      "stateMutability": "view",
      "type": "function"
    },
    {
      "inputs": [],
      "name": "totalAssets",
      "outputs": [
        {
          "internalType": "uint256",
          "name": "",
          "type": "uint256"
        }
      ],
      "stateMutability": "view",
      "type": "function"
    },
    {
      "inputs": [],
      "name": "totalNodesActivated",
      "outputs": [
        {
          "internalType": "uint32",
          "name": "",
          "type": "uint32"
        }
      ],
      "stateMutability": "view",
      "type": "function"
    },
    {
      "inputs": [],
      "name": "totalSupply",
      "outputs": [
        {
          "internalType": "uint256",
          "name": "",
          "type": "uint256"
        }
      ],
      "stateMutability": "view",
      "type": "function"
    },
    {
      "inputs": [
        {
          "internalType": "address",
          "name": "to",
          "type": "address"
        },
        {
          "internalType": "uint256",
          "name": "amount",
          "type": "uint256"
        }
      ],
      "name": "transfer",
      "outputs": [
        {
          "internalType": "bool",
          "name": "",
          "type": "bool"
        }
      ],
      "stateMutability": "nonpayable",
      "type": "function"
    },
    {
      "inputs": [
        {
          "internalType": "address",
          "name": "from",
          "type": "address"
        },
        {
          "internalType": "address",
          "name": "to",
          "type": "address"
        },
        {
          "internalType": "uint256",
          "name": "amount",
          "type": "uint256"
        }
      ],
      "name": "transferFrom",
      "outputs": [
        {
          "internalType": "bool",
          "name": "",
          "type": "bool"
        }
      ],
      "stateMutability": "nonpayable",
      "type": "function"
    },
    {
      "inputs": [],
      "name": "treasury",
      "outputs": [
        {
          "internalType": "address",
          "name": "",
          "type": "address"
        }
      ],
      "stateMutability": "view",
      "type": "function"
    },
    {
      "inputs": [
        {
          "internalType": "address",
          "name": "_liquidPool",
          "type": "address"
        }
      ],
      "name": "updateLiquidPool",
      "outputs": [],
      "stateMutability": "nonpayable",
      "type": "function"
    },
    {
      "inputs": [
        {
          "internalType": "uint256",
          "name": "_newBalance",
          "type": "uint256"
        }
      ],
      "name": "updateNodesBalance",
      "outputs": [],
      "stateMutability": "nonpayable",
      "type": "function"
    },
    {
      "inputs": [
        {
          "internalType": "uint16",
          "name": "_rewardsFee",
          "type": "uint16"
        }
      ],
      "name": "updateRewardsFee",
      "outputs": [],
      "stateMutability": "nonpayable",
      "type": "function"
    },
    {
      "inputs": [
        {
          "internalType": "uint256",
          "name": "assets",
          "type": "uint256"
        },
        {
          "internalType": "address",
          "name": "receiver",
          "type": "address"
        },
        {
          "internalType": "address",
          "name": "owner",
          "type": "address"
        }
      ],
      "name": "withdraw",
      "outputs": [
        {
          "internalType": "uint256",
          "name": "",
          "type": "uint256"
        }
      ],
      "stateMutability": "nonpayable",
      "type": "function"
    },
    {
      "stateMutability": "payable",
      "type": "receive"
    }
  ],
  "bytecode": "0x608060405234801561001057600080fd5b50615d2780620000216000396000f3fe6080604052600436106102cd5760003560e01c8063593f890711610175578063ac4f352a116100dc578063ce96cb7711610095578063dd62ed3e1161006f578063dd62ed3e14610c26578063e94ad65b14610c63578063ef8b30f714610c8e578063f096a84614610ccb576102d4565b8063ce96cb7714610b83578063d547741f14610bc0578063d905777e14610be9576102d4565b8063ac4f352a14610a29578063b3d7f6b914610a52578063b460af9414610a8f578063ba08765214610acc578063c63d75b614610b09578063c6e6f59214610b46576102d4565b806394bf804d1161012e57806394bf804d146108f157806395d89b411461092e5780639dc162ca14610959578063a217fddf14610984578063a457c2d7146109af578063a9059cbb146109ec576102d4565b8063593f8907146107bb57806361d027b3146107e45780636e553f651461080f5780636e64b5781461084c57806370a082311461087757806391d14854146108b4576102d4565b80632ca82cd51161023457806339509351116101ed57806347e63380116101c757806347e63380146107015780634cdad5061461072c5780634dc1d6fb1461076957806353411d6414610792576102d4565b8063395093511461064a5780633c29f83914610687578063402d267d146106c4576102d4565b80632ca82cd5146105475780632d2da806146105725780632f2ff15d146105a2578063313ce567146105cb57806336568abe146105f657806338d52e0f1461061f576102d4565b80630a28a477116102865780630a28a477146104115780631459457a1461044e57806318160ddd1461047757806323b872dd146104a2578063248a9ca3146104df5780632bb14e1d1461051c576102d4565b806301e1d114146102d957806301ffc9a71461030457806306fdde031461034157806307a2d13a1461036c57806308740a3b146103a9578063095ea7b3146103d4576102d4565b366102d457005b600080fd5b3480156102e557600080fd5b506102ee610cf6565b6040516102fb9190613a0b565b60405180910390f35b34801561031057600080fd5b5061032b60048036038101906103269190613a92565b610d6f565b6040516103389190613ada565b60405180910390f35b34801561034d57600080fd5b50610356610de9565b6040516103639190613b85565b60405180910390f35b34801561037857600080fd5b50610393600480360381019061038e9190613bd3565b610e7b565b6040516103a09190613a0b565b60405180910390f35b3480156103b557600080fd5b506103be610e8f565b6040516103cb9190613c19565b60405180910390f35b3480156103e057600080fd5b506103fb60048036038101906103f69190613c92565b610eb3565b6040516104089190613ada565b60405180910390f35b34801561041d57600080fd5b5061043860048036038101906104339190613bd3565b610ed6565b6040516104459190613a0b565b60405180910390f35b34801561045a57600080fd5b5061047560048036038101906104709190613d4e565b610eea565b005b34801561048357600080fd5b5061048c6112a3565b6040516104999190613a0b565b60405180910390f35b3480156104ae57600080fd5b506104c960048036038101906104c49190613dc9565b6112ad565b6040516104d69190613ada565b60405180910390f35b3480156104eb57600080fd5b5061050660048036038101906105019190613e48565b6112dc565b6040516105139190613c19565b60405180910390f35b34801561052857600080fd5b506105316112fc565b60405161053e9190613e92565b60405180910390f35b34801561055357600080fd5b5061055c611310565b6040516105699190613a0b565b60405180910390f35b61058c60048036038101906105879190613ead565b611316565b6040516105999190613a0b565b60405180910390f35b3480156105ae57600080fd5b506105c960048036038101906105c49190613eda565b611346565b005b3480156105d757600080fd5b506105e0611367565b6040516105ed9190613f36565b60405180910390f35b34801561060257600080fd5b5061061d60048036038101906106189190613eda565b61137e565b005b34801561062b57600080fd5b50610634611401565b6040516106419190613f60565b60405180910390f35b34801561065657600080fd5b50610671600480360381019061066c9190613c92565b61142b565b60405161067e9190613ada565b60405180910390f35b34801561069357600080fd5b506106ae60048036038101906106a99190613ead565b611462565b6040516106bb9190613a0b565b60405180910390f35b3480156106d057600080fd5b506106eb60048036038101906106e69190613ead565b61147d565b6040516106f89190613a0b565b60405180910390f35b34801561070d57600080fd5b506107166114bb565b6040516107239190613c19565b60405180910390f35b34801561073857600080fd5b50610753600480360381019061074e9190613bd3565b6114df565b6040516107609190613a0b565b60405180910390f35b34801561077557600080fd5b50610790600480360381019061078b9190613fa7565b6114f3565b005b34801561079e57600080fd5b506107b960048036038101906107b49190613bd3565b611521565b005b3480156107c757600080fd5b506107e260048036038101906107dd9190613ead565b6117f8565b005b3480156107f057600080fd5b506107f96118b9565b6040516108069190613f60565b60405180910390f35b34801561081b57600080fd5b5061083660048036038101906108319190613fd4565b6118df565b6040516108439190613a0b565b60405180910390f35b34801561085857600080fd5b5061086161190f565b60405161086e9190614033565b60405180910390f35b34801561088357600080fd5b5061089e60048036038101906108999190613ead565b611925565b6040516108ab9190613a0b565b60405180910390f35b3480156108c057600080fd5b506108db60048036038101906108d69190613eda565b61196e565b6040516108e89190613ada565b60405180910390f35b3480156108fd57600080fd5b5061091860048036038101906109139190613fd4565b6119d9565b6040516109259190613a0b565b60405180910390f35b34801561093a57600080fd5b50610943611a50565b6040516109509190613b85565b60405180910390f35b34801561096557600080fd5b5061096e611ae2565b60405161097b9190613f60565b60405180910390f35b34801561099057600080fd5b50610999611b08565b6040516109a69190613c19565b60405180910390f35b3480156109bb57600080fd5b506109d660048036038101906109d19190613c92565b611b0f565b6040516109e39190613ada565b60405180910390f35b3480156109f857600080fd5b50610a136004803603810190610a0e9190613c92565b611b86565b604051610a209190613ada565b60405180910390f35b348015610a3557600080fd5b50610a506004803603810190610a4b919061433f565b611ba9565b005b348015610a5e57600080fd5b50610a796004803603810190610a749190613bd3565b611f12565b604051610a869190613a0b565b60405180910390f35b348015610a9b57600080fd5b50610ab66004803603810190610ab1919061439b565b611f26565b604051610ac39190613a0b565b60405180910390f35b348015610ad857600080fd5b50610af36004803603810190610aee919061439b565b611f9f565b604051610b009190613a0b565b60405180910390f35b348015610b1557600080fd5b50610b306004803603810190610b2b9190613ead565b612018565b604051610b3d9190613a0b565b60405180910390f35b348015610b5257600080fd5b50610b6d6004803603810190610b689190613bd3565b612042565b604051610b7a9190613a0b565b60405180910390f35b348015610b8f57600080fd5b50610baa6004803603810190610ba59190613ead565b612056565b604051610bb79190613a0b565b60405180910390f35b348015610bcc57600080fd5b50610be76004803603810190610be29190613eda565b61205d565b005b348015610bf557600080fd5b50610c106004803603810190610c0b9190613ead565b61207e565b604051610c1d9190613a0b565b60405180910390f35b348015610c3257600080fd5b50610c4d6004803603810190610c4891906143ee565b612090565b604051610c5a9190613a0b565b60405180910390f35b348015610c6f57600080fd5b50610c78612117565b604051610c85919061448d565b60405180910390f35b348015610c9a57600080fd5b50610cb56004803603810190610cb09190613bd3565b61213d565b604051610cc29190613a0b565b60405180910390f35b348015610cd757600080fd5b50610ce0612151565b604051610ced91906144cb565b60405180910390f35b600061384060ff60009054906101000a900467ffffffffffffffff1642610d1d9190614515565b610d279190614515565b60ff60089054906101000a900467ffffffffffffffff16610d489190614551565b67ffffffffffffffff1660fe5447610d60919061458e565b610d6a919061458e565b905090565b60007f7965db0b000000000000000000000000000000000000000000000000000000007bffffffffffffffffffffffffffffffffffffffffffffffffffffffff1916827bffffffffffffffffffffffffffffffffffffffffffffffffffffffff19161480610de25750610de18261216b565b5b9050919050565b606060368054610df8906145f1565b80601f0160208091040260200160405190810160405280929190818152602001828054610e24906145f1565b8015610e715780601f10610e4657610100808354040283529160200191610e71565b820191906000526020600020905b815481529060010190602001808311610e5457829003601f168201915b5050505050905090565b6000610e888260006121d5565b9050919050565b7fec5aad7bdface20c35bc02d6d2d5760df981277427368525d634f4e2603ea19281565b600080610ebe612221565b9050610ecb818585612229565b600191505092915050565b6000610ee38260016123f2565b9050919050565b60008060019054906101000a900460ff16159050808015610f1b5750600160008054906101000a900460ff1660ff16105b80610f485750610f2a30612449565b158015610f475750600160008054906101000a900460ff1660ff16145b5b610f87576040517f08c379a0000000000000000000000000000000000000000000000000000000008152600401610f7e90614694565b60405180910390fd5b60016000806101000a81548160ff021916908360ff1602179055508015610fc4576001600060016101000a81548160ff0219169083151502179055505b610fcd8561246c565b6110416040518060400160405280600b81526020017f4d657461506f6f6c4554480000000000000000000000000000000000000000008152506040518060400160405280600581526020017f6d704554480000000000000000000000000000000000000000000000000000008152506124c7565b611049612524565b60128573ffffffffffffffffffffffffffffffffffffffff1663313ce5676040518163ffffffff1660e01b8152600401602060405180830381865afa158015611096573d6000803e3d6000fd5b505050506040513d601f19601f820116820180604052508101906110ba91906146e0565b60ff16146110fd576040517f08c379a00000000000000000000000000000000000000000000000000000000081526004016110f49061477f565b60405180910390fd5b60004714611140576040517f08c379a000000000000000000000000000000000000000000000000000000000815260040161113790614811565b60405180910390fd5b61114d6000801b33612575565b6111777f73e573f9566d61418a34d5de3ff49360f9c51fec37f7486551670290f6285dab84612575565b6111a17fec5aad7bdface20c35bc02d6d2d5760df981277427368525d634f4e2603ea19283612575565b6101f460ff60146101000a81548161ffff021916908361ffff1602179055508360fb60006101000a81548173ffffffffffffffffffffffffffffffffffffffff021916908373ffffffffffffffffffffffffffffffffffffffff1602179055508560fd60006101000a81548173ffffffffffffffffffffffffffffffffffffffff021916908373ffffffffffffffffffffffffffffffffffffffff160217905550801561129b5760008060016101000a81548160ff0219169083151502179055507f7f26b83ff96e1f2b6a682f133852f6798a09c465da95921460cefb38474024986001604051611292919061486c565b60405180910390a15b505050505050565b6000603554905090565b6000806112b8612221565b90506112c5858285612656565b6112d08585856126e2565b60019150509392505050565b600060c96000838152602001908152602001600020600101549050919050565b60ff60149054906101000a900461ffff1681565b60fe5481565b6000346113228161295b565b600061132d3461213d565b905061133c33856000846129f4565b8092505050919050565b61134f826112dc565b61135881612d56565b6113628383612575565b505050565b6000606560149054906101000a900460ff16905090565b611386612221565b73ffffffffffffffffffffffffffffffffffffffff168173ffffffffffffffffffffffffffffffffffffffff16146113f3576040517f08c379a00000000000000000000000000000000000000000000000000000000081526004016113ea906148f9565b60405180910390fd5b6113fd8282612d6a565b5050565b6000606560009054906101000a900473ffffffffffffffffffffffffffffffffffffffff16905090565b600080611436612221565b90506114578185856114488589612090565b611452919061458e565b612229565b600191505092915050565b6000662386f26fc1000067ffffffffffffffff169050919050565b6000611487612e4c565b6114925760006114b4565b7fffffffffffffffffffffffffffffffffffffffffffffffffffffffffffffffff5b9050919050565b7f73e573f9566d61418a34d5de3ff49360f9c51fec37f7486551670290f6285dab81565b60006114ec8260006121d5565b9050919050565b6000801b61150081612d56565b8160ff60146101000a81548161ffff021916908361ffff1602179055505050565b7f73e573f9566d61418a34d5de3ff49360f9c51fec37f7486551670290f6285dab61154b81612d56565b600060ff60009054906101000a900467ffffffffffffffff1690508067ffffffffffffffff1642116115b2576040517f08c379a00000000000000000000000000000000000000000000000000000000081526004016115a990614965565b60405180910390fd5b600060fe54905060008185116115d35784826115ce9190614985565b6115e0565b81856115df9190614985565b5b90506103e8826115f091906149e8565b811115611632576040517f08c379a000000000000000000000000000000000000000000000000000000000815260040161162990614a65565b60405180910390fd5b600061271060ff60149054906101000a900461ffff1661ffff16836116579190614a85565b61166191906149e8565b9050600061166e8261213d565b905061169c60fb60009054906101000a900473ffffffffffffffffffffffffffffffffffffffff1682612e6f565b60fb60009054906101000a900473ffffffffffffffffffffffffffffffffffffffff1673ffffffffffffffffffffffffffffffffffffffff163373ffffffffffffffffffffffffffffffffffffffff167f2f00e3cdd69a77be7ed215ec7b2a36784dd158f921fca79ac29deffa353fe6ee848460405161171d929190614ac7565b60405180910390a361384085426117349190614515565b61173e9190614515565b67ffffffffffffffff168361175391906149e8565b60ff60086101000a81548167ffffffffffffffff021916908367ffffffffffffffff160217905550613840426117899190614af0565b60ff60006101000a81548167ffffffffffffffff021916908367ffffffffffffffff1602179055508660fe819055507f4d1b7ebdfd13eb13637b375375c66d848b00ed846f22df0039c8fb561f1cec9e876040516117e79190613a0b565b60405180910390a150505050505050565b6000801b61180581612d56565b600073ffffffffffffffffffffffffffffffffffffffff168273ffffffffffffffffffffffffffffffffffffffff1603611874576040517f08c379a000000000000000000000000000000000000000000000000000000000815260040161186b90614b78565b60405180910390fd5b8160fc60006101000a81548173ffffffffffffffffffffffffffffffffffffffff021916908373ffffffffffffffffffffffffffffffffffffffff1602179055505050565b60fb60009054906101000a900473ffffffffffffffffffffffffffffffffffffffff1681565b6000826118eb8161295b565b60006118f68561213d565b9050611904338587846129f4565b809250505092915050565b60ff60109054906101000a900463ffffffff1681565b6000603360008373ffffffffffffffffffffffffffffffffffffffff1673ffffffffffffffffffffffffffffffffffffffff168152602001908152602001600020549050919050565b600060c9600084815260200190815260200160002060000160008373ffffffffffffffffffffffffffffffffffffffff1673ffffffffffffffffffffffffffffffffffffffff16815260200190815260200160002060009054906101000a900460ff16905092915050565b60006119e482612018565b831115611a26576040517f08c379a0000000000000000000000000000000000000000000000000000000008152600401611a1d90614be4565b60405180910390fd5b6000611a3184611f12565b9050611a46611a3e612221565b8483876129f4565b8091505092915050565b606060378054611a5f906145f1565b80601f0160208091040260200160405190810160405280929190818152602001828054611a8b906145f1565b8015611ad85780601f10611aad57610100808354040283529160200191611ad8565b820191906000526020600020905b815481529060010190602001808311611abb57829003601f168201915b5050505050905090565b60fc60009054906101000a900473ffffffffffffffffffffffffffffffffffffffff1681565b6000801b81565b600080611b1a612221565b90506000611b288286612090565b905083811015611b6d576040517f08c379a0000000000000000000000000000000000000000000000000000000008152600401611b6490614c76565b60405180910390fd5b611b7a8286868403612229565b60019250505092915050565b600080611b91612221565b9050611b9e8185856126e2565b600191505092915050565b7fec5aad7bdface20c35bc02d6d2d5760df981277427368525d634f4e2603ea192611bd381612d56565b60008351905060006801bc16d674ec8000008263ffffffff16611bf69190614cab565b68ffffffffffffffffff169050808447611c10919061458e565b1015611c51576040517f08c379a0000000000000000000000000000000000000000000000000000000008152600401611c4890614d34565b60405180910390fd5b6000841115611ce85760fc60009054906101000a900473ffffffffffffffffffffffffffffffffffffffff1673ffffffffffffffffffffffffffffffffffffffff16633701206b856040518263ffffffff1660e01b8152600401611cb59190613a0b565b600060405180830381600087803b158015611ccf57600080fd5b505af1158015611ce3573d6000803e3d6000fd5b505050505b600060ff60109054906101000a900463ffffffff16905060005b8363ffffffff16811015611eb15760fd60009054906101000a900473ffffffffffffffffffffffffffffffffffffffff1673ffffffffffffffffffffffffffffffffffffffff1663228951186801bc16d674ec800000898481518110611d6b57611d6a614d54565b5b6020026020010151600001518a8581518110611d8a57611d89614d54565b5b6020026020010151602001518b8681518110611da957611da8614d54565b5b6020026020010151604001518c8781518110611dc857611dc7614d54565b5b6020026020010151606001516040518663ffffffff1660e01b8152600401611df39493929190614dd8565b6000604051808303818588803b158015611e0c57600080fd5b505af1158015611e20573d6000803e3d6000fd5b50505050508180611e3090614e32565b925050868181518110611e4657611e45614d54565b5b602002602001015160000151604051611e5f9190614e9a565b60405180910390207fd30c530f2d5e6c518f21d801360ff46849e74bf1cba98a64c7dbc741fc9b263a83604051611e969190614ee2565b60405180910390a28080611ea990614efd565b915050611d02565b508160fe6000828254611ec4919061458e565b925050819055508060ff60108282829054906101000a900463ffffffff16611eec9190614f45565b92506101000a81548163ffffffff021916908363ffffffff160217905550505050505050565b6000611f1f8260016121d5565b9050919050565b6000611f3182612056565b841115611f73576040517f08c379a0000000000000000000000000000000000000000000000000000000008152600401611f6a90614fc9565b60405180910390fd5b6000611f7e85610ed6565b9050611f94611f8b612221565b85858885612fc6565b809150509392505050565b6000611faa8261207e565b841115611fec576040517f08c379a0000000000000000000000000000000000000000000000000000000008152600401611fe390615035565b60405180910390fd5b6000611ff7856114df565b905061200d612004612221565b85858489612fc6565b809150509392505050565b60007fffffffffffffffffffffffffffffffffffffffffffffffffffffffffffffffff9050919050565b600061204f8260006123f2565b9050919050565b6000919050565b612066826112dc565b61206f81612d56565b6120798383612d6a565b505050565b600061208982611925565b9050919050565b6000603460008473ffffffffffffffffffffffffffffffffffffffff1673ffffffffffffffffffffffffffffffffffffffff16815260200190815260200160002060008373ffffffffffffffffffffffffffffffffffffffff1673ffffffffffffffffffffffffffffffffffffffff16815260200190815260200160002054905092915050565b60fd60009054906101000a900473ffffffffffffffffffffffffffffffffffffffff1681565b600061214a8260006123f2565b9050919050565b60ff60009054906101000a900467ffffffffffffffff1681565b60007f01ffc9a7000000000000000000000000000000000000000000000000000000007bffffffffffffffffffffffffffffffffffffffffffffffffffffffff1916827bffffffffffffffffffffffffffffffffffffffffffffffffffffffff1916149050919050565b6000806121e06112a3565b90506000811461220d576122086121f5610cf6565b828587613001909392919063ffffffff16565b612218565b6122178484613077565b5b91505092915050565b600033905090565b600073ffffffffffffffffffffffffffffffffffffffff168373ffffffffffffffffffffffffffffffffffffffff1603612298576040517f08c379a000000000000000000000000000000000000000000000000000000000815260040161228f906150c7565b60405180910390fd5b600073ffffffffffffffffffffffffffffffffffffffff168273ffffffffffffffffffffffffffffffffffffffff1603612307576040517f08c379a00000000000000000000000000000000000000000000000000000000081526004016122fe90615159565b60405180910390fd5b80603460008573ffffffffffffffffffffffffffffffffffffffff1673ffffffffffffffffffffffffffffffffffffffff16815260200190815260200160002060008473ffffffffffffffffffffffffffffffffffffffff1673ffffffffffffffffffffffffffffffffffffffff168152602001908152602001600020819055508173ffffffffffffffffffffffffffffffffffffffff168373ffffffffffffffffffffffffffffffffffffffff167f8c5be1e5ebec7d5bd14f71427d1e84f3dd0314c0f7b2291e5b200ac8c7c3b925836040516123e59190613a0b565b60405180910390a3505050565b6000806123fd6112a3565b9050600084148061240e5750600081145b612435576124308161241e610cf6565b8587613001909392919063ffffffff16565b612440565b61243f8484613082565b5b91505092915050565b6000808273ffffffffffffffffffffffffffffffffffffffff163b119050919050565b600060019054906101000a900460ff166124bb576040517f08c379a00000000000000000000000000000000000000000000000000000000081526004016124b2906151eb565b60405180910390fd5b6124c48161308d565b50565b600060019054906101000a900460ff16612516576040517f08c379a000000000000000000000000000000000000000000000000000000000815260040161250d906151eb565b60405180910390fd5b6125208282613160565b5050565b600060019054906101000a900460ff16612573576040517f08c379a000000000000000000000000000000000000000000000000000000000815260040161256a906151eb565b60405180910390fd5b565b61257f828261196e565b61265257600160c9600084815260200190815260200160002060000160008373ffffffffffffffffffffffffffffffffffffffff1673ffffffffffffffffffffffffffffffffffffffff16815260200190815260200160002060006101000a81548160ff0219169083151502179055506125f7612221565b73ffffffffffffffffffffffffffffffffffffffff168173ffffffffffffffffffffffffffffffffffffffff16837f2f8788117e7eff1d82e926ec794901d17c78024a50270940304540a733656f0d60405160405180910390a45b5050565b60006126628484612090565b90507fffffffffffffffffffffffffffffffffffffffffffffffffffffffffffffffff81146126dc57818110156126ce576040517f08c379a00000000000000000000000000000000000000000000000000000000081526004016126c590615257565b60405180910390fd5b6126db8484848403612229565b5b50505050565b600073ffffffffffffffffffffffffffffffffffffffff168373ffffffffffffffffffffffffffffffffffffffff1603612751576040517f08c379a0000000000000000000000000000000000000000000000000000000008152600401612748906152e9565b60405180910390fd5b600073ffffffffffffffffffffffffffffffffffffffff168273ffffffffffffffffffffffffffffffffffffffff16036127c0576040517f08c379a00000000000000000000000000000000000000000000000000000000081526004016127b79061537b565b60405180910390fd5b6127cb8383836131d3565b6000603360008573ffffffffffffffffffffffffffffffffffffffff1673ffffffffffffffffffffffffffffffffffffffff16815260200190815260200160002054905081811015612852576040517f08c379a00000000000000000000000000000000000000000000000000000000081526004016128499061540d565b60405180910390fd5b818103603360008673ffffffffffffffffffffffffffffffffffffffff1673ffffffffffffffffffffffffffffffffffffffff1681526020019081526020016000208190555081603360008573ffffffffffffffffffffffffffffffffffffffff1673ffffffffffffffffffffffffffffffffffffffff168152602001908152602001600020600082825401925050819055508273ffffffffffffffffffffffffffffffffffffffff168473ffffffffffffffffffffffffffffffffffffffff167fddf252ad1be2c89b69c2b068fc378daa952ba7f163c4a11628f55a4df523b3ef846040516129429190613a0b565b60405180910390a36129558484846131d8565b50505050565b61296433611462565b8110156129a6576040517f08c379a000000000000000000000000000000000000000000000000000000000815260040161299d90615479565b60405180910390fd5b6129af3361147d565b8111156129f1576040517f08c379a00000000000000000000000000000000000000000000000000000000081526004016129e8906154e5565b60405180910390fd5b50565b60008214612aa757612a30333084612a0a611401565b73ffffffffffffffffffffffffffffffffffffffff166131dd909392919063ffffffff16565b612a38611401565b73ffffffffffffffffffffffffffffffffffffffff16632e1a7d4d836040518263ffffffff1660e01b8152600401612a709190613a0b565b600060405180830381600087803b158015612a8a57600080fd5b505af1158015612a9e573d6000803e3d6000fd5b50505050612aab565b3491505b6000612b59612ab8611401565b73ffffffffffffffffffffffffffffffffffffffff166370a0823160fc60009054906101000a900473ffffffffffffffffffffffffffffffffffffffff166040518263ffffffff1660e01b8152600401612b129190613f60565b602060405180830381865afa158015612b2f573d6000803e3d6000fd5b505050506040513d601f19601f82011682018060405250810190612b53919061551a565b83613266565b90506000612b6682610e7b565b90508160fc60009054906101000a900473ffffffffffffffffffffffffffffffffffffffff1673ffffffffffffffffffffffffffffffffffffffff1663c3e8c4fa83886040518363ffffffff1660e01b8152600401612bc59190613f60565b60206040518083038185885af1158015612be3573d6000803e3d6000fd5b50505050506040513d601f19601f82011682018060405250810190612c08919061551a565b14612c48576040517f08c379a0000000000000000000000000000000000000000000000000000000008152600401612c3f90615593565b60405180910390fd5b8183612c549190614985565b92506000831115612cdc57612c698584612e6f565b8473ffffffffffffffffffffffffffffffffffffffff168673ffffffffffffffffffffffffffffffffffffffff167f2f00e3cdd69a77be7ed215ec7b2a36784dd158f921fca79ac29deffa353fe6ee8387612cc49190614985565b86604051612cd3929190614ac7565b60405180910390a35b8473ffffffffffffffffffffffffffffffffffffffff168673ffffffffffffffffffffffffffffffffffffffff167fdcbc1c05240f31ff3ad067ef1ee35ce4997762752e3a095284754544f4c709d7868587612d38919061458e565b604051612d46929190614ac7565b60405180910390a3505050505050565b612d6781612d62612221565b61327f565b50565b612d74828261196e565b15612e4857600060c9600084815260200190815260200160002060000160008373ffffffffffffffffffffffffffffffffffffffff1673ffffffffffffffffffffffffffffffffffffffff16815260200190815260200160002060006101000a81548160ff021916908315150217905550612ded612221565b73ffffffffffffffffffffffffffffffffffffffff168173ffffffffffffffffffffffffffffffffffffffff16837ff6391f5c32d9c69d2a47ea670b442974b53935d1edc7fd64eb21e047a839171b60405160405180910390a45b5050565b600080612e57610cf6565b1180612e6a57506000612e686112a3565b145b905090565b600073ffffffffffffffffffffffffffffffffffffffff168273ffffffffffffffffffffffffffffffffffffffff1603612ede576040517f08c379a0000000000000000000000000000000000000000000000000000000008152600401612ed5906155ff565b60405180910390fd5b612eea600083836131d3565b8060356000828254612efc919061458e565b9250508190555080603360008473ffffffffffffffffffffffffffffffffffffffff1673ffffffffffffffffffffffffffffffffffffffff168152602001908152602001600020600082825401925050819055508173ffffffffffffffffffffffffffffffffffffffff16600073ffffffffffffffffffffffffffffffffffffffff167fddf252ad1be2c89b69c2b068fc378daa952ba7f163c4a11628f55a4df523b3ef83604051612fae9190613a0b565b60405180910390a3612fc2600083836131d8565b5050565b6040517f08c379a0000000000000000000000000000000000000000000000000000000008152600401612ff89061566b565b60405180910390fd5b60008061300f868686613304565b9050600160028111156130255761302461568b565b5b8360028111156130385761303761568b565b5b148015613056575060008480613051576130506149b9565b5b868809115b1561306b57600181613068919061458e565b90505b80915050949350505050565b600082905092915050565b600082905092915050565b600060019054906101000a900460ff166130dc576040517f08c379a00000000000000000000000000000000000000000000000000000000081526004016130d3906151eb565b60405180910390fd5b6000806130e8836133df565b91509150816130fe576130f961350f565b613100565b805b606560146101000a81548160ff021916908360ff16021790555082606560006101000a81548173ffffffffffffffffffffffffffffffffffffffff021916908373ffffffffffffffffffffffffffffffffffffffff160217905550505050565b600060019054906101000a900460ff166131af576040517f08c379a00000000000000000000000000000000000000000000000000000000081526004016131a6906151eb565b60405180910390fd5b81603690816131be919061585c565b5080603790816131ce919061585c565b505050565b505050565b505050565b613260846323b872dd60e01b8585856040516024016131fe9392919061592e565b604051602081830303815290604052907bffffffffffffffffffffffffffffffffffffffffffffffffffffffff19166020820180517bffffffffffffffffffffffffffffffffffffffffffffffffffffffff8381831617835250505050613518565b50505050565b60008183106132755781613277565b825b905092915050565b613289828261196e565b61330057613296816135df565b6132a48360001c602061360c565b6040516020016132b5929190615a39565b6040516020818303038152906040526040517f08c379a00000000000000000000000000000000000000000000000000000000081526004016132f79190613b85565b60405180910390fd5b5050565b600080600080198587098587029250828110838203039150506000810361333f57838281613335576133346149b9565b5b04925050506133d8565b80841161334b57600080fd5b60008486880990508281118203915080830392506000600186190186169050808604955080840493506001818260000304019050808302841793506000600287600302189050808702600203810290508087026002038102905080870260020381029050808702600203810290508087026002038102905080870260020381029050808502955050505050505b9392505050565b6000806000808473ffffffffffffffffffffffffffffffffffffffff1663313ce56760e01b604051602401604051602081830303815290604052907bffffffffffffffffffffffffffffffffffffffffffffffffffffffff19166020820180517bffffffffffffffffffffffffffffffffffffffffffffffffffffffff83818316178352505050506040516134749190614e9a565b600060405180830381855afa9150503d80600081146134af576040519150601f19603f3d011682016040523d82523d6000602084013e6134b4565b606091505b50915091508180156134c857506020815110155b15613500576000818060200190518101906134e3919061551a565b905060ff801681116134fe576001819450945050505061350a565b505b6000809350935050505b915091565b60006012905090565b600061357a826040518060400160405280602081526020017f5361666545524332303a206c6f772d6c6576656c2063616c6c206661696c65648152508573ffffffffffffffffffffffffffffffffffffffff166138489092919063ffffffff16565b90506000815111156135da578080602001905181019061359a9190615a9f565b6135d9576040517f08c379a00000000000000000000000000000000000000000000000000000000081526004016135d090615b3e565b60405180910390fd5b5b505050565b60606136058273ffffffffffffffffffffffffffffffffffffffff16601460ff1661360c565b9050919050565b60606000600283600261361f9190614a85565b613629919061458e565b67ffffffffffffffff81111561364257613641614053565b5b6040519080825280601f01601f1916602001820160405280156136745781602001600182028036833780820191505090505b5090507f3000000000000000000000000000000000000000000000000000000000000000816000815181106136ac576136ab614d54565b5b60200101907effffffffffffffffffffffffffffffffffffffffffffffffffffffffffffff1916908160001a9053507f7800000000000000000000000000000000000000000000000000000000000000816001815181106137105761370f614d54565b5b60200101907effffffffffffffffffffffffffffffffffffffffffffffffffffffffffffff1916908160001a905350600060018460026137509190614a85565b61375a919061458e565b90505b60018111156137fa577f3031323334353637383961626364656600000000000000000000000000000000600f86166010811061379c5761379b614d54565b5b1a60f81b8282815181106137b3576137b2614d54565b5b60200101907effffffffffffffffffffffffffffffffffffffffffffffffffffffffffffff1916908160001a905350600485901c9450806137f390615b5e565b905061375d565b506000841461383e576040517f08c379a000000000000000000000000000000000000000000000000000000000815260040161383590615bd3565b60405180910390fd5b8091505092915050565b60606138578484600085613860565b90509392505050565b6060824710156138a5576040517f08c379a000000000000000000000000000000000000000000000000000000000815260040161389c90615c65565b60405180910390fd5b6000808673ffffffffffffffffffffffffffffffffffffffff1685876040516138ce9190614e9a565b60006040518083038185875af1925050503d806000811461390b576040519150601f19603f3d011682016040523d82523d6000602084013e613910565b606091505b50915091506139218783838761392d565b92505050949350505050565b6060831561398f5760008351036139875761394785612449565b613986576040517f08c379a000000000000000000000000000000000000000000000000000000000815260040161397d90615cd1565b60405180910390fd5b5b82905061399a565b61399983836139a2565b5b949350505050565b6000825111156139b55781518083602001fd5b806040517f08c379a00000000000000000000000000000000000000000000000000000000081526004016139e99190613b85565b60405180910390fd5b6000819050919050565b613a05816139f2565b82525050565b6000602082019050613a2060008301846139fc565b92915050565b6000604051905090565b600080fd5b600080fd5b60007fffffffff0000000000000000000000000000000000000000000000000000000082169050919050565b613a6f81613a3a565b8114613a7a57600080fd5b50565b600081359050613a8c81613a66565b92915050565b600060208284031215613aa857613aa7613a30565b5b6000613ab684828501613a7d565b91505092915050565b60008115159050919050565b613ad481613abf565b82525050565b6000602082019050613aef6000830184613acb565b92915050565b600081519050919050565b600082825260208201905092915050565b60005b83811015613b2f578082015181840152602081019050613b14565b60008484015250505050565b6000601f19601f8301169050919050565b6000613b5782613af5565b613b618185613b00565b9350613b71818560208601613b11565b613b7a81613b3b565b840191505092915050565b60006020820190508181036000830152613b9f8184613b4c565b905092915050565b613bb0816139f2565b8114613bbb57600080fd5b50565b600081359050613bcd81613ba7565b92915050565b600060208284031215613be957613be8613a30565b5b6000613bf784828501613bbe565b91505092915050565b6000819050919050565b613c1381613c00565b82525050565b6000602082019050613c2e6000830184613c0a565b92915050565b600073ffffffffffffffffffffffffffffffffffffffff82169050919050565b6000613c5f82613c34565b9050919050565b613c6f81613c54565b8114613c7a57600080fd5b50565b600081359050613c8c81613c66565b92915050565b60008060408385031215613ca957613ca8613a30565b5b6000613cb785828601613c7d565b9250506020613cc885828601613bbe565b9150509250929050565b6000613cdd82613c54565b9050919050565b613ced81613cd2565b8114613cf857600080fd5b50565b600081359050613d0a81613ce4565b92915050565b6000613d1b82613c54565b9050919050565b613d2b81613d10565b8114613d3657600080fd5b50565b600081359050613d4881613d22565b92915050565b600080600080600060a08688031215613d6a57613d69613a30565b5b6000613d7888828901613cfb565b9550506020613d8988828901613d39565b9450506040613d9a88828901613c7d565b9350506060613dab88828901613c7d565b9250506080613dbc88828901613c7d565b9150509295509295909350565b600080600060608486031215613de257613de1613a30565b5b6000613df086828701613c7d565b9350506020613e0186828701613c7d565b9250506040613e1286828701613bbe565b9150509250925092565b613e2581613c00565b8114613e3057600080fd5b50565b600081359050613e4281613e1c565b92915050565b600060208284031215613e5e57613e5d613a30565b5b6000613e6c84828501613e33565b91505092915050565b600061ffff82169050919050565b613e8c81613e75565b82525050565b6000602082019050613ea76000830184613e83565b92915050565b600060208284031215613ec357613ec2613a30565b5b6000613ed184828501613c7d565b91505092915050565b60008060408385031215613ef157613ef0613a30565b5b6000613eff85828601613e33565b9250506020613f1085828601613c7d565b9150509250929050565b600060ff82169050919050565b613f3081613f1a565b82525050565b6000602082019050613f4b6000830184613f27565b92915050565b613f5a81613c54565b82525050565b6000602082019050613f756000830184613f51565b92915050565b613f8481613e75565b8114613f8f57600080fd5b50565b600081359050613fa181613f7b565b92915050565b600060208284031215613fbd57613fbc613a30565b5b6000613fcb84828501613f92565b91505092915050565b60008060408385031215613feb57613fea613a30565b5b6000613ff985828601613bbe565b925050602061400a85828601613c7d565b9150509250929050565b600063ffffffff82169050919050565b61402d81614014565b82525050565b60006020820190506140486000830184614024565b92915050565b600080fd5b7f4e487b7100000000000000000000000000000000000000000000000000000000600052604160045260246000fd5b61408b82613b3b565b810181811067ffffffffffffffff821117156140aa576140a9614053565b5b80604052505050565b60006140bd613a26565b90506140c98282614082565b919050565b600067ffffffffffffffff8211156140e9576140e8614053565b5b602082029050602081019050919050565b600080fd5b600080fd5b600080fd5b600080fd5b600067ffffffffffffffff82111561412957614128614053565b5b61413282613b3b565b9050602081019050919050565b82818337600083830152505050565b600061416161415c8461410e565b6140b3565b90508281526020810184848401111561417d5761417c614109565b5b61418884828561413f565b509392505050565b600082601f8301126141a5576141a461404e565b5b81356141b584826020860161414e565b91505092915050565b6000608082840312156141d4576141d36140ff565b5b6141de60806140b3565b9050600082013567ffffffffffffffff8111156141fe576141fd614104565b5b61420a84828501614190565b600083015250602082013567ffffffffffffffff81111561422e5761422d614104565b5b61423a84828501614190565b602083015250604082013567ffffffffffffffff81111561425e5761425d614104565b5b61426a84828501614190565b604083015250606061427e84828501613e33565b60608301525092915050565b600061429d614298846140ce565b6140b3565b905080838252602082019050602084028301858111156142c0576142bf6140fa565b5b835b8181101561430757803567ffffffffffffffff8111156142e5576142e461404e565b5b8086016142f289826141be565b855260208501945050506020810190506142c2565b5050509392505050565b600082601f8301126143265761432561404e565b5b813561433684826020860161428a565b91505092915050565b6000806040838503121561435657614355613a30565b5b600083013567ffffffffffffffff81111561437457614373613a35565b5b61438085828601614311565b925050602061439185828601613bbe565b9150509250929050565b6000806000606084860312156143b4576143b3613a30565b5b60006143c286828701613bbe565b93505060206143d386828701613c7d565b92505060406143e486828701613c7d565b9150509250925092565b6000806040838503121561440557614404613a30565b5b600061441385828601613c7d565b925050602061442485828601613c7d565b9150509250929050565b6000819050919050565b600061445361444e61444984613c34565b61442e565b613c34565b9050919050565b600061446582614438565b9050919050565b60006144778261445a565b9050919050565b6144878161446c565b82525050565b60006020820190506144a2600083018461447e565b92915050565b600067ffffffffffffffff82169050919050565b6144c5816144a8565b82525050565b60006020820190506144e060008301846144bc565b92915050565b7f4e487b7100000000000000000000000000000000000000000000000000000000600052601160045260246000fd5b6000614520826144a8565b915061452b836144a8565b9250828203905067ffffffffffffffff81111561454b5761454a6144e6565b5b92915050565b600061455c826144a8565b9150614567836144a8565b9250828202614575816144a8565b9150808214614587576145866144e6565b5b5092915050565b6000614599826139f2565b91506145a4836139f2565b92508282019050808211156145bc576145bb6144e6565b5b92915050565b7f4e487b7100000000000000000000000000000000000000000000000000000000600052602260045260246000fd5b6000600282049050600182168061460957607f821691505b60208210810361461c5761461b6145c2565b5b50919050565b7f496e697469616c697a61626c653a20636f6e747261637420697320616c72656160008201527f647920696e697469616c697a6564000000000000000000000000000000000000602082015250565b600061467e602e83613b00565b915061468982614622565b604082019050919050565b600060208201905081810360008301526146ad81614671565b9050919050565b6146bd81613f1a565b81146146c857600080fd5b50565b6000815190506146da816146b4565b92915050565b6000602082840312156146f6576146f5613a30565b5b6000614704848285016146cb565b91505092915050565b7f774e617469766520746f6b656e206572726f722c20696d706c656d656e74617460008201527f696f6e20666f7220313820646563696d616c7300000000000000000000000000602082015250565b6000614769603383613b00565b91506147748261470d565b604082019050919050565b600060208201905081810360008301526147988161475c565b9050919050565b7f4572726f7220696e697469616c697a652077697468206e6f207a65726f20626160008201527f6c616e6365000000000000000000000000000000000000000000000000000000602082015250565b60006147fb602583613b00565b91506148068261479f565b604082019050919050565b6000602082019050818103600083015261482a816147ee565b9050919050565b6000819050919050565b600061485661485161484c84614831565b61442e565b613f1a565b9050919050565b6148668161483b565b82525050565b6000602082019050614881600083018461485d565b92915050565b7f416363657373436f6e74726f6c3a2063616e206f6e6c792072656e6f756e636560008201527f20726f6c657320666f722073656c660000000000000000000000000000000000602082015250565b60006148e3602f83613b00565b91506148ee82614887565b604082019050919050565b60006020820190508181036000830152614912816148d6565b9050919050565b7f556e6c6f636b2074696d65206e6f742072656163686564000000000000000000600082015250565b600061494f601783613b00565b915061495a82614919565b602082019050919050565b6000602082019050818103600083015261497e81614942565b9050919050565b6000614990826139f2565b915061499b836139f2565b92508282039050818111156149b3576149b26144e6565b5b92915050565b7f4e487b7100000000000000000000000000000000000000000000000000000000600052601260045260246000fd5b60006149f3826139f2565b91506149fe836139f2565b925082614a0e57614a0d6149b9565b5b828204905092915050565b7f446966666572656e63652067726561746572207468616e20302e312500000000600082015250565b6000614a4f601c83613b00565b9150614a5a82614a19565b602082019050919050565b60006020820190508181036000830152614a7e81614a42565b9050919050565b6000614a90826139f2565b9150614a9b836139f2565b9250828202614aa9816139f2565b91508282048414831517614ac057614abf6144e6565b5b5092915050565b6000604082019050614adc60008301856139fc565b614ae960208301846139fc565b9392505050565b6000614afb826144a8565b9150614b06836144a8565b9250828201905067ffffffffffffffff811115614b2657614b256144e6565b5b92915050565b7f496e76616c69642061646472657373207a65726f000000000000000000000000600082015250565b6000614b62601483613b00565b9150614b6d82614b2c565b602082019050919050565b60006020820190508181036000830152614b9181614b55565b9050919050565b7f455243343632363a206d696e74206d6f7265207468616e206d61780000000000600082015250565b6000614bce601b83613b00565b9150614bd982614b98565b602082019050919050565b60006020820190508181036000830152614bfd81614bc1565b9050919050565b7f45524332303a2064656372656173656420616c6c6f77616e63652062656c6f7760008201527f207a65726f000000000000000000000000000000000000000000000000000000602082015250565b6000614c60602583613b00565b9150614c6b82614c04565b604082019050919050565b60006020820190508181036000830152614c8f81614c53565b9050919050565b600068ffffffffffffffffff82169050919050565b6000614cb682614c96565b9150614cc183614c96565b9250828202614ccf81614c96565b9150808214614ce157614ce06144e6565b5b5092915050565b7f4e6f7420656e6f7567682062616c616e63650000000000000000000000000000600082015250565b6000614d1e601283613b00565b9150614d2982614ce8565b602082019050919050565b60006020820190508181036000830152614d4d81614d11565b9050919050565b7f4e487b7100000000000000000000000000000000000000000000000000000000600052603260045260246000fd5b600081519050919050565b600082825260208201905092915050565b6000614daa82614d83565b614db48185614d8e565b9350614dc4818560208601613b11565b614dcd81613b3b565b840191505092915050565b60006080820190508181036000830152614df28187614d9f565b90508181036020830152614e068186614d9f565b90508181036040830152614e1a8185614d9f565b9050614e296060830184613c0a565b95945050505050565b6000614e3d82614014565b915063ffffffff8203614e5357614e526144e6565b5b600182019050919050565b600081905092915050565b6000614e7482614d83565b614e7e8185614e5e565b9350614e8e818560208601613b11565b80840191505092915050565b6000614ea68284614e69565b915081905092915050565b6000614ecc614ec7614ec284614014565b61442e565b6139f2565b9050919050565b614edc81614eb1565b82525050565b6000602082019050614ef76000830184614ed3565b92915050565b6000614f08826139f2565b91507fffffffffffffffffffffffffffffffffffffffffffffffffffffffffffffffff8203614f3a57614f396144e6565b5b600182019050919050565b6000614f5082614014565b9150614f5b83614014565b9250828201905063ffffffff811115614f7757614f766144e6565b5b92915050565b7f455243343632363a207769746864726177206d6f7265207468616e206d617800600082015250565b6000614fb3601f83613b00565b9150614fbe82614f7d565b602082019050919050565b60006020820190508181036000830152614fe281614fa6565b9050919050565b7f455243343632363a2072656465656d206d6f7265207468616e206d6178000000600082015250565b600061501f601d83613b00565b915061502a82614fe9565b602082019050919050565b6000602082019050818103600083015261504e81615012565b9050919050565b7f45524332303a20617070726f76652066726f6d20746865207a65726f2061646460008201527f7265737300000000000000000000000000000000000000000000000000000000602082015250565b60006150b1602483613b00565b91506150bc82615055565b604082019050919050565b600060208201905081810360008301526150e0816150a4565b9050919050565b7f45524332303a20617070726f766520746f20746865207a65726f20616464726560008201527f7373000000000000000000000000000000000000000000000000000000000000602082015250565b6000615143602283613b00565b915061514e826150e7565b604082019050919050565b6000602082019050818103600083015261517281615136565b9050919050565b7f496e697469616c697a61626c653a20636f6e7472616374206973206e6f74206960008201527f6e697469616c697a696e67000000000000000000000000000000000000000000602082015250565b60006151d5602b83613b00565b91506151e082615179565b604082019050919050565b60006020820190508181036000830152615204816151c8565b9050919050565b7f45524332303a20696e73756666696369656e7420616c6c6f77616e6365000000600082015250565b6000615241601d83613b00565b915061524c8261520b565b602082019050919050565b6000602082019050818103600083015261527081615234565b9050919050565b7f45524332303a207472616e736665722066726f6d20746865207a65726f20616460008201527f6472657373000000000000000000000000000000000000000000000000000000602082015250565b60006152d3602583613b00565b91506152de82615277565b604082019050919050565b60006020820190508181036000830152615302816152c6565b9050919050565b7f45524332303a207472616e7366657220746f20746865207a65726f206164647260008201527f6573730000000000000000000000000000000000000000000000000000000000602082015250565b6000615365602383613b00565b915061537082615309565b604082019050919050565b6000602082019050818103600083015261539481615358565b9050919050565b7f45524332303a207472616e7366657220616d6f756e742065786365656473206260008201527f616c616e63650000000000000000000000000000000000000000000000000000602082015250565b60006153f7602683613b00565b91506154028261539b565b604082019050919050565b60006020820190508181036000830152615426816153ea565b9050919050565b7f5374616b696e673a204d494e5f4445504f5349545f4552524f52000000000000600082015250565b6000615463601a83613b00565b915061546e8261542d565b602082019050919050565b6000602082019050818103600083015261549281615456565b9050919050565b7f5374616b696e673a204d41585f4445504f5349545f4552524f52000000000000600082015250565b60006154cf601a83613b00565b91506154da82615499565b602082019050919050565b600060208201905081810360008301526154fe816154c2565b9050919050565b60008151905061551481613ba7565b92915050565b6000602082840312156155305761552f613a30565b5b600061553e84828501615505565b91505092915050565b7f506f6f6c205f736861726573207472616e73666572206572726f720000000000600082015250565b600061557d601b83613b00565b915061558882615547565b602082019050919050565b600060208201905081810360008301526155ac81615570565b9050919050565b7f45524332303a206d696e7420746f20746865207a65726f206164647265737300600082015250565b60006155e9601f83613b00565b91506155f4826155b3565b602082019050919050565b60006020820190508181036000830152615618816155dc565b9050919050565b7f5769746864726177206e6f7420696d706c656d656e7465640000000000000000600082015250565b6000615655601883613b00565b91506156608261561f565b602082019050919050565b6000602082019050818103600083015261568481615648565b9050919050565b7f4e487b7100000000000000000000000000000000000000000000000000000000600052602160045260246000fd5b60008190508160005260206000209050919050565b60006020601f8301049050919050565b600082821b905092915050565b60006008830261571c7fffffffffffffffffffffffffffffffffffffffffffffffffffffffffffffffff826156df565b61572686836156df565b95508019841693508086168417925050509392505050565b600061575961575461574f846139f2565b61442e565b6139f2565b9050919050565b6000819050919050565b6157738361573e565b61578761577f82615760565b8484546156ec565b825550505050565b600090565b61579c61578f565b6157a781848461576a565b505050565b5b818110156157cb576157c0600082615794565b6001810190506157ad565b5050565b601f821115615810576157e1816156ba565b6157ea846156cf565b810160208510156157f9578190505b61580d615805856156cf565b8301826157ac565b50505b505050565b600082821c905092915050565b600061583360001984600802615815565b1980831691505092915050565b600061584c8383615822565b9150826002028217905092915050565b61586582613af5565b67ffffffffffffffff81111561587e5761587d614053565b5b61588882546145f1565b6158938282856157cf565b600060209050601f8311600181146158c657600084156158b4578287015190505b6158be8582615840565b865550615926565b601f1984166158d4866156ba565b60005b828110156158fc578489015182556001820191506020850194506020810190506158d7565b868310156159195784890151615915601f891682615822565b8355505b6001600288020188555050505b505050505050565b60006060820190506159436000830186613f51565b6159506020830185613f51565b61595d60408301846139fc565b949350505050565b600081905092915050565b7f416363657373436f6e74726f6c3a206163636f756e7420000000000000000000600082015250565b60006159a6601783615965565b91506159b182615970565b601782019050919050565b60006159c782613af5565b6159d18185615965565b93506159e1818560208601613b11565b80840191505092915050565b7f206973206d697373696e6720726f6c6520000000000000000000000000000000600082015250565b6000615a23601183615965565b9150615a2e826159ed565b601182019050919050565b6000615a4482615999565b9150615a5082856159bc565b9150615a5b82615a16565b9150615a6782846159bc565b91508190509392505050565b615a7c81613abf565b8114615a8757600080fd5b50565b600081519050615a9981615a73565b92915050565b600060208284031215615ab557615ab4613a30565b5b6000615ac384828501615a8a565b91505092915050565b7f5361666545524332303a204552433230206f7065726174696f6e20646964206e60008201527f6f74207375636365656400000000000000000000000000000000000000000000602082015250565b6000615b28602a83613b00565b9150615b3382615acc565b604082019050919050565b60006020820190508181036000830152615b5781615b1b565b9050919050565b6000615b69826139f2565b915060008203615b7c57615b7b6144e6565b5b600182039050919050565b7f537472696e67733a20686578206c656e67746820696e73756666696369656e74600082015250565b6000615bbd602083613b00565b9150615bc882615b87565b602082019050919050565b60006020820190508181036000830152615bec81615bb0565b9050919050565b7f416464726573733a20696e73756666696369656e742062616c616e636520666f60008201527f722063616c6c0000000000000000000000000000000000000000000000000000602082015250565b6000615c4f602683613b00565b9150615c5a82615bf3565b604082019050919050565b60006020820190508181036000830152615c7e81615c42565b9050919050565b7f416464726573733a2063616c6c20746f206e6f6e2d636f6e7472616374000000600082015250565b6000615cbb601d83613b00565b9150615cc682615c85565b602082019050919050565b60006020820190508181036000830152615cea81615cae565b905091905056fea2646970667358221220f4002fd69c48c0e672fc72921833789c531b6b300a365426a5d12afe9a3e20a164736f6c63430008110033",
  "linkReferences": {},
  "deployedLinkReferences": {}
}