{
  "_format": "hh-sol-artifact-1",
  "contractName": "Staking",
  "sourceName": "contracts/Staking.sol",
  "abi": [
    {
      "inputs": [
        {
          "internalType": "uint16",
          "name": "_acceptableUnderlyingChangeSent",
          "type": "uint16"
        },
        {
          "internalType": "uint16",
          "name": "_maxAcceptableUnderlyingChange",
          "type": "uint16"
        }
      ],
      "name": "AcceptableUnderlyingChangeTooBig",
      "type": "error"
    },
    {
      "inputs": [
        {
          "internalType": "uint256",
          "name": "_minAmount",
          "type": "uint256"
        },
        {
          "internalType": "uint256",
          "name": "_amountSent",
          "type": "uint256"
        }
      ],
      "name": "DepositTooLow",
      "type": "error"
    },
    {
      "inputs": [
        {
          "internalType": "uint16",
          "name": "_sentFee",
          "type": "uint16"
        },
        {
          "internalType": "uint16",
          "name": "_maxFee",
          "type": "uint16"
        }
      ],
      "name": "FeeSentTooBig",
      "type": "error"
    },
    {
      "inputs": [
        {
          "internalType": "uint64",
          "name": "_from",
          "type": "uint64"
        },
        {
          "internalType": "uint64",
          "name": "_lastEpochReported",
          "type": "uint64"
        }
      ],
      "name": "InvalidEpochFrom",
      "type": "error"
    },
    {
      "inputs": [
        {
          "internalType": "uint64",
          "name": "_from",
          "type": "uint64"
        },
        {
          "internalType": "uint64",
          "name": "_to",
          "type": "uint64"
        }
      ],
      "name": "InvalidEpochs",
      "type": "error"
    },
    {
      "inputs": [
        {
          "internalType": "bytes",
          "name": "_pubkey",
          "type": "bytes"
        }
      ],
      "name": "NodeAlreadyUsed",
      "type": "error"
    },
    {
      "inputs": [
        {
          "internalType": "uint256",
          "name": "_stakingBalance",
          "type": "uint256"
        },
        {
          "internalType": "uint256",
          "name": "_requestedToPool",
          "type": "uint256"
        },
        {
          "internalType": "uint256",
          "name": "_requestedToWithdrawal",
          "type": "uint256"
        },
        {
          "internalType": "uint256",
          "name": "_requiredBalance",
          "type": "uint256"
        }
      ],
      "name": "NotEnoughETHtoStake",
      "type": "error"
    },
    {
      "inputs": [
        {
          "internalType": "int256",
          "name": "_rewardsPerSecondSent",
          "type": "int256"
        },
        {
          "internalType": "int256",
          "name": "_maxRewardsPerSecond",
          "type": "int256"
        }
      ],
      "name": "RewardsPerSecondTooBig",
      "type": "error"
    },
    {
      "inputs": [
        {
          "internalType": "uint256",
          "name": "_unlockTimestamp",
          "type": "uint256"
        },
        {
          "internalType": "uint256",
          "name": "_currentTimestamp",
          "type": "uint256"
        }
      ],
      "name": "SubmitReportTimelocked",
      "type": "error"
    },
    {
      "inputs": [
        {
          "internalType": "uint256",
          "name": "_currentNodesBalance",
          "type": "uint256"
        },
        {
          "internalType": "uint256",
          "name": "_newSubmittedNodesBalance",
          "type": "uint256"
        },
        {
          "internalType": "uint256",
          "name": "_difference",
          "type": "uint256"
        },
        {
          "internalType": "uint256",
          "name": "_maxDifference",
          "type": "uint256"
        }
      ],
      "name": "UpdateTooBig",
      "type": "error"
    },
    {
      "inputs": [
        {
          "internalType": "address",
          "name": "_user",
          "type": "address"
        }
      ],
      "name": "UserNotWhitelisted",
      "type": "error"
    },
    {
      "inputs": [
        {
          "internalType": "string",
          "name": "_address",
          "type": "string"
        }
      ],
      "name": "ZeroAddress",
      "type": "error"
    },
    {
      "anonymous": false,
      "inputs": [
        {
          "indexed": true,
          "internalType": "address",
          "name": "owner",
          "type": "address"
        },
        {
          "indexed": true,
          "internalType": "address",
          "name": "spender",
          "type": "address"
        },
        {
          "indexed": false,
          "internalType": "uint256",
          "name": "value",
          "type": "uint256"
        }
      ],
      "name": "Approval",
      "type": "event"
    },
    {
      "anonymous": false,
      "inputs": [
        {
          "indexed": true,
          "internalType": "address",
          "name": "sender",
          "type": "address"
        },
        {
          "indexed": true,
          "internalType": "address",
          "name": "owner",
          "type": "address"
        },
        {
          "indexed": false,
          "internalType": "uint256",
          "name": "assets",
          "type": "uint256"
        },
        {
          "indexed": false,
          "internalType": "uint256",
          "name": "shares",
          "type": "uint256"
        }
      ],
      "name": "Deposit",
      "type": "event"
    },
    {
      "anonymous": false,
      "inputs": [
        {
          "indexed": false,
          "internalType": "uint8",
          "name": "version",
          "type": "uint8"
        }
      ],
      "name": "Initialized",
      "type": "event"
    },
    {
      "anonymous": false,
      "inputs": [
        {
          "indexed": true,
          "internalType": "address",
          "name": "sender",
          "type": "address"
        },
        {
          "indexed": true,
          "internalType": "address",
          "name": "owner",
          "type": "address"
        },
        {
          "indexed": false,
          "internalType": "uint256",
          "name": "assets",
          "type": "uint256"
        },
        {
          "indexed": false,
          "internalType": "uint256",
          "name": "shares",
          "type": "uint256"
        }
      ],
      "name": "Mint",
      "type": "event"
    },
    {
      "anonymous": false,
      "inputs": [
        {
          "indexed": true,
          "internalType": "bytes32",
          "name": "role",
          "type": "bytes32"
        },
        {
          "indexed": true,
          "internalType": "bytes32",
          "name": "previousAdminRole",
          "type": "bytes32"
        },
        {
          "indexed": true,
          "internalType": "bytes32",
          "name": "newAdminRole",
          "type": "bytes32"
        }
      ],
      "name": "RoleAdminChanged",
      "type": "event"
    },
    {
      "anonymous": false,
      "inputs": [
        {
          "indexed": true,
          "internalType": "bytes32",
          "name": "role",
          "type": "bytes32"
        },
        {
          "indexed": true,
          "internalType": "address",
          "name": "account",
          "type": "address"
        },
        {
          "indexed": true,
          "internalType": "address",
          "name": "sender",
          "type": "address"
        }
      ],
      "name": "RoleGranted",
      "type": "event"
    },
    {
      "anonymous": false,
      "inputs": [
        {
          "indexed": true,
          "internalType": "bytes32",
          "name": "role",
          "type": "bytes32"
        },
        {
          "indexed": true,
          "internalType": "address",
          "name": "account",
          "type": "address"
        },
        {
          "indexed": true,
          "internalType": "address",
          "name": "sender",
          "type": "address"
        }
      ],
      "name": "RoleRevoked",
      "type": "event"
    },
    {
      "anonymous": false,
      "inputs": [
        {
          "indexed": false,
          "internalType": "uint256",
          "name": "nodeId",
          "type": "uint256"
        },
        {
          "indexed": true,
          "internalType": "bytes",
          "name": "pubkey",
          "type": "bytes"
        }
      ],
      "name": "Stake",
      "type": "event"
    },
    {
      "anonymous": false,
      "inputs": [
        {
          "indexed": true,
          "internalType": "address",
          "name": "from",
          "type": "address"
        },
        {
          "indexed": true,
          "internalType": "address",
          "name": "to",
          "type": "address"
        },
        {
          "indexed": false,
          "internalType": "uint256",
          "name": "value",
          "type": "uint256"
        }
      ],
      "name": "Transfer",
      "type": "event"
    },
    {
      "anonymous": false,
      "inputs": [
        {
          "indexed": false,
          "internalType": "uint256",
          "name": "nodeId",
          "type": "uint256"
        },
        {
          "components": [
            {
              "internalType": "bytes",
              "name": "pubkey",
              "type": "bytes"
            },
            {
              "internalType": "bytes",
              "name": "withdrawCredentials",
              "type": "bytes"
            },
            {
              "internalType": "bytes",
              "name": "signature",
              "type": "bytes"
            },
            {
              "internalType": "bytes32",
              "name": "depositDataRoot",
              "type": "bytes32"
            }
          ],
          "indexed": false,
          "internalType": "struct Staking.Node",
          "name": "data",
          "type": "tuple"
        }
      ],
      "name": "UpdateNodeData",
      "type": "event"
    },
    {
      "anonymous": false,
      "inputs": [
        {
          "indexed": false,
          "internalType": "uint256",
          "name": "balance",
          "type": "uint256"
        }
      ],
      "name": "UpdateNodesBalance",
      "type": "event"
    },
    {
      "anonymous": false,
      "inputs": [
        {
          "indexed": true,
          "internalType": "address",
          "name": "sender",
          "type": "address"
        },
        {
          "indexed": true,
          "internalType": "address",
          "name": "receiver",
          "type": "address"
        },
        {
          "indexed": true,
          "internalType": "address",
          "name": "owner",
          "type": "address"
        },
        {
          "indexed": false,
          "internalType": "uint256",
          "name": "assets",
          "type": "uint256"
        },
        {
          "indexed": false,
          "internalType": "uint256",
          "name": "shares",
          "type": "uint256"
        }
      ],
      "name": "Withdraw",
      "type": "event"
    },
    {
      "inputs": [],
      "name": "ACTIVATOR_ROLE",
      "outputs": [
        {
          "internalType": "bytes32",
          "name": "",
          "type": "bytes32"
        }
      ],
      "stateMutability": "view",
      "type": "function"
    },
    {
      "inputs": [],
      "name": "DEFAULT_ADMIN_ROLE",
      "outputs": [
        {
          "internalType": "bytes32",
          "name": "",
          "type": "bytes32"
        }
      ],
      "stateMutability": "view",
      "type": "function"
    },
    {
      "inputs": [],
      "name": "MAX_ACCEPTABLE_UNDERLYING_CHANGE",
      "outputs": [
        {
          "internalType": "uint16",
          "name": "",
          "type": "uint16"
        }
      ],
      "stateMutability": "view",
      "type": "function"
    },
    {
      "inputs": [],
      "name": "MAX_DEPOSIT_FEE",
      "outputs": [
        {
          "internalType": "uint16",
          "name": "",
          "type": "uint16"
        }
      ],
      "stateMutability": "view",
      "type": "function"
    },
    {
      "inputs": [],
      "name": "MAX_REWARDS_FEE",
      "outputs": [
        {
          "internalType": "uint16",
          "name": "",
          "type": "uint16"
        }
      ],
      "stateMutability": "view",
      "type": "function"
    },
    {
      "inputs": [],
      "name": "MIN_DEPOSIT",
      "outputs": [
        {
          "internalType": "uint64",
          "name": "",
          "type": "uint64"
        }
      ],
      "stateMutability": "view",
      "type": "function"
    },
    {
      "inputs": [],
      "name": "SUBMIT_REPORT_TIMELOCK",
      "outputs": [
        {
          "internalType": "uint64",
          "name": "",
          "type": "uint64"
        }
      ],
      "stateMutability": "view",
      "type": "function"
    },
    {
      "inputs": [],
      "name": "UPDATER_ROLE",
      "outputs": [
        {
          "internalType": "bytes32",
          "name": "",
          "type": "bytes32"
        }
      ],
      "stateMutability": "view",
      "type": "function"
    },
    {
      "inputs": [],
      "name": "acceptableUnderlyingChange",
      "outputs": [
        {
          "internalType": "uint16",
          "name": "",
          "type": "uint16"
        }
      ],
      "stateMutability": "view",
      "type": "function"
    },
    {
      "inputs": [
        {
          "internalType": "address[]",
          "name": "addresses",
          "type": "address[]"
        }
      ],
      "name": "addToWhitelist",
      "outputs": [],
      "stateMutability": "nonpayable",
      "type": "function"
    },
    {
      "inputs": [
        {
          "internalType": "address",
          "name": "owner",
          "type": "address"
        },
        {
          "internalType": "address",
          "name": "spender",
          "type": "address"
        }
      ],
      "name": "allowance",
      "outputs": [
        {
          "internalType": "uint256",
          "name": "",
          "type": "uint256"
        }
      ],
      "stateMutability": "view",
      "type": "function"
    },
    {
      "inputs": [
        {
          "internalType": "address",
          "name": "spender",
          "type": "address"
        },
        {
          "internalType": "uint256",
          "name": "amount",
          "type": "uint256"
        }
      ],
      "name": "approve",
      "outputs": [
        {
          "internalType": "bool",
          "name": "",
          "type": "bool"
        }
      ],
      "stateMutability": "nonpayable",
      "type": "function"
    },
    {
      "inputs": [],
      "name": "asset",
      "outputs": [
        {
          "internalType": "address",
          "name": "",
          "type": "address"
        }
      ],
      "stateMutability": "view",
      "type": "function"
    },
    {
      "inputs": [
        {
          "internalType": "address",
          "name": "account",
          "type": "address"
        }
      ],
      "name": "balanceOf",
      "outputs": [
        {
          "internalType": "uint256",
          "name": "",
          "type": "uint256"
        }
      ],
      "stateMutability": "view",
      "type": "function"
    },
    {
      "inputs": [],
      "name": "completeWithdraw",
      "outputs": [],
      "stateMutability": "nonpayable",
      "type": "function"
    },
    {
      "inputs": [
        {
          "internalType": "uint256",
          "name": "shares",
          "type": "uint256"
        }
      ],
      "name": "convertToAssets",
      "outputs": [
        {
          "internalType": "uint256",
          "name": "assets",
          "type": "uint256"
        }
      ],
      "stateMutability": "view",
      "type": "function"
    },
    {
      "inputs": [
        {
          "internalType": "uint256",
          "name": "assets",
          "type": "uint256"
        }
      ],
      "name": "convertToShares",
      "outputs": [
        {
          "internalType": "uint256",
          "name": "shares",
          "type": "uint256"
        }
      ],
      "stateMutability": "view",
      "type": "function"
    },
    {
      "inputs": [],
      "name": "decimals",
      "outputs": [
        {
          "internalType": "uint8",
          "name": "",
          "type": "uint8"
        }
      ],
      "stateMutability": "view",
      "type": "function"
    },
    {
      "inputs": [
        {
          "internalType": "address",
          "name": "spender",
          "type": "address"
        },
        {
          "internalType": "uint256",
          "name": "subtractedValue",
          "type": "uint256"
        }
      ],
      "name": "decreaseAllowance",
      "outputs": [
        {
          "internalType": "bool",
          "name": "",
          "type": "bool"
        }
      ],
      "stateMutability": "nonpayable",
      "type": "function"
    },
    {
      "inputs": [
        {
          "internalType": "uint256",
          "name": "_assets",
          "type": "uint256"
        },
        {
          "internalType": "address",
          "name": "_receiver",
          "type": "address"
        }
      ],
      "name": "deposit",
      "outputs": [
        {
          "internalType": "uint256",
          "name": "",
          "type": "uint256"
        }
      ],
      "stateMutability": "nonpayable",
      "type": "function"
    },
    {
      "inputs": [],
      "name": "depositContract",
      "outputs": [
        {
          "internalType": "contract IDeposit",
          "name": "",
          "type": "address"
        }
      ],
      "stateMutability": "view",
      "type": "function"
    },
    {
      "inputs": [
        {
          "internalType": "address",
          "name": "_receiver",
          "type": "address"
        }
      ],
      "name": "depositETH",
      "outputs": [
        {
          "internalType": "uint256",
          "name": "",
          "type": "uint256"
        }
      ],
      "stateMutability": "payable",
      "type": "function"
    },
    {
      "inputs": [],
      "name": "depositFee",
      "outputs": [
        {
          "internalType": "uint16",
          "name": "",
          "type": "uint16"
        }
      ],
      "stateMutability": "view",
      "type": "function"
    },
    {
      "inputs": [],
      "name": "estimatedRewardsPerSecond",
      "outputs": [
        {
          "internalType": "int256",
          "name": "",
          "type": "int256"
        }
      ],
      "stateMutability": "view",
      "type": "function"
    },
    {
      "inputs": [
        {
          "internalType": "bytes32",
          "name": "role",
          "type": "bytes32"
        }
      ],
      "name": "getRoleAdmin",
      "outputs": [
        {
          "internalType": "bytes32",
          "name": "",
          "type": "bytes32"
        }
      ],
      "stateMutability": "view",
      "type": "function"
    },
    {
      "inputs": [
        {
          "internalType": "bytes32",
          "name": "role",
          "type": "bytes32"
        },
        {
          "internalType": "address",
          "name": "account",
          "type": "address"
        }
      ],
      "name": "grantRole",
      "outputs": [],
      "stateMutability": "nonpayable",
      "type": "function"
    },
    {
      "inputs": [
        {
          "internalType": "bytes32",
          "name": "role",
          "type": "bytes32"
        },
        {
          "internalType": "address",
          "name": "account",
          "type": "address"
        }
      ],
      "name": "hasRole",
      "outputs": [
        {
          "internalType": "bool",
          "name": "",
          "type": "bool"
        }
      ],
      "stateMutability": "view",
      "type": "function"
    },
    {
      "inputs": [
        {
          "internalType": "address",
          "name": "spender",
          "type": "address"
        },
        {
          "internalType": "uint256",
          "name": "addedValue",
          "type": "uint256"
        }
      ],
      "name": "increaseAllowance",
      "outputs": [
        {
          "internalType": "bool",
          "name": "",
          "type": "bool"
        }
      ],
      "stateMutability": "nonpayable",
      "type": "function"
    },
    {
      "inputs": [
        {
          "internalType": "address",
          "name": "_liquidPool",
          "type": "address"
        },
        {
          "internalType": "address",
          "name": "_withdrawal",
          "type": "address"
        },
        {
          "internalType": "address",
          "name": "_depositContract",
          "type": "address"
        },
        {
          "internalType": "contract IERC20MetadataUpgradeable",
          "name": "_weth",
          "type": "address"
        },
        {
          "internalType": "address",
          "name": "_treasury",
          "type": "address"
        },
        {
          "internalType": "address",
          "name": "_updater",
          "type": "address"
        },
        {
          "internalType": "address",
          "name": "_activator",
          "type": "address"
        }
      ],
      "name": "initialize",
      "outputs": [],
      "stateMutability": "nonpayable",
      "type": "function"
    },
    {
      "inputs": [],
      "name": "lastEpochReported",
      "outputs": [
        {
          "internalType": "uint64",
          "name": "",
          "type": "uint64"
        }
      ],
      "stateMutability": "view",
      "type": "function"
    },
    {
      "inputs": [],
      "name": "liquidUnstakePool",
      "outputs": [
        {
          "internalType": "address payable",
          "name": "",
          "type": "address"
        }
      ],
      "stateMutability": "view",
      "type": "function"
    },
    {
      "inputs": [
        {
          "internalType": "address",
          "name": "",
          "type": "address"
        }
      ],
      "name": "maxDeposit",
      "outputs": [
        {
          "internalType": "uint256",
          "name": "",
          "type": "uint256"
        }
      ],
      "stateMutability": "view",
      "type": "function"
    },
    {
      "inputs": [
        {
          "internalType": "address",
          "name": "",
          "type": "address"
        }
      ],
      "name": "maxMint",
      "outputs": [
        {
          "internalType": "uint256",
          "name": "",
          "type": "uint256"
        }
      ],
      "stateMutability": "view",
      "type": "function"
    },
    {
      "inputs": [
        {
          "internalType": "address",
          "name": "owner",
          "type": "address"
        }
      ],
      "name": "maxRedeem",
      "outputs": [
        {
          "internalType": "uint256",
          "name": "",
          "type": "uint256"
        }
      ],
      "stateMutability": "view",
      "type": "function"
    },
    {
      "inputs": [
        {
          "internalType": "address",
          "name": "owner",
          "type": "address"
        }
      ],
      "name": "maxWithdraw",
      "outputs": [
        {
          "internalType": "uint256",
          "name": "",
          "type": "uint256"
        }
      ],
      "stateMutability": "view",
      "type": "function"
    },
    {
      "inputs": [
        {
          "internalType": "uint256",
          "name": "shares",
          "type": "uint256"
        },
        {
          "internalType": "address",
          "name": "receiver",
          "type": "address"
        }
      ],
      "name": "mint",
      "outputs": [
        {
          "internalType": "uint256",
          "name": "",
          "type": "uint256"
        }
      ],
      "stateMutability": "nonpayable",
      "type": "function"
    },
    {
      "inputs": [],
      "name": "name",
      "outputs": [
        {
          "internalType": "string",
          "name": "",
          "type": "string"
        }
      ],
      "stateMutability": "view",
      "type": "function"
    },
    {
      "inputs": [
        {
          "internalType": "bytes",
          "name": "",
          "type": "bytes"
        }
      ],
      "name": "nodePubkeyUsed",
      "outputs": [
        {
          "internalType": "bool",
          "name": "",
          "type": "bool"
        }
      ],
      "stateMutability": "view",
      "type": "function"
    },
    {
      "inputs": [
        {
          "internalType": "uint256",
          "name": "assets",
          "type": "uint256"
        }
      ],
      "name": "previewDeposit",
      "outputs": [
        {
          "internalType": "uint256",
          "name": "",
          "type": "uint256"
        }
      ],
      "stateMutability": "view",
      "type": "function"
    },
    {
      "inputs": [
        {
          "internalType": "uint256",
          "name": "shares",
          "type": "uint256"
        }
      ],
      "name": "previewMint",
      "outputs": [
        {
          "internalType": "uint256",
          "name": "",
          "type": "uint256"
        }
      ],
      "stateMutability": "view",
      "type": "function"
    },
    {
      "inputs": [
        {
          "internalType": "uint256",
          "name": "shares",
          "type": "uint256"
        }
      ],
      "name": "previewRedeem",
      "outputs": [
        {
          "internalType": "uint256",
          "name": "",
          "type": "uint256"
        }
      ],
      "stateMutability": "view",
      "type": "function"
    },
    {
      "inputs": [
        {
          "internalType": "uint256",
          "name": "assets",
          "type": "uint256"
        }
      ],
      "name": "previewWithdraw",
      "outputs": [
        {
          "internalType": "uint256",
          "name": "",
          "type": "uint256"
        }
      ],
      "stateMutability": "view",
      "type": "function"
    },
    {
      "inputs": [
        {
          "components": [
            {
              "internalType": "bytes",
              "name": "pubkey",
              "type": "bytes"
            },
            {
              "internalType": "bytes",
              "name": "withdrawCredentials",
              "type": "bytes"
            },
            {
              "internalType": "bytes",
              "name": "signature",
              "type": "bytes"
            },
            {
              "internalType": "bytes32",
              "name": "depositDataRoot",
              "type": "bytes32"
            }
          ],
          "internalType": "struct Staking.Node[]",
          "name": "_nodes",
          "type": "tuple[]"
        },
        {
          "internalType": "uint256",
          "name": "_requestPoolAmount",
          "type": "uint256"
        },
        {
          "internalType": "uint256",
          "name": "_requestWithdrawalAmount",
          "type": "uint256"
        }
      ],
      "name": "pushToBeacon",
      "outputs": [],
      "stateMutability": "nonpayable",
      "type": "function"
    },
    {
      "inputs": [
        {
          "internalType": "uint256",
          "name": "shares",
          "type": "uint256"
        },
        {
          "internalType": "address",
          "name": "receiver",
          "type": "address"
        },
        {
          "internalType": "address",
          "name": "owner",
          "type": "address"
        }
      ],
      "name": "redeem",
      "outputs": [
        {
          "internalType": "uint256",
          "name": "",
          "type": "uint256"
        }
      ],
      "stateMutability": "nonpayable",
      "type": "function"
    },
    {
      "inputs": [
        {
          "internalType": "address[]",
          "name": "addresses",
          "type": "address[]"
        }
      ],
      "name": "removeFromWhitelist",
      "outputs": [],
      "stateMutability": "nonpayable",
      "type": "function"
    },
    {
      "inputs": [
        {
          "internalType": "bytes32",
          "name": "role",
          "type": "bytes32"
        },
        {
          "internalType": "address",
          "name": "account",
          "type": "address"
        }
      ],
      "name": "renounceRole",
      "outputs": [],
      "stateMutability": "nonpayable",
      "type": "function"
    },
    {
      "inputs": [
        {
          "components": [
            {
              "internalType": "uint64",
              "name": "from",
              "type": "uint64"
            },
            {
              "internalType": "uint64",
              "name": "to",
              "type": "uint64"
            },
            {
              "internalType": "uint256",
              "name": "rewards",
              "type": "uint256"
            },
            {
              "internalType": "uint256",
              "name": "penalties",
              "type": "uint256"
            }
          ],
          "internalType": "struct Staking.EpochsReport",
          "name": "_epochsReport",
          "type": "tuple"
        },
        {
          "internalType": "int256",
          "name": "_estimatedRewardsPerSecond",
          "type": "int256"
        }
      ],
      "name": "reportEpochs",
      "outputs": [],
      "stateMutability": "nonpayable",
      "type": "function"
    },
    {
      "inputs": [
        {
          "internalType": "uint256",
          "name": "_requestedETH",
          "type": "uint256"
        }
      ],
      "name": "requestEthFromLiquidPoolToWithdrawal",
      "outputs": [],
      "stateMutability": "nonpayable",
      "type": "function"
    },
    {
      "inputs": [
        {
          "internalType": "bytes32",
          "name": "role",
          "type": "bytes32"
        },
        {
          "internalType": "address",
          "name": "account",
          "type": "address"
        }
      ],
      "name": "revokeRole",
      "outputs": [],
      "stateMutability": "nonpayable",
      "type": "function"
    },
    {
      "inputs": [],
      "name": "rewardsFee",
      "outputs": [
        {
          "internalType": "uint16",
          "name": "",
          "type": "uint16"
        }
      ],
      "stateMutability": "view",
      "type": "function"
    },
    {
      "inputs": [],
      "name": "submitReportUnlockTime",
      "outputs": [
        {
          "internalType": "uint256",
          "name": "",
          "type": "uint256"
        }
      ],
      "stateMutability": "view",
      "type": "function"
    },
    {
      "inputs": [
        {
          "internalType": "bytes4",
          "name": "interfaceId",
          "type": "bytes4"
        }
      ],
      "name": "supportsInterface",
      "outputs": [
        {
          "internalType": "bool",
          "name": "",
          "type": "bool"
        }
      ],
      "stateMutability": "view",
      "type": "function"
    },
    {
      "inputs": [],
      "name": "symbol",
      "outputs": [
        {
          "internalType": "string",
          "name": "",
          "type": "string"
        }
      ],
      "stateMutability": "view",
      "type": "function"
    },
    {
      "inputs": [],
      "name": "toggleWhitelistEnabled",
      "outputs": [],
      "stateMutability": "nonpayable",
      "type": "function"
    },
    {
      "inputs": [],
      "name": "totalAssets",
      "outputs": [
        {
          "internalType": "uint256",
          "name": "assets",
          "type": "uint256"
        }
      ],
      "stateMutability": "view",
      "type": "function"
    },
    {
      "inputs": [],
      "name": "totalNodesActivated",
      "outputs": [
        {
          "internalType": "uint32",
          "name": "",
          "type": "uint32"
        }
      ],
      "stateMutability": "view",
      "type": "function"
    },
    {
      "inputs": [],
      "name": "totalSupply",
      "outputs": [
        {
          "internalType": "uint256",
          "name": "",
          "type": "uint256"
        }
      ],
      "stateMutability": "view",
      "type": "function"
    },
    {
      "inputs": [],
      "name": "totalUnderlying",
      "outputs": [
        {
          "internalType": "uint256",
          "name": "",
          "type": "uint256"
        }
      ],
      "stateMutability": "view",
      "type": "function"
    },
    {
      "inputs": [
        {
          "internalType": "address",
          "name": "to",
          "type": "address"
        },
        {
          "internalType": "uint256",
          "name": "amount",
          "type": "uint256"
        }
      ],
      "name": "transfer",
      "outputs": [
        {
          "internalType": "bool",
          "name": "",
          "type": "bool"
        }
      ],
      "stateMutability": "nonpayable",
      "type": "function"
    },
    {
      "inputs": [
        {
          "internalType": "address",
          "name": "from",
          "type": "address"
        },
        {
          "internalType": "address",
          "name": "to",
          "type": "address"
        },
        {
          "internalType": "uint256",
          "name": "amount",
          "type": "uint256"
        }
      ],
      "name": "transferFrom",
      "outputs": [
        {
          "internalType": "bool",
          "name": "",
          "type": "bool"
        }
      ],
      "stateMutability": "nonpayable",
      "type": "function"
    },
    {
      "inputs": [],
      "name": "treasury",
      "outputs": [
        {
          "internalType": "address",
          "name": "",
          "type": "address"
        }
      ],
      "stateMutability": "view",
      "type": "function"
    },
    {
      "inputs": [
        {
          "internalType": "uint16",
          "name": "_acceptableUnderlyingChange",
          "type": "uint16"
        }
      ],
      "name": "updateAcceptableUnderlyingChange",
      "outputs": [],
      "stateMutability": "nonpayable",
      "type": "function"
    },
    {
      "inputs": [
        {
          "internalType": "uint16",
          "name": "_depositFee",
          "type": "uint16"
        }
      ],
      "name": "updateDepositFee",
      "outputs": [],
      "stateMutability": "nonpayable",
      "type": "function"
    },
    {
      "inputs": [
        {
          "internalType": "int256",
          "name": "_estimatedRewardsPerSecond",
          "type": "int256"
        }
      ],
      "name": "updateEstimatedRewardsPerSecond",
      "outputs": [],
      "stateMutability": "nonpayable",
      "type": "function"
    },
    {
      "inputs": [
        {
          "internalType": "address payable",
          "name": "_liquidPool",
          "type": "address"
        }
      ],
      "name": "updateLiquidPool",
      "outputs": [],
      "stateMutability": "nonpayable",
      "type": "function"
    },
    {
      "inputs": [
        {
          "internalType": "uint16",
          "name": "_rewardsFee",
          "type": "uint16"
        }
      ],
      "name": "updateRewardsFee",
      "outputs": [],
      "stateMutability": "nonpayable",
      "type": "function"
    },
    {
      "inputs": [
        {
          "internalType": "address payable",
          "name": "_withdrawal",
          "type": "address"
        }
      ],
      "name": "updateWithdrawal",
      "outputs": [],
      "stateMutability": "nonpayable",
      "type": "function"
    },
    {
      "inputs": [],
      "name": "whitelistEnabled",
      "outputs": [
        {
          "internalType": "bool",
          "name": "",
          "type": "bool"
        }
      ],
      "stateMutability": "view",
      "type": "function"
    },
    {
      "inputs": [
        {
          "internalType": "address",
          "name": "",
          "type": "address"
        }
      ],
      "name": "whitelistedAccounts",
      "outputs": [
        {
          "internalType": "bool",
          "name": "",
          "type": "bool"
        }
      ],
      "stateMutability": "view",
      "type": "function"
    },
    {
      "inputs": [
        {
          "internalType": "uint256",
          "name": "assets",
          "type": "uint256"
        },
        {
          "internalType": "address",
          "name": "receiver",
          "type": "address"
        },
        {
          "internalType": "address",
          "name": "owner",
          "type": "address"
        }
      ],
      "name": "withdraw",
      "outputs": [
        {
          "internalType": "uint256",
          "name": "",
          "type": "uint256"
        }
      ],
      "stateMutability": "nonpayable",
      "type": "function"
    },
    {
      "inputs": [],
      "name": "withdrawal",
      "outputs": [
        {
          "internalType": "address payable",
          "name": "",
          "type": "address"
        }
      ],
      "stateMutability": "view",
      "type": "function"
    },
    {
      "stateMutability": "payable",
      "type": "receive"
    }
  ],
  "bytecode": "0x608060405234801561001057600080fd5b50614291806100206000396000f3fe6080604052600436106104135760003560e01c80637f6497831161021e578063c63d75b611610123578063d905777e116100ab578063e94ad65b1161007a578063e94ad65b14610ca4578063ef8b30f714610b5d578063f6a6830f14610cc4578063f756fa2114610cf5578063f75cd13414610d0a57600080fd5b8063d905777e14610c33578063dd62ed3e14610c53578063e1e158a514610c73578063e534744f14610c8e57600080fd5b8063ce96cb77116100f2578063ce96cb7714610b93578063d1906eb014610bb3578063d31c877114610bd3578063d4e9329214610bf3578063d547741f14610c1357600080fd5b8063c63d75b614610b26578063c6d87dd514610b48578063c6e6f59214610b5d578063c70920bc14610b7d57600080fd5b8063982c3c8d116101a6578063a9059cbb11610175578063a9059cbb14610a86578063b3d7f6b914610aa6578063b460af9414610ac6578063ba08765214610ae6578063c62b60f714610b0657600080fd5b8063982c3c8d146109f15780639dc162ca14610a31578063a217fddf14610a51578063a457c2d714610a6657600080fd5b806391d14854116101ed57806391d1485414610965578063925c765e14610985578063941310381461099c57806394bf804d146109bc57806395d89b41146109dc57600080fd5b80637f649783146108d357806387d6c017146108f35780638aab7d1c1461092f578063911140bb1461094f57600080fd5b8063358764761161032457806351fb012d116102ac57806367a527931161027b57806367a52793146108075780636e553f651461082a5780636e64b5781461084a57806370a082311461087d5780637ba8837f146108b357600080fd5b806351fb012d1461078c578063548db174146107a7578063593f8907146107c757806361d027b3146107e757600080fd5b8063402d267d116102f3578063402d267d1461071557806346fd12681461073557806347e633801461074a5780634cdad506146104bb5780634dc1d6fb1461076c57600080fd5b8063358764761461068357806336568abe146106a357806338d52e0f146106c357806339509351146106f557600080fd5b80630c8797dd116103a7578063248a9ca311610376578063248a9ca3146105d35780632bb14e1d146106035780632d2da806146106245780632f2ff15d14610637578063313ce5671461065757600080fd5b80630c8797dd1461054f57806317ba07d51461056657806318160ddd1461059e57806323b872dd146105b357600080fd5b806307a2d13a116103e357806307a2d13a146104bb57806308740a3b146104db578063095ea7b31461050f5780630a28a4771461052f57600080fd5b8062ed53d61461041f57806301e1d1141461044157806301ffc9a71461046957806306fdde031461049957600080fd5b3661041a57005b600080fd5b34801561042b57600080fd5b5061043f61043a366004613d59565b610d1f565b005b34801561044d57600080fd5b50610456610d8a565b6040519081526020015b60405180910390f35b34801561047557600080fd5b50610489610484366004613c99565b610f0d565b6040519015158152602001610460565b3480156104a557600080fd5b506104ae610f44565b6040516104609190613ed5565b3480156104c757600080fd5b506104566104d6366004613c5d565b610fd6565b3480156104e757600080fd5b506104567fec5aad7bdface20c35bc02d6d2d5760df981277427368525d634f4e2603ea19281565b34801561051b57600080fd5b5061048961052a366004613ad2565b610fe3565b34801561053b57600080fd5b5061045661054a366004613c5d565b610ffb565b34801561055b57600080fd5b506104566101005481565b34801561057257600080fd5b506101055461058b9065010000000000900461ffff1681565b60405161ffff9091168152602001610460565b3480156105aa57600080fd5b50603554610456565b3480156105bf57600080fd5b506104896105ce366004613a92565b611008565b3480156105df57600080fd5b506104566105ee366004613c5d565b600090815260c9602052604090206001015490565b34801561060f57600080fd5b506101055461058b90610100900461ffff1681565b6104566106323660046139a9565b61102e565b34801561064357600080fd5b5061043f610652366004613c75565b611049565b34801561066357600080fd5b50606554600160a01b900460ff1660405160ff9091168152602001610460565b34801561068f57600080fd5b5061043f61069e3660046139fd565b611073565b3480156106af57600080fd5b5061043f6106be366004613c75565b611467565b3480156106cf57600080fd5b506065546001600160a01b03165b6040516001600160a01b039091168152602001610460565b34801561070157600080fd5b50610489610710366004613ad2565b6114e5565b34801561072157600080fd5b506104566107303660046139a9565b611507565b34801561074157600080fd5b5061043f611525565b34801561075657600080fd5b5061045660008051602061423c83398151915281565b34801561077857600080fd5b5061043f610787366004613d59565b611546565b34801561079857600080fd5b50610105546104899060ff1681565b3480156107b357600080fd5b5061043f6107c2366004613afd565b6115a6565b3480156107d357600080fd5b5061043f6107e23660046139a9565b611637565b3480156107f357600080fd5b5060fe546106dd906001600160a01b031681565b34801561081357600080fd5b506101055461058b906301000000900461ffff1681565b34801561083657600080fd5b50610456610845366004613c75565b6116a9565b34801561085657600080fd5b50610101546108689063ffffffff1681565b60405163ffffffff9091168152602001610460565b34801561088957600080fd5b506104566108983660046139a9565b6001600160a01b031660009081526033602052604090205490565b3480156108bf57600080fd5b5061043f6108ce3660046139a9565b6116c3565b3480156108df57600080fd5b5061043f6108ee366004613afd565b611735565b3480156108ff57600080fd5b5061048961090e366004613cc1565b80516020818301810180516101038252928201919093012091525460ff1681565b34801561093b57600080fd5b5061043f61094a366004613d59565b6117bf565b34801561095b57600080fd5b5061058b6107d081565b34801561097157600080fd5b50610489610980366004613c75565b611821565b34801561099157600080fd5b506104566101025481565b3480156109a857600080fd5b5061043f6109b7366004613b6c565b61184c565b3480156109c857600080fd5b506104566109d7366004613c75565b611ca9565b3480156109e857600080fd5b506104ae611cc3565b3480156109fd57600080fd5b5061010554610a1990600160381b90046001600160401b031681565b6040516001600160401b039091168152602001610460565b348015610a3d57600080fd5b5060fc546106dd906001600160a01b031681565b348015610a5d57600080fd5b50610456600081565b348015610a7257600080fd5b50610489610a81366004613ad2565b611cd2565b348015610a9257600080fd5b50610489610aa1366004613ad2565b611d58565b348015610ab257600080fd5b50610456610ac1366004613c5d565b611d66565b348015610ad257600080fd5b50610456610ae1366004613d93565b611d73565b348015610af257600080fd5b50610456610b01366004613d93565b611def565b348015610b1257600080fd5b5061043f610b21366004613c5d565b611e63565b348015610b3257600080fd5b50610456610b413660046139a9565b5060001990565b348015610b5457600080fd5b5061058b606481565b348015610b6957600080fd5b50610456610b78366004613c5d565b611ef0565b348015610b8957600080fd5b5061045660ff5481565b348015610b9f57600080fd5b50610456610bae3660046139a9565b611efd565b348015610bbf57600080fd5b5061043f610bce366004613c5d565b611f21565b348015610bdf57600080fd5b5061043f610bee366004613cf3565b611f98565b348015610bff57600080fd5b5060fd546106dd906001600160a01b031681565b348015610c1f57600080fd5b5061043f610c2e366004613c75565b61225a565b348015610c3f57600080fd5b50610456610c4e3660046139a9565b61227f565b348015610c5f57600080fd5b50610456610c6e3660046139c5565b61229d565b348015610c7f57600080fd5b50610a19662386f26fc1000081565b348015610c9a57600080fd5b50610a1961384081565b348015610cb057600080fd5b5060fb546106dd906001600160a01b031681565b348015610cd057600080fd5b50610489610cdf3660046139a9565b6101046020526000908152604090205460ff1681565b348015610d0157600080fd5b5061043f6122c8565b348015610d1657600080fd5b5061058b60c881565b6000610d2a816123b6565b60c861ffff83161115610d6257604051632b34e40960e21b815261ffff8316600482015260c860248201526044015b60405180910390fd5b50610105805461ffff909216650100000000000266ffff000000000019909216919091179055565b6000806138406001600160401b031661010254610da7919061410c565b610db1904261410c565b61010054610dbf9190614039565b905060008112610e6d5760fd60009054906101000a90046001600160a01b03166001600160a01b031663f7fc70026040518163ffffffff1660e01b815260040160206040518083038186803b158015610e1757600080fd5b505afa158015610e2b573d6000803e3d6000fd5b505050506040513d601f19601f82011682018060405250810190610e4f9190613d7b565b8160ff54610e5d9190613fd6565b610e67919061410c565b91505090565b60fd60009054906101000a90046001600160a01b03166001600160a01b031663f7fc70026040518163ffffffff1660e01b815260040160206040518083038186803b158015610ebb57600080fd5b505afa158015610ecf573d6000803e3d6000fd5b505050506040513d601f19601f82011682018060405250810190610ef39190613d7b565b610efc826141e0565b60ff54610e5d919061410c565b5090565b60006001600160e01b03198216637965db0b60e01b1480610f3e57506301ffc9a760e01b6001600160e01b03198316145b92915050565b606060368054610f5390614166565b80601f0160208091040260200160405190810160405280929190818152602001828054610f7f90614166565b8015610fcc5780601f10610fa157610100808354040283529160200191610fcc565b820191906000526020600020905b815481529060010190602001808311610faf57829003601f168201915b5050505050905090565b6000610f3e8260006123c3565b600033610ff18185856123f6565b5060019392505050565b6000610f3e82600161251a565b60003361101685828561254c565b6110218585856125c6565b60019150505b9392505050565b60008061103a34611ef0565b9050610f3e3384600084612771565b600082815260c96020526040902060010154611064816123b6565b61106e838361293b565b505050565b600054610100900460ff16158080156110935750600054600160ff909116105b806110ad5750303b1580156110ad575060005460ff166001145b6111105760405162461bcd60e51b815260206004820152602e60248201527f496e697469616c697a61626c653a20636f6e747261637420697320616c72656160448201526d191e481a5b9a5d1a585b1a5e995960921b6064820152608401610d59565b6000805460ff191660011790558015611133576000805461ff0019166101001790555b6001600160a01b0384166111755760405163eac0d38960e01b8152602060048201526008602482015267747265617375727960c01b6044820152606401610d59565b6001600160a01b0386166111be5760405163eac0d38960e01b815260206004820152600f60248201526e19195c1bdcda5d10dbdb9d1c9858dd608a1b6044820152606401610d59565b846001600160a01b031663313ce5676040518163ffffffff1660e01b815260040160206040518083038186803b1580156111f757600080fd5b505afa15801561120b573d6000803e3d6000fd5b505050506040513d601f19601f8201168201806040525081019061122f9190613df7565b60ff1660121461129d5760405162461bcd60e51b815260206004820152603360248201527f774e617469766520746f6b656e206572726f722c20696d706c656d656e746174604482015272696f6e20666f7220313820646563696d616c7360681b6064820152608401610d59565b47156112f95760405162461bcd60e51b815260206004820152602560248201527f4572726f7220696e697469616c697a652077697468206e6f207a65726f2062616044820152646c616e636560d81b6064820152608401610d59565b611302856129c1565b61134c6040518060400160405280600b81526020016a09acae8c2a0deded88aa8960ab1b815250604051806040016040528060058152602001640dae08aa8960db1b8152506129f1565b611354612a22565b61135f60003361293b565b61137760008051602061423c8339815191528461293b565b6113a17fec5aad7bdface20c35bc02d6d2d5760df981277427368525d634f4e2603ea1928361293b565b6113aa876116c3565b6113b388611637565b6113be6101f4611546565b60fe80546001600160a01b038087166001600160a01b03199283161790925560fb8054928916929091169190911790556001600160401b034216610102556101058054650a000000000066ffff000000000019909116179055801561145d576000805461ff0019169055604051600181527f7f26b83ff96e1f2b6a682f133852f6798a09c465da95921460cefb38474024989060200160405180910390a15b5050505050505050565b6001600160a01b03811633146114d75760405162461bcd60e51b815260206004820152602f60248201527f416363657373436f6e74726f6c3a2063616e206f6e6c792072656e6f756e636560448201526e103937b632b9903337b91039b2b63360891b6064820152608401610d59565b6114e18282612a4b565b5050565b600033610ff18185856114f8838361229d565b6115029190613fd6565b6123f6565b6000611511612ab2565b61151c576000610f3e565b60001992915050565b6000611530816123b6565b50610105805460ff19811660ff90911615179055565b6000611551816123b6565b6107d061ffff83161115611586576040516308dcf86960e31b815261ffff831660048201526107d06024820152604401610d59565b50610105805461ffff9092166101000262ffff0019909216919091179055565b60006115b1816123b6565b8160005b81811461163057600061010460008787858181106115e357634e487b7160e01b600052603260045260246000fd5b90506020020160208101906115f891906139a9565b6001600160a01b031681526020810191909152604001600020805460ff1916911515919091179055611629816141a1565b90506115b5565b5050505050565b6000611642816123b6565b6001600160a01b0382166116865760405163eac0d38960e01b815260206004820152600a6024820152691b1a5c5d5a59141bdbdb60b21b6044820152606401610d59565b5060fc80546001600160a01b0319166001600160a01b0392909216919091179055565b6000806116b584611ef0565b905061102733848684612771565b60006116ce816123b6565b6001600160a01b0382166117125760405163eac0d38960e01b815260206004820152600a6024820152691dda5d1a191c985dd85b60b21b6044820152606401610d59565b5060fd80546001600160a01b0319166001600160a01b0392909216919091179055565b6000611740816123b6565b8160005b818114611630576001610104600087878581811061177257634e487b7160e01b600052603260045260246000fd5b905060200201602081019061178791906139a9565b6001600160a01b031681526020810191909152604001600020805460ff19169115159190911790556117b8816141a1565b9050611744565b60006117ca816123b6565b606461ffff831611156117fd576040516308dcf86960e31b815261ffff8316600482015260646024820152604401610d59565b50610105805461ffff90921663010000000264ffff00000019909216919091179055565b600091825260c9602090815260408084206001600160a01b0393909316845291905290205460ff1690565b7fec5aad7bdface20c35bc02d6d2d5760df981277427368525d634f4e2603ea192611876816123b6565b8351600061189363ffffffff83166801bc16d674ec8000006140db565b68ffffffffffffffffff1690504781856118ad8884613fd6565b6118b79190613fd6565b10156118ee57604051634b82651b60e01b815260048101829052602481018790526044810186905260648101839052608401610d59565b85156119535760fc54604051633701206b60e01b8152600481018890526001600160a01b0390911690633701206b90602401600060405180830381600087803b15801561193a57600080fd5b505af115801561194e573d6000803e3d6000fd5b505050505b84156119b85760fd54604051633701206b60e01b8152600481018790526001600160a01b0390911690633701206b90602401600060405180830381600087803b15801561199f57600080fd5b505af11580156119b3573d6000803e3d6000fd5b505050505b6101015463ffffffff1660005b8463ffffffff168114611c84576101038982815181106119f557634e487b7160e01b600052603260045260246000fd5b602002602001015160000151604051611a0e9190613e44565b9081526040519081900360200190205460ff1615611a6c57888181518110611a4657634e487b7160e01b600052603260045260246000fd5b6020026020010151600001516040516314e6a03d60e11b8152600401610d599190613ed5565b60016101038a8381518110611a9157634e487b7160e01b600052603260045260246000fd5b602002602001015160000151604051611aaa9190613e44565b908152604051908190036020019020805491151560ff1990921691909117905560fb5489516001600160a01b03909116906322895118906801bc16d674ec800000908c9085908110611b0c57634e487b7160e01b600052603260045260246000fd5b6020026020010151600001518c8581518110611b3857634e487b7160e01b600052603260045260246000fd5b6020026020010151602001518d8681518110611b6457634e487b7160e01b600052603260045260246000fd5b6020026020010151604001518e8781518110611b9057634e487b7160e01b600052603260045260246000fd5b6020026020010151606001516040518663ffffffff1660e01b8152600401611bbb9493929190613ee8565b6000604051808303818588803b158015611bd457600080fd5b505af1158015611be8573d6000803e3d6000fd5b50505050508180611bf8906141bc565b925050888181518110611c1b57634e487b7160e01b600052603260045260246000fd5b602002602001015160000151604051611c349190613e44565b60405190819003812063ffffffff84168252907fd30c530f2d5e6c518f21d801360ff46849e74bf1cba98a64c7dbc741fc9b263a9060200160405180910390a2611c7d816141a1565b90506119c5565b50610101805463ffffffff191663ffffffff9290921691909117905550505050505050565b600080611cb584611d66565b905061102733848387612771565b606060378054610f5390614166565b60003381611ce0828661229d565b905083811015611d405760405162461bcd60e51b815260206004820152602560248201527f45524332303a2064656372656173656420616c6c6f77616e63652062656c6f77604482015264207a65726f60d81b6064820152608401610d59565b611d4d82868684036123f6565b506001949350505050565b600033610ff18185856125c6565b6000610f3e8260016123c3565b6000611d7e82611efd565b841115611dcd5760405162461bcd60e51b815260206004820152601f60248201527f455243343632363a207769746864726177206d6f7265207468616e206d6178006044820152606401610d59565b6000611dd885610ffb565b9050611de73385858885612ace565b949350505050565b6000611dfa8261227f565b841115611e495760405162461bcd60e51b815260206004820152601d60248201527f455243343632363a2072656465656d206d6f7265207468616e206d61780000006044820152606401610d59565b6000611e5485610fd6565b9050611de73385858489612ace565b60008051602061423c833981519152611e7b816123b6565b60fc54604051633701206b60e01b8152600481018490526001600160a01b0390911690633701206b90602401600060405180830381600087803b158015611ec157600080fd5b505af1158015611ed5573d6000803e3d6000fd5b505060fd546114e192506001600160a01b0316905083612bc7565b6000610f3e82600061251a565b6001600160a01b038116600090815260336020526040812054610f3e9060006123c3565b60008051602061423c833981519152611f39816123b6565b600062989680611f47610d8a565b611f519190614019565b905080831380611f685750611f65816141e0565b83125b15611f905760405163bcc1b4cf60e01b81526004810184905260248101829052604401610d59565b505061010055565b60008051602061423c833981519152611fb0816123b6565b6101025442811115611fde5760405163a966ca8960e01b815260048101829052426024820152604401610d59565b8380602001516001600160401b031681600001516001600160401b03161115612034578051602082015160405163a52a8b0d60e01b81526001600160401b03928316600482015291166024820152604401610d59565b6101055461205390600160381b90046001600160401b03166001613fee565b6001600160401b031681600001516001600160401b03161415801561208a575061010554600160381b90046001600160401b031615155b156120ca5780516101055460405163198b9e6760e11b81526001600160401b039283166004820152600160381b9091049091166024820152604401610d59565b60ff5460608601516040870151600091906120e59084613fd6565b6120ef919061410c565b905081811160008161210a57612105838561410c565b612114565b612114848461410c565b610105549091506000906121359065010000000000900461ffff1686614019565b90508082111561217057604051633a588a7960e11b815260048101869052602481018590526044810183905260648101829052608401610d59565b82156121c757610105546000906127109061219490610100900461ffff16856140bc565b61219e9190614019565b905060006121ab82611ef0565b60fe549091506121c4906001600160a01b031682612ce0565b50505b60ff8490556121d589611f21565b6040518481527f4d1b7ebdfd13eb13637b375375c66d848b00ed846f22df0039c8fb561f1cec9e9060200160405180910390a150505060209092015161010580546001600160401b03909216600160381b026effffffffffffffff000000000000001990921691909117905550612250905061384042613fd6565b6101025550505050565b600082815260c96020526040902060010154612275816123b6565b61106e8383612a4b565b6001600160a01b038116600090815260336020526040812054610f3e565b6001600160a01b03918216600090815260346020908152604080832093909416825291909152205490565b60fd5460405163fa14d48160e01b81523360048201526000916001600160a01b03169063fa14d48190602401604080518083038186803b15801561230b57600080fd5b505afa15801561231f573d6000803e3d6000fd5b505050506040513d601f19601f820116820180604052508101906123439190613dd4565b5090508060ff6000828254612358919061410c565b909155505060fd5460405163bf3b826b60e01b81523360048201526001600160a01b039091169063bf3b826b90602401600060405180830381600087803b1580156123a257600080fd5b505af1158015611630573d6000803e3d6000fd5b6123c08133612da1565b50565b6000806123cf60355490565b905080156123f0576123eb6123e2610d8a565b85908386612dfa565b611de7565b83611de7565b6001600160a01b0383166124585760405162461bcd60e51b8152602060048201526024808201527f45524332303a20617070726f76652066726f6d20746865207a65726f206164646044820152637265737360e01b6064820152608401610d59565b6001600160a01b0382166124b95760405162461bcd60e51b815260206004820152602260248201527f45524332303a20617070726f766520746f20746865207a65726f206164647265604482015261737360f01b6064820152608401610d59565b6001600160a01b0383811660008181526034602090815260408083209487168084529482529182902085905590518481527f8c5be1e5ebec7d5bd14f71427d1e84f3dd0314c0f7b2291e5b200ac8c7c3b925910160405180910390a3505050565b60008061252660355490565b9050831580612533575080155b6123f0576123eb81612543610d8a565b86919086612dfa565b6000612558848461229d565b905060001981146125c057818110156125b35760405162461bcd60e51b815260206004820152601d60248201527f45524332303a20696e73756666696369656e7420616c6c6f77616e63650000006044820152606401610d59565b6125c084848484036123f6565b50505050565b6001600160a01b03831661262a5760405162461bcd60e51b815260206004820152602560248201527f45524332303a207472616e736665722066726f6d20746865207a65726f206164604482015264647265737360d81b6064820152608401610d59565b6001600160a01b03821661268c5760405162461bcd60e51b815260206004820152602360248201527f45524332303a207472616e7366657220746f20746865207a65726f206164647260448201526265737360e81b6064820152608401610d59565b6001600160a01b038316600090815260336020526040902054818110156127045760405162461bcd60e51b815260206004820152602660248201527f45524332303a207472616e7366657220616d6f756e7420657863656564732062604482015265616c616e636560d01b6064820152608401610d59565b6001600160a01b0380851660008181526033602052604080822086860390559286168082529083902080548601905591517fddf252ad1be2c89b69c2b068fc378daa952ba7f163c4a11628f55a4df523b3ef906127649086815260200190565b60405180910390a36125c0565b6101055460ff1680156127955750336000908152610104602052604090205460ff16155b156127b557604051632e6eba8560e11b8152336004820152602401610d59565b6127be82612e73565b9150662386f26fc100008210156127f85760405163ea691a4b60e01b8152662386f26fc10000600482015260248101839052604401610d59565b6000806128058330612f0c565b9092509050612814828461410c565b9250612820818561410c565b93508215612832576128323084612ce0565b600061283e8484613fd6565b60fc549091506000906001600160a01b031633141561285e576000612885565b610105546127109061287b906301000000900461ffff16846140bc565b6128859190614019565b90506000612893828461410c565b90508660ff60008282546128a79190613fd6565b909155505081156128ca5760fe546128ca9030906001600160a01b0316846125c6565b6128d53089836125c6565b6001600160a01b03808916908a167fdcbc1c05240f31ff3ad067ef1ee35ce4997762752e3a095284754544f4c709d761290e878b613fd6565b612918898b613fd6565b6040805192835260208301919091520160405180910390a3505050505050505050565b6129458282611821565b6114e157600082815260c9602090815260408083206001600160a01b03851684529091529020805460ff1916600117905561297d3390565b6001600160a01b0316816001600160a01b0316837f2f8788117e7eff1d82e926ec794901d17c78024a50270940304540a733656f0d60405160405180910390a45050565b600054610100900460ff166129e85760405162461bcd60e51b8152600401610d5990613f33565b6123c081613001565b600054610100900460ff16612a185760405162461bcd60e51b8152600401610d5990613f33565b6114e18282613086565b600054610100900460ff16612a495760405162461bcd60e51b8152600401610d5990613f33565b565b612a558282611821565b156114e157600082815260c9602090815260408083206001600160a01b0385168085529252808320805460ff1916905551339285917ff6391f5c32d9c69d2a47ea670b442974b53935d1edc7fd64eb21e047a839171b9190a45050565b600080612abd610d8a565b1180612ac95750603554155b905090565b826001600160a01b0316856001600160a01b031614612af257612af283868361254c565b612afc83826130d4565b60fd54604051631998287760e31b8152600481018490523360248201526001600160a01b039091169063ccc143b890604401600060405180830381600087803b158015612b4857600080fd5b505af1158015612b5c573d6000803e3d6000fd5b50505050826001600160a01b0316846001600160a01b0316866001600160a01b03167ffbde797d201c681b91056529119e0b02407c7bb96a4a2c75c01fc9667232c8db8585604051612bb8929190918252602082015260400190565b60405180910390a45050505050565b80471015612c175760405162461bcd60e51b815260206004820152601d60248201527f416464726573733a20696e73756666696369656e742062616c616e63650000006044820152606401610d59565b6000826001600160a01b03168260405160006040518083038185875af1925050503d8060008114612c64576040519150601f19603f3d011682016040523d82523d6000602084013e612c69565b606091505b505090508061106e5760405162461bcd60e51b815260206004820152603a60248201527f416464726573733a20756e61626c6520746f2073656e642076616c75652c207260448201527f6563697069656e74206d617920686176652072657665727465640000000000006064820152608401610d59565b6001600160a01b038216612d365760405162461bcd60e51b815260206004820152601f60248201527f45524332303a206d696e7420746f20746865207a65726f2061646472657373006044820152606401610d59565b8060356000828254612d489190613fd6565b90915550506001600160a01b0382166000818152603360209081526040808320805486019055518481527fddf252ad1be2c89b69c2b068fc378daa952ba7f163c4a11628f55a4df523b3ef910160405180910390a35050565b612dab8282611821565b6114e157612db881613208565b612dc383602061321a565b604051602001612dd4929190613e60565b60408051601f198184030181529082905262461bcd60e51b8252610d5991600401613ed5565b600080612e088686866133fb565b90506001836002811115612e2c57634e487b7160e01b600052602160045260246000fd5b148015612e57575060008480612e5257634e487b7160e01b600052601260045260246000fd5b868809115b15612e6a57612e67600182613fd6565b90505b95945050505050565b600081612e81573491505090565b612eaa333084612e996065546001600160a01b031690565b6001600160a01b03169291906134b9565b606554604051632e1a7d4d60e01b8152600481018490526001600160a01b0390911690632e1a7d4d90602401600060405180830381600087803b158015612ef057600080fd5b505af1158015612f04573d6000803e3d6000fd5b505050505090565b60fc5460009081906001600160a01b03163314612ffa5760fc546001600160a01b0316600090815260336020526040902054612f489085613513565b91508115612ffa57612f5982611d66565b60fc546040516361f4627d60e11b81526001600160a01b03868116600483015292935084929091169063c3e8c4fa9084906024016020604051808303818588803b158015612fa657600080fd5b505af1158015612fba573d6000803e3d6000fd5b50505050506040513d601f19601f82011682018060405250810190612fdf9190613d7b565b14612ffa57634e487b7160e01b600052600160045260246000fd5b9250929050565b600054610100900460ff166130285760405162461bcd60e51b8152600401610d5990613f33565b60008061303483613529565b9150915081613044576012613046565b805b606580546001600160a01b039095166001600160a01b031960ff93909316600160a01b02929092166001600160a81b031990951694909417179092555050565b600054610100900460ff166130ad5760405162461bcd60e51b8152600401610d5990613f33565b81516130c09060369060208501906137f7565b50805161106e9060379060208401906137f7565b6001600160a01b0382166131345760405162461bcd60e51b815260206004820152602160248201527f45524332303a206275726e2066726f6d20746865207a65726f206164647265736044820152607360f81b6064820152608401610d59565b6001600160a01b038216600090815260336020526040902054818110156131a85760405162461bcd60e51b815260206004820152602260248201527f45524332303a206275726e20616d6f756e7420657863656564732062616c616e604482015261636560f01b6064820152608401610d59565b6001600160a01b03831660008181526033602090815260408083208686039055603580548790039055518581529192917fddf252ad1be2c89b69c2b068fc378daa952ba7f163c4a11628f55a4df523b3ef910160405180910390a3505050565b6060610f3e6001600160a01b03831660145b606060006132298360026140bc565b613234906002613fd6565b6001600160401b0381111561325957634e487b7160e01b600052604160045260246000fd5b6040519080825280601f01601f191660200182016040528015613283576020820181803683370190505b509050600360fc1b816000815181106132ac57634e487b7160e01b600052603260045260246000fd5b60200101906001600160f81b031916908160001a905350600f60fb1b816001815181106132e957634e487b7160e01b600052603260045260246000fd5b60200101906001600160f81b031916908160001a905350600061330d8460026140bc565b613318906001613fd6565b90505b60018111156133ac576f181899199a1a9b1b9c1cb0b131b232b360811b85600f166010811061335a57634e487b7160e01b600052603260045260246000fd5b1a60f81b82828151811061337e57634e487b7160e01b600052603260045260246000fd5b60200101906001600160f81b031916908160001a90535060049490941c936133a58161414f565b905061331b565b5083156110275760405162461bcd60e51b815260206004820181905260248201527f537472696e67733a20686578206c656e67746820696e73756666696369656e746044820152606401610d59565b6000808060001985870985870292508281108382030391505080600014156134445783828161343a57634e487b7160e01b600052601260045260246000fd5b0492505050611027565b80841161345057600080fd5b60008486880960026001871981018816978890046003810283188082028403028082028403028082028403028082028403028082028403029081029092039091026000889003889004909101858311909403939093029303949094049190911702949350505050565b604080516001600160a01b0385811660248301528416604482015260648082018490528251808303909101815260849091019091526020810180516001600160e01b03166323b872dd60e01b1790526125c0908590613605565b60008183106135225781611027565b5090919050565b60408051600481526024810182526020810180516001600160e01b031663313ce56760e01b17905290516000918291829182916001600160a01b0387169161357091613e44565b600060405180830381855afa9150503d80600081146135ab576040519150601f19603f3d011682016040523d82523d6000602084013e6135b0565b606091505b50915091508180156135c457506020815110155b156135f8576000818060200190518101906135df9190613d7b565b905060ff81116135f6576001969095509350505050565b505b5060009485945092505050565b600061365a826040518060400160405280602081526020017f5361666545524332303a206c6f772d6c6576656c2063616c6c206661696c6564815250856001600160a01b03166136d79092919063ffffffff16565b80519091501561106e57808060200190518101906136789190613c3d565b61106e5760405162461bcd60e51b815260206004820152602a60248201527f5361666545524332303a204552433230206f7065726174696f6e20646964206e6044820152691bdd081cdd58d8d9595960b21b6064820152608401610d59565b6060611de7848460008585600080866001600160a01b031685876040516136fe9190613e44565b60006040518083038185875af1925050503d806000811461373b576040519150601f19603f3d011682016040523d82523d6000602084013e613740565b606091505b50915091506137518783838761375c565b979650505050505050565b606083156137c85782516137c1576001600160a01b0385163b6137c15760405162461bcd60e51b815260206004820152601d60248201527f416464726573733a2063616c6c20746f206e6f6e2d636f6e74726163740000006044820152606401610d59565b5081611de7565b611de783838151156137dd5781518083602001fd5b8060405162461bcd60e51b8152600401610d599190613ed5565b82805461380390614166565b90600052602060002090601f016020900481019282613825576000855561386b565b82601f1061383e57805160ff191683800117855561386b565b8280016001018555821561386b579182015b8281111561386b578251825591602001919060010190613850565b50610f099291505b80821115610f095760008155600101613873565b600082601f830112613897578081fd5b81356001600160401b038111156138b0576138b0614210565b6138c3601f8201601f1916602001613fa6565b8181528460208386010111156138d7578283fd5b816020850160208301379081016020019190915292915050565b600060808284031215613902578081fd5b61390a613f7e565b905081356001600160401b038082111561392357600080fd5b61392f85838601613887565b8352602084013591508082111561394557600080fd5b61395185838601613887565b6020840152604084013591508082111561396a57600080fd5b5061397784828501613887565b6040830152506060820135606082015292915050565b80356001600160401b03811681146139a457600080fd5b919050565b6000602082840312156139ba578081fd5b813561102781614226565b600080604083850312156139d7578081fd5b82356139e281614226565b915060208301356139f281614226565b809150509250929050565b600080600080600080600060e0888a031215613a17578283fd5b8735613a2281614226565b96506020880135613a3281614226565b95506040880135613a4281614226565b94506060880135613a5281614226565b93506080880135613a6281614226565b925060a0880135613a7281614226565b915060c0880135613a8281614226565b8091505092959891949750929550565b600080600060608486031215613aa6578283fd5b8335613ab181614226565b92506020840135613ac181614226565b929592945050506040919091013590565b60008060408385031215613ae4578182fd5b8235613aef81614226565b946020939093013593505050565b60008060208385031215613b0f578182fd5b82356001600160401b0380821115613b25578384fd5b818501915085601f830112613b38578384fd5b813581811115613b46578485fd5b8660208260051b8501011115613b5a578485fd5b60209290920196919550909350505050565b600080600060608486031215613b80578081fd5b83356001600160401b0380821115613b96578283fd5b818601915086601f830112613ba9578283fd5b8135602082821115613bbd57613bbd614210565b8160051b613bcc828201613fa6565b8381528281019086840183880185018d1015613be6578889fd5b8893505b85841015613c2357803587811115613c0057898afd5b613c0e8e87838c01016138f1565b84525060019390930192918401918401613bea565b509b928a01359a5050506040909701359695505050505050565b600060208284031215613c4e578081fd5b81518015158114611027578182fd5b600060208284031215613c6e578081fd5b5035919050565b60008060408385031215613c87578182fd5b8235915060208301356139f281614226565b600060208284031215613caa578081fd5b81356001600160e01b031981168114611027578182fd5b600060208284031215613cd2578081fd5b81356001600160401b03811115613ce7578182fd5b611de784828501613887565b60008082840360a0811215613d06578283fd5b6080811215613d13578283fd5b50613d1c613f7e565b613d258461398d565b8152613d336020850161398d565b602082015260408481013590820152606080850135908201529460809093013593505050565b600060208284031215613d6a578081fd5b813561ffff81168114611027578182fd5b600060208284031215613d8c578081fd5b5051919050565b600080600060608486031215613da7578081fd5b833592506020840135613db981614226565b91506040840135613dc981614226565b809150509250925092565b60008060408385031215613de6578182fd5b505080516020909101519092909150565b600060208284031215613e08578081fd5b815160ff81168114611027578182fd5b60008151808452613e30816020860160208601614123565b601f01601f19169290920160200192915050565b60008251613e56818460208701614123565b9190910192915050565b7f416363657373436f6e74726f6c3a206163636f756e7420000000000000000000815260008351613e98816017850160208801614123565b7001034b99036b4b9b9b4b733903937b6329607d1b6017918401918201528351613ec9816028840160208801614123565b01602801949350505050565b6020815260006110276020830184613e18565b608081526000613efb6080830187613e18565b8281036020840152613f0d8187613e18565b90508281036040840152613f218186613e18565b91505082606083015295945050505050565b6020808252602b908201527f496e697469616c697a61626c653a20636f6e7472616374206973206e6f74206960408201526a6e697469616c697a696e6760a81b606082015260800190565b604051608081016001600160401b0381118282101715613fa057613fa0614210565b60405290565b604051601f8201601f191681016001600160401b0381118282101715613fce57613fce614210565b604052919050565b60008219821115613fe957613fe96141fa565b500190565b60006001600160401b03808316818516808303821115614010576140106141fa565b01949350505050565b60008261403457634e487b7160e01b81526012600452602481fd5b500490565b60006001600160ff1b038184138284138082168684048611161561405f5761405f6141fa565b600160ff1b8487128281168783058912161561407d5761407d6141fa565b858712925087820587128484161615614098576140986141fa565b878505871281841616156140ae576140ae6141fa565b505050929093029392505050565b60008160001904831182151516156140d6576140d66141fa565b500290565b600068ffffffffffffffffff80831681851681830481118215151615614103576141036141fa565b02949350505050565b60008282101561411e5761411e6141fa565b500390565b60005b8381101561413e578181015183820152602001614126565b838111156125c05750506000910152565b60008161415e5761415e6141fa565b506000190190565b600181811c9082168061417a57607f821691505b6020821081141561419b57634e487b7160e01b600052602260045260246000fd5b50919050565b60006000198214156141b5576141b56141fa565b5060010190565b600063ffffffff808316818114156141d6576141d66141fa565b6001019392505050565b6000600160ff1b8214156141f6576141f66141fa565b0390565b634e487b7160e01b600052601160045260246000fd5b634e487b7160e01b600052604160045260246000fd5b6001600160a01b03811681146123c057600080fdfe73e573f9566d61418a34d5de3ff49360f9c51fec37f7486551670290f6285daba2646970667358221220f1e08f156053f3ab308fef7e6313f6a110d8de096a4a55bb3abe8eb6725b48f464736f6c63430008040033",
  "linkReferences": {},
  "deployedLinkReferences": {}
}