{
  "_format": "hh-sol-artifact-1",
  "contractName": "Withdrawal",
  "sourceName": "contracts/Withdrawal.sol",
  "abi": [
    {
      "inputs": [
        {
          "internalType": "uint256",
          "name": "_currentEpoch",
          "type": "uint256"
        },
        {
          "internalType": "uint256",
          "name": "_unlockEpoch",
          "type": "uint256"
        }
      ],
      "name": "EpochNotReached",
      "type": "error"
    },
    {
      "inputs": [
        {
          "internalType": "address",
          "name": "_caller",
          "type": "address"
        },
        {
          "internalType": "address",
          "name": "_authorized",
          "type": "address"
        }
      ],
      "name": "NotAuthorized",
      "type": "error"
    },
    {
      "inputs": [
        {
          "internalType": "uint256",
          "name": "_requested",
          "type": "uint256"
        },
        {
          "internalType": "uint256",
          "name": "_available",
          "type": "uint256"
        }
      ],
      "name": "NotEnoughETHtoStake",
      "type": "error"
    },
    {
      "inputs": [
        {
          "internalType": "address",
          "name": "_user",
          "type": "address"
        }
      ],
      "name": "UserDontHavePendingWithdraw",
      "type": "error"
    },
    {
      "anonymous": false,
      "inputs": [
        {
          "indexed": true,
          "internalType": "address",
          "name": "user",
          "type": "address"
        },
        {
          "indexed": false,
          "internalType": "uint256",
          "name": "amount",
          "type": "uint256"
        },
        {
          "indexed": false,
          "internalType": "uint256",
          "name": "unlockEpoch",
          "type": "uint256"
        }
      ],
      "name": "CompleteWithdraw",
      "type": "event"
    },
    {
      "anonymous": false,
      "inputs": [
        {
          "indexed": false,
          "internalType": "uint8",
          "name": "version",
          "type": "uint8"
        }
      ],
      "name": "Initialized",
      "type": "event"
    },
    {
      "anonymous": false,
      "inputs": [
        {
          "indexed": true,
          "internalType": "address",
          "name": "previousOwner",
          "type": "address"
        },
        {
          "indexed": true,
          "internalType": "address",
          "name": "newOwner",
          "type": "address"
        }
      ],
      "name": "OwnershipTransferred",
      "type": "event"
    },
    {
      "anonymous": false,
      "inputs": [
        {
          "indexed": true,
          "internalType": "address",
          "name": "user",
          "type": "address"
        },
        {
          "indexed": false,
          "internalType": "uint256",
          "name": "amount",
          "type": "uint256"
        },
        {
          "indexed": false,
          "internalType": "uint256",
          "name": "unlockEpoch",
          "type": "uint256"
        }
      ],
      "name": "RequestWithdraw",
      "type": "event"
    },
    {
      "inputs": [
        {
          "internalType": "address",
          "name": "_user",
          "type": "address"
        }
      ],
      "name": "completeWithdraw",
      "outputs": [],
      "stateMutability": "nonpayable",
      "type": "function"
    },
    {
      "inputs": [],
      "name": "getEpoch",
      "outputs": [
        {
          "internalType": "uint256",
          "name": "epoch",
          "type": "uint256"
        }
      ],
      "stateMutability": "view",
      "type": "function"
    },
    {
      "inputs": [],
      "name": "getEpochTimeLeft",
      "outputs": [
        {
          "internalType": "uint256",
          "name": "",
          "type": "uint256"
        }
      ],
      "stateMutability": "view",
      "type": "function"
    },
    {
      "inputs": [
        {
          "internalType": "uint256",
          "name": "_amount",
          "type": "uint256"
        }
      ],
      "name": "getEthForValidator",
      "outputs": [],
      "stateMutability": "nonpayable",
      "type": "function"
    },
    {
      "inputs": [
        {
          "internalType": "address payable",
          "name": "_mpETH",
          "type": "address"
        }
      ],
      "name": "initialize",
      "outputs": [],
      "stateMutability": "nonpayable",
      "type": "function"
    },
    {
      "inputs": [],
      "name": "mpETH",
      "outputs": [
        {
          "internalType": "address payable",
          "name": "",
          "type": "address"
        }
      ],
      "stateMutability": "view",
      "type": "function"
    },
    {
      "inputs": [],
      "name": "owner",
      "outputs": [
        {
          "internalType": "address",
          "name": "",
          "type": "address"
        }
      ],
      "stateMutability": "view",
      "type": "function"
    },
    {
      "inputs": [
        {
          "internalType": "address",
          "name": "",
          "type": "address"
        }
      ],
      "name": "pendingWithdraws",
      "outputs": [
        {
          "internalType": "uint256",
          "name": "amount",
          "type": "uint256"
        },
        {
          "internalType": "uint256",
          "name": "unlockEpoch",
          "type": "uint256"
        }
      ],
      "stateMutability": "view",
      "type": "function"
    },
    {
      "inputs": [],
      "name": "renounceOwnership",
      "outputs": [],
      "stateMutability": "nonpayable",
      "type": "function"
    },
    {
      "inputs": [
        {
          "internalType": "uint256",
          "name": "_amountOut",
          "type": "uint256"
        },
        {
          "internalType": "address",
          "name": "_user",
          "type": "address"
        }
      ],
      "name": "requestWithdraw",
      "outputs": [],
      "stateMutability": "nonpayable",
      "type": "function"
    },
    {
      "inputs": [],
      "name": "startTimestamp",
      "outputs": [
        {
          "internalType": "uint256",
          "name": "",
          "type": "uint256"
        }
      ],
      "stateMutability": "view",
      "type": "function"
    },
    {
      "inputs": [],
      "name": "totalPendingWithdraw",
      "outputs": [
        {
          "internalType": "uint256",
          "name": "",
          "type": "uint256"
        }
      ],
      "stateMutability": "view",
      "type": "function"
    },
    {
      "inputs": [
        {
          "internalType": "address",
          "name": "newOwner",
          "type": "address"
        }
      ],
      "name": "transferOwnership",
      "outputs": [],
      "stateMutability": "nonpayable",
      "type": "function"
    },
    {
      "stateMutability": "payable",
      "type": "receive"
    }
  ],
  "bytecode": "0x608060405234801561001057600080fd5b50610b8b806100206000396000f3fe6080604052600436106100c65760003560e01c8063bf3b826b1161007f578063e6fd48bc11610059578063e6fd48bc146101fc578063f2fde38b14610212578063f7fc700214610232578063fa14d4811461024857600080fd5b8063bf3b826b1461019c578063c4d66de8146101bc578063ccc143b8146101dc57600080fd5b80633701206b146100d2578063405657f9146100f4578063715018a614610131578063750f0ba614610146578063757991a8146101695780638da5cb5b1461017e57600080fd5b366100cd57005b600080fd5b3480156100de57600080fd5b506100f26100ed366004610a2a565b610291565b005b34801561010057600080fd5b50606554610114906001600160a01b031681565b6040516001600160a01b0390911681526020015b60405180910390f35b34801561013d57600080fd5b506100f261035a565b34801561015257600080fd5b5061015b61036e565b604051908152602001610128565b34801561017557600080fd5b5061015b6103ad565b34801561018a57600080fd5b506033546001600160a01b0316610114565b3480156101a857600080fd5b506100f26101b7366004610a07565b6103cb565b3480156101c857600080fd5b506100f26101d7366004610a07565b610535565b3480156101e857600080fd5b506100f26101f7366004610a42565b610665565b34801561020857600080fd5b5061015b60675481565b34801561021e57600080fd5b506100f261022d366004610a07565b61076a565b34801561023e57600080fd5b5061015b60665481565b34801561025457600080fd5b5061027c610263366004610a07565b6068602052600090815260409020805460019091015482565b60408051928352602083019190915201610128565b6065546001600160a01b031633146102d65760655460405163c55ddc9760e01b81523360048201526001600160a01b0390911660248201526044015b60405180910390fd5b47606654111561030357604051631cd24c3160e11b815260048101829052600060248201526044016102cd565b6000606654476103139190610b13565b90508082111561034057604051631cd24c3160e11b815260048101839052602481018290526044016102cd565b606554610356906001600160a01b0316836107e3565b5050565b610362610901565b61036c600061095b565b565b6000426103796103ad565b610384906001610abc565b6103919062093a80610af4565b60675461039e9190610abc565b6103a89190610b13565b905090565b600062093a80606754426103c19190610b13565b6103a89190610ad4565b6065546001600160a01b0316331461040b5760655460405163c55ddc9760e01b81523360048201526001600160a01b0390911660248201526044016102cd565b6001600160a01b038116600090815260686020908152604091829020825180840190935280548352600101549082018190526104456103ad565b101561047a576104536103ad565b6020820151604051635415feb760e11b8152600481019290925260248201526044016102cd565b80516104a457604051632285814f60e01b81526001600160a01b03831660048201526024016102cd565b8051606680546000906104b8908490610b13565b90915550506001600160a01b03821660008181526068602052604081208181556001015581516104e891906107e3565b805160208083015160408051938452918301526001600160a01b038416917fa7952fcf1aa05ca494ca81b36018d749ac933a4f76e87ccdcd31cc6a202a785e910160405180910390a25050565b600054610100900460ff16158080156105555750600054600160ff909116105b8061056f5750303b15801561056f575060005460ff166001145b6105d25760405162461bcd60e51b815260206004820152602e60248201527f496e697469616c697a61626c653a20636f6e747261637420697320616c72656160448201526d191e481a5b9a5d1a585b1a5e995960921b60648201526084016102cd565b6000805460ff1916600117905580156105f5576000805461ff0019166101001790555b6105fd6109ad565b42606755606580546001600160a01b0319166001600160a01b0384161790558015610356576000805461ff0019169055604051600181527f7f26b83ff96e1f2b6a682f133852f6798a09c465da95921460cefb38474024989060200160405180910390a15050565b6065546001600160a01b031633146106a55760655460405163c55ddc9760e01b81523360048201526001600160a01b0390911660248201526044016102cd565b60006106af6103ad565b6106ba906001610abc565b6001600160a01b0383166000908152606860205260408120805492935085929091906106e7908490610abc565b90915550506001600160a01b03821660009081526068602052604081206001018290556066805485929061071c908490610abc565b909155505060408051848152602081018390526001600160a01b038416917febeaa8785285a4f7c37a305351997dceebabc3c357dab98023dc37514a1b6ed6910160405180910390a2505050565b610772610901565b6001600160a01b0381166107d75760405162461bcd60e51b815260206004820152602660248201527f4f776e61626c653a206e6577206f776e657220697320746865207a65726f206160448201526564647265737360d01b60648201526084016102cd565b6107e08161095b565b50565b804710156108335760405162461bcd60e51b815260206004820152601d60248201527f416464726573733a20696e73756666696369656e742062616c616e636500000060448201526064016102cd565b6000826001600160a01b03168260405160006040518083038185875af1925050503d8060008114610880576040519150601f19603f3d011682016040523d82523d6000602084013e610885565b606091505b50509050806108fc5760405162461bcd60e51b815260206004820152603a60248201527f416464726573733a20756e61626c6520746f2073656e642076616c75652c207260448201527f6563697069656e74206d6179206861766520726576657274656400000000000060648201526084016102cd565b505050565b6033546001600160a01b0316331461036c5760405162461bcd60e51b815260206004820181905260248201527f4f776e61626c653a2063616c6c6572206973206e6f7420746865206f776e657260448201526064016102cd565b603380546001600160a01b038381166001600160a01b0319831681179093556040519116919082907f8be0079c531659141344cd1fd0a4f28419497f9722a3daafe3b4186f6b6457e090600090a35050565b600054610100900460ff166109d45760405162461bcd60e51b81526004016102cd90610a71565b61036c600054610100900460ff166109fe5760405162461bcd60e51b81526004016102cd90610a71565b61036c3361095b565b600060208284031215610a18578081fd5b8135610a2381610b40565b9392505050565b600060208284031215610a3b578081fd5b5035919050565b60008060408385031215610a54578081fd5b823591506020830135610a6681610b40565b809150509250929050565b6020808252602b908201527f496e697469616c697a61626c653a20636f6e7472616374206973206e6f74206960408201526a6e697469616c697a696e6760a81b606082015260800190565b60008219821115610acf57610acf610b2a565b500190565b600082610aef57634e487b7160e01b81526012600452602481fd5b500490565b6000816000190483118215151615610b0e57610b0e610b2a565b500290565b600082821015610b2557610b25610b2a565b500390565b634e487b7160e01b600052601160045260246000fd5b6001600160a01b03811681146107e057600080fdfea26469706673582212202b164a4ef12c9c2bb5a9c7206ae18a8ffa8873d19848be987cd3eec20210699f64736f6c63430008040033",
  "linkReferences": {},
  "deployedLinkReferences": {}
}