{
  "_format": "hh-sol-artifact-1",
  "contractName": "Withdrawal",
  "sourceName": "contracts/Withdrawal.sol",
  "abi": [
    {
      "inputs": [
        {
          "internalType": "uint256",
          "name": "_currentEpoch",
          "type": "uint256"
        },
        {
          "internalType": "uint256",
          "name": "_unlockEpoch",
          "type": "uint256"
        }
      ],
      "name": "EpochNotReached",
      "type": "error"
    },
    {
      "inputs": [
        {
          "internalType": "address",
          "name": "_caller",
          "type": "address"
        },
        {
          "internalType": "address",
          "name": "_authorized",
          "type": "address"
        }
      ],
      "name": "NotAuthorized",
      "type": "error"
    },
    {
      "inputs": [
        {
          "internalType": "uint256",
          "name": "_requested",
          "type": "uint256"
        },
        {
          "internalType": "uint256",
          "name": "_available",
          "type": "uint256"
        }
      ],
      "name": "NotEnoughETHtoStake",
      "type": "error"
    },
    {
      "inputs": [
        {
          "internalType": "address",
          "name": "_user",
          "type": "address"
        }
      ],
      "name": "UserDontHavePendingWithdraw",
      "type": "error"
    },
    {
      "anonymous": false,
      "inputs": [
        {
          "indexed": true,
          "internalType": "address",
          "name": "user",
          "type": "address"
        },
        {
          "indexed": false,
          "internalType": "uint256",
          "name": "amount",
          "type": "uint256"
        },
        {
          "indexed": false,
          "internalType": "uint256",
          "name": "unlockEpoch",
          "type": "uint256"
        }
      ],
      "name": "CompleteWithdraw",
      "type": "event"
    },
    {
      "anonymous": false,
      "inputs": [
        {
          "indexed": false,
          "internalType": "uint8",
          "name": "version",
          "type": "uint8"
        }
      ],
      "name": "Initialized",
      "type": "event"
    },
    {
      "anonymous": false,
      "inputs": [
        {
          "indexed": true,
          "internalType": "address",
          "name": "previousOwner",
          "type": "address"
        },
        {
          "indexed": true,
          "internalType": "address",
          "name": "newOwner",
          "type": "address"
        }
      ],
      "name": "OwnershipTransferred",
      "type": "event"
    },
    {
      "anonymous": false,
      "inputs": [
        {
          "indexed": true,
          "internalType": "address",
          "name": "user",
          "type": "address"
        },
        {
          "indexed": false,
          "internalType": "uint256",
          "name": "amount",
          "type": "uint256"
        },
        {
          "indexed": false,
          "internalType": "uint256",
          "name": "unlockEpoch",
          "type": "uint256"
        }
      ],
      "name": "RequestWithdraw",
      "type": "event"
    },
    {
      "inputs": [
        {
          "internalType": "address",
          "name": "_user",
          "type": "address"
        }
      ],
      "name": "completeWithdraw",
      "outputs": [],
      "stateMutability": "nonpayable",
      "type": "function"
    },
    {
      "inputs": [],
      "name": "ethRemaining",
      "outputs": [
        {
          "internalType": "uint256",
          "name": "",
          "type": "uint256"
        }
      ],
      "stateMutability": "view",
      "type": "function"
    },
    {
      "inputs": [],
      "name": "getEpoch",
      "outputs": [
        {
          "internalType": "uint256",
          "name": "epoch",
          "type": "uint256"
        }
      ],
      "stateMutability": "view",
      "type": "function"
    },
    {
      "inputs": [],
      "name": "getEpochTimeLeft",
      "outputs": [
        {
          "internalType": "uint256",
          "name": "",
          "type": "uint256"
        }
      ],
      "stateMutability": "view",
      "type": "function"
    },
    {
      "inputs": [
        {
          "internalType": "uint256",
          "name": "_amount",
          "type": "uint256"
        }
      ],
      "name": "getEthForValidator",
      "outputs": [],
      "stateMutability": "nonpayable",
      "type": "function"
    },
    {
      "inputs": [
        {
          "internalType": "address payable",
          "name": "_mpETH",
          "type": "address"
        }
      ],
      "name": "initialize",
      "outputs": [],
      "stateMutability": "nonpayable",
      "type": "function"
    },
    {
      "inputs": [],
      "name": "mpETH",
      "outputs": [
        {
          "internalType": "address payable",
          "name": "",
          "type": "address"
        }
      ],
      "stateMutability": "view",
      "type": "function"
    },
    {
      "inputs": [],
      "name": "owner",
      "outputs": [
        {
          "internalType": "address",
          "name": "",
          "type": "address"
        }
      ],
      "stateMutability": "view",
      "type": "function"
    },
    {
      "inputs": [
        {
          "internalType": "address",
          "name": "",
          "type": "address"
        }
      ],
      "name": "pendingWithdraws",
      "outputs": [
        {
          "internalType": "uint256",
          "name": "amount",
          "type": "uint256"
        },
        {
          "internalType": "uint256",
          "name": "unlockEpoch",
          "type": "uint256"
        }
      ],
      "stateMutability": "view",
      "type": "function"
    },
    {
      "inputs": [],
      "name": "renounceOwnership",
      "outputs": [],
      "stateMutability": "nonpayable",
      "type": "function"
    },
    {
      "inputs": [
        {
          "internalType": "uint256",
          "name": "_amountOut",
          "type": "uint256"
        },
        {
          "internalType": "address",
          "name": "_user",
          "type": "address"
        }
      ],
      "name": "requestWithdraw",
      "outputs": [],
      "stateMutability": "nonpayable",
      "type": "function"
    },
    {
      "inputs": [],
      "name": "startTimestamp",
      "outputs": [
        {
          "internalType": "uint256",
          "name": "",
          "type": "uint256"
        }
      ],
      "stateMutability": "view",
      "type": "function"
    },
    {
      "inputs": [],
      "name": "totalPendingWithdraw",
      "outputs": [
        {
          "internalType": "uint256",
          "name": "",
          "type": "uint256"
        }
      ],
      "stateMutability": "view",
      "type": "function"
    },
    {
      "inputs": [
        {
          "internalType": "address",
          "name": "newOwner",
          "type": "address"
        }
      ],
      "name": "transferOwnership",
      "outputs": [],
      "stateMutability": "nonpayable",
      "type": "function"
    },
    {
      "stateMutability": "payable",
      "type": "receive"
    }
  ],
  "bytecode": "0x608060405234801561001057600080fd5b50610ba6806100206000396000f3fe6080604052600436106100e15760003560e01c8063bf3b826b1161007f578063e6fd48bc11610059578063e6fd48bc1461022c578063f2fde38b14610242578063f7fc700214610262578063fa14d4811461027857600080fd5b8063bf3b826b146101cc578063c4d66de8146101ec578063ccc143b81461020c57600080fd5b8063715018a6116100bb578063715018a61461016f578063750f0ba614610184578063757991a8146101995780638da5cb5b146101ae57600080fd5b80633701206b146100ed578063405657f91461010f5780634c67a4291461014c57600080fd5b366100e857005b600080fd5b3480156100f957600080fd5b5061010d610108366004610a45565b6102c1565b005b34801561011b57600080fd5b5060655461012f906001600160a01b031681565b6040516001600160a01b0390911681526020015b60405180910390f35b34801561015857600080fd5b50610161610359565b604051908152602001610143565b34801561017b57600080fd5b5061010d61037c565b34801561019057600080fd5b50610161610390565b3480156101a557600080fd5b506101616103ca565b3480156101ba57600080fd5b506033546001600160a01b031661012f565b3480156101d857600080fd5b5061010d6101e7366004610a22565b6103e8565b3480156101f857600080fd5b5061010d610207366004610a22565b610552565b34801561021857600080fd5b5061010d610227366004610a5d565b610683565b34801561023857600080fd5b5061016160675481565b34801561024e57600080fd5b5061010d61025d366004610a22565b610788565b34801561026e57600080fd5b5061016160665481565b34801561028457600080fd5b506102ac610293366004610a22565b6068602052600090815260409020805460019091015482565b60408051928352602083019190915201610143565b6065546001600160a01b031633146103065760655460405163c55ddc9760e01b81523360048201526001600160a01b0390911660248201526044015b60405180910390fd5b61030e610359565b811115610340578061031e610359565b604051631cd24c3160e11b8152600481019290925260248201526044016102fd565b606554610356906001600160a01b0316826107fe565b50565b6000606654471161036a5750600090565b6066546103779047610b2e565b905090565b61038461091c565b61038e6000610976565b565b60004261039b6103ca565b6103a6906001610ad7565b6103b39062093a80610b0f565b6067546103c09190610ad7565b6103779190610b2e565b600062093a80606754426103de9190610b2e565b6103779190610aef565b6065546001600160a01b031633146104285760655460405163c55ddc9760e01b81523360048201526001600160a01b0390911660248201526044016102fd565b6001600160a01b038116600090815260686020908152604091829020825180840190935280548352600101549082018190526104626103ca565b1015610497576104706103ca565b6020820151604051635415feb760e11b8152600481019290925260248201526044016102fd565b80516104c157604051632285814f60e01b81526001600160a01b03831660048201526024016102fd565b8051606680546000906104d5908490610b2e565b90915550506001600160a01b038216600081815260686020526040812081815560010155815161050591906107fe565b805160208083015160408051938452918301526001600160a01b038416917fa7952fcf1aa05ca494ca81b36018d749ac933a4f76e87ccdcd31cc6a202a785e910160405180910390a25050565b600054610100900460ff16158080156105725750600054600160ff909116105b8061058c5750303b15801561058c575060005460ff166001145b6105ef5760405162461bcd60e51b815260206004820152602e60248201527f496e697469616c697a61626c653a20636f6e747261637420697320616c72656160448201526d191e481a5b9a5d1a585b1a5e995960921b60648201526084016102fd565b6000805460ff191660011790558015610612576000805461ff0019166101001790555b61061a6109c8565b42606755606580546001600160a01b0319166001600160a01b038416179055801561067f576000805461ff0019169055604051600181527f7f26b83ff96e1f2b6a682f133852f6798a09c465da95921460cefb38474024989060200160405180910390a15b5050565b6065546001600160a01b031633146106c35760655460405163c55ddc9760e01b81523360048201526001600160a01b0390911660248201526044016102fd565b60006106cd6103ca565b6106d8906001610ad7565b6001600160a01b038316600090815260686020526040812080549293508592909190610705908490610ad7565b90915550506001600160a01b03821660009081526068602052604081206001018290556066805485929061073a908490610ad7565b909155505060408051848152602081018390526001600160a01b038416917febeaa8785285a4f7c37a305351997dceebabc3c357dab98023dc37514a1b6ed6910160405180910390a2505050565b61079061091c565b6001600160a01b0381166107f55760405162461bcd60e51b815260206004820152602660248201527f4f776e61626c653a206e6577206f776e657220697320746865207a65726f206160448201526564647265737360d01b60648201526084016102fd565b61035681610976565b8047101561084e5760405162461bcd60e51b815260206004820152601d60248201527f416464726573733a20696e73756666696369656e742062616c616e636500000060448201526064016102fd565b6000826001600160a01b03168260405160006040518083038185875af1925050503d806000811461089b576040519150601f19603f3d011682016040523d82523d6000602084013e6108a0565b606091505b50509050806109175760405162461bcd60e51b815260206004820152603a60248201527f416464726573733a20756e61626c6520746f2073656e642076616c75652c207260448201527f6563697069656e74206d6179206861766520726576657274656400000000000060648201526084016102fd565b505050565b6033546001600160a01b0316331461038e5760405162461bcd60e51b815260206004820181905260248201527f4f776e61626c653a2063616c6c6572206973206e6f7420746865206f776e657260448201526064016102fd565b603380546001600160a01b038381166001600160a01b0319831681179093556040519116919082907f8be0079c531659141344cd1fd0a4f28419497f9722a3daafe3b4186f6b6457e090600090a35050565b600054610100900460ff166109ef5760405162461bcd60e51b81526004016102fd90610a8c565b61038e600054610100900460ff16610a195760405162461bcd60e51b81526004016102fd90610a8c565b61038e33610976565b600060208284031215610a33578081fd5b8135610a3e81610b5b565b9392505050565b600060208284031215610a56578081fd5b5035919050565b60008060408385031215610a6f578081fd5b823591506020830135610a8181610b5b565b809150509250929050565b6020808252602b908201527f496e697469616c697a61626c653a20636f6e7472616374206973206e6f74206960408201526a6e697469616c697a696e6760a81b606082015260800190565b60008219821115610aea57610aea610b45565b500190565b600082610b0a57634e487b7160e01b81526012600452602481fd5b500490565b6000816000190483118215151615610b2957610b29610b45565b500290565b600082821015610b4057610b40610b45565b500390565b634e487b7160e01b600052601160045260246000fd5b6001600160a01b038116811461035657600080fdfea2646970667358221220e0652ba420af7c57e82dac8df0f681d530494b2a1e2a0fd1092abc67f760da7d64736f6c63430008040033",
  "linkReferences": {},
  "deployedLinkReferences": {}
}