{
  "_format": "hh-sol-artifact-1",
  "contractName": "Withdrawal",
  "sourceName": "contracts/Withdrawal.sol",
  "abi": [
    {
      "anonymous": false,
      "inputs": [
        {
          "indexed": true,
          "internalType": "address",
          "name": "user",
          "type": "address"
        },
        {
          "indexed": false,
          "internalType": "uint256",
          "name": "amount",
          "type": "uint256"
        },
        {
          "indexed": false,
          "internalType": "uint256",
          "name": "unlockEpoch",
          "type": "uint256"
        }
      ],
      "name": "CompleteWithdraw",
      "type": "event"
    },
    {
      "anonymous": false,
      "inputs": [
        {
          "indexed": false,
          "internalType": "uint8",
          "name": "version",
          "type": "uint8"
        }
      ],
      "name": "Initialized",
      "type": "event"
    },
    {
      "anonymous": false,
      "inputs": [
        {
          "indexed": true,
          "internalType": "address",
          "name": "previousOwner",
          "type": "address"
        },
        {
          "indexed": true,
          "internalType": "address",
          "name": "newOwner",
          "type": "address"
        }
      ],
      "name": "OwnershipTransferred",
      "type": "event"
    },
    {
      "anonymous": false,
      "inputs": [
        {
          "indexed": true,
          "internalType": "address",
          "name": "user",
          "type": "address"
        },
        {
          "indexed": false,
          "internalType": "uint256",
          "name": "amount",
          "type": "uint256"
        },
        {
          "indexed": false,
          "internalType": "uint256",
          "name": "unlockEpoch",
          "type": "uint256"
        }
      ],
      "name": "RequestWithdraw",
      "type": "event"
    },
    {
      "inputs": [],
      "name": "completeWithdraw",
      "outputs": [],
      "stateMutability": "nonpayable",
      "type": "function"
    },
    {
      "inputs": [],
      "name": "ethRemaining",
      "outputs": [
        {
          "internalType": "uint256",
          "name": "",
          "type": "uint256"
        }
      ],
      "stateMutability": "view",
      "type": "function"
    },
    {
      "inputs": [],
      "name": "getEpoch",
      "outputs": [
        {
          "internalType": "uint256",
          "name": "epoch",
          "type": "uint256"
        }
      ],
      "stateMutability": "view",
      "type": "function"
    },
    {
      "inputs": [
        {
          "internalType": "uint256",
          "name": "_amount",
          "type": "uint256"
        }
      ],
      "name": "getEthForValidator",
      "outputs": [],
      "stateMutability": "nonpayable",
      "type": "function"
    },
    {
      "inputs": [
        {
          "internalType": "address payable",
          "name": "_mpETH",
          "type": "address"
        }
      ],
      "name": "initialize",
      "outputs": [],
      "stateMutability": "nonpayable",
      "type": "function"
    },
    {
      "inputs": [],
      "name": "mpETH",
      "outputs": [
        {
          "internalType": "address payable",
          "name": "",
          "type": "address"
        }
      ],
      "stateMutability": "view",
      "type": "function"
    },
    {
      "inputs": [],
      "name": "owner",
      "outputs": [
        {
          "internalType": "address",
          "name": "",
          "type": "address"
        }
      ],
      "stateMutability": "view",
      "type": "function"
    },
    {
      "inputs": [
        {
          "internalType": "address",
          "name": "",
          "type": "address"
        }
      ],
      "name": "pendingWithdraws",
      "outputs": [
        {
          "internalType": "uint256",
          "name": "amount",
          "type": "uint256"
        },
        {
          "internalType": "uint256",
          "name": "unlockEpoch",
          "type": "uint256"
        }
      ],
      "stateMutability": "view",
      "type": "function"
    },
    {
      "inputs": [],
      "name": "renounceOwnership",
      "outputs": [],
      "stateMutability": "nonpayable",
      "type": "function"
    },
    {
      "inputs": [
        {
          "internalType": "uint256",
          "name": "_amountOut",
          "type": "uint256"
        },
        {
          "internalType": "address",
          "name": "_user",
          "type": "address"
        }
      ],
      "name": "requestWithdraw",
      "outputs": [],
      "stateMutability": "nonpayable",
      "type": "function"
    },
    {
      "inputs": [],
      "name": "totalPendingWithdraw",
      "outputs": [
        {
          "internalType": "uint256",
          "name": "",
          "type": "uint256"
        }
      ],
      "stateMutability": "view",
      "type": "function"
    },
    {
      "inputs": [
        {
          "internalType": "address",
          "name": "newOwner",
          "type": "address"
        }
      ],
      "name": "transferOwnership",
      "outputs": [],
      "stateMutability": "nonpayable",
      "type": "function"
    },
    {
      "stateMutability": "payable",
      "type": "receive"
    }
  ],
  "bytecode": "0x608060405234801561001057600080fd5b50610adb806100206000396000f3fe6080604052600436106100ab5760003560e01c8063c4d66de811610064578063c4d66de814610181578063ccc143b8146101a1578063f2fde38b146101c1578063f756fa21146101e1578063f7fc7002146101f6578063fa14d4811461020c57600080fd5b80633701206b146100b7578063405657f9146100d95780634c67a42914610116578063715018a614610139578063757991a81461014e5780638da5cb5b1461016357600080fd5b366100b257005b600080fd5b3480156100c357600080fd5b506100d76100d2366004610974565b610255565b005b3480156100e557600080fd5b506065546100f9906001600160a01b031681565b6040516001600160a01b0390911681526020015b60405180910390f35b34801561012257600080fd5b5061012b6102d2565b60405190815260200161010d565b34801561014557600080fd5b506100d76102f5565b34801561015a57600080fd5b5061012b610309565b34801561016f57600080fd5b506033546001600160a01b03166100f9565b34801561018d57600080fd5b506100d761019c3660046109a2565b610327565b3480156101ad57600080fd5b506100d76101bc3660046109c6565b610461565b3480156101cd57600080fd5b506100d76101dc3660046109a2565b610580565b3480156101ed57600080fd5b506100d76105f6565b34801561020257600080fd5b5061012b60665481565b34801561021857600080fd5b506102406102273660046109a2565b6068602052600090815260409020805460019091015482565b6040805192835260208301919091520161010d565b61025d610750565b6102656102d2565b8111156102b95760405162461bcd60e51b815260206004820152601760248201527f4e6f7420656e6f7567682045544820746f207374616b6500000000000000000060448201526064015b60405180910390fd5b6065546102cf906001600160a01b0316826107aa565b50565b600060665447116102e35750600090565b6066546102f09047610a0c565b905090565b6102fd610750565b61030760006108c8565b565b600062093a806067544261031d9190610a0c565b6102f09190610a25565b600054610100900460ff16158080156103475750600054600160ff909116105b806103615750303b158015610361575060005460ff166001145b6103c45760405162461bcd60e51b815260206004820152602e60248201527f496e697469616c697a61626c653a20636f6e747261637420697320616c72656160448201526d191e481a5b9a5d1a585b1a5e995960921b60648201526084016102b0565b6000805460ff1916600117905580156103e7576000805461ff0019166101001790555b42606755606580546001600160a01b0319166001600160a01b03841617905561040e61091a565b61041782610580565b801561045d576000805461ff0019169055604051600181527f7f26b83ff96e1f2b6a682f133852f6798a09c465da95921460cefb38474024989060200160405180910390a15b5050565b6065546001600160a01b031633146104bb5760405162461bcd60e51b815260206004820152601e60248201527f43616c6c6572206973206e6f74207374616b696e6720636f6e7472616374000060448201526064016102b0565b60006104c5610309565b6104d0906001610a47565b6001600160a01b0383166000908152606860205260408120805492935085929091906104fd908490610a47565b90915550506001600160a01b038216600090815260686020526040812060010182905560668054859290610532908490610a47565b909155505060408051848152602081018390526001600160a01b038416917febeaa8785285a4f7c37a305351997dceebabc3c357dab98023dc37514a1b6ed6910160405180910390a2505050565b610588610750565b6001600160a01b0381166105ed5760405162461bcd60e51b815260206004820152602660248201527f4f776e61626c653a206e6577206f776e657220697320746865207a65726f206160448201526564647265737360d01b60648201526084016102b0565b6102cf816108c8565b3360009081526068602090815260409182902082518084019093528054835260010154908201819052610627610309565b10156106755760405162461bcd60e51b815260206004820152601c60248201527f5769746864726177616c2064656c6179206e6f7420726561636865640000000060448201526064016102b0565b80516106b95760405162461bcd60e51b81526020600482015260136024820152724e6f7468696e6720746f20776974686472617760681b60448201526064016102b0565b604080518082018252600080825260208083018281523383526068909152928120915182559151600190910155815160668054919290916106fb908490610a0c565b9091555050805161070d9033906107aa565b8051602080830151604080519384529183015233917fa7952fcf1aa05ca494ca81b36018d749ac933a4f76e87ccdcd31cc6a202a785e910160405180910390a250565b6033546001600160a01b031633146103075760405162461bcd60e51b815260206004820181905260248201527f4f776e61626c653a2063616c6c6572206973206e6f7420746865206f776e657260448201526064016102b0565b804710156107fa5760405162461bcd60e51b815260206004820152601d60248201527f416464726573733a20696e73756666696369656e742062616c616e636500000060448201526064016102b0565b6000826001600160a01b03168260405160006040518083038185875af1925050503d8060008114610847576040519150601f19603f3d011682016040523d82523d6000602084013e61084c565b606091505b50509050806108c35760405162461bcd60e51b815260206004820152603a60248201527f416464726573733a20756e61626c6520746f2073656e642076616c75652c207260448201527f6563697069656e74206d6179206861766520726576657274656400000000000060648201526084016102b0565b505050565b603380546001600160a01b038381166001600160a01b0319831681179093556040519116919082907f8be0079c531659141344cd1fd0a4f28419497f9722a3daafe3b4186f6b6457e090600090a35050565b600054610100900460ff166109415760405162461bcd60e51b81526004016102b090610a5a565b610307600054610100900460ff1661096b5760405162461bcd60e51b81526004016102b090610a5a565b610307336108c8565b60006020828403121561098657600080fd5b5035919050565b6001600160a01b03811681146102cf57600080fd5b6000602082840312156109b457600080fd5b81356109bf8161098d565b9392505050565b600080604083850312156109d957600080fd5b8235915060208301356109eb8161098d565b809150509250929050565b634e487b7160e01b600052601160045260246000fd5b81810381811115610a1f57610a1f6109f6565b92915050565b600082610a4257634e487b7160e01b600052601260045260246000fd5b500490565b80820180821115610a1f57610a1f6109f6565b6020808252602b908201527f496e697469616c697a61626c653a20636f6e7472616374206973206e6f74206960408201526a6e697469616c697a696e6760a81b60608201526080019056fea26469706673582212208d00f171c4202acd4fa9aad884a0fe4d5f4a059a7a576726ece9b75e475031f964736f6c63430008110033",
  "linkReferences": {},
  "deployedLinkReferences": {}
}