{
  "_format": "hh-sol-artifact-1",
  "contractName": "Withdrawal",
  "sourceName": "contracts/Withdrawal.sol",
  "abi": [
    {
      "inputs": [
        {
          "internalType": "uint256",
          "name": "timestampUnlock",
          "type": "uint256"
        }
      ],
      "name": "ClaimTooSoon",
      "type": "error"
    },
    {
      "inputs": [
        {
          "internalType": "uint256",
          "name": "_currentEpoch",
          "type": "uint256"
        },
        {
          "internalType": "uint256",
          "name": "_unlockEpoch",
          "type": "uint256"
        }
      ],
      "name": "EpochNotReached",
      "type": "error"
    },
    {
      "inputs": [
        {
          "internalType": "uint256",
          "name": "valueSent",
          "type": "uint256"
        },
        {
          "internalType": "uint256",
          "name": "maxValue",
          "type": "uint256"
        }
      ],
      "name": "InvalidConfig",
      "type": "error"
    },
    {
      "inputs": [
        {
          "internalType": "address",
          "name": "_caller",
          "type": "address"
        },
        {
          "internalType": "address",
          "name": "_authorized",
          "type": "address"
        }
      ],
      "name": "NotAuthorized",
      "type": "error"
    },
    {
      "inputs": [
        {
          "internalType": "uint256",
          "name": "_requested",
          "type": "uint256"
        },
        {
          "internalType": "uint256",
          "name": "_available",
          "type": "uint256"
        }
      ],
      "name": "NotEnoughETHtoStake",
      "type": "error"
    },
    {
      "inputs": [
        {
          "internalType": "address",
          "name": "_user",
          "type": "address"
        }
      ],
      "name": "UserDontHavePendingWithdraw",
      "type": "error"
    },
    {
      "inputs": [
        {
          "internalType": "uint256",
          "name": "_currentEpoch",
          "type": "uint256"
        },
        {
          "internalType": "uint256",
          "name": "_startEpoch",
          "type": "uint256"
        }
      ],
      "name": "WithdrawalsNotStarted",
      "type": "error"
    },
    {
      "anonymous": false,
      "inputs": [
        {
          "indexed": true,
          "internalType": "address",
          "name": "caller",
          "type": "address"
        },
        {
          "indexed": false,
          "internalType": "uint256",
          "name": "amount",
          "type": "uint256"
        },
        {
          "indexed": false,
          "internalType": "address",
          "name": "receiver",
          "type": "address"
        },
        {
          "indexed": false,
          "internalType": "uint256",
          "name": "unlockEpoch",
          "type": "uint256"
        }
      ],
      "name": "CompleteWithdraw",
      "type": "event"
    },
    {
      "anonymous": false,
      "inputs": [
        {
          "indexed": false,
          "internalType": "uint8",
          "name": "version",
          "type": "uint8"
        }
      ],
      "name": "Initialized",
      "type": "event"
    },
    {
      "anonymous": false,
      "inputs": [
        {
          "indexed": true,
          "internalType": "address",
          "name": "previousOwner",
          "type": "address"
        },
        {
          "indexed": true,
          "internalType": "address",
          "name": "newOwner",
          "type": "address"
        }
      ],
      "name": "OwnershipTransferred",
      "type": "event"
    },
    {
      "anonymous": false,
      "inputs": [
        {
          "indexed": true,
          "internalType": "address",
          "name": "caller",
          "type": "address"
        },
        {
          "indexed": false,
          "internalType": "uint256",
          "name": "amount",
          "type": "uint256"
        },
        {
          "indexed": false,
          "internalType": "address",
          "name": "receiver",
          "type": "address"
        },
        {
          "indexed": false,
          "internalType": "uint256",
          "name": "unlockEpoch",
          "type": "uint256"
        }
      ],
      "name": "RequestWithdraw",
      "type": "event"
    },
    {
      "inputs": [],
      "name": "MAX_VALIDATORS_DISASSEMBLE_TIME",
      "outputs": [
        {
          "internalType": "uint32",
          "name": "",
          "type": "uint32"
        }
      ],
      "stateMutability": "view",
      "type": "function"
    },
    {
      "inputs": [],
      "name": "completeWithdraw",
      "outputs": [],
      "stateMutability": "nonpayable",
      "type": "function"
    },
    {
      "inputs": [],
      "name": "getEpoch",
      "outputs": [
        {
          "internalType": "uint256",
          "name": "epoch",
          "type": "uint256"
        }
      ],
      "stateMutability": "view",
      "type": "function"
    },
    {
      "inputs": [
        {
          "internalType": "uint256",
          "name": "_epoch",
          "type": "uint256"
        }
      ],
      "name": "getEpochStartTime",
      "outputs": [
        {
          "internalType": "uint256",
          "name": "",
          "type": "uint256"
        }
      ],
      "stateMutability": "view",
      "type": "function"
    },
    {
      "inputs": [],
      "name": "getEpochTimeLeft",
      "outputs": [
        {
          "internalType": "uint256",
          "name": "",
          "type": "uint256"
        }
      ],
      "stateMutability": "view",
      "type": "function"
    },
    {
      "inputs": [
        {
          "internalType": "uint256",
          "name": "_amount",
          "type": "uint256"
        }
      ],
      "name": "getEthForValidator",
      "outputs": [],
      "stateMutability": "nonpayable",
      "type": "function"
    },
    {
      "inputs": [
        {
          "internalType": "address payable",
          "name": "_mpETH",
          "type": "address"
        }
      ],
      "name": "initialize",
      "outputs": [],
      "stateMutability": "nonpayable",
      "type": "function"
    },
    {
      "inputs": [],
      "name": "mpETH",
      "outputs": [
        {
          "internalType": "address payable",
          "name": "",
          "type": "address"
        }
      ],
      "stateMutability": "view",
      "type": "function"
    },
    {
      "inputs": [],
      "name": "owner",
      "outputs": [
        {
          "internalType": "address",
          "name": "",
          "type": "address"
        }
      ],
      "stateMutability": "view",
      "type": "function"
    },
    {
      "inputs": [
        {
          "internalType": "address",
          "name": "",
          "type": "address"
        }
      ],
      "name": "pendingWithdraws",
      "outputs": [
        {
          "internalType": "uint256",
          "name": "amount",
          "type": "uint256"
        },
        {
          "internalType": "uint256",
          "name": "unlockEpoch",
          "type": "uint256"
        },
        {
          "internalType": "address",
          "name": "receiver",
          "type": "address"
        }
      ],
      "stateMutability": "view",
      "type": "function"
    },
    {
      "inputs": [],
      "name": "renounceOwnership",
      "outputs": [],
      "stateMutability": "nonpayable",
      "type": "function"
    },
    {
      "inputs": [
        {
          "internalType": "uint256",
          "name": "_amountOut",
          "type": "uint256"
        },
        {
          "internalType": "address",
          "name": "_user",
          "type": "address"
        },
        {
          "internalType": "address",
          "name": "_receiver",
          "type": "address"
        }
      ],
      "name": "requestWithdraw",
      "outputs": [],
      "stateMutability": "nonpayable",
      "type": "function"
    },
    {
      "inputs": [
        {
          "internalType": "uint32",
          "name": "_disassembleTime",
          "type": "uint32"
        }
      ],
      "name": "setValidatorsDisassembleTime",
      "outputs": [],
      "stateMutability": "nonpayable",
      "type": "function"
    },
    {
      "inputs": [
        {
          "internalType": "uint8",
          "name": "_epoch",
          "type": "uint8"
        }
      ],
      "name": "setWithdrawalsStartEpoch",
      "outputs": [],
      "stateMutability": "nonpayable",
      "type": "function"
    },
    {
      "inputs": [],
      "name": "startTimestamp",
      "outputs": [
        {
          "internalType": "uint256",
          "name": "",
          "type": "uint256"
        }
      ],
      "stateMutability": "view",
      "type": "function"
    },
    {
      "inputs": [],
      "name": "totalPendingWithdraw",
      "outputs": [
        {
          "internalType": "uint256",
          "name": "",
          "type": "uint256"
        }
      ],
      "stateMutability": "view",
      "type": "function"
    },
    {
      "inputs": [
        {
          "internalType": "address",
          "name": "newOwner",
          "type": "address"
        }
      ],
      "name": "transferOwnership",
      "outputs": [],
      "stateMutability": "nonpayable",
      "type": "function"
    },
    {
      "inputs": [],
      "name": "validatorsDisassembleTime",
      "outputs": [
        {
          "internalType": "uint32",
          "name": "",
          "type": "uint32"
        }
      ],
      "stateMutability": "view",
      "type": "function"
    },
    {
      "inputs": [],
      "name": "withdrawalsStartEpoch",
      "outputs": [
        {
          "internalType": "uint8",
          "name": "",
          "type": "uint8"
        }
      ],
      "stateMutability": "view",
      "type": "function"
    },
    {
      "stateMutability": "payable",
      "type": "receive"
    }
  ],
  "bytecode": "0x608060405234801561001057600080fd5b50610ee7806100206000396000f3fe6080604052600436106101175760003560e01c8063715018a6116100a0578063e6fd48bc11610064578063e6fd48bc14610307578063f2fde38b1461031d578063f756fa211461033d578063f7fc700214610352578063fa14d4811461036857600080fd5b8063715018a61461028a578063750f0ba61461029f578063757991a8146102b45780638da5cb5b146102c9578063c4d66de8146102e757600080fd5b80633ba00415116100e75780633ba00415146101b6578063405657f9146101d857806361dd0ea514610210578063633e9e091461023c57806367305ec21461026a57600080fd5b80620101a01461012357806309e411fd1461015457806332f25a3a146101765780633701206b1461019657600080fd5b3661011e57005b600080fd5b34801561012f57600080fd5b5061013a6276a70081565b60405163ffffffff90911681526020015b60405180910390f35b34801561016057600080fd5b5061017461016f366004610dac565b6103d1565b005b34801561018257600080fd5b50610174610191366004610d47565b610425565b3480156101a257600080fd5b506101746101b1366004610d2f565b61058c565b3480156101c257600080fd5b5060695461013a90610100900463ffffffff1681565b3480156101e457600080fd5b506065546101f8906001600160a01b031681565b6040516001600160a01b03909116815260200161014b565b34801561021c57600080fd5b5060695461022a9060ff1681565b60405160ff909116815260200161014b565b34801561024857600080fd5b5061025c610257366004610d2f565b610650565b60405190815260200161014b565b34801561027657600080fd5b50610174610285366004610d88565b610672565b34801561029657600080fd5b506101746106d7565b3480156102ab57600080fd5b5061025c6106eb565b3480156102c057600080fd5b5061025c61072a565b3480156102d557600080fd5b506033546001600160a01b03166101f8565b3480156102f357600080fd5b50610174610302366004610d0c565b610748565b34801561031357600080fd5b5061025c60675481565b34801561032957600080fd5b50610174610338366004610d0c565b6108ea565b34801561034957600080fd5b50610174610963565b34801561035e57600080fd5b5061025c60665481565b34801561037457600080fd5b506103ad610383366004610d0c565b6068602052600090815260409020805460018201546002909201549091906001600160a01b031683565b6040805193845260208401929092526001600160a01b03169082015260600161014b565b6103d9610ae8565b60208160ff16111561040f57604051636a06bb6560e11b815260ff82166004820152602060248201526044015b60405180910390fd5b6069805460ff191660ff92909216919091179055565b6065546001600160a01b031633146104655760655460405163c55ddc9760e01b81523360048201526001600160a01b039091166024820152604401610406565b600061046f61072a565b60695490915060ff168110156104a8576069546040516392638fb760e01b81526004810183905260ff9091166024820152604401610406565b60006104b5826001610e18565b6001600160a01b0385166000908152606860205260408120805492935087929091906104e2908490610e18565b90915550506001600160a01b0384811660009081526068602052604081206001810184905560020180546001600160a01b0319169286169290921790915560668054879290610532908490610e18565b9091555050604080518681526001600160a01b038581166020830152918101839052908516907fd49d4546791beefb79e592ab12e9eea6586cb0ae680bafd50d535d0835374ef39060600160405180910390a25050505050565b6065546001600160a01b031633146105cc5760655460405163c55ddc9760e01b81523360048201526001600160a01b039091166024820152604401610406565b4760665411156105f957604051631cd24c3160e11b81526004810182905260006024820152604401610406565b6000606654476106099190610e6f565b90508082111561063657604051631cd24c3160e11b81526004810183905260248101829052604401610406565b60655461064c906001600160a01b031683610b42565b5050565b600061065f8262093a80610e50565b60675461066c9190610e18565b92915050565b61067a610ae8565b6276a70063ffffffff821611156106b557604051636a06bb6560e11b815263ffffffff821660048201526276a7006024820152604401610406565b6069805463ffffffff9092166101000264ffffffff0019909216919091179055565b6106df610ae8565b6106e96000610c60565b565b6000426106f661072a565b610701906001610e18565b61070e9062093a80610e50565b60675461071b9190610e18565b6107259190610e6f565b905090565b600062093a806067544261073e9190610e6f565b6107259190610e30565b600054610100900460ff16158080156107685750600054600160ff909116105b806107825750303b158015610782575060005460ff166001145b6107e55760405162461bcd60e51b815260206004820152602e60248201527f496e697469616c697a61626c653a20636f6e747261637420697320616c72656160448201526d191e481a5b9a5d1a585b1a5e995960921b6064820152608401610406565b6000805460ff191660011790558015610808576000805461ff0019166101001790555b47156108645760405162461bcd60e51b815260206004820152602560248201527f4572726f7220696e697469616c697a652077697468206e6f207a65726f2062616044820152646c616e636560d81b6064820152608401610406565b61086c610cb2565b42606755606580546001600160a01b0319166001600160a01b03841617905561089560086103d1565b6108a162093a80610672565b801561064c576000805461ff0019169055604051600181527f7f26b83ff96e1f2b6a682f133852f6798a09c465da95921460cefb38474024989060200160405180910390a15050565b6108f2610ae8565b6001600160a01b0381166109575760405162461bcd60e51b815260206004820152602660248201527f4f776e61626c653a206e6577206f776e657220697320746865207a65726f206160448201526564647265737360d01b6064820152608401610406565b61096081610c60565b50565b33600090815260686020908152604091829020825160608101845281548082526001830154938201939093526002909101546001600160a01b0316928101929092526109c457604051632285814f60e01b8152336004820152602401610406565b6069546020820151600091610100900463ffffffff16906109e490610650565b6109ee9190610e18565b905080421015610a1457604051630854f3dd60e41b815260048101829052602401610406565b60408201516001600160a01b0316610a2d573360408301525b815160668054600090610a41908490610e6f565b9091555050336000908152606860205260408082208281556001810192909255600290910180546001600160a01b0319169055825190830151610a8f916001600160a01b0390911690610b42565b815160408084015160208086015183519485526001600160a01b03909216908401529082015233907f4ad6c9db614816b1d4fdd5a52f2080b9917d523b6e804ebd14e96182278c8c1f9060600160405180910390a25050565b6033546001600160a01b031633146106e95760405162461bcd60e51b815260206004820181905260248201527f4f776e61626c653a2063616c6c6572206973206e6f7420746865206f776e65726044820152606401610406565b80471015610b925760405162461bcd60e51b815260206004820152601d60248201527f416464726573733a20696e73756666696369656e742062616c616e63650000006044820152606401610406565b6000826001600160a01b03168260405160006040518083038185875af1925050503d8060008114610bdf576040519150601f19603f3d011682016040523d82523d6000602084013e610be4565b606091505b5050905080610c5b5760405162461bcd60e51b815260206004820152603a60248201527f416464726573733a20756e61626c6520746f2073656e642076616c75652c207260448201527f6563697069656e74206d617920686176652072657665727465640000000000006064820152608401610406565b505050565b603380546001600160a01b038381166001600160a01b0319831681179093556040519116919082907f8be0079c531659141344cd1fd0a4f28419497f9722a3daafe3b4186f6b6457e090600090a35050565b600054610100900460ff16610cd95760405162461bcd60e51b815260040161040690610dcd565b6106e9600054610100900460ff16610d035760405162461bcd60e51b815260040161040690610dcd565b6106e933610c60565b600060208284031215610d1d578081fd5b8135610d2881610e9c565b9392505050565b600060208284031215610d40578081fd5b5035919050565b600080600060608486031215610d5b578182fd5b833592506020840135610d6d81610e9c565b91506040840135610d7d81610e9c565b809150509250925092565b600060208284031215610d99578081fd5b813563ffffffff81168114610d28578182fd5b600060208284031215610dbd578081fd5b813560ff81168114610d28578182fd5b6020808252602b908201527f496e697469616c697a61626c653a20636f6e7472616374206973206e6f74206960408201526a6e697469616c697a696e6760a81b606082015260800190565b60008219821115610e2b57610e2b610e86565b500190565b600082610e4b57634e487b7160e01b81526012600452602481fd5b500490565b6000816000190483118215151615610e6a57610e6a610e86565b500290565b600082821015610e8157610e81610e86565b500390565b634e487b7160e01b600052601160045260246000fd5b6001600160a01b038116811461096057600080fdfea2646970667358221220504da59b80a663f746ee57888dc40ebabdbc69925095bd16aadf10767ab0586164736f6c63430008040033",
  "linkReferences": {},
  "deployedLinkReferences": {}
}